{"contracts/presale/Presale.sol":{"Presale":{"abi":[{"inputs":[{"internalType":"address","name":"_presaleManager","type":"address"},{"internalType":"address","name":"_tokenAddress","type":"address"},{"internalType":"uint256","name":"_launchPrice","type":"uint256"},{"internalType":"uint256","name":"_redemptionAmount","type":"uint256"},{"internalType":"string","name":"_subscriptionStartTime","type":"string"},{"internalType":"string","name":"_snapshotStartTime","type":"string"},{"internalType":"string","name":"_snapshotEndTime","type":"string"},{"internalType":"string","name":"_lotteryStartTime","type":"string"},{"internalType":"string","name":"_lotteryEndTime","type":"string"},{"internalType":"string","name":"_redemptionTime","type":"string"}],"stateMutability":"nonpayable","type":"constructor"},{"inputs":[],"name":"claim","outputs":[],"stateMutability":"nonpayable","type":"function"},{"inputs":[],"name":"getTicketAmount","outputs":[{"internalType":"uint256","name":"","type":"uint256"}],"stateMutability":"view","type":"function"},{"inputs":[{"internalType":"address[]","name":"_winners","type":"address[]"}],"name":"getWinners","outputs":[],"stateMutability":"nonpayable","type":"function"},{"inputs":[],"name":"isSubscribed","outputs":[{"internalType":"bool","name":"","type":"bool"}],"stateMutability":"view","type":"function"},{"inputs":[{"internalType":"uint256","name":"_amount","type":"uint256"}],"name":"purchaseTicket","outputs":[],"stateMutability":"payable","type":"function"},{"inputs":[],"name":"refund","outputs":[],"stateMutability":"nonpayable","type":"function"},{"inputs":[],"name":"subscription","outputs":[],"stateMutability":"nonpayable","type":"function"},{"inputs":[{"internalType":"address","name":"","type":"address"}],"name":"winners","outputs":[{"internalType":"bool","name":"","type":"bool"}],"stateMutability":"view","type":"function"}],"evm":{"bytecode":{"linkReferences":{},"object":"60806040523480156200001157600080fd5b506040516200192738038062001927833981810160405281019062000037919062000494565b6040518061012001604052808a73ffffffffffffffffffffffffffffffffffffffff168152602001898152602001888152602001878152602001868152602001858152602001848152602001838152602001828152506000808201518160000160006101000a81548173ffffffffffffffffffffffffffffffffffffffff021916908373ffffffffffffffffffffffffffffffffffffffff1602179055506020820151816001015560408201518160020155606082015181600301908162000100919062000885565b50608082015181600401908162000118919062000885565b5060a082015181600501908162000130919062000885565b5060c082015181600601908162000148919062000885565b5060e082015181600701908162000160919062000885565b5061010082015181600801908162000179919062000885565b5090505089600960006101000a81548173ffffffffffffffffffffffffffffffffffffffff021916908373ffffffffffffffffffffffffffffffffffffffff160217905550600960009054906101000a900473ffffffffffffffffffffffffffffffffffffffff1673ffffffffffffffffffffffffffffffffffffffff16637f59b0448a306040518363ffffffff1660e01b81526004016200021d9291906200097d565b600060405180830381600087803b1580156200023857600080fd5b505af11580156200024d573d6000803e3d6000fd5b5050505050505050505050505050620009aa565b6000604051905090565b600080fd5b600080fd5b600073ffffffffffffffffffffffffffffffffffffffff82169050919050565b6000620002a28262000275565b9050919050565b620002b48162000295565b8114620002c057600080fd5b50565b600081519050620002d481620002a9565b92915050565b6000819050919050565b620002ef81620002da565b8114620002fb57600080fd5b50565b6000815190506200030f81620002e4565b92915050565b600080fd5b600080fd5b6000601f19601f8301169050919050565b7f4e487b7100000000000000000000000000000000000000000000000000000000600052604160045260246000fd5b6200036a826200031f565b810181811067ffffffffffffffff821117156200038c576200038b62000330565b5b80604052505050565b6000620003a162000261565b9050620003af82826200035f565b919050565b600067ffffffffffffffff821115620003d257620003d162000330565b5b620003dd826200031f565b9050602081019050919050565b60005b838110156200040a578082015181840152602081019050620003ed565b60008484015250505050565b60006200042d6200042784620003b4565b62000395565b9050828152602081018484840111156200044c576200044b6200031a565b5b62000459848285620003ea565b509392505050565b600082601f83011262000479576200047862000315565b5b81516200048b84826020860162000416565b91505092915050565b6000806000806000806000806000806101408b8d031215620004bb57620004ba6200026b565b5b6000620004cb8d828e01620002c3565b9a50506020620004de8d828e01620002c3565b9950506040620004f18d828e01620002fe565b9850506060620005048d828e01620002fe565b97505060808b015167ffffffffffffffff81111562000528576200052762000270565b5b620005368d828e0162000461565b96505060a08b015167ffffffffffffffff8111156200055a576200055962000270565b5b620005688d828e0162000461565b95505060c08b015167ffffffffffffffff8111156200058c576200058b62000270565b5b6200059a8d828e0162000461565b94505060e08b015167ffffffffffffffff811115620005be57620005bd62000270565b5b620005cc8d828e0162000461565b9350506101008b015167ffffffffffffffff811115620005f157620005f062000270565b5b620005ff8d828e0162000461565b9250506101208b015167ffffffffffffffff81111562000624576200062362000270565b5b620006328d828e0162000461565b9150509295989b9194979a5092959850565b600081519050919050565b7f4e487b7100000000000000000000000000000000000000000000000000000000600052602260045260246000fd5b600060028204905060018216806200069757607f821691505b602082108103620006ad57620006ac6200064f565b5b50919050565b60008190508160005260206000209050919050565b60006020601f8301049050919050565b600082821b905092915050565b600060088302620007177fffffffffffffffffffffffffffffffffffffffffffffffffffffffffffffffff82620006d8565b620007238683620006d8565b95508019841693508086168417925050509392505050565b6000819050919050565b600062000766620007606200075a84620002da565b6200073b565b620002da565b9050919050565b6000819050919050565b620007828362000745565b6200079a62000791826200076d565b848454620006e5565b825550505050565b600090565b620007b1620007a2565b620007be81848462000777565b505050565b5b81811015620007e657620007da600082620007a7565b600181019050620007c4565b5050565b601f8211156200083557620007ff81620006b3565b6200080a84620006c8565b810160208510156200081a578190505b620008326200082985620006c8565b830182620007c3565b50505b505050565b600082821c905092915050565b60006200085a600019846008026200083a565b1980831691505092915050565b600062000875838362000847565b9150826002028217905092915050565b620008908262000644565b67ffffffffffffffff811115620008ac57620008ab62000330565b5b620008b882546200067e565b620008c5828285620007ea565b600060209050601f831160018114620008fd5760008415620008e8578287015190505b620008f4858262000867565b86555062000964565b601f1984166200090d86620006b3565b60005b82811015620009375784890151825560018201915060208501945060208101905062000910565b8683101562000957578489015162000953601f89168262000847565b8355505b6001600288020188555050505b505050505050565b620009778162000295565b82525050565b60006040820190506200099460008301856200096c565b620009a360208301846200096c565b9392505050565b610f6d80620009ba6000396000f3fe60806040526004361061007b5760003560e01c80636bd5450a1161004e5780636bd5450a146100ee5780636cf699581461012b5780638a28155414610156578063b948348c146101815761007b565b806340771c731461008057806344387cc2146100a95780634e71d92d146100c0578063590e1ae3146100d7575b600080fd5b34801561008c57600080fd5b506100a760048036038101906100a29190610952565b61019d565b005b3480156100b557600080fd5b506100be61023c565b005b3480156100cc57600080fd5b506100d5610386565b005b3480156100e357600080fd5b506100ec610585565b005b3480156100fa57600080fd5b50610115600480360381019061011091906109fd565b610771565b6040516101229190610a45565b60405180910390f35b34801561013757600080fd5b50610140610791565b60405161014d9190610a79565b60405180910390f35b34801561016257600080fd5b5061016b6107d8565b6040516101789190610a45565b60405180910390f35b61019b60048036038101906101969190610ac0565b61082c565b005b60005b82829050811015610237576001600d60008585858181106101c4576101c3610aed565b5b90506020020160208101906101d991906109fd565b73ffffffffffffffffffffffffffffffffffffffff1673ffffffffffffffffffffffffffffffffffffffff16815260200190815260200160002060006101000a81548160ff02191690831515021790555080806001019150506101a0565b505050565b600e60003373ffffffffffffffffffffffffffffffffffffffff1673ffffffffffffffffffffffffffffffffffffffff16815260200190815260200160002060009054906101000a900460ff16156102c9576040517f08c379a00000000000000000000000000000000000000000000000000000000081526004016102c090610b79565b60405180910390fd5b6001600e60003373ffffffffffffffffffffffffffffffffffffffff1673ffffffffffffffffffffffffffffffffffffffff16815260200190815260200160002060006101000a81548160ff021916908315150217905550600f339080600181540180825580915050600190039060005260206000200160009091909190916101000a81548173ffffffffffffffffffffffffffffffffffffffff021916908373ffffffffffffffffffffffffffffffffffffffff160217905550565b600d60003373ffffffffffffffffffffffffffffffffffffffff1673ffffffffffffffffffffffffffffffffffffffff16815260200190815260200160002060009054906101000a900460ff16610412576040517f08c379a000000000000000000000000000000000000000000000000000000000815260040161040990610be5565b60405180910390fd5b60008060000160009054906101000a900473ffffffffffffffffffffffffffffffffffffffff16905060008173ffffffffffffffffffffffffffffffffffffffff1663a9059cbb33600c60003373ffffffffffffffffffffffffffffffffffffffff1673ffffffffffffffffffffffffffffffffffffffff168152602001908152602001600020546040518363ffffffff1660e01b81526004016104b7929190610c14565b6020604051808303816000875af11580156104d6573d6000803e3d6000fd5b505050506040513d601f19601f820116820180604052508101906104fa9190610c69565b90508061053c576040517f08c379a000000000000000000000000000000000000000000000000000000000815260040161053390610d08565b60405180910390fd5b6000600c60003373ffffffffffffffffffffffffffffffffffffffff1673ffffffffffffffffffffffffffffffffffffffff168152602001908152602001600020819055505050565b600d60003373ffffffffffffffffffffffffffffffffffffffff1673ffffffffffffffffffffffffffffffffffffffff16815260200190815260200160002060009054906101000a900460ff1615610612576040517f08c379a000000000000000000000000000000000000000000000000000000000815260040161060990610d74565b60405180910390fd5b6000600c60003373ffffffffffffffffffffffffffffffffffffffff1673ffffffffffffffffffffffffffffffffffffffff1681526020019081526020016000205414610694576040517f08c379a000000000000000000000000000000000000000000000000000000000815260040161068b90610e06565b60405180910390fd5b3373ffffffffffffffffffffffffffffffffffffffff166108fc600060020154600c60003373ffffffffffffffffffffffffffffffffffffffff1673ffffffffffffffffffffffffffffffffffffffff168152602001908152602001600020546106fe9190610e55565b9081150290604051600060405180830381858888f19350505050158015610729573d6000803e3d6000fd5b506000600c60003373ffffffffffffffffffffffffffffffffffffffff1673ffffffffffffffffffffffffffffffffffffffff16815260200190815260200160002081905550565b600d6020528060005260406000206000915054906101000a900460ff1681565b6000600c60003373ffffffffffffffffffffffffffffffffffffffff1673ffffffffffffffffffffffffffffffffffffffff16815260200190815260200160002054905090565b6000600e60003373ffffffffffffffffffffffffffffffffffffffff1673ffffffffffffffffffffffffffffffffffffffff16815260200190815260200160002060009054906101000a900460ff16905090565b8060006002015461083d9190610e55565b81346108499190610e55565b101561088a576040517f08c379a000000000000000000000000000000000000000000000000000000000815260040161088190610ee3565b60405180910390fd5b80600c60003373ffffffffffffffffffffffffffffffffffffffff1673ffffffffffffffffffffffffffffffffffffffff16815260200190815260200160002060008282546108d99190610f03565b9250508190555050565b600080fd5b600080fd5b600080fd5b600080fd5b600080fd5b60008083601f840112610912576109116108ed565b5b8235905067ffffffffffffffff81111561092f5761092e6108f2565b5b60208301915083602082028301111561094b5761094a6108f7565b5b9250929050565b60008060208385031215610969576109686108e3565b5b600083013567ffffffffffffffff811115610987576109866108e8565b5b610993858286016108fc565b92509250509250929050565b600073ffffffffffffffffffffffffffffffffffffffff82169050919050565b60006109ca8261099f565b9050919050565b6109da816109bf565b81146109e557600080fd5b50565b6000813590506109f7816109d1565b92915050565b600060208284031215610a1357610a126108e3565b5b6000610a21848285016109e8565b91505092915050565b60008115159050919050565b610a3f81610a2a565b82525050565b6000602082019050610a5a6000830184610a36565b92915050565b6000819050919050565b610a7381610a60565b82525050565b6000602082019050610a8e6000830184610a6a565b92915050565b610a9d81610a60565b8114610aa857600080fd5b50565b600081359050610aba81610a94565b92915050565b600060208284031215610ad657610ad56108e3565b5b6000610ae484828501610aab565b91505092915050565b7f4e487b7100000000000000000000000000000000000000000000000000000000600052603260045260246000fd5b600082825260208201905092915050565b7fec9db4ebafb820eab5aceb8f8520eca491ec9e85eb8b88eb8ba42e0000000000600082015250565b6000610b63601b83610b1c565b9150610b6e82610b2d565b602082019050919050565b60006020820190508181036000830152610b9281610b56565b9050919050565b7feb8bb9ecb2a8eb9098eca78020ec958aec9598ec8ab5eb8b88eb8ba42e000000600082015250565b6000610bcf601d83610b1c565b9150610bda82610b99565b602082019050919050565b60006020820190508181036000830152610bfe81610bc2565b9050919050565b610c0e816109bf565b82525050565b6000604082019050610c296000830185610c05565b610c366020830184610a6a565b9392505050565b610c4681610a2a565b8114610c5157600080fd5b50565b600081519050610c6381610c3d565b92915050565b600060208284031215610c7f57610c7e6108e3565b5b6000610c8d84828501610c54565b91505092915050565b7fed86a0ed81b020eca084ec86a1ec9db420ec8ba4ed8ca8ed9688ec8ab5eb8b8860008201527feb8ba42e00000000000000000000000000000000000000000000000000000000602082015250565b6000610cf2602483610b1c565b9150610cfd82610c96565b604082019050919050565b60006020820190508181036000830152610d2181610ce5565b9050919050565b7fed9998ebb688ebb09bec9d8420ec889820ec9786ec8ab5eb8b88eb8ba42e0000600082015250565b6000610d5e601e83610b1c565b9150610d6982610d28565b602082019050919050565b60006020820190508181036000830152610d8d81610d51565b9050919050565b7feab5aceba7a4ed959c20ed8bb0ecbc93ec9db420ec9786ec8ab5eb8b88eb8ba460008201527f2e00000000000000000000000000000000000000000000000000000000000000602082015250565b6000610df0602183610b1c565b9150610dfb82610d94565b604082019050919050565b60006020820190508181036000830152610e1f81610de3565b9050919050565b7f4e487b7100000000000000000000000000000000000000000000000000000000600052601160045260246000fd5b6000610e6082610a60565b9150610e6b83610a60565b9250828202610e7981610a60565b91508282048414831517610e9057610e8f610e26565b5b5092915050565b7feab888ec95a1ec9db420ebb680eca1b1ed95a9eb8b88eb8ba42e000000000000600082015250565b6000610ecd601a83610b1c565b9150610ed882610e97565b602082019050919050565b60006020820190508181036000830152610efc81610ec0565b9050919050565b6000610f0e82610a60565b9150610f1983610a60565b9250828201905080821115610f3157610f30610e26565b5b9291505056fea26469706673582212205adeb0a8820be2369e9027e4c6a2a8cc645e243207c14ff6e8e634a63a5a8ad864736f6c63430008180033","opcodes":"PUSH1 0x80 PUSH1 0x40 MSTORE CALLVALUE DUP1 ISZERO PUSH3 0x11 JUMPI PUSH1 0x0 DUP1 REVERT JUMPDEST POP PUSH1 0x40 MLOAD PUSH3 0x1927 CODESIZE SUB DUP1 PUSH3 0x1927 DUP4 CODECOPY DUP2 DUP2 ADD PUSH1 0x40 MSTORE DUP2 ADD SWAP1 PUSH3 0x37 SWAP2 SWAP1 PUSH3 0x494 JUMP JUMPDEST PUSH1 0x40 MLOAD DUP1 PUSH2 0x120 ADD PUSH1 0x40 MSTORE DUP1 DUP11 PUSH20 0xFFFFFFFFFFFFFFFFFFFFFFFFFFFFFFFFFFFFFFFF AND DUP2 MSTORE PUSH1 0x20 ADD DUP10 DUP2 MSTORE PUSH1 0x20 ADD DUP9 DUP2 MSTORE PUSH1 0x20 ADD DUP8 DUP2 MSTORE PUSH1 0x20 ADD DUP7 DUP2 MSTORE PUSH1 0x20 ADD DUP6 DUP2 MSTORE PUSH1 0x20 ADD DUP5 DUP2 MSTORE PUSH1 0x20 ADD DUP4 DUP2 MSTORE PUSH1 0x20 ADD DUP3 DUP2 MSTORE POP PUSH1 0x0 DUP1 DUP3 ADD MLOAD DUP2 PUSH1 0x0 ADD PUSH1 0x0 PUSH2 0x100 EXP DUP2 SLOAD DUP2 PUSH20 0xFFFFFFFFFFFFFFFFFFFFFFFFFFFFFFFFFFFFFFFF MUL NOT AND SWAP1 DUP4 PUSH20 0xFFFFFFFFFFFFFFFFFFFFFFFFFFFFFFFFFFFFFFFF AND MUL OR SWAP1 SSTORE POP PUSH1 0x20 DUP3 ADD MLOAD DUP2 PUSH1 0x1 ADD SSTORE PUSH1 0x40 DUP3 ADD MLOAD DUP2 PUSH1 0x2 ADD SSTORE PUSH1 0x60 DUP3 ADD MLOAD DUP2 PUSH1 0x3 ADD SWAP1 DUP2 PUSH3 0x100 SWAP2 SWAP1 PUSH3 0x885 JUMP JUMPDEST POP PUSH1 0x80 DUP3 ADD MLOAD DUP2 PUSH1 0x4 ADD SWAP1 DUP2 PUSH3 0x118 SWAP2 SWAP1 PUSH3 0x885 JUMP JUMPDEST POP PUSH1 0xA0 DUP3 ADD MLOAD DUP2 PUSH1 0x5 ADD SWAP1 DUP2 PUSH3 0x130 SWAP2 SWAP1 PUSH3 0x885 JUMP JUMPDEST POP PUSH1 0xC0 DUP3 ADD MLOAD DUP2 PUSH1 0x6 ADD SWAP1 DUP2 PUSH3 0x148 SWAP2 SWAP1 PUSH3 0x885 JUMP JUMPDEST POP PUSH1 0xE0 DUP3 ADD MLOAD DUP2 PUSH1 0x7 ADD SWAP1 DUP2 PUSH3 0x160 SWAP2 SWAP1 PUSH3 0x885 JUMP JUMPDEST POP PUSH2 0x100 DUP3 ADD MLOAD DUP2 PUSH1 0x8 ADD SWAP1 DUP2 PUSH3 0x179 SWAP2 SWAP1 PUSH3 0x885 JUMP JUMPDEST POP SWAP1 POP POP DUP10 PUSH1 0x9 PUSH1 0x0 PUSH2 0x100 EXP DUP2 SLOAD DUP2 PUSH20 0xFFFFFFFFFFFFFFFFFFFFFFFFFFFFFFFFFFFFFFFF MUL NOT AND SWAP1 DUP4 PUSH20 0xFFFFFFFFFFFFFFFFFFFFFFFFFFFFFFFFFFFFFFFF AND MUL OR SWAP1 SSTORE POP PUSH1 0x9 PUSH1 0x0 SWAP1 SLOAD SWAP1 PUSH2 0x100 EXP SWAP1 DIV PUSH20 0xFFFFFFFFFFFFFFFFFFFFFFFFFFFFFFFFFFFFFFFF AND PUSH20 0xFFFFFFFFFFFFFFFFFFFFFFFFFFFFFFFFFFFFFFFF AND PUSH4 0x7F59B044 DUP11 ADDRESS PUSH1 0x40 MLOAD DUP4 PUSH4 0xFFFFFFFF AND PUSH1 0xE0 SHL DUP2 MSTORE PUSH1 0x4 ADD PUSH3 0x21D SWAP3 SWAP2 SWAP1 PUSH3 0x97D JUMP JUMPDEST PUSH1 0x0 PUSH1 0x40 MLOAD DUP1 DUP4 SUB DUP2 PUSH1 0x0 DUP8 DUP1 EXTCODESIZE ISZERO DUP1 ISZERO PUSH3 0x238 JUMPI PUSH1 0x0 DUP1 REVERT JUMPDEST POP GAS CALL ISZERO DUP1 ISZERO PUSH3 0x24D JUMPI RETURNDATASIZE PUSH1 0x0 DUP1 RETURNDATACOPY RETURNDATASIZE PUSH1 0x0 REVERT JUMPDEST POP POP POP POP POP POP POP POP POP POP POP POP POP POP PUSH3 0x9AA JUMP JUMPDEST PUSH1 0x0 PUSH1 0x40 MLOAD SWAP1 POP SWAP1 JUMP JUMPDEST PUSH1 0x0 DUP1 REVERT JUMPDEST PUSH1 0x0 DUP1 REVERT JUMPDEST PUSH1 0x0 PUSH20 0xFFFFFFFFFFFFFFFFFFFFFFFFFFFFFFFFFFFFFFFF DUP3 AND SWAP1 POP SWAP2 SWAP1 POP JUMP JUMPDEST PUSH1 0x0 PUSH3 0x2A2 DUP3 PUSH3 0x275 JUMP JUMPDEST SWAP1 POP SWAP2 SWAP1 POP JUMP JUMPDEST PUSH3 0x2B4 DUP2 PUSH3 0x295 JUMP JUMPDEST DUP2 EQ PUSH3 0x2C0 JUMPI PUSH1 0x0 DUP1 REVERT JUMPDEST POP JUMP JUMPDEST PUSH1 0x0 DUP2 MLOAD SWAP1 POP PUSH3 0x2D4 DUP2 PUSH3 0x2A9 JUMP JUMPDEST SWAP3 SWAP2 POP POP JUMP JUMPDEST PUSH1 0x0 DUP2 SWAP1 POP SWAP2 SWAP1 POP JUMP JUMPDEST PUSH3 0x2EF DUP2 PUSH3 0x2DA JUMP JUMPDEST DUP2 EQ PUSH3 0x2FB JUMPI PUSH1 0x0 DUP1 REVERT JUMPDEST POP JUMP JUMPDEST PUSH1 0x0 DUP2 MLOAD SWAP1 POP PUSH3 0x30F DUP2 PUSH3 0x2E4 JUMP JUMPDEST SWAP3 SWAP2 POP POP JUMP JUMPDEST PUSH1 0x0 DUP1 REVERT JUMPDEST PUSH1 0x0 DUP1 REVERT JUMPDEST PUSH1 0x0 PUSH1 0x1F NOT PUSH1 0x1F DUP4 ADD AND SWAP1 POP SWAP2 SWAP1 POP JUMP JUMPDEST PUSH32 0x4E487B7100000000000000000000000000000000000000000000000000000000 PUSH1 0x0 MSTORE PUSH1 0x41 PUSH1 0x4 MSTORE PUSH1 0x24 PUSH1 0x0 REVERT JUMPDEST PUSH3 0x36A DUP3 PUSH3 0x31F JUMP JUMPDEST DUP2 ADD DUP2 DUP2 LT PUSH8 0xFFFFFFFFFFFFFFFF DUP3 GT OR ISZERO PUSH3 0x38C JUMPI PUSH3 0x38B PUSH3 0x330 JUMP JUMPDEST JUMPDEST DUP1 PUSH1 0x40 MSTORE POP POP POP JUMP JUMPDEST PUSH1 0x0 PUSH3 0x3A1 PUSH3 0x261 JUMP JUMPDEST SWAP1 POP PUSH3 0x3AF DUP3 DUP3 PUSH3 0x35F JUMP JUMPDEST SWAP2 SWAP1 POP JUMP JUMPDEST PUSH1 0x0 PUSH8 0xFFFFFFFFFFFFFFFF DUP3 GT ISZERO PUSH3 0x3D2 JUMPI PUSH3 0x3D1 PUSH3 0x330 JUMP JUMPDEST JUMPDEST PUSH3 0x3DD DUP3 PUSH3 0x31F JUMP JUMPDEST SWAP1 POP PUSH1 0x20 DUP2 ADD SWAP1 POP SWAP2 SWAP1 POP JUMP JUMPDEST PUSH1 0x0 JUMPDEST DUP4 DUP2 LT ISZERO PUSH3 0x40A JUMPI DUP1 DUP3 ADD MLOAD DUP2 DUP5 ADD MSTORE PUSH1 0x20 DUP2 ADD SWAP1 POP PUSH3 0x3ED JUMP JUMPDEST PUSH1 0x0 DUP5 DUP5 ADD MSTORE POP POP POP POP JUMP JUMPDEST PUSH1 0x0 PUSH3 0x42D PUSH3 0x427 DUP5 PUSH3 0x3B4 JUMP JUMPDEST PUSH3 0x395 JUMP JUMPDEST SWAP1 POP DUP3 DUP2 MSTORE PUSH1 0x20 DUP2 ADD DUP5 DUP5 DUP5 ADD GT ISZERO PUSH3 0x44C JUMPI PUSH3 0x44B PUSH3 0x31A JUMP JUMPDEST JUMPDEST PUSH3 0x459 DUP5 DUP3 DUP6 PUSH3 0x3EA JUMP JUMPDEST POP SWAP4 SWAP3 POP POP POP JUMP JUMPDEST PUSH1 0x0 DUP3 PUSH1 0x1F DUP4 ADD SLT PUSH3 0x479 JUMPI PUSH3 0x478 PUSH3 0x315 JUMP JUMPDEST JUMPDEST DUP2 MLOAD PUSH3 0x48B DUP5 DUP3 PUSH1 0x20 DUP7 ADD PUSH3 0x416 JUMP JUMPDEST SWAP2 POP POP SWAP3 SWAP2 POP POP JUMP JUMPDEST PUSH1 0x0 DUP1 PUSH1 0x0 DUP1 PUSH1 0x0 DUP1 PUSH1 0x0 DUP1 PUSH1 0x0 DUP1 PUSH2 0x140 DUP12 DUP14 SUB SLT ISZERO PUSH3 0x4BB JUMPI PUSH3 0x4BA PUSH3 0x26B JUMP JUMPDEST JUMPDEST PUSH1 0x0 PUSH3 0x4CB DUP14 DUP3 DUP15 ADD PUSH3 0x2C3 JUMP JUMPDEST SWAP11 POP POP PUSH1 0x20 PUSH3 0x4DE DUP14 DUP3 DUP15 ADD PUSH3 0x2C3 JUMP JUMPDEST SWAP10 POP POP PUSH1 0x40 PUSH3 0x4F1 DUP14 DUP3 DUP15 ADD PUSH3 0x2FE JUMP JUMPDEST SWAP9 POP POP PUSH1 0x60 PUSH3 0x504 DUP14 DUP3 DUP15 ADD PUSH3 0x2FE JUMP JUMPDEST SWAP8 POP POP PUSH1 0x80 DUP12 ADD MLOAD PUSH8 0xFFFFFFFFFFFFFFFF DUP2 GT ISZERO PUSH3 0x528 JUMPI PUSH3 0x527 PUSH3 0x270 JUMP JUMPDEST JUMPDEST PUSH3 0x536 DUP14 DUP3 DUP15 ADD PUSH3 0x461 JUMP JUMPDEST SWAP7 POP POP PUSH1 0xA0 DUP12 ADD MLOAD PUSH8 0xFFFFFFFFFFFFFFFF DUP2 GT ISZERO PUSH3 0x55A JUMPI PUSH3 0x559 PUSH3 0x270 JUMP JUMPDEST JUMPDEST PUSH3 0x568 DUP14 DUP3 DUP15 ADD PUSH3 0x461 JUMP JUMPDEST SWAP6 POP POP PUSH1 0xC0 DUP12 ADD MLOAD PUSH8 0xFFFFFFFFFFFFFFFF DUP2 GT ISZERO PUSH3 0x58C JUMPI PUSH3 0x58B PUSH3 0x270 JUMP JUMPDEST JUMPDEST PUSH3 0x59A DUP14 DUP3 DUP15 ADD PUSH3 0x461 JUMP JUMPDEST SWAP5 POP POP PUSH1 0xE0 DUP12 ADD MLOAD PUSH8 0xFFFFFFFFFFFFFFFF DUP2 GT ISZERO PUSH3 0x5BE JUMPI PUSH3 0x5BD PUSH3 0x270 JUMP JUMPDEST JUMPDEST PUSH3 0x5CC DUP14 DUP3 DUP15 ADD PUSH3 0x461 JUMP JUMPDEST SWAP4 POP POP PUSH2 0x100 DUP12 ADD MLOAD PUSH8 0xFFFFFFFFFFFFFFFF DUP2 GT ISZERO PUSH3 0x5F1 JUMPI PUSH3 0x5F0 PUSH3 0x270 JUMP JUMPDEST JUMPDEST PUSH3 0x5FF DUP14 DUP3 DUP15 ADD PUSH3 0x461 JUMP JUMPDEST SWAP3 POP POP PUSH2 0x120 DUP12 ADD MLOAD PUSH8 0xFFFFFFFFFFFFFFFF DUP2 GT ISZERO PUSH3 0x624 JUMPI PUSH3 0x623 PUSH3 0x270 JUMP JUMPDEST JUMPDEST PUSH3 0x632 DUP14 DUP3 DUP15 ADD PUSH3 0x461 JUMP JUMPDEST SWAP2 POP POP SWAP3 SWAP6 SWAP9 SWAP12 SWAP2 SWAP5 SWAP8 SWAP11 POP SWAP3 SWAP6 SWAP9 POP JUMP JUMPDEST PUSH1 0x0 DUP2 MLOAD SWAP1 POP SWAP2 SWAP1 POP JUMP JUMPDEST PUSH32 0x4E487B7100000000000000000000000000000000000000000000000000000000 PUSH1 0x0 MSTORE PUSH1 0x22 PUSH1 0x4 MSTORE PUSH1 0x24 PUSH1 0x0 REVERT JUMPDEST PUSH1 0x0 PUSH1 0x2 DUP3 DIV SWAP1 POP PUSH1 0x1 DUP3 AND DUP1 PUSH3 0x697 JUMPI PUSH1 0x7F DUP3 AND SWAP2 POP JUMPDEST PUSH1 0x20 DUP3 LT DUP2 SUB PUSH3 0x6AD JUMPI PUSH3 0x6AC PUSH3 0x64F JUMP JUMPDEST JUMPDEST POP SWAP2 SWAP1 POP JUMP JUMPDEST PUSH1 0x0 DUP2 SWAP1 POP DUP2 PUSH1 0x0 MSTORE PUSH1 0x20 PUSH1 0x0 KECCAK256 SWAP1 POP SWAP2 SWAP1 POP JUMP JUMPDEST PUSH1 0x0 PUSH1 0x20 PUSH1 0x1F DUP4 ADD DIV SWAP1 POP SWAP2 SWAP1 POP JUMP JUMPDEST PUSH1 0x0 DUP3 DUP3 SHL SWAP1 POP SWAP3 SWAP2 POP POP JUMP JUMPDEST PUSH1 0x0 PUSH1 0x8 DUP4 MUL PUSH3 0x717 PUSH32 0xFFFFFFFFFFFFFFFFFFFFFFFFFFFFFFFFFFFFFFFFFFFFFFFFFFFFFFFFFFFFFFFF DUP3 PUSH3 0x6D8 JUMP JUMPDEST PUSH3 0x723 DUP7 DUP4 PUSH3 0x6D8 JUMP JUMPDEST SWAP6 POP DUP1 NOT DUP5 AND SWAP4 POP DUP1 DUP7 AND DUP5 OR SWAP3 POP POP POP SWAP4 SWAP3 POP POP POP JUMP JUMPDEST PUSH1 0x0 DUP2 SWAP1 POP SWAP2 SWAP1 POP JUMP JUMPDEST PUSH1 0x0 PUSH3 0x766 PUSH3 0x760 PUSH3 0x75A DUP5 PUSH3 0x2DA JUMP JUMPDEST PUSH3 0x73B JUMP JUMPDEST PUSH3 0x2DA JUMP JUMPDEST SWAP1 POP SWAP2 SWAP1 POP JUMP JUMPDEST PUSH1 0x0 DUP2 SWAP1 POP SWAP2 SWAP1 POP JUMP JUMPDEST PUSH3 0x782 DUP4 PUSH3 0x745 JUMP JUMPDEST PUSH3 0x79A PUSH3 0x791 DUP3 PUSH3 0x76D JUMP JUMPDEST DUP5 DUP5 SLOAD PUSH3 0x6E5 JUMP JUMPDEST DUP3 SSTORE POP POP POP POP JUMP JUMPDEST PUSH1 0x0 SWAP1 JUMP JUMPDEST PUSH3 0x7B1 PUSH3 0x7A2 JUMP JUMPDEST PUSH3 0x7BE DUP2 DUP5 DUP5 PUSH3 0x777 JUMP JUMPDEST POP POP POP JUMP JUMPDEST JUMPDEST DUP2 DUP2 LT ISZERO PUSH3 0x7E6 JUMPI PUSH3 0x7DA PUSH1 0x0 DUP3 PUSH3 0x7A7 JUMP JUMPDEST PUSH1 0x1 DUP2 ADD SWAP1 POP PUSH3 0x7C4 JUMP JUMPDEST POP POP JUMP JUMPDEST PUSH1 0x1F DUP3 GT ISZERO PUSH3 0x835 JUMPI PUSH3 0x7FF DUP2 PUSH3 0x6B3 JUMP JUMPDEST PUSH3 0x80A DUP5 PUSH3 0x6C8 JUMP JUMPDEST DUP2 ADD PUSH1 0x20 DUP6 LT ISZERO PUSH3 0x81A JUMPI DUP2 SWAP1 POP JUMPDEST PUSH3 0x832 PUSH3 0x829 DUP6 PUSH3 0x6C8 JUMP JUMPDEST DUP4 ADD DUP3 PUSH3 0x7C3 JUMP JUMPDEST POP POP JUMPDEST POP POP POP JUMP JUMPDEST PUSH1 0x0 DUP3 DUP3 SHR SWAP1 POP SWAP3 SWAP2 POP POP JUMP JUMPDEST PUSH1 0x0 PUSH3 0x85A PUSH1 0x0 NOT DUP5 PUSH1 0x8 MUL PUSH3 0x83A JUMP JUMPDEST NOT DUP1 DUP4 AND SWAP2 POP POP SWAP3 SWAP2 POP POP JUMP JUMPDEST PUSH1 0x0 PUSH3 0x875 DUP4 DUP4 PUSH3 0x847 JUMP JUMPDEST SWAP2 POP DUP3 PUSH1 0x2 MUL DUP3 OR SWAP1 POP SWAP3 SWAP2 POP POP JUMP JUMPDEST PUSH3 0x890 DUP3 PUSH3 0x644 JUMP JUMPDEST PUSH8 0xFFFFFFFFFFFFFFFF DUP2 GT ISZERO PUSH3 0x8AC JUMPI PUSH3 0x8AB PUSH3 0x330 JUMP JUMPDEST JUMPDEST PUSH3 0x8B8 DUP3 SLOAD PUSH3 0x67E JUMP JUMPDEST PUSH3 0x8C5 DUP3 DUP3 DUP6 PUSH3 0x7EA JUMP JUMPDEST PUSH1 0x0 PUSH1 0x20 SWAP1 POP PUSH1 0x1F DUP4 GT PUSH1 0x1 DUP2 EQ PUSH3 0x8FD JUMPI PUSH1 0x0 DUP5 ISZERO PUSH3 0x8E8 JUMPI DUP3 DUP8 ADD MLOAD SWAP1 POP JUMPDEST PUSH3 0x8F4 DUP6 DUP3 PUSH3 0x867 JUMP JUMPDEST DUP7 SSTORE POP PUSH3 0x964 JUMP JUMPDEST PUSH1 0x1F NOT DUP5 AND PUSH3 0x90D DUP7 PUSH3 0x6B3 JUMP JUMPDEST PUSH1 0x0 JUMPDEST DUP3 DUP2 LT ISZERO PUSH3 0x937 JUMPI DUP5 DUP10 ADD MLOAD DUP3 SSTORE PUSH1 0x1 DUP3 ADD SWAP2 POP PUSH1 0x20 DUP6 ADD SWAP5 POP PUSH1 0x20 DUP2 ADD SWAP1 POP PUSH3 0x910 JUMP JUMPDEST DUP7 DUP4 LT ISZERO PUSH3 0x957 JUMPI DUP5 DUP10 ADD MLOAD PUSH3 0x953 PUSH1 0x1F DUP10 AND DUP3 PUSH3 0x847 JUMP JUMPDEST DUP4 SSTORE POP JUMPDEST PUSH1 0x1 PUSH1 0x2 DUP9 MUL ADD DUP9 SSTORE POP POP POP JUMPDEST POP POP POP POP POP POP JUMP JUMPDEST PUSH3 0x977 DUP2 PUSH3 0x295 JUMP JUMPDEST DUP3 MSTORE POP POP JUMP JUMPDEST PUSH1 0x0 PUSH1 0x40 DUP3 ADD SWAP1 POP PUSH3 0x994 PUSH1 0x0 DUP4 ADD DUP6 PUSH3 0x96C JUMP JUMPDEST PUSH3 0x9A3 PUSH1 0x20 DUP4 ADD DUP5 PUSH3 0x96C JUMP JUMPDEST SWAP4 SWAP3 POP POP POP JUMP JUMPDEST PUSH2 0xF6D DUP1 PUSH3 0x9BA PUSH1 0x0 CODECOPY PUSH1 0x0 RETURN INVALID PUSH1 0x80 PUSH1 0x40 MSTORE PUSH1 0x4 CALLDATASIZE LT PUSH2 0x7B JUMPI PUSH1 0x0 CALLDATALOAD PUSH1 0xE0 SHR DUP1 PUSH4 0x6BD5450A GT PUSH2 0x4E JUMPI DUP1 PUSH4 0x6BD5450A EQ PUSH2 0xEE JUMPI DUP1 PUSH4 0x6CF69958 EQ PUSH2 0x12B JUMPI DUP1 PUSH4 0x8A281554 EQ PUSH2 0x156 JUMPI DUP1 PUSH4 0xB948348C EQ PUSH2 0x181 JUMPI PUSH2 0x7B JUMP JUMPDEST DUP1 PUSH4 0x40771C73 EQ PUSH2 0x80 JUMPI DUP1 PUSH4 0x44387CC2 EQ PUSH2 0xA9 JUMPI DUP1 PUSH4 0x4E71D92D EQ PUSH2 0xC0 JUMPI DUP1 PUSH4 0x590E1AE3 EQ PUSH2 0xD7 JUMPI JUMPDEST PUSH1 0x0 DUP1 REVERT JUMPDEST CALLVALUE DUP1 ISZERO PUSH2 0x8C JUMPI PUSH1 0x0 DUP1 REVERT JUMPDEST POP PUSH2 0xA7 PUSH1 0x4 DUP1 CALLDATASIZE SUB DUP2 ADD SWAP1 PUSH2 0xA2 SWAP2 SWAP1 PUSH2 0x952 JUMP JUMPDEST PUSH2 0x19D JUMP JUMPDEST STOP JUMPDEST CALLVALUE DUP1 ISZERO PUSH2 0xB5 JUMPI PUSH1 0x0 DUP1 REVERT JUMPDEST POP PUSH2 0xBE PUSH2 0x23C JUMP JUMPDEST STOP JUMPDEST CALLVALUE DUP1 ISZERO PUSH2 0xCC JUMPI PUSH1 0x0 DUP1 REVERT JUMPDEST POP PUSH2 0xD5 PUSH2 0x386 JUMP JUMPDEST STOP JUMPDEST CALLVALUE DUP1 ISZERO PUSH2 0xE3 JUMPI PUSH1 0x0 DUP1 REVERT JUMPDEST POP PUSH2 0xEC PUSH2 0x585 JUMP JUMPDEST STOP JUMPDEST CALLVALUE DUP1 ISZERO PUSH2 0xFA JUMPI PUSH1 0x0 DUP1 REVERT JUMPDEST POP PUSH2 0x115 PUSH1 0x4 DUP1 CALLDATASIZE SUB DUP2 ADD SWAP1 PUSH2 0x110 SWAP2 SWAP1 PUSH2 0x9FD JUMP JUMPDEST PUSH2 0x771 JUMP JUMPDEST PUSH1 0x40 MLOAD PUSH2 0x122 SWAP2 SWAP1 PUSH2 0xA45 JUMP JUMPDEST PUSH1 0x40 MLOAD DUP1 SWAP2 SUB SWAP1 RETURN JUMPDEST CALLVALUE DUP1 ISZERO PUSH2 0x137 JUMPI PUSH1 0x0 DUP1 REVERT JUMPDEST POP PUSH2 0x140 PUSH2 0x791 JUMP JUMPDEST PUSH1 0x40 MLOAD PUSH2 0x14D SWAP2 SWAP1 PUSH2 0xA79 JUMP JUMPDEST PUSH1 0x40 MLOAD DUP1 SWAP2 SUB SWAP1 RETURN JUMPDEST CALLVALUE DUP1 ISZERO PUSH2 0x162 JUMPI PUSH1 0x0 DUP1 REVERT JUMPDEST POP PUSH2 0x16B PUSH2 0x7D8 JUMP JUMPDEST PUSH1 0x40 MLOAD PUSH2 0x178 SWAP2 SWAP1 PUSH2 0xA45 JUMP JUMPDEST PUSH1 0x40 MLOAD DUP1 SWAP2 SUB SWAP1 RETURN JUMPDEST PUSH2 0x19B PUSH1 0x4 DUP1 CALLDATASIZE SUB DUP2 ADD SWAP1 PUSH2 0x196 SWAP2 SWAP1 PUSH2 0xAC0 JUMP JUMPDEST PUSH2 0x82C JUMP JUMPDEST STOP JUMPDEST PUSH1 0x0 JUMPDEST DUP3 DUP3 SWAP1 POP DUP2 LT ISZERO PUSH2 0x237 JUMPI PUSH1 0x1 PUSH1 0xD PUSH1 0x0 DUP6 DUP6 DUP6 DUP2 DUP2 LT PUSH2 0x1C4 JUMPI PUSH2 0x1C3 PUSH2 0xAED JUMP JUMPDEST JUMPDEST SWAP1 POP PUSH1 0x20 MUL ADD PUSH1 0x20 DUP2 ADD SWAP1 PUSH2 0x1D9 SWAP2 SWAP1 PUSH2 0x9FD JUMP JUMPDEST PUSH20 0xFFFFFFFFFFFFFFFFFFFFFFFFFFFFFFFFFFFFFFFF AND PUSH20 0xFFFFFFFFFFFFFFFFFFFFFFFFFFFFFFFFFFFFFFFF AND DUP2 MSTORE PUSH1 0x20 ADD SWAP1 DUP2 MSTORE PUSH1 0x20 ADD PUSH1 0x0 KECCAK256 PUSH1 0x0 PUSH2 0x100 EXP DUP2 SLOAD DUP2 PUSH1 0xFF MUL NOT AND SWAP1 DUP4 ISZERO ISZERO MUL OR SWAP1 SSTORE POP DUP1 DUP1 PUSH1 0x1 ADD SWAP2 POP POP PUSH2 0x1A0 JUMP JUMPDEST POP POP POP JUMP JUMPDEST PUSH1 0xE PUSH1 0x0 CALLER PUSH20 0xFFFFFFFFFFFFFFFFFFFFFFFFFFFFFFFFFFFFFFFF AND PUSH20 0xFFFFFFFFFFFFFFFFFFFFFFFFFFFFFFFFFFFFFFFF AND DUP2 MSTORE PUSH1 0x20 ADD SWAP1 DUP2 MSTORE PUSH1 0x20 ADD PUSH1 0x0 KECCAK256 PUSH1 0x0 SWAP1 SLOAD SWAP1 PUSH2 0x100 EXP SWAP1 DIV PUSH1 0xFF AND ISZERO PUSH2 0x2C9 JUMPI PUSH1 0x40 MLOAD PUSH32 0x8C379A000000000000000000000000000000000000000000000000000000000 DUP2 MSTORE PUSH1 0x4 ADD PUSH2 0x2C0 SWAP1 PUSH2 0xB79 JUMP JUMPDEST PUSH1 0x40 MLOAD DUP1 SWAP2 SUB SWAP1 REVERT JUMPDEST PUSH1 0x1 PUSH1 0xE PUSH1 0x0 CALLER PUSH20 0xFFFFFFFFFFFFFFFFFFFFFFFFFFFFFFFFFFFFFFFF AND PUSH20 0xFFFFFFFFFFFFFFFFFFFFFFFFFFFFFFFFFFFFFFFF AND DUP2 MSTORE PUSH1 0x20 ADD SWAP1 DUP2 MSTORE PUSH1 0x20 ADD PUSH1 0x0 KECCAK256 PUSH1 0x0 PUSH2 0x100 EXP DUP2 SLOAD DUP2 PUSH1 0xFF MUL NOT AND SWAP1 DUP4 ISZERO ISZERO MUL OR SWAP1 SSTORE POP PUSH1 0xF CALLER SWAP1 DUP1 PUSH1 0x1 DUP2 SLOAD ADD DUP1 DUP3 SSTORE DUP1 SWAP2 POP POP PUSH1 0x1 SWAP1 SUB SWAP1 PUSH1 0x0 MSTORE PUSH1 0x20 PUSH1 0x0 KECCAK256 ADD PUSH1 0x0 SWAP1 SWAP2 SWAP1 SWAP2 SWAP1 SWAP2 PUSH2 0x100 EXP DUP2 SLOAD DUP2 PUSH20 0xFFFFFFFFFFFFFFFFFFFFFFFFFFFFFFFFFFFFFFFF MUL NOT AND SWAP1 DUP4 PUSH20 0xFFFFFFFFFFFFFFFFFFFFFFFFFFFFFFFFFFFFFFFF AND MUL OR SWAP1 SSTORE POP JUMP JUMPDEST PUSH1 0xD PUSH1 0x0 CALLER PUSH20 0xFFFFFFFFFFFFFFFFFFFFFFFFFFFFFFFFFFFFFFFF AND PUSH20 0xFFFFFFFFFFFFFFFFFFFFFFFFFFFFFFFFFFFFFFFF AND DUP2 MSTORE PUSH1 0x20 ADD SWAP1 DUP2 MSTORE PUSH1 0x20 ADD PUSH1 0x0 KECCAK256 PUSH1 0x0 SWAP1 SLOAD SWAP1 PUSH2 0x100 EXP SWAP1 DIV PUSH1 0xFF AND PUSH2 0x412 JUMPI PUSH1 0x40 MLOAD PUSH32 0x8C379A000000000000000000000000000000000000000000000000000000000 DUP2 MSTORE PUSH1 0x4 ADD PUSH2 0x409 SWAP1 PUSH2 0xBE5 JUMP JUMPDEST PUSH1 0x40 MLOAD DUP1 SWAP2 SUB SWAP1 REVERT JUMPDEST PUSH1 0x0 DUP1 PUSH1 0x0 ADD PUSH1 0x0 SWAP1 SLOAD SWAP1 PUSH2 0x100 EXP SWAP1 DIV PUSH20 0xFFFFFFFFFFFFFFFFFFFFFFFFFFFFFFFFFFFFFFFF AND SWAP1 POP PUSH1 0x0 DUP2 PUSH20 0xFFFFFFFFFFFFFFFFFFFFFFFFFFFFFFFFFFFFFFFF AND PUSH4 0xA9059CBB CALLER PUSH1 0xC PUSH1 0x0 CALLER PUSH20 0xFFFFFFFFFFFFFFFFFFFFFFFFFFFFFFFFFFFFFFFF AND PUSH20 0xFFFFFFFFFFFFFFFFFFFFFFFFFFFFFFFFFFFFFFFF AND DUP2 MSTORE PUSH1 0x20 ADD SWAP1 DUP2 MSTORE PUSH1 0x20 ADD PUSH1 0x0 KECCAK256 SLOAD PUSH1 0x40 MLOAD DUP4 PUSH4 0xFFFFFFFF AND PUSH1 0xE0 SHL DUP2 MSTORE PUSH1 0x4 ADD PUSH2 0x4B7 SWAP3 SWAP2 SWAP1 PUSH2 0xC14 JUMP JUMPDEST PUSH1 0x20 PUSH1 0x40 MLOAD DUP1 DUP4 SUB DUP2 PUSH1 0x0 DUP8 GAS CALL ISZERO DUP1 ISZERO PUSH2 0x4D6 JUMPI RETURNDATASIZE PUSH1 0x0 DUP1 RETURNDATACOPY RETURNDATASIZE PUSH1 0x0 REVERT JUMPDEST POP POP POP POP PUSH1 0x40 MLOAD RETURNDATASIZE PUSH1 0x1F NOT PUSH1 0x1F DUP3 ADD AND DUP3 ADD DUP1 PUSH1 0x40 MSTORE POP DUP2 ADD SWAP1 PUSH2 0x4FA SWAP2 SWAP1 PUSH2 0xC69 JUMP JUMPDEST SWAP1 POP DUP1 PUSH2 0x53C JUMPI PUSH1 0x40 MLOAD PUSH32 0x8C379A000000000000000000000000000000000000000000000000000000000 DUP2 MSTORE PUSH1 0x4 ADD PUSH2 0x533 SWAP1 PUSH2 0xD08 JUMP JUMPDEST PUSH1 0x40 MLOAD DUP1 SWAP2 SUB SWAP1 REVERT JUMPDEST PUSH1 0x0 PUSH1 0xC PUSH1 0x0 CALLER PUSH20 0xFFFFFFFFFFFFFFFFFFFFFFFFFFFFFFFFFFFFFFFF AND PUSH20 0xFFFFFFFFFFFFFFFFFFFFFFFFFFFFFFFFFFFFFFFF AND DUP2 MSTORE PUSH1 0x20 ADD SWAP1 DUP2 MSTORE PUSH1 0x20 ADD PUSH1 0x0 KECCAK256 DUP2 SWAP1 SSTORE POP POP POP JUMP JUMPDEST PUSH1 0xD PUSH1 0x0 CALLER PUSH20 0xFFFFFFFFFFFFFFFFFFFFFFFFFFFFFFFFFFFFFFFF AND PUSH20 0xFFFFFFFFFFFFFFFFFFFFFFFFFFFFFFFFFFFFFFFF AND DUP2 MSTORE PUSH1 0x20 ADD SWAP1 DUP2 MSTORE PUSH1 0x20 ADD PUSH1 0x0 KECCAK256 PUSH1 0x0 SWAP1 SLOAD SWAP1 PUSH2 0x100 EXP SWAP1 DIV PUSH1 0xFF AND ISZERO PUSH2 0x612 JUMPI PUSH1 0x40 MLOAD PUSH32 0x8C379A000000000000000000000000000000000000000000000000000000000 DUP2 MSTORE PUSH1 0x4 ADD PUSH2 0x609 SWAP1 PUSH2 0xD74 JUMP JUMPDEST PUSH1 0x40 MLOAD DUP1 SWAP2 SUB SWAP1 REVERT JUMPDEST PUSH1 0x0 PUSH1 0xC PUSH1 0x0 CALLER PUSH20 0xFFFFFFFFFFFFFFFFFFFFFFFFFFFFFFFFFFFFFFFF AND PUSH20 0xFFFFFFFFFFFFFFFFFFFFFFFFFFFFFFFFFFFFFFFF AND DUP2 MSTORE PUSH1 0x20 ADD SWAP1 DUP2 MSTORE PUSH1 0x20 ADD PUSH1 0x0 KECCAK256 SLOAD EQ PUSH2 0x694 JUMPI PUSH1 0x40 MLOAD PUSH32 0x8C379A000000000000000000000000000000000000000000000000000000000 DUP2 MSTORE PUSH1 0x4 ADD PUSH2 0x68B SWAP1 PUSH2 0xE06 JUMP JUMPDEST PUSH1 0x40 MLOAD DUP1 SWAP2 SUB SWAP1 REVERT JUMPDEST CALLER PUSH20 0xFFFFFFFFFFFFFFFFFFFFFFFFFFFFFFFFFFFFFFFF AND PUSH2 0x8FC PUSH1 0x0 PUSH1 0x2 ADD SLOAD PUSH1 0xC PUSH1 0x0 CALLER PUSH20 0xFFFFFFFFFFFFFFFFFFFFFFFFFFFFFFFFFFFFFFFF AND PUSH20 0xFFFFFFFFFFFFFFFFFFFFFFFFFFFFFFFFFFFFFFFF AND DUP2 MSTORE PUSH1 0x20 ADD SWAP1 DUP2 MSTORE PUSH1 0x20 ADD PUSH1 0x0 KECCAK256 SLOAD PUSH2 0x6FE SWAP2 SWAP1 PUSH2 0xE55 JUMP JUMPDEST SWAP1 DUP2 ISZERO MUL SWAP1 PUSH1 0x40 MLOAD PUSH1 0x0 PUSH1 0x40 MLOAD DUP1 DUP4 SUB DUP2 DUP6 DUP9 DUP9 CALL SWAP4 POP POP POP POP ISZERO DUP1 ISZERO PUSH2 0x729 JUMPI RETURNDATASIZE PUSH1 0x0 DUP1 RETURNDATACOPY RETURNDATASIZE PUSH1 0x0 REVERT JUMPDEST POP PUSH1 0x0 PUSH1 0xC PUSH1 0x0 CALLER PUSH20 0xFFFFFFFFFFFFFFFFFFFFFFFFFFFFFFFFFFFFFFFF AND PUSH20 0xFFFFFFFFFFFFFFFFFFFFFFFFFFFFFFFFFFFFFFFF AND DUP2 MSTORE PUSH1 0x20 ADD SWAP1 DUP2 MSTORE PUSH1 0x20 ADD PUSH1 0x0 KECCAK256 DUP2 SWAP1 SSTORE POP JUMP JUMPDEST PUSH1 0xD PUSH1 0x20 MSTORE DUP1 PUSH1 0x0 MSTORE PUSH1 0x40 PUSH1 0x0 KECCAK256 PUSH1 0x0 SWAP2 POP SLOAD SWAP1 PUSH2 0x100 EXP SWAP1 DIV PUSH1 0xFF AND DUP2 JUMP JUMPDEST PUSH1 0x0 PUSH1 0xC PUSH1 0x0 CALLER PUSH20 0xFFFFFFFFFFFFFFFFFFFFFFFFFFFFFFFFFFFFFFFF AND PUSH20 0xFFFFFFFFFFFFFFFFFFFFFFFFFFFFFFFFFFFFFFFF AND DUP2 MSTORE PUSH1 0x20 ADD SWAP1 DUP2 MSTORE PUSH1 0x20 ADD PUSH1 0x0 KECCAK256 SLOAD SWAP1 POP SWAP1 JUMP JUMPDEST PUSH1 0x0 PUSH1 0xE PUSH1 0x0 CALLER PUSH20 0xFFFFFFFFFFFFFFFFFFFFFFFFFFFFFFFFFFFFFFFF AND PUSH20 0xFFFFFFFFFFFFFFFFFFFFFFFFFFFFFFFFFFFFFFFF AND DUP2 MSTORE PUSH1 0x20 ADD SWAP1 DUP2 MSTORE PUSH1 0x20 ADD PUSH1 0x0 KECCAK256 PUSH1 0x0 SWAP1 SLOAD SWAP1 PUSH2 0x100 EXP SWAP1 DIV PUSH1 0xFF AND SWAP1 POP SWAP1 JUMP JUMPDEST DUP1 PUSH1 0x0 PUSH1 0x2 ADD SLOAD PUSH2 0x83D SWAP2 SWAP1 PUSH2 0xE55 JUMP JUMPDEST DUP2 CALLVALUE PUSH2 0x849 SWAP2 SWAP1 PUSH2 0xE55 JUMP JUMPDEST LT ISZERO PUSH2 0x88A JUMPI PUSH1 0x40 MLOAD PUSH32 0x8C379A000000000000000000000000000000000000000000000000000000000 DUP2 MSTORE PUSH1 0x4 ADD PUSH2 0x881 SWAP1 PUSH2 0xEE3 JUMP JUMPDEST PUSH1 0x40 MLOAD DUP1 SWAP2 SUB SWAP1 REVERT JUMPDEST DUP1 PUSH1 0xC PUSH1 0x0 CALLER PUSH20 0xFFFFFFFFFFFFFFFFFFFFFFFFFFFFFFFFFFFFFFFF AND PUSH20 0xFFFFFFFFFFFFFFFFFFFFFFFFFFFFFFFFFFFFFFFF AND DUP2 MSTORE PUSH1 0x20 ADD SWAP1 DUP2 MSTORE PUSH1 0x20 ADD PUSH1 0x0 KECCAK256 PUSH1 0x0 DUP3 DUP3 SLOAD PUSH2 0x8D9 SWAP2 SWAP1 PUSH2 0xF03 JUMP JUMPDEST SWAP3 POP POP DUP2 SWAP1 SSTORE POP POP JUMP JUMPDEST PUSH1 0x0 DUP1 REVERT JUMPDEST PUSH1 0x0 DUP1 REVERT JUMPDEST PUSH1 0x0 DUP1 REVERT JUMPDEST PUSH1 0x0 DUP1 REVERT JUMPDEST PUSH1 0x0 DUP1 REVERT JUMPDEST PUSH1 0x0 DUP1 DUP4 PUSH1 0x1F DUP5 ADD SLT PUSH2 0x912 JUMPI PUSH2 0x911 PUSH2 0x8ED JUMP JUMPDEST JUMPDEST DUP3 CALLDATALOAD SWAP1 POP PUSH8 0xFFFFFFFFFFFFFFFF DUP2 GT ISZERO PUSH2 0x92F JUMPI PUSH2 0x92E PUSH2 0x8F2 JUMP JUMPDEST JUMPDEST PUSH1 0x20 DUP4 ADD SWAP2 POP DUP4 PUSH1 0x20 DUP3 MUL DUP4 ADD GT ISZERO PUSH2 0x94B JUMPI PUSH2 0x94A PUSH2 0x8F7 JUMP JUMPDEST JUMPDEST SWAP3 POP SWAP3 SWAP1 POP JUMP JUMPDEST PUSH1 0x0 DUP1 PUSH1 0x20 DUP4 DUP6 SUB SLT ISZERO PUSH2 0x969 JUMPI PUSH2 0x968 PUSH2 0x8E3 JUMP JUMPDEST JUMPDEST PUSH1 0x0 DUP4 ADD CALLDATALOAD PUSH8 0xFFFFFFFFFFFFFFFF DUP2 GT ISZERO PUSH2 0x987 JUMPI PUSH2 0x986 PUSH2 0x8E8 JUMP JUMPDEST JUMPDEST PUSH2 0x993 DUP6 DUP3 DUP7 ADD PUSH2 0x8FC JUMP JUMPDEST SWAP3 POP SWAP3 POP POP SWAP3 POP SWAP3 SWAP1 POP JUMP JUMPDEST PUSH1 0x0 PUSH20 0xFFFFFFFFFFFFFFFFFFFFFFFFFFFFFFFFFFFFFFFF DUP3 AND SWAP1 POP SWAP2 SWAP1 POP JUMP JUMPDEST PUSH1 0x0 PUSH2 0x9CA DUP3 PUSH2 0x99F JUMP JUMPDEST SWAP1 POP SWAP2 SWAP1 POP JUMP JUMPDEST PUSH2 0x9DA DUP2 PUSH2 0x9BF JUMP JUMPDEST DUP2 EQ PUSH2 0x9E5 JUMPI PUSH1 0x0 DUP1 REVERT JUMPDEST POP JUMP JUMPDEST PUSH1 0x0 DUP2 CALLDATALOAD SWAP1 POP PUSH2 0x9F7 DUP2 PUSH2 0x9D1 JUMP JUMPDEST SWAP3 SWAP2 POP POP JUMP JUMPDEST PUSH1 0x0 PUSH1 0x20 DUP3 DUP5 SUB SLT ISZERO PUSH2 0xA13 JUMPI PUSH2 0xA12 PUSH2 0x8E3 JUMP JUMPDEST JUMPDEST PUSH1 0x0 PUSH2 0xA21 DUP5 DUP3 DUP6 ADD PUSH2 0x9E8 JUMP JUMPDEST SWAP2 POP POP SWAP3 SWAP2 POP POP JUMP JUMPDEST PUSH1 0x0 DUP2 ISZERO ISZERO SWAP1 POP SWAP2 SWAP1 POP JUMP JUMPDEST PUSH2 0xA3F DUP2 PUSH2 0xA2A JUMP JUMPDEST DUP3 MSTORE POP POP JUMP JUMPDEST PUSH1 0x0 PUSH1 0x20 DUP3 ADD SWAP1 POP PUSH2 0xA5A PUSH1 0x0 DUP4 ADD DUP5 PUSH2 0xA36 JUMP JUMPDEST SWAP3 SWAP2 POP POP JUMP JUMPDEST PUSH1 0x0 DUP2 SWAP1 POP SWAP2 SWAP1 POP JUMP JUMPDEST PUSH2 0xA73 DUP2 PUSH2 0xA60 JUMP JUMPDEST DUP3 MSTORE POP POP JUMP JUMPDEST PUSH1 0x0 PUSH1 0x20 DUP3 ADD SWAP1 POP PUSH2 0xA8E PUSH1 0x0 DUP4 ADD DUP5 PUSH2 0xA6A JUMP JUMPDEST SWAP3 SWAP2 POP POP JUMP JUMPDEST PUSH2 0xA9D DUP2 PUSH2 0xA60 JUMP JUMPDEST DUP2 EQ PUSH2 0xAA8 JUMPI PUSH1 0x0 DUP1 REVERT JUMPDEST POP JUMP JUMPDEST PUSH1 0x0 DUP2 CALLDATALOAD SWAP1 POP PUSH2 0xABA DUP2 PUSH2 0xA94 JUMP JUMPDEST SWAP3 SWAP2 POP POP JUMP JUMPDEST PUSH1 0x0 PUSH1 0x20 DUP3 DUP5 SUB SLT ISZERO PUSH2 0xAD6 JUMPI PUSH2 0xAD5 PUSH2 0x8E3 JUMP JUMPDEST JUMPDEST PUSH1 0x0 PUSH2 0xAE4 DUP5 DUP3 DUP6 ADD PUSH2 0xAAB JUMP JUMPDEST SWAP2 POP POP SWAP3 SWAP2 POP POP JUMP JUMPDEST PUSH32 0x4E487B7100000000000000000000000000000000000000000000000000000000 PUSH1 0x0 MSTORE PUSH1 0x32 PUSH1 0x4 MSTORE PUSH1 0x24 PUSH1 0x0 REVERT JUMPDEST PUSH1 0x0 DUP3 DUP3 MSTORE PUSH1 0x20 DUP3 ADD SWAP1 POP SWAP3 SWAP2 POP POP JUMP JUMPDEST PUSH32 0xEC9DB4EBAFB820EAB5ACEB8F8520ECA491EC9E85EB8B88EB8BA42E0000000000 PUSH1 0x0 DUP3 ADD MSTORE POP JUMP JUMPDEST PUSH1 0x0 PUSH2 0xB63 PUSH1 0x1B DUP4 PUSH2 0xB1C JUMP JUMPDEST SWAP2 POP PUSH2 0xB6E DUP3 PUSH2 0xB2D JUMP JUMPDEST PUSH1 0x20 DUP3 ADD SWAP1 POP SWAP2 SWAP1 POP JUMP JUMPDEST PUSH1 0x0 PUSH1 0x20 DUP3 ADD SWAP1 POP DUP2 DUP2 SUB PUSH1 0x0 DUP4 ADD MSTORE PUSH2 0xB92 DUP2 PUSH2 0xB56 JUMP JUMPDEST SWAP1 POP SWAP2 SWAP1 POP JUMP JUMPDEST PUSH32 0xEB8BB9ECB2A8EB9098ECA78020EC958AEC9598EC8AB5EB8B88EB8BA42E000000 PUSH1 0x0 DUP3 ADD MSTORE POP JUMP JUMPDEST PUSH1 0x0 PUSH2 0xBCF PUSH1 0x1D DUP4 PUSH2 0xB1C JUMP JUMPDEST SWAP2 POP PUSH2 0xBDA DUP3 PUSH2 0xB99 JUMP JUMPDEST PUSH1 0x20 DUP3 ADD SWAP1 POP SWAP2 SWAP1 POP JUMP JUMPDEST PUSH1 0x0 PUSH1 0x20 DUP3 ADD SWAP1 POP DUP2 DUP2 SUB PUSH1 0x0 DUP4 ADD MSTORE PUSH2 0xBFE DUP2 PUSH2 0xBC2 JUMP JUMPDEST SWAP1 POP SWAP2 SWAP1 POP JUMP JUMPDEST PUSH2 0xC0E DUP2 PUSH2 0x9BF JUMP JUMPDEST DUP3 MSTORE POP POP JUMP JUMPDEST PUSH1 0x0 PUSH1 0x40 DUP3 ADD SWAP1 POP PUSH2 0xC29 PUSH1 0x0 DUP4 ADD DUP6 PUSH2 0xC05 JUMP JUMPDEST PUSH2 0xC36 PUSH1 0x20 DUP4 ADD DUP5 PUSH2 0xA6A JUMP JUMPDEST SWAP4 SWAP3 POP POP POP JUMP JUMPDEST PUSH2 0xC46 DUP2 PUSH2 0xA2A JUMP JUMPDEST DUP2 EQ PUSH2 0xC51 JUMPI PUSH1 0x0 DUP1 REVERT JUMPDEST POP JUMP JUMPDEST PUSH1 0x0 DUP2 MLOAD SWAP1 POP PUSH2 0xC63 DUP2 PUSH2 0xC3D JUMP JUMPDEST SWAP3 SWAP2 POP POP JUMP JUMPDEST PUSH1 0x0 PUSH1 0x20 DUP3 DUP5 SUB SLT ISZERO PUSH2 0xC7F JUMPI PUSH2 0xC7E PUSH2 0x8E3 JUMP JUMPDEST JUMPDEST PUSH1 0x0 PUSH2 0xC8D DUP5 DUP3 DUP6 ADD PUSH2 0xC54 JUMP JUMPDEST SWAP2 POP POP SWAP3 SWAP2 POP POP JUMP JUMPDEST PUSH32 0xED86A0ED81B020ECA084EC86A1EC9DB420EC8BA4ED8CA8ED9688EC8AB5EB8B88 PUSH1 0x0 DUP3 ADD MSTORE PUSH32 0xEB8BA42E00000000000000000000000000000000000000000000000000000000 PUSH1 0x20 DUP3 ADD MSTORE POP JUMP JUMPDEST PUSH1 0x0 PUSH2 0xCF2 PUSH1 0x24 DUP4 PUSH2 0xB1C JUMP JUMPDEST SWAP2 POP PUSH2 0xCFD DUP3 PUSH2 0xC96 JUMP JUMPDEST PUSH1 0x40 DUP3 ADD SWAP1 POP SWAP2 SWAP1 POP JUMP JUMPDEST PUSH1 0x0 PUSH1 0x20 DUP3 ADD SWAP1 POP DUP2 DUP2 SUB PUSH1 0x0 DUP4 ADD MSTORE PUSH2 0xD21 DUP2 PUSH2 0xCE5 JUMP JUMPDEST SWAP1 POP SWAP2 SWAP1 POP JUMP JUMPDEST PUSH32 0xED9998EBB688EBB09BEC9D8420EC889820EC9786EC8AB5EB8B88EB8BA42E0000 PUSH1 0x0 DUP3 ADD MSTORE POP JUMP JUMPDEST PUSH1 0x0 PUSH2 0xD5E PUSH1 0x1E DUP4 PUSH2 0xB1C JUMP JUMPDEST SWAP2 POP PUSH2 0xD69 DUP3 PUSH2 0xD28 JUMP JUMPDEST PUSH1 0x20 DUP3 ADD SWAP1 POP SWAP2 SWAP1 POP JUMP JUMPDEST PUSH1 0x0 PUSH1 0x20 DUP3 ADD SWAP1 POP DUP2 DUP2 SUB PUSH1 0x0 DUP4 ADD MSTORE PUSH2 0xD8D DUP2 PUSH2 0xD51 JUMP JUMPDEST SWAP1 POP SWAP2 SWAP1 POP JUMP JUMPDEST PUSH32 0xEAB5ACEBA7A4ED959C20ED8BB0ECBC93EC9DB420EC9786EC8AB5EB8B88EB8BA4 PUSH1 0x0 DUP3 ADD MSTORE PUSH32 0x2E00000000000000000000000000000000000000000000000000000000000000 PUSH1 0x20 DUP3 ADD MSTORE POP JUMP JUMPDEST PUSH1 0x0 PUSH2 0xDF0 PUSH1 0x21 DUP4 PUSH2 0xB1C JUMP JUMPDEST SWAP2 POP PUSH2 0xDFB DUP3 PUSH2 0xD94 JUMP JUMPDEST PUSH1 0x40 DUP3 ADD SWAP1 POP SWAP2 SWAP1 POP JUMP JUMPDEST PUSH1 0x0 PUSH1 0x20 DUP3 ADD SWAP1 POP DUP2 DUP2 SUB PUSH1 0x0 DUP4 ADD MSTORE PUSH2 0xE1F DUP2 PUSH2 0xDE3 JUMP JUMPDEST SWAP1 POP SWAP2 SWAP1 POP JUMP JUMPDEST PUSH32 0x4E487B7100000000000000000000000000000000000000000000000000000000 PUSH1 0x0 MSTORE PUSH1 0x11 PUSH1 0x4 MSTORE PUSH1 0x24 PUSH1 0x0 REVERT JUMPDEST PUSH1 0x0 PUSH2 0xE60 DUP3 PUSH2 0xA60 JUMP JUMPDEST SWAP2 POP PUSH2 0xE6B DUP4 PUSH2 0xA60 JUMP JUMPDEST SWAP3 POP DUP3 DUP3 MUL PUSH2 0xE79 DUP2 PUSH2 0xA60 JUMP JUMPDEST SWAP2 POP DUP3 DUP3 DIV DUP5 EQ DUP4 ISZERO OR PUSH2 0xE90 JUMPI PUSH2 0xE8F PUSH2 0xE26 JUMP JUMPDEST JUMPDEST POP SWAP3 SWAP2 POP POP JUMP JUMPDEST PUSH32 0xEAB888EC95A1EC9DB420EBB680ECA1B1ED95A9EB8B88EB8BA42E000000000000 PUSH1 0x0 DUP3 ADD MSTORE POP JUMP JUMPDEST PUSH1 0x0 PUSH2 0xECD PUSH1 0x1A DUP4 PUSH2 0xB1C JUMP JUMPDEST SWAP2 POP PUSH2 0xED8 DUP3 PUSH2 0xE97 JUMP JUMPDEST PUSH1 0x20 DUP3 ADD SWAP1 POP SWAP2 SWAP1 POP JUMP JUMPDEST PUSH1 0x0 PUSH1 0x20 DUP3 ADD SWAP1 POP DUP2 DUP2 SUB PUSH1 0x0 DUP4 ADD MSTORE PUSH2 0xEFC DUP2 PUSH2 0xEC0 JUMP JUMPDEST SWAP1 POP SWAP2 SWAP1 POP JUMP JUMPDEST PUSH1 0x0 PUSH2 0xF0E DUP3 PUSH2 0xA60 JUMP JUMPDEST SWAP2 POP PUSH2 0xF19 DUP4 PUSH2 0xA60 JUMP JUMPDEST SWAP3 POP DUP3 DUP3 ADD SWAP1 POP DUP1 DUP3 GT ISZERO PUSH2 0xF31 JUMPI PUSH2 0xF30 PUSH2 0xE26 JUMP JUMPDEST JUMPDEST SWAP3 SWAP2 POP POP JUMP INVALID LOG2 PUSH5 0x6970667358 0x22 SLT KECCAK256 GAS 0xDE 0xB0 0xA8 DUP3 SIGNEXTEND 0xE2 CALLDATASIZE SWAP15 SWAP1 0x27 0xE4 0xC6 LOG2 0xA8 0xCC PUSH5 0x5E243207C1 0x4F 0xF6 0xE8 0xE6 CALLVALUE 0xA6 GASPRICE GAS DUP11 0xD8 PUSH5 0x736F6C6343 STOP ADDMOD XOR STOP CALLER "},"methodIdentifiers":{"claim()":"4e71d92d","getTicketAmount()":"6cf69958","getWinners(address[])":"40771c73","isSubscribed()":"8a281554","purchaseTicket(uint256)":"b948348c","refund()":"590e1ae3","subscription()":"44387cc2","winners(address)":"6bd5450a"}}}}}