{"contracts/presale/Permissions.sol":{"ERC20PermissionsControl":{"abi":[{"inputs":[{"internalType":"string","name":"name","type":"string"},{"internalType":"string","name":"symbol","type":"string"},{"internalType":"uint256","name":"amout","type":"uint256"}],"stateMutability":"nonpayable","type":"constructor"},{"inputs":[],"name":"AccessControlBadConfirmation","type":"error"},{"inputs":[{"internalType":"address","name":"account","type":"address"},{"internalType":"bytes32","name":"neededRole","type":"bytes32"}],"name":"AccessControlUnauthorizedAccount","type":"error"},{"inputs":[{"internalType":"address","name":"spender","type":"address"},{"internalType":"uint256","name":"allowance","type":"uint256"},{"internalType":"uint256","name":"needed","type":"uint256"}],"name":"ERC20InsufficientAllowance","type":"error"},{"inputs":[{"internalType":"address","name":"sender","type":"address"},{"internalType":"uint256","name":"balance","type":"uint256"},{"internalType":"uint256","name":"needed","type":"uint256"}],"name":"ERC20InsufficientBalance","type":"error"},{"inputs":[{"internalType":"address","name":"approver","type":"address"}],"name":"ERC20InvalidApprover","type":"error"},{"inputs":[{"internalType":"address","name":"receiver","type":"address"}],"name":"ERC20InvalidReceiver","type":"error"},{"inputs":[{"internalType":"address","name":"sender","type":"address"}],"name":"ERC20InvalidSender","type":"error"},{"inputs":[{"internalType":"address","name":"spender","type":"address"}],"name":"ERC20InvalidSpender","type":"error"},{"inputs":[{"internalType":"address","name":"owner","type":"address"}],"name":"OwnableInvalidOwner","type":"error"},{"inputs":[{"internalType":"address","name":"account","type":"address"}],"name":"OwnableUnauthorizedAccount","type":"error"},{"anonymous":false,"inputs":[{"indexed":true,"internalType":"address","name":"owner","type":"address"},{"indexed":true,"internalType":"address","name":"spender","type":"address"},{"indexed":false,"internalType":"uint256","name":"value","type":"uint256"}],"name":"Approval","type":"event"},{"anonymous":false,"inputs":[{"indexed":true,"internalType":"address","name":"previousOwner","type":"address"},{"indexed":true,"internalType":"address","name":"newOwner","type":"address"}],"name":"OwnershipTransferred","type":"event"},{"anonymous":false,"inputs":[{"indexed":true,"internalType":"bytes32","name":"role","type":"bytes32"},{"indexed":true,"internalType":"bytes32","name":"previousAdminRole","type":"bytes32"},{"indexed":true,"internalType":"bytes32","name":"newAdminRole","type":"bytes32"}],"name":"RoleAdminChanged","type":"event"},{"anonymous":false,"inputs":[{"indexed":true,"internalType":"bytes32","name":"role","type":"bytes32"},{"indexed":true,"internalType":"address","name":"account","type":"address"},{"indexed":true,"internalType":"address","name":"sender","type":"address"}],"name":"RoleGranted","type":"event"},{"anonymous":false,"inputs":[{"indexed":true,"internalType":"bytes32","name":"role","type":"bytes32"},{"indexed":true,"internalType":"address","name":"account","type":"address"},{"indexed":true,"internalType":"address","name":"sender","type":"address"}],"name":"RoleRevoked","type":"event"},{"anonymous":false,"inputs":[{"indexed":true,"internalType":"address","name":"from","type":"address"},{"indexed":true,"internalType":"address","name":"to","type":"address"},{"indexed":false,"internalType":"uint256","name":"value","type":"uint256"}],"name":"Transfer","type":"event"},{"inputs":[],"name":"BLACKLIST_MANAGER_ROLE","outputs":[{"internalType":"bytes32","name":"","type":"bytes32"}],"stateMutability":"view","type":"function"},{"inputs":[],"name":"BURNER_ROLE","outputs":[{"internalType":"bytes32","name":"","type":"bytes32"}],"stateMutability":"view","type":"function"},{"inputs":[],"name":"DEFAULT_ADMIN_ROLE","outputs":[{"internalType":"bytes32","name":"","type":"bytes32"}],"stateMutability":"view","type":"function"},{"inputs":[],"name":"FREEZER_ROLE","outputs":[{"internalType":"bytes32","name":"","type":"bytes32"}],"stateMutability":"view","type":"function"},{"inputs":[],"name":"MINTER_ROLE","outputs":[{"internalType":"bytes32","name":"","type":"bytes32"}],"stateMutability":"view","type":"function"},{"inputs":[],"name":"RECOVER_ROLE","outputs":[{"internalType":"bytes32","name":"","type":"bytes32"}],"stateMutability":"view","type":"function"},{"inputs":[{"internalType":"address","name":"account","type":"address"}],"name":"addBlacklistManager","outputs":[],"stateMutability":"nonpayable","type":"function"},{"inputs":[{"internalType":"address","name":"account","type":"address"}],"name":"addBurner","outputs":[],"stateMutability":"nonpayable","type":"function"},{"inputs":[{"internalType":"address","name":"account","type":"address"}],"name":"addFreezer","outputs":[],"stateMutability":"nonpayable","type":"function"},{"inputs":[{"internalType":"address","name":"account","type":"address"}],"name":"addMinter","outputs":[],"stateMutability":"nonpayable","type":"function"},{"inputs":[{"internalType":"address","name":"account","type":"address"}],"name":"addRecoverer","outputs":[],"stateMutability":"nonpayable","type":"function"},{"inputs":[{"internalType":"address","name":"account","type":"address"}],"name":"addToBlacklist","outputs":[],"stateMutability":"nonpayable","type":"function"},{"inputs":[{"internalType":"address","name":"owner","type":"address"},{"internalType":"address","name":"spender","type":"address"}],"name":"allowance","outputs":[{"internalType":"uint256","name":"","type":"uint256"}],"stateMutability":"view","type":"function"},{"inputs":[{"internalType":"address","name":"spender","type":"address"},{"internalType":"uint256","name":"value","type":"uint256"}],"name":"approve","outputs":[{"internalType":"bool","name":"","type":"bool"}],"stateMutability":"nonpayable","type":"function"},{"inputs":[{"internalType":"address","name":"account","type":"address"}],"name":"balanceOf","outputs":[{"internalType":"uint256","name":"","type":"uint256"}],"stateMutability":"view","type":"function"},{"inputs":[{"internalType":"address","name":"from","type":"address"},{"internalType":"uint256","name":"amount","type":"uint256"}],"name":"burn","outputs":[],"stateMutability":"nonpayable","type":"function"},{"inputs":[],"name":"decimals","outputs":[{"internalType":"uint8","name":"","type":"uint8"}],"stateMutability":"view","type":"function"},{"inputs":[{"internalType":"address","name":"account","type":"address"}],"name":"freezeAccount","outputs":[],"stateMutability":"nonpayable","type":"function"},{"inputs":[{"internalType":"bytes32","name":"role","type":"bytes32"}],"name":"getRoleAdmin","outputs":[{"internalType":"bytes32","name":"","type":"bytes32"}],"stateMutability":"view","type":"function"},{"inputs":[{"internalType":"bytes32","name":"role","type":"bytes32"},{"internalType":"address","name":"account","type":"address"}],"name":"grantRole","outputs":[],"stateMutability":"nonpayable","type":"function"},{"inputs":[{"internalType":"bytes32","name":"role","type":"bytes32"},{"internalType":"address","name":"account","type":"address"}],"name":"hasRole","outputs":[{"internalType":"bool","name":"","type":"bool"}],"stateMutability":"view","type":"function"},{"inputs":[{"internalType":"address","name":"account","type":"address"}],"name":"isBlacklisted","outputs":[{"internalType":"bool","name":"","type":"bool"}],"stateMutability":"view","type":"function"},{"inputs":[{"internalType":"address","name":"account","type":"address"}],"name":"isFrozen","outputs":[{"internalType":"bool","name":"","type":"bool"}],"stateMutability":"view","type":"function"},{"inputs":[{"internalType":"address","name":"to","type":"address"},{"internalType":"uint256","name":"amount","type":"uint256"}],"name":"mint","outputs":[],"stateMutability":"nonpayable","type":"function"},{"inputs":[],"name":"name","outputs":[{"internalType":"string","name":"","type":"string"}],"stateMutability":"view","type":"function"},{"inputs":[],"name":"owner","outputs":[{"internalType":"address","name":"","type":"address"}],"stateMutability":"view","type":"function"},{"inputs":[{"internalType":"address","name":"from","type":"address"},{"internalType":"address","name":"to","type":"address"},{"internalType":"uint256","name":"amount","type":"uint256"}],"name":"recover","outputs":[],"stateMutability":"nonpayable","type":"function"},{"inputs":[{"internalType":"address","name":"account","type":"address"}],"name":"removeBlacklistManager","outputs":[],"stateMutability":"nonpayable","type":"function"},{"inputs":[{"internalType":"address","name":"account","type":"address"}],"name":"removeBurner","outputs":[],"stateMutability":"nonpayable","type":"function"},{"inputs":[{"internalType":"address","name":"account","type":"address"}],"name":"removeFreezer","outputs":[],"stateMutability":"nonpayable","type":"function"},{"inputs":[{"internalType":"address","name":"account","type":"address"}],"name":"removeFromBlacklist","outputs":[],"stateMutability":"nonpayable","type":"function"},{"inputs":[{"internalType":"address","name":"account","type":"address"}],"name":"removeMinter","outputs":[],"stateMutability":"nonpayable","type":"function"},{"inputs":[{"internalType":"address","name":"account","type":"address"}],"name":"removeRecoverer","outputs":[],"stateMutability":"nonpayable","type":"function"},{"inputs":[],"name":"renounceOwnership","outputs":[],"stateMutability":"nonpayable","type":"function"},{"inputs":[{"internalType":"bytes32","name":"role","type":"bytes32"},{"internalType":"address","name":"callerConfirmation","type":"address"}],"name":"renounceRole","outputs":[],"stateMutability":"nonpayable","type":"function"},{"inputs":[{"internalType":"bytes32","name":"role","type":"bytes32"},{"internalType":"address","name":"account","type":"address"}],"name":"revokeRole","outputs":[],"stateMutability":"nonpayable","type":"function"},{"inputs":[{"internalType":"bytes4","name":"interfaceId","type":"bytes4"}],"name":"supportsInterface","outputs":[{"internalType":"bool","name":"","type":"bool"}],"stateMutability":"view","type":"function"},{"inputs":[],"name":"symbol","outputs":[{"internalType":"string","name":"","type":"string"}],"stateMutability":"view","type":"function"},{"inputs":[],"name":"totalSupply","outputs":[{"internalType":"uint256","name":"","type":"uint256"}],"stateMutability":"view","type":"function"},{"inputs":[{"internalType":"address","name":"to","type":"address"},{"internalType":"uint256","name":"amount","type":"uint256"}],"name":"transfer","outputs":[{"internalType":"bool","name":"","type":"bool"}],"stateMutability":"nonpayable","type":"function"},{"inputs":[{"internalType":"address","name":"from","type":"address"},{"internalType":"address","name":"to","type":"address"},{"internalType":"uint256","name":"value","type":"uint256"}],"name":"transferFrom","outputs":[{"internalType":"bool","name":"","type":"bool"}],"stateMutability":"nonpayable","type":"function"},{"inputs":[{"internalType":"address","name":"newOwner","type":"address"}],"name":"transferOwnership","outputs":[],"stateMutability":"nonpayable","type":"function"},{"inputs":[{"internalType":"address","name":"account","type":"address"}],"name":"unfreezeAccount","outputs":[],"stateMutability":"nonpayable","type":"function"}],"evm":{"bytecode":{"linkReferences":{},"object":"60806040523480156200001157600080fd5b5060405162003ab738038062003ab7833981810160405281019062000037919062000b34565b33838381600390816200004b919062000e0f565b5080600490816200005d919062000e0f565b505050600073ffffffffffffffffffffffffffffffffffffffff168173ffffffffffffffffffffffffffffffffffffffff1603620000d55760006040517f1e4fbdf7000000000000000000000000000000000000000000000000000000008152600401620000cc919062000f3b565b60405180910390fd5b620000e6816200016d60201b60201c565b50620000fc6000801b336200023360201b60201c565b506200010f33826200033760201b60201c565b6200012033620003c460201b60201c565b62000131336200040960201b60201c565b62000142336200044e60201b60201c565b62000153336200049360201b60201c565b6200016433620004d860201b60201c565b50505062001075565b6000600660009054906101000a900473ffffffffffffffffffffffffffffffffffffffff16905081600660006101000a81548173ffffffffffffffffffffffffffffffffffffffff021916908373ffffffffffffffffffffffffffffffffffffffff1602179055508173ffffffffffffffffffffffffffffffffffffffff168173ffffffffffffffffffffffffffffffffffffffff167f8be0079c531659141344cd1fd0a4f28419497f9722a3daafe3b4186f6b6457e060405160405180910390a35050565b60006200024783836200051d60201b60201c565b6200032c5760016005600085815260200190815260200160002060000160008473ffffffffffffffffffffffffffffffffffffffff1673ffffffffffffffffffffffffffffffffffffffff16815260200190815260200160002060006101000a81548160ff021916908315150217905550620002c86200058860201b60201c565b73ffffffffffffffffffffffffffffffffffffffff168273ffffffffffffffffffffffffffffffffffffffff16847f2f8788117e7eff1d82e926ec794901d17c78024a50270940304540a733656f0d60405160405180910390a46001905062000331565b600090505b92915050565b600073ffffffffffffffffffffffffffffffffffffffff168273ffffffffffffffffffffffffffffffffffffffff1603620003ac5760006040517fec442f05000000000000000000000000000000000000000000000000000000008152600401620003a3919062000f3b565b60405180910390fd5b620003c0600083836200059060201b60201c565b5050565b620003d4620007c060201b60201c565b620004067f9f2df0fed2c77648de5860a4cc508cd0818c85b8b8a1ab4ceeef8d981c8956a6826200086260201b60201c565b50565b62000419620007c060201b60201c565b6200044b7f3c11d16cbaffd01df69ce1c404f6340ee057498f5f00246190ea54220576a848826200086260201b60201c565b50565b6200045e620007c060201b60201c565b620004907f92de27771f92d6942691d73358b3a4673e4880de8356f8f2cf452be87e02d363826200086260201b60201c565b50565b620004a3620007c060201b60201c565b620004d57ff988e4fb62b8e14f4820fed03192306ddf4d7dbfa215595ba1c6ba4b76b369ee826200086260201b60201c565b50565b620004e8620007c060201b60201c565b6200051a7f62b337eaefec74dadf1a62e856bf9db4f14a0f27d4f48156a95a9f98e7d5e066826200086260201b60201c565b50565b60006005600084815260200190815260200160002060000160008373ffffffffffffffffffffffffffffffffffffffff1673ffffffffffffffffffffffffffffffffffffffff16815260200190815260200160002060009054906101000a900460ff16905092915050565b600033905090565b600073ffffffffffffffffffffffffffffffffffffffff168373ffffffffffffffffffffffffffffffffffffffff1603620005e6578060026000828254620005d9919062000f87565b92505081905550620006bc565b60008060008573ffffffffffffffffffffffffffffffffffffffff1673ffffffffffffffffffffffffffffffffffffffff1681526020019081526020016000205490508181101562000675578381836040517fe450d38c0000000000000000000000000000000000000000000000000000000081526004016200066c9392919062000fd3565b60405180910390fd5b8181036000808673ffffffffffffffffffffffffffffffffffffffff1673ffffffffffffffffffffffffffffffffffffffff16815260200190815260200160002081905550505b600073ffffffffffffffffffffffffffffffffffffffff168273ffffffffffffffffffffffffffffffffffffffff160362000707578060026000828254039250508190555062000754565b806000808473ffffffffffffffffffffffffffffffffffffffff1673ffffffffffffffffffffffffffffffffffffffff168152602001908152602001600020600082825401925050819055505b8173ffffffffffffffffffffffffffffffffffffffff168373ffffffffffffffffffffffffffffffffffffffff167fddf252ad1be2c89b69c2b068fc378daa952ba7f163c4a11628f55a4df523b3ef83604051620007b3919062001010565b60405180910390a3505050565b620007d06200058860201b60201c565b73ffffffffffffffffffffffffffffffffffffffff16620007f66200089c60201b60201c565b73ffffffffffffffffffffffffffffffffffffffff16146200086057620008226200058860201b60201c565b6040517f118cdaa700000000000000000000000000000000000000000000000000000000815260040162000857919062000f3b565b60405180910390fd5b565b6200087382620008c660201b60201c565b6200088481620008e660201b60201c565b6200089683836200023360201b60201c565b50505050565b6000600660009054906101000a900473ffffffffffffffffffffffffffffffffffffffff16905090565b600060056000838152602001908152602001600020600101549050919050565b6200090781620008fb6200058860201b60201c565b6200090a60201b60201c565b50565b6200091c82826200051d60201b60201c565b620009625780826040517fe2517d3f0000000000000000000000000000000000000000000000000000000081526004016200095992919062001048565b60405180910390fd5b5050565b6000604051905090565b600080fd5b600080fd5b600080fd5b600080fd5b6000601f19601f8301169050919050565b7f4e487b7100000000000000000000000000000000000000000000000000000000600052604160045260246000fd5b620009cf8262000984565b810181811067ffffffffffffffff82111715620009f157620009f062000995565b5b80604052505050565b600062000a0662000966565b905062000a148282620009c4565b919050565b600067ffffffffffffffff82111562000a375762000a3662000995565b5b62000a428262000984565b9050602081019050919050565b60005b8381101562000a6f57808201518184015260208101905062000a52565b60008484015250505050565b600062000a9262000a8c8462000a19565b620009fa565b90508281526020810184848401111562000ab15762000ab06200097f565b5b62000abe84828562000a4f565b509392505050565b600082601f83011262000ade5762000add6200097a565b5b815162000af084826020860162000a7b565b91505092915050565b6000819050919050565b62000b0e8162000af9565b811462000b1a57600080fd5b50565b60008151905062000b2e8162000b03565b92915050565b60008060006060848603121562000b505762000b4f62000970565b5b600084015167ffffffffffffffff81111562000b715762000b7062000975565b5b62000b7f8682870162000ac6565b935050602084015167ffffffffffffffff81111562000ba35762000ba262000975565b5b62000bb18682870162000ac6565b925050604062000bc48682870162000b1d565b9150509250925092565b600081519050919050565b7f4e487b7100000000000000000000000000000000000000000000000000000000600052602260045260246000fd5b6000600282049050600182168062000c2157607f821691505b60208210810362000c375762000c3662000bd9565b5b50919050565b60008190508160005260206000209050919050565b60006020601f8301049050919050565b600082821b905092915050565b60006008830262000ca17fffffffffffffffffffffffffffffffffffffffffffffffffffffffffffffffff8262000c62565b62000cad868362000c62565b95508019841693508086168417925050509392505050565b6000819050919050565b600062000cf062000cea62000ce48462000af9565b62000cc5565b62000af9565b9050919050565b6000819050919050565b62000d0c8362000ccf565b62000d2462000d1b8262000cf7565b84845462000c6f565b825550505050565b600090565b62000d3b62000d2c565b62000d4881848462000d01565b505050565b5b8181101562000d705762000d6460008262000d31565b60018101905062000d4e565b5050565b601f82111562000dbf5762000d898162000c3d565b62000d948462000c52565b8101602085101562000da4578190505b62000dbc62000db38562000c52565b83018262000d4d565b50505b505050565b600082821c905092915050565b600062000de46000198460080262000dc4565b1980831691505092915050565b600062000dff838362000dd1565b9150826002028217905092915050565b62000e1a8262000bce565b67ffffffffffffffff81111562000e365762000e3562000995565b5b62000e42825462000c08565b62000e4f82828562000d74565b600060209050601f83116001811462000e87576000841562000e72578287015190505b62000e7e858262000df1565b86555062000eee565b601f19841662000e978662000c3d565b60005b8281101562000ec15784890151825560018201915060208501945060208101905062000e9a565b8683101562000ee1578489015162000edd601f89168262000dd1565b8355505b6001600288020188555050505b505050505050565b600073ffffffffffffffffffffffffffffffffffffffff82169050919050565b600062000f238262000ef6565b9050919050565b62000f358162000f16565b82525050565b600060208201905062000f52600083018462000f2a565b92915050565b7f4e487b7100000000000000000000000000000000000000000000000000000000600052601160045260246000fd5b600062000f948262000af9565b915062000fa18362000af9565b925082820190508082111562000fbc5762000fbb62000f58565b5b92915050565b62000fcd8162000af9565b82525050565b600060608201905062000fea600083018662000f2a565b62000ff9602083018562000fc2565b62001008604083018462000fc2565b949350505050565b600060208201905062001027600083018462000fc2565b92915050565b6000819050919050565b62001042816200102d565b82525050565b60006040820190506200105f600083018562000f2a565b6200106e602083018462001037565b9392505050565b612a3280620010856000396000f3fe608060405234801561001057600080fd5b50600436106102695760003560e01c806370a0823111610151578063a9059cbb116100c3578063dd62ed3e11610087578063dd62ed3e1461070a578063e58398361461073a578063f26c159f1461076a578063f2fde38b14610786578063f44637ba146107a2578063fe575a87146107be57610269565b8063a9059cbb14610668578063c2134b2314610698578063d1c2de0a146106b4578063d5391393146106d0578063d547741f146106ee57610269565b8063939bcbc911610115578063939bcbc9146105ba57806395d89b41146105d8578063974b368c146105f6578063983b2d56146106125780639dc29fac1461062e578063a217fddf1461064a57610269565b806370a0823114610516578063715018a614610546578063788649ea146105505780638da5cb5b1461056c57806391d148541461058a57610269565b8063282c51f3116101ea57806336568abe116101ae57806336568abe1461046c57806340c10f1914610488578063410b2424146104a457806344337ea1146104c2578063526606c9146104de578063537df3b6146104fa57610269565b8063282c51f3146103dc5780632acd2000146103fa5780632f2ff15d146104165780633092afd514610432578063313ce5671461044e57610269565b80630eff2afc116102315780630eff2afc1461032657806318160ddd146103425780631ec82cb81461036057806323b872dd1461037c578063248a9ca3146103ac57610269565b806301ffc9a71461026e578063028468581461029e57806306a85f0f146102ba57806306fdde03146102d8578063095ea7b3146102f6575b600080fd5b61028860048036038101906102839190612152565b6107ee565b604051610295919061219a565b60405180910390f35b6102b860048036038101906102b39190612213565b610868565b005b6102c261089d565b6040516102cf9190612259565b60405180910390f35b6102e06108c1565b6040516102ed9190612304565b60405180910390f35b610310600480360381019061030b919061235c565b610953565b60405161031d919061219a565b60405180910390f35b610340600480360381019061033b9190612213565b610976565b005b61034a6109ab565b60405161035791906123ab565b60405180910390f35b61037a600480360381019061037591906123c6565b6109b5565b005b610396600480360381019061039191906123c6565b6109f0565b6040516103a3919061219a565b60405180910390f35b6103c660048036038101906103c19190612445565b610a1f565b6040516103d39190612259565b60405180910390f35b6103e4610a3f565b6040516103f19190612259565b60405180910390f35b610414600480360381019061040f9190612213565b610a63565b005b610430600480360381019061042b9190612472565b610a98565b005b61044c60048036038101906104479190612213565b610aba565b005b610456610aef565b60405161046391906124ce565b60405180910390f35b61048660048036038101906104819190612472565b610af8565b005b6104a2600480360381019061049d919061235c565b610b73565b005b6104ac610bac565b6040516104b99190612259565b60405180910390f35b6104dc60048036038101906104d79190612213565b610bd0565b005b6104f860048036038101906104f39190612213565b610c67565b005b610514600480360381019061050f9190612213565b610c9c565b005b610530600480360381019061052b9190612213565b610d32565b60405161053d91906123ab565b60405180910390f35b61054e610d7a565b005b61056a60048036038101906105659190612213565b610d8e565b005b610574610e24565b60405161058191906124f8565b60405180910390f35b6105a4600480360381019061059f9190612472565b610e4e565b6040516105b1919061219a565b60405180910390f35b6105c2610eb9565b6040516105cf9190612259565b60405180910390f35b6105e0610edd565b6040516105ed9190612304565b60405180910390f35b610610600480360381019061060b9190612213565b610f6f565b005b61062c60048036038101906106279190612213565b610fa4565b005b6106486004803603810190610643919061235c565b610fd9565b005b610652611012565b60405161065f9190612259565b60405180910390f35b610682600480360381019061067d919061235c565b611019565b60405161068f919061219a565b60405180910390f35b6106b260048036038101906106ad9190612213565b611135565b005b6106ce60048036038101906106c99190612213565b61116a565b005b6106d861119f565b6040516106e59190612259565b60405180910390f35b61070860048036038101906107039190612472565b6111c3565b005b610724600480360381019061071f9190612513565b6111e5565b60405161073191906123ab565b60405180910390f35b610754600480360381019061074f9190612213565b61126c565b604051610761919061219a565b60405180910390f35b610784600480360381019061077f9190612213565b611289565b005b6107a0600480360381019061079b9190612213565b611320565b005b6107bc60048036038101906107b79190612213565b6113a6565b005b6107d860048036038101906107d39190612213565b6113db565b6040516107e5919061219a565b60405180910390f35b60007f7965db0b000000000000000000000000000000000000000000000000000000007bffffffffffffffffffffffffffffffffffffffffffffffffffffffff1916827bffffffffffffffffffffffffffffffffffffffffffffffffffffffff191614806108615750610860826113f8565b5b9050919050565b610870611462565b61089a7f3c11d16cbaffd01df69ce1c404f6340ee057498f5f00246190ea54220576a848826111c3565b50565b7f92de27771f92d6942691d73358b3a4673e4880de8356f8f2cf452be87e02d36381565b6060600380546108d090612582565b80601f01602080910402602001604051908101604052809291908181526020018280546108fc90612582565b80156109495780601f1061091e57610100808354040283529160200191610949565b820191906000526020600020905b81548152906001019060200180831161092c57829003601f168201915b5050505050905090565b60008061095e6114e9565b905061096b8185856114f1565b600191505092915050565b61097e611462565b6109a87ff988e4fb62b8e14f4820fed03192306ddf4d7dbfa215595ba1c6ba4b76b369ee82610a98565b50565b6000600254905090565b7f62b337eaefec74dadf1a62e856bf9db4f14a0f27d4f48156a95a9f98e7d5e0666109df81611503565b6109ea848484611517565b50505050565b6000806109fb6114e9565b9050610a0885828561160b565b610a13858585611517565b60019150509392505050565b600060056000838152602001908152602001600020600101549050919050565b7f3c11d16cbaffd01df69ce1c404f6340ee057498f5f00246190ea54220576a84881565b610a6b611462565b610a957f92de27771f92d6942691d73358b3a4673e4880de8356f8f2cf452be87e02d363826111c3565b50565b610aa182610a1f565b610aaa81611503565b610ab4838361169f565b50505050565b610ac2611462565b610aec7f9f2df0fed2c77648de5860a4cc508cd0818c85b8b8a1ab4ceeef8d981c8956a6826111c3565b50565b60006012905090565b610b006114e9565b73ffffffffffffffffffffffffffffffffffffffff168173ffffffffffffffffffffffffffffffffffffffff1614610b64576040517f6697b23200000000000000000000000000000000000000000000000000000000815260040160405180910390fd5b610b6e8282611791565b505050565b7f9f2df0fed2c77648de5860a4cc508cd0818c85b8b8a1ab4ceeef8d981c8956a6610b9d81611503565b610ba78383611884565b505050565b7ff988e4fb62b8e14f4820fed03192306ddf4d7dbfa215595ba1c6ba4b76b369ee81565b7ff988e4fb62b8e14f4820fed03192306ddf4d7dbfa215595ba1c6ba4b76b369ee610bfa81611503565b610c0e82600961190690919063ffffffff16565b15610c4e576040517f08c379a0000000000000000000000000000000000000000000000000000000008152600401610c45906125ff565b60405180910390fd5b610c6282600961193690919063ffffffff16565b505050565b610c6f611462565b610c997f92de27771f92d6942691d73358b3a4673e4880de8356f8f2cf452be87e02d36382610a98565b50565b7ff988e4fb62b8e14f4820fed03192306ddf4d7dbfa215595ba1c6ba4b76b369ee610cc681611503565b610cda82600961190690919063ffffffff16565b610d19576040517f08c379a0000000000000000000000000000000000000000000000000000000008152600401610d109061266b565b60405180910390fd5b610d2d82600961196690919063ffffffff16565b505050565b60008060008373ffffffffffffffffffffffffffffffffffffffff1673ffffffffffffffffffffffffffffffffffffffff168152602001908152602001600020549050919050565b610d82611462565b610d8c6000611996565b565b7f92de27771f92d6942691d73358b3a4673e4880de8356f8f2cf452be87e02d363610db881611503565b610dcc82600761190690919063ffffffff16565b610e0b576040517f08c379a0000000000000000000000000000000000000000000000000000000008152600401610e02906126d7565b60405180910390fd5b610e1f82600761196690919063ffffffff16565b505050565b6000600660009054906101000a900473ffffffffffffffffffffffffffffffffffffffff16905090565b60006005600084815260200190815260200160002060000160008373ffffffffffffffffffffffffffffffffffffffff1673ffffffffffffffffffffffffffffffffffffffff16815260200190815260200160002060009054906101000a900460ff16905092915050565b7f62b337eaefec74dadf1a62e856bf9db4f14a0f27d4f48156a95a9f98e7d5e06681565b606060048054610eec90612582565b80601f0160208091040260200160405190810160405280929190818152602001828054610f1890612582565b8015610f655780601f10610f3a57610100808354040283529160200191610f65565b820191906000526020600020905b815481529060010190602001808311610f4857829003601f168201915b5050505050905090565b610f77611462565b610fa17ff988e4fb62b8e14f4820fed03192306ddf4d7dbfa215595ba1c6ba4b76b369ee826111c3565b50565b610fac611462565b610fd67f9f2df0fed2c77648de5860a4cc508cd0818c85b8b8a1ab4ceeef8d981c8956a682610a98565b50565b7f3c11d16cbaffd01df69ce1c404f6340ee057498f5f00246190ea54220576a84861100381611503565b61100d8383611a5c565b505050565b6000801b81565b6000806110246114e9565b905061103a81600761190690919063ffffffff16565b1561107a576040517f08c379a000000000000000000000000000000000000000000000000000000000815260040161107190612743565b60405180910390fd5b61108e81600961190690919063ffffffff16565b156110ce576040517f08c379a00000000000000000000000000000000000000000000000000000000081526004016110c5906127af565b60405180910390fd5b6110e284600961190690919063ffffffff16565b15611122576040517f08c379a00000000000000000000000000000000000000000000000000000000081526004016111199061281b565b60405180910390fd5b61112c8484611ade565b91505092915050565b61113d611462565b6111677f62b337eaefec74dadf1a62e856bf9db4f14a0f27d4f48156a95a9f98e7d5e06682610a98565b50565b611172611462565b61119c7f62b337eaefec74dadf1a62e856bf9db4f14a0f27d4f48156a95a9f98e7d5e066826111c3565b50565b7f9f2df0fed2c77648de5860a4cc508cd0818c85b8b8a1ab4ceeef8d981c8956a681565b6111cc82610a1f565b6111d581611503565b6111df8383611791565b50505050565b6000600160008473ffffffffffffffffffffffffffffffffffffffff1673ffffffffffffffffffffffffffffffffffffffff16815260200190815260200160002060008373ffffffffffffffffffffffffffffffffffffffff1673ffffffffffffffffffffffffffffffffffffffff16815260200190815260200160002054905092915050565b600061128282600761190690919063ffffffff16565b9050919050565b7f92de27771f92d6942691d73358b3a4673e4880de8356f8f2cf452be87e02d3636112b381611503565b6112c782600761190690919063ffffffff16565b15611307576040517f08c379a00000000000000000000000000000000000000000000000000000000081526004016112fe90612887565b60405180910390fd5b61131b82600761193690919063ffffffff16565b505050565b611328611462565b600073ffffffffffffffffffffffffffffffffffffffff168173ffffffffffffffffffffffffffffffffffffffff160361139a5760006040517f1e4fbdf700000000000000000000000000000000000000000000000000000000815260040161139191906124f8565b60405180910390fd5b6113a381611996565b50565b6113ae611462565b6113d87f3c11d16cbaffd01df69ce1c404f6340ee057498f5f00246190ea54220576a84882610a98565b50565b60006113f182600961190690919063ffffffff16565b9050919050565b60007f01ffc9a7000000000000000000000000000000000000000000000000000000007bffffffffffffffffffffffffffffffffffffffffffffffffffffffff1916827bffffffffffffffffffffffffffffffffffffffffffffffffffffffff1916149050919050565b61146a6114e9565b73ffffffffffffffffffffffffffffffffffffffff16611488610e24565b73ffffffffffffffffffffffffffffffffffffffff16146114e7576114ab6114e9565b6040517f118cdaa70000000000000000000000000000000000000000000000000000000081526004016114de91906124f8565b60405180910390fd5b565b600033905090565b6114fe8383836001611b01565b505050565b6115148161150f6114e9565b611cd8565b50565b600073ffffffffffffffffffffffffffffffffffffffff168373ffffffffffffffffffffffffffffffffffffffff16036115895760006040517f96c6fd1e00000000000000000000000000000000000000000000000000000000815260040161158091906124f8565b60405180910390fd5b600073ffffffffffffffffffffffffffffffffffffffff168273ffffffffffffffffffffffffffffffffffffffff16036115fb5760006040517fec442f050000000000000000000000000000000000000000000000000000000081526004016115f291906124f8565b60405180910390fd5b611606838383611d29565b505050565b600061161784846111e5565b90507fffffffffffffffffffffffffffffffffffffffffffffffffffffffffffffffff81146116995781811015611689578281836040517ffb8f41b2000000000000000000000000000000000000000000000000000000008152600401611680939291906128a7565b60405180910390fd5b61169884848484036000611b01565b5b50505050565b60006116ab8383610e4e565b6117865760016005600085815260200190815260200160002060000160008473ffffffffffffffffffffffffffffffffffffffff1673ffffffffffffffffffffffffffffffffffffffff16815260200190815260200160002060006101000a81548160ff0219169083151502179055506117236114e9565b73ffffffffffffffffffffffffffffffffffffffff168273ffffffffffffffffffffffffffffffffffffffff16847f2f8788117e7eff1d82e926ec794901d17c78024a50270940304540a733656f0d60405160405180910390a46001905061178b565b600090505b92915050565b600061179d8383610e4e565b156118795760006005600085815260200190815260200160002060000160008473ffffffffffffffffffffffffffffffffffffffff1673ffffffffffffffffffffffffffffffffffffffff16815260200190815260200160002060006101000a81548160ff0219169083151502179055506118166114e9565b73ffffffffffffffffffffffffffffffffffffffff168273ffffffffffffffffffffffffffffffffffffffff16847ff6391f5c32d9c69d2a47ea670b442974b53935d1edc7fd64eb21e047a839171b60405160405180910390a46001905061187e565b600090505b92915050565b600073ffffffffffffffffffffffffffffffffffffffff168273ffffffffffffffffffffffffffffffffffffffff16036118f65760006040517fec442f050000000000000000000000000000000000000000000000000000000081526004016118ed91906124f8565b60405180910390fd5b61190260008383611d29565b5050565b600061192e836000018373ffffffffffffffffffffffffffffffffffffffff1660001b611f4e565b905092915050565b600061195e836000018373ffffffffffffffffffffffffffffffffffffffff1660001b611f71565b905092915050565b600061198e836000018373ffffffffffffffffffffffffffffffffffffffff1660001b611fe1565b905092915050565b6000600660009054906101000a900473ffffffffffffffffffffffffffffffffffffffff16905081600660006101000a81548173ffffffffffffffffffffffffffffffffffffffff021916908373ffffffffffffffffffffffffffffffffffffffff1602179055508173ffffffffffffffffffffffffffffffffffffffff168173ffffffffffffffffffffffffffffffffffffffff167f8be0079c531659141344cd1fd0a4f28419497f9722a3daafe3b4186f6b6457e060405160405180910390a35050565b600073ffffffffffffffffffffffffffffffffffffffff168273ffffffffffffffffffffffffffffffffffffffff1603611ace5760006040517f96c6fd1e000000000000000000000000000000000000000000000000000000008152600401611ac591906124f8565b60405180910390fd5b611ada82600083611d29565b5050565b600080611ae96114e9565b9050611af6818585611517565b600191505092915050565b600073ffffffffffffffffffffffffffffffffffffffff168473ffffffffffffffffffffffffffffffffffffffff1603611b735760006040517fe602df05000000000000000000000000000000000000000000000000000000008152600401611b6a91906124f8565b60405180910390fd5b600073ffffffffffffffffffffffffffffffffffffffff168373ffffffffffffffffffffffffffffffffffffffff1603611be55760006040517f94280d62000000000000000000000000000000000000000000000000000000008152600401611bdc91906124f8565b60405180910390fd5b81600160008673ffffffffffffffffffffffffffffffffffffffff1673ffffffffffffffffffffffffffffffffffffffff16815260200190815260200160002060008573ffffffffffffffffffffffffffffffffffffffff1673ffffffffffffffffffffffffffffffffffffffff168152602001908152602001600020819055508015611cd2578273ffffffffffffffffffffffffffffffffffffffff168473ffffffffffffffffffffffffffffffffffffffff167f8c5be1e5ebec7d5bd14f71427d1e84f3dd0314c0f7b2291e5b200ac8c7c3b92584604051611cc991906123ab565b60405180910390a35b50505050565b611ce28282610e4e565b611d255780826040517fe2517d3f000000000000000000000000000000000000000000000000000000008152600401611d1c9291906128de565b60405180910390fd5b5050565b600073ffffffffffffffffffffffffffffffffffffffff168373ffffffffffffffffffffffffffffffffffffffff1603611d7b578060026000828254611d6f9190612936565b92505081905550611e4e565b60008060008573ffffffffffffffffffffffffffffffffffffffff1673ffffffffffffffffffffffffffffffffffffffff16815260200190815260200160002054905081811015611e07578381836040517fe450d38c000000000000000000000000000000000000000000000000000000008152600401611dfe939291906128a7565b60405180910390fd5b8181036000808673ffffffffffffffffffffffffffffffffffffffff1673ffffffffffffffffffffffffffffffffffffffff16815260200190815260200160002081905550505b600073ffffffffffffffffffffffffffffffffffffffff168273ffffffffffffffffffffffffffffffffffffffff1603611e975780600260008282540392505081905550611ee4565b806000808473ffffffffffffffffffffffffffffffffffffffff1673ffffffffffffffffffffffffffffffffffffffff168152602001908152602001600020600082825401925050819055505b8173ffffffffffffffffffffffffffffffffffffffff168373ffffffffffffffffffffffffffffffffffffffff167fddf252ad1be2c89b69c2b068fc378daa952ba7f163c4a11628f55a4df523b3ef83604051611f4191906123ab565b60405180910390a3505050565b600080836001016000848152602001908152602001600020541415905092915050565b6000611f7d8383611f4e565b611fd6578260000182908060018154018082558091505060019003906000526020600020016000909190919091505582600001805490508360010160008481526020019081526020016000208190555060019050611fdb565b600090505b92915050565b600080836001016000848152602001908152602001600020549050600081146120e9576000600182612013919061296a565b905060006001866000018054905061202b919061296a565b905080821461209a57600086600001828154811061204c5761204b61299e565b5b90600052602060002001549050808760000184815481106120705761206f61299e565b5b90600052602060002001819055508387600101600083815260200190815260200160002081905550505b856000018054806120ae576120ad6129cd565b5b6001900381819060005260206000200160009055905585600101600086815260200190815260200160002060009055600193505050506120ef565b60009150505b92915050565b600080fd5b60007fffffffff0000000000000000000000000000000000000000000000000000000082169050919050565b61212f816120fa565b811461213a57600080fd5b50565b60008135905061214c81612126565b92915050565b600060208284031215612168576121676120f5565b5b60006121768482850161213d565b91505092915050565b60008115159050919050565b6121948161217f565b82525050565b60006020820190506121af600083018461218b565b92915050565b600073ffffffffffffffffffffffffffffffffffffffff82169050919050565b60006121e0826121b5565b9050919050565b6121f0816121d5565b81146121fb57600080fd5b50565b60008135905061220d816121e7565b92915050565b600060208284031215612229576122286120f5565b5b6000612237848285016121fe565b91505092915050565b6000819050919050565b61225381612240565b82525050565b600060208201905061226e600083018461224a565b92915050565b600081519050919050565b600082825260208201905092915050565b60005b838110156122ae578082015181840152602081019050612293565b60008484015250505050565b6000601f19601f8301169050919050565b60006122d682612274565b6122e0818561227f565b93506122f0818560208601612290565b6122f9816122ba565b840191505092915050565b6000602082019050818103600083015261231e81846122cb565b905092915050565b6000819050919050565b61233981612326565b811461234457600080fd5b50565b60008135905061235681612330565b92915050565b60008060408385031215612373576123726120f5565b5b6000612381858286016121fe565b925050602061239285828601612347565b9150509250929050565b6123a581612326565b82525050565b60006020820190506123c0600083018461239c565b92915050565b6000806000606084860312156123df576123de6120f5565b5b60006123ed868287016121fe565b93505060206123fe868287016121fe565b925050604061240f86828701612347565b9150509250925092565b61242281612240565b811461242d57600080fd5b50565b60008135905061243f81612419565b92915050565b60006020828403121561245b5761245a6120f5565b5b600061246984828501612430565b91505092915050565b60008060408385031215612489576124886120f5565b5b600061249785828601612430565b92505060206124a8858286016121fe565b9150509250929050565b600060ff82169050919050565b6124c8816124b2565b82525050565b60006020820190506124e360008301846124bf565b92915050565b6124f2816121d5565b82525050565b600060208201905061250d60008301846124e9565b92915050565b6000806040838503121561252a576125296120f5565b5b6000612538858286016121fe565b9250506020612549858286016121fe565b9150509250929050565b7f4e487b7100000000000000000000000000000000000000000000000000000000600052602260045260246000fd5b6000600282049050600182168061259a57607f821691505b6020821081036125ad576125ac612553565b5b50919050565b7f4163636f756e7420697320616c726561647920626c61636b6c69737465640000600082015250565b60006125e9601e8361227f565b91506125f4826125b3565b602082019050919050565b60006020820190508181036000830152612618816125dc565b9050919050565b7f4163636f756e74206973206e6f7420626c61636b6c6973746564000000000000600082015250565b6000612655601a8361227f565b91506126608261261f565b602082019050919050565b6000602082019050818103600083015261268481612648565b9050919050565b7f4163636f756e74206973206e6f742066726f7a656e0000000000000000000000600082015250565b60006126c160158361227f565b91506126cc8261268b565b602082019050919050565b600060208201905081810360008301526126f0816126b4565b9050919050565b7f53656e646572206163636f756e742069732066726f7a656e0000000000000000600082015250565b600061272d60188361227f565b9150612738826126f7565b602082019050919050565b6000602082019050818103600083015261275c81612720565b9050919050565b7f53656e646572206163636f756e7420697320626c61636b6c6973746564000000600082015250565b6000612799601d8361227f565b91506127a482612763565b602082019050919050565b600060208201905081810360008301526127c88161278c565b9050919050565b7f526563697069656e74206163636f756e7420697320626c61636b6c6973746564600082015250565b600061280560208361227f565b9150612810826127cf565b602082019050919050565b60006020820190508181036000830152612834816127f8565b9050919050565b7f4163636f756e7420697320616c72656164792066726f7a656e00000000000000600082015250565b600061287160198361227f565b915061287c8261283b565b602082019050919050565b600060208201905081810360008301526128a081612864565b9050919050565b60006060820190506128bc60008301866124e9565b6128c9602083018561239c565b6128d6604083018461239c565b949350505050565b60006040820190506128f360008301856124e9565b612900602083018461224a565b9392505050565b7f4e487b7100000000000000000000000000000000000000000000000000000000600052601160045260246000fd5b600061294182612326565b915061294c83612326565b925082820190508082111561296457612963612907565b5b92915050565b600061297582612326565b915061298083612326565b925082820390508181111561299857612997612907565b5b92915050565b7f4e487b7100000000000000000000000000000000000000000000000000000000600052603260045260246000fd5b7f4e487b7100000000000000000000000000000000000000000000000000000000600052603160045260246000fdfea264697066735822122073b4bd9124bc36b7edb744e3f9b26f56ddab47ab8df2dca51e5a6d6bb50bd21f64736f6c63430008180033","opcodes":"PUSH1 0x80 PUSH1 0x40 MSTORE CALLVALUE DUP1 ISZERO PUSH3 0x11 JUMPI PUSH1 0x0 DUP1 REVERT JUMPDEST POP PUSH1 0x40 MLOAD PUSH3 0x3AB7 CODESIZE SUB DUP1 PUSH3 0x3AB7 DUP4 CODECOPY DUP2 DUP2 ADD PUSH1 0x40 MSTORE DUP2 ADD SWAP1 PUSH3 0x37 SWAP2 SWAP1 PUSH3 0xB34 JUMP JUMPDEST CALLER DUP4 DUP4 DUP2 PUSH1 0x3 SWAP1 DUP2 PUSH3 0x4B SWAP2 SWAP1 PUSH3 0xE0F JUMP JUMPDEST POP DUP1 PUSH1 0x4 SWAP1 DUP2 PUSH3 0x5D SWAP2 SWAP1 PUSH3 0xE0F JUMP JUMPDEST POP POP POP PUSH1 0x0 PUSH20 0xFFFFFFFFFFFFFFFFFFFFFFFFFFFFFFFFFFFFFFFF AND DUP2 PUSH20 0xFFFFFFFFFFFFFFFFFFFFFFFFFFFFFFFFFFFFFFFF AND SUB PUSH3 0xD5 JUMPI PUSH1 0x0 PUSH1 0x40 MLOAD PUSH32 0x1E4FBDF700000000000000000000000000000000000000000000000000000000 DUP2 MSTORE PUSH1 0x4 ADD PUSH3 0xCC SWAP2 SWAP1 PUSH3 0xF3B JUMP JUMPDEST PUSH1 0x40 MLOAD DUP1 SWAP2 SUB SWAP1 REVERT JUMPDEST PUSH3 0xE6 DUP2 PUSH3 0x16D PUSH1 0x20 SHL PUSH1 0x20 SHR JUMP JUMPDEST POP PUSH3 0xFC PUSH1 0x0 DUP1 SHL CALLER PUSH3 0x233 PUSH1 0x20 SHL PUSH1 0x20 SHR JUMP JUMPDEST POP PUSH3 0x10F CALLER DUP3 PUSH3 0x337 PUSH1 0x20 SHL PUSH1 0x20 SHR JUMP JUMPDEST PUSH3 0x120 CALLER PUSH3 0x3C4 PUSH1 0x20 SHL PUSH1 0x20 SHR JUMP JUMPDEST PUSH3 0x131 CALLER PUSH3 0x409 PUSH1 0x20 SHL PUSH1 0x20 SHR JUMP JUMPDEST PUSH3 0x142 CALLER PUSH3 0x44E PUSH1 0x20 SHL PUSH1 0x20 SHR JUMP JUMPDEST PUSH3 0x153 CALLER PUSH3 0x493 PUSH1 0x20 SHL PUSH1 0x20 SHR JUMP JUMPDEST PUSH3 0x164 CALLER PUSH3 0x4D8 PUSH1 0x20 SHL PUSH1 0x20 SHR JUMP JUMPDEST POP POP POP PUSH3 0x1075 JUMP JUMPDEST PUSH1 0x0 PUSH1 0x6 PUSH1 0x0 SWAP1 SLOAD SWAP1 PUSH2 0x100 EXP SWAP1 DIV PUSH20 0xFFFFFFFFFFFFFFFFFFFFFFFFFFFFFFFFFFFFFFFF AND SWAP1 POP DUP2 PUSH1 0x6 PUSH1 0x0 PUSH2 0x100 EXP DUP2 SLOAD DUP2 PUSH20 0xFFFFFFFFFFFFFFFFFFFFFFFFFFFFFFFFFFFFFFFF MUL NOT AND SWAP1 DUP4 PUSH20 0xFFFFFFFFFFFFFFFFFFFFFFFFFFFFFFFFFFFFFFFF AND MUL OR SWAP1 SSTORE POP DUP2 PUSH20 0xFFFFFFFFFFFFFFFFFFFFFFFFFFFFFFFFFFFFFFFF AND DUP2 PUSH20 0xFFFFFFFFFFFFFFFFFFFFFFFFFFFFFFFFFFFFFFFF AND PUSH32 0x8BE0079C531659141344CD1FD0A4F28419497F9722A3DAAFE3B4186F6B6457E0 PUSH1 0x40 MLOAD PUSH1 0x40 MLOAD DUP1 SWAP2 SUB SWAP1 LOG3 POP POP JUMP JUMPDEST PUSH1 0x0 PUSH3 0x247 DUP4 DUP4 PUSH3 0x51D PUSH1 0x20 SHL PUSH1 0x20 SHR JUMP JUMPDEST PUSH3 0x32C JUMPI PUSH1 0x1 PUSH1 0x5 PUSH1 0x0 DUP6 DUP2 MSTORE PUSH1 0x20 ADD SWAP1 DUP2 MSTORE PUSH1 0x20 ADD PUSH1 0x0 KECCAK256 PUSH1 0x0 ADD PUSH1 0x0 DUP5 PUSH20 0xFFFFFFFFFFFFFFFFFFFFFFFFFFFFFFFFFFFFFFFF AND PUSH20 0xFFFFFFFFFFFFFFFFFFFFFFFFFFFFFFFFFFFFFFFF AND DUP2 MSTORE PUSH1 0x20 ADD SWAP1 DUP2 MSTORE PUSH1 0x20 ADD PUSH1 0x0 KECCAK256 PUSH1 0x0 PUSH2 0x100 EXP DUP2 SLOAD DUP2 PUSH1 0xFF MUL NOT AND SWAP1 DUP4 ISZERO ISZERO MUL OR SWAP1 SSTORE POP PUSH3 0x2C8 PUSH3 0x588 PUSH1 0x20 SHL PUSH1 0x20 SHR JUMP JUMPDEST PUSH20 0xFFFFFFFFFFFFFFFFFFFFFFFFFFFFFFFFFFFFFFFF AND DUP3 PUSH20 0xFFFFFFFFFFFFFFFFFFFFFFFFFFFFFFFFFFFFFFFF AND DUP5 PUSH32 0x2F8788117E7EFF1D82E926EC794901D17C78024A50270940304540A733656F0D PUSH1 0x40 MLOAD PUSH1 0x40 MLOAD DUP1 SWAP2 SUB SWAP1 LOG4 PUSH1 0x1 SWAP1 POP PUSH3 0x331 JUMP JUMPDEST PUSH1 0x0 SWAP1 POP JUMPDEST SWAP3 SWAP2 POP POP JUMP JUMPDEST PUSH1 0x0 PUSH20 0xFFFFFFFFFFFFFFFFFFFFFFFFFFFFFFFFFFFFFFFF AND DUP3 PUSH20 0xFFFFFFFFFFFFFFFFFFFFFFFFFFFFFFFFFFFFFFFF AND SUB PUSH3 0x3AC JUMPI PUSH1 0x0 PUSH1 0x40 MLOAD PUSH32 0xEC442F0500000000000000000000000000000000000000000000000000000000 DUP2 MSTORE PUSH1 0x4 ADD PUSH3 0x3A3 SWAP2 SWAP1 PUSH3 0xF3B JUMP JUMPDEST PUSH1 0x40 MLOAD DUP1 SWAP2 SUB SWAP1 REVERT JUMPDEST PUSH3 0x3C0 PUSH1 0x0 DUP4 DUP4 PUSH3 0x590 PUSH1 0x20 SHL PUSH1 0x20 SHR JUMP JUMPDEST POP POP JUMP JUMPDEST PUSH3 0x3D4 PUSH3 0x7C0 PUSH1 0x20 SHL PUSH1 0x20 SHR JUMP JUMPDEST PUSH3 0x406 PUSH32 0x9F2DF0FED2C77648DE5860A4CC508CD0818C85B8B8A1AB4CEEEF8D981C8956A6 DUP3 PUSH3 0x862 PUSH1 0x20 SHL PUSH1 0x20 SHR JUMP JUMPDEST POP JUMP JUMPDEST PUSH3 0x419 PUSH3 0x7C0 PUSH1 0x20 SHL PUSH1 0x20 SHR JUMP JUMPDEST PUSH3 0x44B PUSH32 0x3C11D16CBAFFD01DF69CE1C404F6340EE057498F5F00246190EA54220576A848 DUP3 PUSH3 0x862 PUSH1 0x20 SHL PUSH1 0x20 SHR JUMP JUMPDEST POP JUMP JUMPDEST PUSH3 0x45E PUSH3 0x7C0 PUSH1 0x20 SHL PUSH1 0x20 SHR JUMP JUMPDEST PUSH3 0x490 PUSH32 0x92DE27771F92D6942691D73358B3A4673E4880DE8356F8F2CF452BE87E02D363 DUP3 PUSH3 0x862 PUSH1 0x20 SHL PUSH1 0x20 SHR JUMP JUMPDEST POP JUMP JUMPDEST PUSH3 0x4A3 PUSH3 0x7C0 PUSH1 0x20 SHL PUSH1 0x20 SHR JUMP JUMPDEST PUSH3 0x4D5 PUSH32 0xF988E4FB62B8E14F4820FED03192306DDF4D7DBFA215595BA1C6BA4B76B369EE DUP3 PUSH3 0x862 PUSH1 0x20 SHL PUSH1 0x20 SHR JUMP JUMPDEST POP JUMP JUMPDEST PUSH3 0x4E8 PUSH3 0x7C0 PUSH1 0x20 SHL PUSH1 0x20 SHR JUMP JUMPDEST PUSH3 0x51A PUSH32 0x62B337EAEFEC74DADF1A62E856BF9DB4F14A0F27D4F48156A95A9F98E7D5E066 DUP3 PUSH3 0x862 PUSH1 0x20 SHL PUSH1 0x20 SHR JUMP JUMPDEST POP JUMP JUMPDEST PUSH1 0x0 PUSH1 0x5 PUSH1 0x0 DUP5 DUP2 MSTORE PUSH1 0x20 ADD SWAP1 DUP2 MSTORE PUSH1 0x20 ADD PUSH1 0x0 KECCAK256 PUSH1 0x0 ADD PUSH1 0x0 DUP4 PUSH20 0xFFFFFFFFFFFFFFFFFFFFFFFFFFFFFFFFFFFFFFFF AND PUSH20 0xFFFFFFFFFFFFFFFFFFFFFFFFFFFFFFFFFFFFFFFF AND DUP2 MSTORE PUSH1 0x20 ADD SWAP1 DUP2 MSTORE PUSH1 0x20 ADD PUSH1 0x0 KECCAK256 PUSH1 0x0 SWAP1 SLOAD SWAP1 PUSH2 0x100 EXP SWAP1 DIV PUSH1 0xFF AND SWAP1 POP SWAP3 SWAP2 POP POP JUMP JUMPDEST PUSH1 0x0 CALLER SWAP1 POP SWAP1 JUMP JUMPDEST PUSH1 0x0 PUSH20 0xFFFFFFFFFFFFFFFFFFFFFFFFFFFFFFFFFFFFFFFF AND DUP4 PUSH20 0xFFFFFFFFFFFFFFFFFFFFFFFFFFFFFFFFFFFFFFFF AND SUB PUSH3 0x5E6 JUMPI DUP1 PUSH1 0x2 PUSH1 0x0 DUP3 DUP3 SLOAD PUSH3 0x5D9 SWAP2 SWAP1 PUSH3 0xF87 JUMP JUMPDEST SWAP3 POP POP DUP2 SWAP1 SSTORE POP PUSH3 0x6BC JUMP JUMPDEST PUSH1 0x0 DUP1 PUSH1 0x0 DUP6 PUSH20 0xFFFFFFFFFFFFFFFFFFFFFFFFFFFFFFFFFFFFFFFF AND PUSH20 0xFFFFFFFFFFFFFFFFFFFFFFFFFFFFFFFFFFFFFFFF AND DUP2 MSTORE PUSH1 0x20 ADD SWAP1 DUP2 MSTORE PUSH1 0x20 ADD PUSH1 0x0 KECCAK256 SLOAD SWAP1 POP DUP2 DUP2 LT ISZERO PUSH3 0x675 JUMPI DUP4 DUP2 DUP4 PUSH1 0x40 MLOAD PUSH32 0xE450D38C00000000000000000000000000000000000000000000000000000000 DUP2 MSTORE PUSH1 0x4 ADD PUSH3 0x66C SWAP4 SWAP3 SWAP2 SWAP1 PUSH3 0xFD3 JUMP JUMPDEST PUSH1 0x40 MLOAD DUP1 SWAP2 SUB SWAP1 REVERT JUMPDEST DUP2 DUP2 SUB PUSH1 0x0 DUP1 DUP7 PUSH20 0xFFFFFFFFFFFFFFFFFFFFFFFFFFFFFFFFFFFFFFFF AND PUSH20 0xFFFFFFFFFFFFFFFFFFFFFFFFFFFFFFFFFFFFFFFF AND DUP2 MSTORE PUSH1 0x20 ADD SWAP1 DUP2 MSTORE PUSH1 0x20 ADD PUSH1 0x0 KECCAK256 DUP2 SWAP1 SSTORE POP POP JUMPDEST PUSH1 0x0 PUSH20 0xFFFFFFFFFFFFFFFFFFFFFFFFFFFFFFFFFFFFFFFF AND DUP3 PUSH20 0xFFFFFFFFFFFFFFFFFFFFFFFFFFFFFFFFFFFFFFFF AND SUB PUSH3 0x707 JUMPI DUP1 PUSH1 0x2 PUSH1 0x0 DUP3 DUP3 SLOAD SUB SWAP3 POP POP DUP2 SWAP1 SSTORE POP PUSH3 0x754 JUMP JUMPDEST DUP1 PUSH1 0x0 DUP1 DUP5 PUSH20 0xFFFFFFFFFFFFFFFFFFFFFFFFFFFFFFFFFFFFFFFF AND PUSH20 0xFFFFFFFFFFFFFFFFFFFFFFFFFFFFFFFFFFFFFFFF AND DUP2 MSTORE PUSH1 0x20 ADD SWAP1 DUP2 MSTORE PUSH1 0x20 ADD PUSH1 0x0 KECCAK256 PUSH1 0x0 DUP3 DUP3 SLOAD ADD SWAP3 POP POP DUP2 SWAP1 SSTORE POP JUMPDEST DUP2 PUSH20 0xFFFFFFFFFFFFFFFFFFFFFFFFFFFFFFFFFFFFFFFF AND DUP4 PUSH20 0xFFFFFFFFFFFFFFFFFFFFFFFFFFFFFFFFFFFFFFFF AND PUSH32 0xDDF252AD1BE2C89B69C2B068FC378DAA952BA7F163C4A11628F55A4DF523B3EF DUP4 PUSH1 0x40 MLOAD PUSH3 0x7B3 SWAP2 SWAP1 PUSH3 0x1010 JUMP JUMPDEST PUSH1 0x40 MLOAD DUP1 SWAP2 SUB SWAP1 LOG3 POP POP POP JUMP JUMPDEST PUSH3 0x7D0 PUSH3 0x588 PUSH1 0x20 SHL PUSH1 0x20 SHR JUMP JUMPDEST PUSH20 0xFFFFFFFFFFFFFFFFFFFFFFFFFFFFFFFFFFFFFFFF AND PUSH3 0x7F6 PUSH3 0x89C PUSH1 0x20 SHL PUSH1 0x20 SHR JUMP JUMPDEST PUSH20 0xFFFFFFFFFFFFFFFFFFFFFFFFFFFFFFFFFFFFFFFF AND EQ PUSH3 0x860 JUMPI PUSH3 0x822 PUSH3 0x588 PUSH1 0x20 SHL PUSH1 0x20 SHR JUMP JUMPDEST PUSH1 0x40 MLOAD PUSH32 0x118CDAA700000000000000000000000000000000000000000000000000000000 DUP2 MSTORE PUSH1 0x4 ADD PUSH3 0x857 SWAP2 SWAP1 PUSH3 0xF3B JUMP JUMPDEST PUSH1 0x40 MLOAD DUP1 SWAP2 SUB SWAP1 REVERT JUMPDEST JUMP JUMPDEST PUSH3 0x873 DUP3 PUSH3 0x8C6 PUSH1 0x20 SHL PUSH1 0x20 SHR JUMP JUMPDEST PUSH3 0x884 DUP2 PUSH3 0x8E6 PUSH1 0x20 SHL PUSH1 0x20 SHR JUMP JUMPDEST PUSH3 0x896 DUP4 DUP4 PUSH3 0x233 PUSH1 0x20 SHL PUSH1 0x20 SHR JUMP JUMPDEST POP POP POP POP JUMP JUMPDEST PUSH1 0x0 PUSH1 0x6 PUSH1 0x0 SWAP1 SLOAD SWAP1 PUSH2 0x100 EXP SWAP1 DIV PUSH20 0xFFFFFFFFFFFFFFFFFFFFFFFFFFFFFFFFFFFFFFFF AND SWAP1 POP SWAP1 JUMP JUMPDEST PUSH1 0x0 PUSH1 0x5 PUSH1 0x0 DUP4 DUP2 MSTORE PUSH1 0x20 ADD SWAP1 DUP2 MSTORE PUSH1 0x20 ADD PUSH1 0x0 KECCAK256 PUSH1 0x1 ADD SLOAD SWAP1 POP SWAP2 SWAP1 POP JUMP JUMPDEST PUSH3 0x907 DUP2 PUSH3 0x8FB PUSH3 0x588 PUSH1 0x20 SHL PUSH1 0x20 SHR JUMP JUMPDEST PUSH3 0x90A PUSH1 0x20 SHL PUSH1 0x20 SHR JUMP JUMPDEST POP JUMP JUMPDEST PUSH3 0x91C DUP3 DUP3 PUSH3 0x51D PUSH1 0x20 SHL PUSH1 0x20 SHR JUMP JUMPDEST PUSH3 0x962 JUMPI DUP1 DUP3 PUSH1 0x40 MLOAD PUSH32 0xE2517D3F00000000000000000000000000000000000000000000000000000000 DUP2 MSTORE PUSH1 0x4 ADD PUSH3 0x959 SWAP3 SWAP2 SWAP1 PUSH3 0x1048 JUMP JUMPDEST PUSH1 0x40 MLOAD DUP1 SWAP2 SUB SWAP1 REVERT JUMPDEST POP POP JUMP JUMPDEST PUSH1 0x0 PUSH1 0x40 MLOAD SWAP1 POP SWAP1 JUMP JUMPDEST PUSH1 0x0 DUP1 REVERT JUMPDEST PUSH1 0x0 DUP1 REVERT JUMPDEST PUSH1 0x0 DUP1 REVERT JUMPDEST PUSH1 0x0 DUP1 REVERT JUMPDEST PUSH1 0x0 PUSH1 0x1F NOT PUSH1 0x1F DUP4 ADD AND SWAP1 POP SWAP2 SWAP1 POP JUMP JUMPDEST PUSH32 0x4E487B7100000000000000000000000000000000000000000000000000000000 PUSH1 0x0 MSTORE PUSH1 0x41 PUSH1 0x4 MSTORE PUSH1 0x24 PUSH1 0x0 REVERT JUMPDEST PUSH3 0x9CF DUP3 PUSH3 0x984 JUMP JUMPDEST DUP2 ADD DUP2 DUP2 LT PUSH8 0xFFFFFFFFFFFFFFFF DUP3 GT OR ISZERO PUSH3 0x9F1 JUMPI PUSH3 0x9F0 PUSH3 0x995 JUMP JUMPDEST JUMPDEST DUP1 PUSH1 0x40 MSTORE POP POP POP JUMP JUMPDEST PUSH1 0x0 PUSH3 0xA06 PUSH3 0x966 JUMP JUMPDEST SWAP1 POP PUSH3 0xA14 DUP3 DUP3 PUSH3 0x9C4 JUMP JUMPDEST SWAP2 SWAP1 POP JUMP JUMPDEST PUSH1 0x0 PUSH8 0xFFFFFFFFFFFFFFFF DUP3 GT ISZERO PUSH3 0xA37 JUMPI PUSH3 0xA36 PUSH3 0x995 JUMP JUMPDEST JUMPDEST PUSH3 0xA42 DUP3 PUSH3 0x984 JUMP JUMPDEST SWAP1 POP PUSH1 0x20 DUP2 ADD SWAP1 POP SWAP2 SWAP1 POP JUMP JUMPDEST PUSH1 0x0 JUMPDEST DUP4 DUP2 LT ISZERO PUSH3 0xA6F JUMPI DUP1 DUP3 ADD MLOAD DUP2 DUP5 ADD MSTORE PUSH1 0x20 DUP2 ADD SWAP1 POP PUSH3 0xA52 JUMP JUMPDEST PUSH1 0x0 DUP5 DUP5 ADD MSTORE POP POP POP POP JUMP JUMPDEST PUSH1 0x0 PUSH3 0xA92 PUSH3 0xA8C DUP5 PUSH3 0xA19 JUMP JUMPDEST PUSH3 0x9FA JUMP JUMPDEST SWAP1 POP DUP3 DUP2 MSTORE PUSH1 0x20 DUP2 ADD DUP5 DUP5 DUP5 ADD GT ISZERO PUSH3 0xAB1 JUMPI PUSH3 0xAB0 PUSH3 0x97F JUMP JUMPDEST JUMPDEST PUSH3 0xABE DUP5 DUP3 DUP6 PUSH3 0xA4F JUMP JUMPDEST POP SWAP4 SWAP3 POP POP POP JUMP JUMPDEST PUSH1 0x0 DUP3 PUSH1 0x1F DUP4 ADD SLT PUSH3 0xADE JUMPI PUSH3 0xADD PUSH3 0x97A JUMP JUMPDEST JUMPDEST DUP2 MLOAD PUSH3 0xAF0 DUP5 DUP3 PUSH1 0x20 DUP7 ADD PUSH3 0xA7B JUMP JUMPDEST SWAP2 POP POP SWAP3 SWAP2 POP POP JUMP JUMPDEST PUSH1 0x0 DUP2 SWAP1 POP SWAP2 SWAP1 POP JUMP JUMPDEST PUSH3 0xB0E DUP2 PUSH3 0xAF9 JUMP JUMPDEST DUP2 EQ PUSH3 0xB1A JUMPI PUSH1 0x0 DUP1 REVERT JUMPDEST POP JUMP JUMPDEST PUSH1 0x0 DUP2 MLOAD SWAP1 POP PUSH3 0xB2E DUP2 PUSH3 0xB03 JUMP JUMPDEST SWAP3 SWAP2 POP POP JUMP JUMPDEST PUSH1 0x0 DUP1 PUSH1 0x0 PUSH1 0x60 DUP5 DUP7 SUB SLT ISZERO PUSH3 0xB50 JUMPI PUSH3 0xB4F PUSH3 0x970 JUMP JUMPDEST JUMPDEST PUSH1 0x0 DUP5 ADD MLOAD PUSH8 0xFFFFFFFFFFFFFFFF DUP2 GT ISZERO PUSH3 0xB71 JUMPI PUSH3 0xB70 PUSH3 0x975 JUMP JUMPDEST JUMPDEST PUSH3 0xB7F DUP7 DUP3 DUP8 ADD PUSH3 0xAC6 JUMP JUMPDEST SWAP4 POP POP PUSH1 0x20 DUP5 ADD MLOAD PUSH8 0xFFFFFFFFFFFFFFFF DUP2 GT ISZERO PUSH3 0xBA3 JUMPI PUSH3 0xBA2 PUSH3 0x975 JUMP JUMPDEST JUMPDEST PUSH3 0xBB1 DUP7 DUP3 DUP8 ADD PUSH3 0xAC6 JUMP JUMPDEST SWAP3 POP POP PUSH1 0x40 PUSH3 0xBC4 DUP7 DUP3 DUP8 ADD PUSH3 0xB1D JUMP JUMPDEST SWAP2 POP POP SWAP3 POP SWAP3 POP SWAP3 JUMP JUMPDEST PUSH1 0x0 DUP2 MLOAD SWAP1 POP SWAP2 SWAP1 POP JUMP JUMPDEST PUSH32 0x4E487B7100000000000000000000000000000000000000000000000000000000 PUSH1 0x0 MSTORE PUSH1 0x22 PUSH1 0x4 MSTORE PUSH1 0x24 PUSH1 0x0 REVERT JUMPDEST PUSH1 0x0 PUSH1 0x2 DUP3 DIV SWAP1 POP PUSH1 0x1 DUP3 AND DUP1 PUSH3 0xC21 JUMPI PUSH1 0x7F DUP3 AND SWAP2 POP JUMPDEST PUSH1 0x20 DUP3 LT DUP2 SUB PUSH3 0xC37 JUMPI PUSH3 0xC36 PUSH3 0xBD9 JUMP JUMPDEST JUMPDEST POP SWAP2 SWAP1 POP JUMP JUMPDEST PUSH1 0x0 DUP2 SWAP1 POP DUP2 PUSH1 0x0 MSTORE PUSH1 0x20 PUSH1 0x0 KECCAK256 SWAP1 POP SWAP2 SWAP1 POP JUMP JUMPDEST PUSH1 0x0 PUSH1 0x20 PUSH1 0x1F DUP4 ADD DIV SWAP1 POP SWAP2 SWAP1 POP JUMP JUMPDEST PUSH1 0x0 DUP3 DUP3 SHL SWAP1 POP SWAP3 SWAP2 POP POP JUMP JUMPDEST PUSH1 0x0 PUSH1 0x8 DUP4 MUL PUSH3 0xCA1 PUSH32 0xFFFFFFFFFFFFFFFFFFFFFFFFFFFFFFFFFFFFFFFFFFFFFFFFFFFFFFFFFFFFFFFF DUP3 PUSH3 0xC62 JUMP JUMPDEST PUSH3 0xCAD DUP7 DUP4 PUSH3 0xC62 JUMP JUMPDEST SWAP6 POP DUP1 NOT DUP5 AND SWAP4 POP DUP1 DUP7 AND DUP5 OR SWAP3 POP POP POP SWAP4 SWAP3 POP POP POP JUMP JUMPDEST PUSH1 0x0 DUP2 SWAP1 POP SWAP2 SWAP1 POP JUMP JUMPDEST PUSH1 0x0 PUSH3 0xCF0 PUSH3 0xCEA PUSH3 0xCE4 DUP5 PUSH3 0xAF9 JUMP JUMPDEST PUSH3 0xCC5 JUMP JUMPDEST PUSH3 0xAF9 JUMP JUMPDEST SWAP1 POP SWAP2 SWAP1 POP JUMP JUMPDEST PUSH1 0x0 DUP2 SWAP1 POP SWAP2 SWAP1 POP JUMP JUMPDEST PUSH3 0xD0C DUP4 PUSH3 0xCCF JUMP JUMPDEST PUSH3 0xD24 PUSH3 0xD1B DUP3 PUSH3 0xCF7 JUMP JUMPDEST DUP5 DUP5 SLOAD PUSH3 0xC6F JUMP JUMPDEST DUP3 SSTORE POP POP POP POP JUMP JUMPDEST PUSH1 0x0 SWAP1 JUMP JUMPDEST PUSH3 0xD3B PUSH3 0xD2C JUMP JUMPDEST PUSH3 0xD48 DUP2 DUP5 DUP5 PUSH3 0xD01 JUMP JUMPDEST POP POP POP JUMP JUMPDEST JUMPDEST DUP2 DUP2 LT ISZERO PUSH3 0xD70 JUMPI PUSH3 0xD64 PUSH1 0x0 DUP3 PUSH3 0xD31 JUMP JUMPDEST PUSH1 0x1 DUP2 ADD SWAP1 POP PUSH3 0xD4E JUMP JUMPDEST POP POP JUMP JUMPDEST PUSH1 0x1F DUP3 GT ISZERO PUSH3 0xDBF JUMPI PUSH3 0xD89 DUP2 PUSH3 0xC3D JUMP JUMPDEST PUSH3 0xD94 DUP5 PUSH3 0xC52 JUMP JUMPDEST DUP2 ADD PUSH1 0x20 DUP6 LT ISZERO PUSH3 0xDA4 JUMPI DUP2 SWAP1 POP JUMPDEST PUSH3 0xDBC PUSH3 0xDB3 DUP6 PUSH3 0xC52 JUMP JUMPDEST DUP4 ADD DUP3 PUSH3 0xD4D JUMP JUMPDEST POP POP JUMPDEST POP POP POP JUMP JUMPDEST PUSH1 0x0 DUP3 DUP3 SHR SWAP1 POP SWAP3 SWAP2 POP POP JUMP JUMPDEST PUSH1 0x0 PUSH3 0xDE4 PUSH1 0x0 NOT DUP5 PUSH1 0x8 MUL PUSH3 0xDC4 JUMP JUMPDEST NOT DUP1 DUP4 AND SWAP2 POP POP SWAP3 SWAP2 POP POP JUMP JUMPDEST PUSH1 0x0 PUSH3 0xDFF DUP4 DUP4 PUSH3 0xDD1 JUMP JUMPDEST SWAP2 POP DUP3 PUSH1 0x2 MUL DUP3 OR SWAP1 POP SWAP3 SWAP2 POP POP JUMP JUMPDEST PUSH3 0xE1A DUP3 PUSH3 0xBCE JUMP JUMPDEST PUSH8 0xFFFFFFFFFFFFFFFF DUP2 GT ISZERO PUSH3 0xE36 JUMPI PUSH3 0xE35 PUSH3 0x995 JUMP JUMPDEST JUMPDEST PUSH3 0xE42 DUP3 SLOAD PUSH3 0xC08 JUMP JUMPDEST PUSH3 0xE4F DUP3 DUP3 DUP6 PUSH3 0xD74 JUMP JUMPDEST PUSH1 0x0 PUSH1 0x20 SWAP1 POP PUSH1 0x1F DUP4 GT PUSH1 0x1 DUP2 EQ PUSH3 0xE87 JUMPI PUSH1 0x0 DUP5 ISZERO PUSH3 0xE72 JUMPI DUP3 DUP8 ADD MLOAD SWAP1 POP JUMPDEST PUSH3 0xE7E DUP6 DUP3 PUSH3 0xDF1 JUMP JUMPDEST DUP7 SSTORE POP PUSH3 0xEEE JUMP JUMPDEST PUSH1 0x1F NOT DUP5 AND PUSH3 0xE97 DUP7 PUSH3 0xC3D JUMP JUMPDEST PUSH1 0x0 JUMPDEST DUP3 DUP2 LT ISZERO PUSH3 0xEC1 JUMPI DUP5 DUP10 ADD MLOAD DUP3 SSTORE PUSH1 0x1 DUP3 ADD SWAP2 POP PUSH1 0x20 DUP6 ADD SWAP5 POP PUSH1 0x20 DUP2 ADD SWAP1 POP PUSH3 0xE9A JUMP JUMPDEST DUP7 DUP4 LT ISZERO PUSH3 0xEE1 JUMPI DUP5 DUP10 ADD MLOAD PUSH3 0xEDD PUSH1 0x1F DUP10 AND DUP3 PUSH3 0xDD1 JUMP JUMPDEST DUP4 SSTORE POP JUMPDEST PUSH1 0x1 PUSH1 0x2 DUP9 MUL ADD DUP9 SSTORE POP POP POP JUMPDEST POP POP POP POP POP POP JUMP JUMPDEST PUSH1 0x0 PUSH20 0xFFFFFFFFFFFFFFFFFFFFFFFFFFFFFFFFFFFFFFFF DUP3 AND SWAP1 POP SWAP2 SWAP1 POP JUMP JUMPDEST PUSH1 0x0 PUSH3 0xF23 DUP3 PUSH3 0xEF6 JUMP JUMPDEST SWAP1 POP SWAP2 SWAP1 POP JUMP JUMPDEST PUSH3 0xF35 DUP2 PUSH3 0xF16 JUMP JUMPDEST DUP3 MSTORE POP POP JUMP JUMPDEST PUSH1 0x0 PUSH1 0x20 DUP3 ADD SWAP1 POP PUSH3 0xF52 PUSH1 0x0 DUP4 ADD DUP5 PUSH3 0xF2A JUMP JUMPDEST SWAP3 SWAP2 POP POP JUMP JUMPDEST PUSH32 0x4E487B7100000000000000000000000000000000000000000000000000000000 PUSH1 0x0 MSTORE PUSH1 0x11 PUSH1 0x4 MSTORE PUSH1 0x24 PUSH1 0x0 REVERT JUMPDEST PUSH1 0x0 PUSH3 0xF94 DUP3 PUSH3 0xAF9 JUMP JUMPDEST SWAP2 POP PUSH3 0xFA1 DUP4 PUSH3 0xAF9 JUMP JUMPDEST SWAP3 POP DUP3 DUP3 ADD SWAP1 POP DUP1 DUP3 GT ISZERO PUSH3 0xFBC JUMPI PUSH3 0xFBB PUSH3 0xF58 JUMP JUMPDEST JUMPDEST SWAP3 SWAP2 POP POP JUMP JUMPDEST PUSH3 0xFCD DUP2 PUSH3 0xAF9 JUMP JUMPDEST DUP3 MSTORE POP POP JUMP JUMPDEST PUSH1 0x0 PUSH1 0x60 DUP3 ADD SWAP1 POP PUSH3 0xFEA PUSH1 0x0 DUP4 ADD DUP7 PUSH3 0xF2A JUMP JUMPDEST PUSH3 0xFF9 PUSH1 0x20 DUP4 ADD DUP6 PUSH3 0xFC2 JUMP JUMPDEST PUSH3 0x1008 PUSH1 0x40 DUP4 ADD DUP5 PUSH3 0xFC2 JUMP JUMPDEST SWAP5 SWAP4 POP POP POP POP JUMP JUMPDEST PUSH1 0x0 PUSH1 0x20 DUP3 ADD SWAP1 POP PUSH3 0x1027 PUSH1 0x0 DUP4 ADD DUP5 PUSH3 0xFC2 JUMP JUMPDEST SWAP3 SWAP2 POP POP JUMP JUMPDEST PUSH1 0x0 DUP2 SWAP1 POP SWAP2 SWAP1 POP JUMP JUMPDEST PUSH3 0x1042 DUP2 PUSH3 0x102D JUMP JUMPDEST DUP3 MSTORE POP POP JUMP JUMPDEST PUSH1 0x0 PUSH1 0x40 DUP3 ADD SWAP1 POP PUSH3 0x105F PUSH1 0x0 DUP4 ADD DUP6 PUSH3 0xF2A JUMP JUMPDEST PUSH3 0x106E PUSH1 0x20 DUP4 ADD DUP5 PUSH3 0x1037 JUMP JUMPDEST SWAP4 SWAP3 POP POP POP JUMP JUMPDEST PUSH2 0x2A32 DUP1 PUSH3 0x1085 PUSH1 0x0 CODECOPY PUSH1 0x0 RETURN INVALID PUSH1 0x80 PUSH1 0x40 MSTORE CALLVALUE DUP1 ISZERO PUSH2 0x10 JUMPI PUSH1 0x0 DUP1 REVERT JUMPDEST POP PUSH1 0x4 CALLDATASIZE LT PUSH2 0x269 JUMPI PUSH1 0x0 CALLDATALOAD PUSH1 0xE0 SHR DUP1 PUSH4 0x70A08231 GT PUSH2 0x151 JUMPI DUP1 PUSH4 0xA9059CBB GT PUSH2 0xC3 JUMPI DUP1 PUSH4 0xDD62ED3E GT PUSH2 0x87 JUMPI DUP1 PUSH4 0xDD62ED3E EQ PUSH2 0x70A JUMPI DUP1 PUSH4 0xE5839836 EQ PUSH2 0x73A JUMPI DUP1 PUSH4 0xF26C159F EQ PUSH2 0x76A JUMPI DUP1 PUSH4 0xF2FDE38B EQ PUSH2 0x786 JUMPI DUP1 PUSH4 0xF44637BA EQ PUSH2 0x7A2 JUMPI DUP1 PUSH4 0xFE575A87 EQ PUSH2 0x7BE JUMPI PUSH2 0x269 JUMP JUMPDEST DUP1 PUSH4 0xA9059CBB EQ PUSH2 0x668 JUMPI DUP1 PUSH4 0xC2134B23 EQ PUSH2 0x698 JUMPI DUP1 PUSH4 0xD1C2DE0A EQ PUSH2 0x6B4 JUMPI DUP1 PUSH4 0xD5391393 EQ PUSH2 0x6D0 JUMPI DUP1 PUSH4 0xD547741F EQ PUSH2 0x6EE JUMPI PUSH2 0x269 JUMP JUMPDEST DUP1 PUSH4 0x939BCBC9 GT PUSH2 0x115 JUMPI DUP1 PUSH4 0x939BCBC9 EQ PUSH2 0x5BA JUMPI DUP1 PUSH4 0x95D89B41 EQ PUSH2 0x5D8 JUMPI DUP1 PUSH4 0x974B368C EQ PUSH2 0x5F6 JUMPI DUP1 PUSH4 0x983B2D56 EQ PUSH2 0x612 JUMPI DUP1 PUSH4 0x9DC29FAC EQ PUSH2 0x62E JUMPI DUP1 PUSH4 0xA217FDDF EQ PUSH2 0x64A JUMPI PUSH2 0x269 JUMP JUMPDEST DUP1 PUSH4 0x70A08231 EQ PUSH2 0x516 JUMPI DUP1 PUSH4 0x715018A6 EQ PUSH2 0x546 JUMPI DUP1 PUSH4 0x788649EA EQ PUSH2 0x550 JUMPI DUP1 PUSH4 0x8DA5CB5B EQ PUSH2 0x56C JUMPI DUP1 PUSH4 0x91D14854 EQ PUSH2 0x58A JUMPI PUSH2 0x269 JUMP JUMPDEST DUP1 PUSH4 0x282C51F3 GT PUSH2 0x1EA JUMPI DUP1 PUSH4 0x36568ABE GT PUSH2 0x1AE JUMPI DUP1 PUSH4 0x36568ABE EQ PUSH2 0x46C JUMPI DUP1 PUSH4 0x40C10F19 EQ PUSH2 0x488 JUMPI DUP1 PUSH4 0x410B2424 EQ PUSH2 0x4A4 JUMPI DUP1 PUSH4 0x44337EA1 EQ PUSH2 0x4C2 JUMPI DUP1 PUSH4 0x526606C9 EQ PUSH2 0x4DE JUMPI DUP1 PUSH4 0x537DF3B6 EQ PUSH2 0x4FA JUMPI PUSH2 0x269 JUMP JUMPDEST DUP1 PUSH4 0x282C51F3 EQ PUSH2 0x3DC JUMPI DUP1 PUSH4 0x2ACD2000 EQ PUSH2 0x3FA JUMPI DUP1 PUSH4 0x2F2FF15D EQ PUSH2 0x416 JUMPI DUP1 PUSH4 0x3092AFD5 EQ PUSH2 0x432 JUMPI DUP1 PUSH4 0x313CE567 EQ PUSH2 0x44E JUMPI PUSH2 0x269 JUMP JUMPDEST DUP1 PUSH4 0xEFF2AFC GT PUSH2 0x231 JUMPI DUP1 PUSH4 0xEFF2AFC EQ PUSH2 0x326 JUMPI DUP1 PUSH4 0x18160DDD EQ PUSH2 0x342 JUMPI DUP1 PUSH4 0x1EC82CB8 EQ PUSH2 0x360 JUMPI DUP1 PUSH4 0x23B872DD EQ PUSH2 0x37C JUMPI DUP1 PUSH4 0x248A9CA3 EQ PUSH2 0x3AC JUMPI PUSH2 0x269 JUMP JUMPDEST DUP1 PUSH4 0x1FFC9A7 EQ PUSH2 0x26E JUMPI DUP1 PUSH4 0x2846858 EQ PUSH2 0x29E JUMPI DUP1 PUSH4 0x6A85F0F EQ PUSH2 0x2BA JUMPI DUP1 PUSH4 0x6FDDE03 EQ PUSH2 0x2D8 JUMPI DUP1 PUSH4 0x95EA7B3 EQ PUSH2 0x2F6 JUMPI JUMPDEST PUSH1 0x0 DUP1 REVERT JUMPDEST PUSH2 0x288 PUSH1 0x4 DUP1 CALLDATASIZE SUB DUP2 ADD SWAP1 PUSH2 0x283 SWAP2 SWAP1 PUSH2 0x2152 JUMP JUMPDEST PUSH2 0x7EE JUMP JUMPDEST PUSH1 0x40 MLOAD PUSH2 0x295 SWAP2 SWAP1 PUSH2 0x219A JUMP JUMPDEST PUSH1 0x40 MLOAD DUP1 SWAP2 SUB SWAP1 RETURN JUMPDEST PUSH2 0x2B8 PUSH1 0x4 DUP1 CALLDATASIZE SUB DUP2 ADD SWAP1 PUSH2 0x2B3 SWAP2 SWAP1 PUSH2 0x2213 JUMP JUMPDEST PUSH2 0x868 JUMP JUMPDEST STOP JUMPDEST PUSH2 0x2C2 PUSH2 0x89D JUMP JUMPDEST PUSH1 0x40 MLOAD PUSH2 0x2CF SWAP2 SWAP1 PUSH2 0x2259 JUMP JUMPDEST PUSH1 0x40 MLOAD DUP1 SWAP2 SUB SWAP1 RETURN JUMPDEST PUSH2 0x2E0 PUSH2 0x8C1 JUMP JUMPDEST PUSH1 0x40 MLOAD PUSH2 0x2ED SWAP2 SWAP1 PUSH2 0x2304 JUMP JUMPDEST PUSH1 0x40 MLOAD DUP1 SWAP2 SUB SWAP1 RETURN JUMPDEST PUSH2 0x310 PUSH1 0x4 DUP1 CALLDATASIZE SUB DUP2 ADD SWAP1 PUSH2 0x30B SWAP2 SWAP1 PUSH2 0x235C JUMP JUMPDEST PUSH2 0x953 JUMP JUMPDEST PUSH1 0x40 MLOAD PUSH2 0x31D SWAP2 SWAP1 PUSH2 0x219A JUMP JUMPDEST PUSH1 0x40 MLOAD DUP1 SWAP2 SUB SWAP1 RETURN JUMPDEST PUSH2 0x340 PUSH1 0x4 DUP1 CALLDATASIZE SUB DUP2 ADD SWAP1 PUSH2 0x33B SWAP2 SWAP1 PUSH2 0x2213 JUMP JUMPDEST PUSH2 0x976 JUMP JUMPDEST STOP JUMPDEST PUSH2 0x34A PUSH2 0x9AB JUMP JUMPDEST PUSH1 0x40 MLOAD PUSH2 0x357 SWAP2 SWAP1 PUSH2 0x23AB JUMP JUMPDEST PUSH1 0x40 MLOAD DUP1 SWAP2 SUB SWAP1 RETURN JUMPDEST PUSH2 0x37A PUSH1 0x4 DUP1 CALLDATASIZE SUB DUP2 ADD SWAP1 PUSH2 0x375 SWAP2 SWAP1 PUSH2 0x23C6 JUMP JUMPDEST PUSH2 0x9B5 JUMP JUMPDEST STOP JUMPDEST PUSH2 0x396 PUSH1 0x4 DUP1 CALLDATASIZE SUB DUP2 ADD SWAP1 PUSH2 0x391 SWAP2 SWAP1 PUSH2 0x23C6 JUMP JUMPDEST PUSH2 0x9F0 JUMP JUMPDEST PUSH1 0x40 MLOAD PUSH2 0x3A3 SWAP2 SWAP1 PUSH2 0x219A JUMP JUMPDEST PUSH1 0x40 MLOAD DUP1 SWAP2 SUB SWAP1 RETURN JUMPDEST PUSH2 0x3C6 PUSH1 0x4 DUP1 CALLDATASIZE SUB DUP2 ADD SWAP1 PUSH2 0x3C1 SWAP2 SWAP1 PUSH2 0x2445 JUMP JUMPDEST PUSH2 0xA1F JUMP JUMPDEST PUSH1 0x40 MLOAD PUSH2 0x3D3 SWAP2 SWAP1 PUSH2 0x2259 JUMP JUMPDEST PUSH1 0x40 MLOAD DUP1 SWAP2 SUB SWAP1 RETURN JUMPDEST PUSH2 0x3E4 PUSH2 0xA3F JUMP JUMPDEST PUSH1 0x40 MLOAD PUSH2 0x3F1 SWAP2 SWAP1 PUSH2 0x2259 JUMP JUMPDEST PUSH1 0x40 MLOAD DUP1 SWAP2 SUB SWAP1 RETURN JUMPDEST PUSH2 0x414 PUSH1 0x4 DUP1 CALLDATASIZE SUB DUP2 ADD SWAP1 PUSH2 0x40F SWAP2 SWAP1 PUSH2 0x2213 JUMP JUMPDEST PUSH2 0xA63 JUMP JUMPDEST STOP JUMPDEST PUSH2 0x430 PUSH1 0x4 DUP1 CALLDATASIZE SUB DUP2 ADD SWAP1 PUSH2 0x42B SWAP2 SWAP1 PUSH2 0x2472 JUMP JUMPDEST PUSH2 0xA98 JUMP JUMPDEST STOP JUMPDEST PUSH2 0x44C PUSH1 0x4 DUP1 CALLDATASIZE SUB DUP2 ADD SWAP1 PUSH2 0x447 SWAP2 SWAP1 PUSH2 0x2213 JUMP JUMPDEST PUSH2 0xABA JUMP JUMPDEST STOP JUMPDEST PUSH2 0x456 PUSH2 0xAEF JUMP JUMPDEST PUSH1 0x40 MLOAD PUSH2 0x463 SWAP2 SWAP1 PUSH2 0x24CE JUMP JUMPDEST PUSH1 0x40 MLOAD DUP1 SWAP2 SUB SWAP1 RETURN JUMPDEST PUSH2 0x486 PUSH1 0x4 DUP1 CALLDATASIZE SUB DUP2 ADD SWAP1 PUSH2 0x481 SWAP2 SWAP1 PUSH2 0x2472 JUMP JUMPDEST PUSH2 0xAF8 JUMP JUMPDEST STOP JUMPDEST PUSH2 0x4A2 PUSH1 0x4 DUP1 CALLDATASIZE SUB DUP2 ADD SWAP1 PUSH2 0x49D SWAP2 SWAP1 PUSH2 0x235C JUMP JUMPDEST PUSH2 0xB73 JUMP JUMPDEST STOP JUMPDEST PUSH2 0x4AC PUSH2 0xBAC JUMP JUMPDEST PUSH1 0x40 MLOAD PUSH2 0x4B9 SWAP2 SWAP1 PUSH2 0x2259 JUMP JUMPDEST PUSH1 0x40 MLOAD DUP1 SWAP2 SUB SWAP1 RETURN JUMPDEST PUSH2 0x4DC PUSH1 0x4 DUP1 CALLDATASIZE SUB DUP2 ADD SWAP1 PUSH2 0x4D7 SWAP2 SWAP1 PUSH2 0x2213 JUMP JUMPDEST PUSH2 0xBD0 JUMP JUMPDEST STOP JUMPDEST PUSH2 0x4F8 PUSH1 0x4 DUP1 CALLDATASIZE SUB DUP2 ADD SWAP1 PUSH2 0x4F3 SWAP2 SWAP1 PUSH2 0x2213 JUMP JUMPDEST PUSH2 0xC67 JUMP JUMPDEST STOP JUMPDEST PUSH2 0x514 PUSH1 0x4 DUP1 CALLDATASIZE SUB DUP2 ADD SWAP1 PUSH2 0x50F SWAP2 SWAP1 PUSH2 0x2213 JUMP JUMPDEST PUSH2 0xC9C JUMP JUMPDEST STOP JUMPDEST PUSH2 0x530 PUSH1 0x4 DUP1 CALLDATASIZE SUB DUP2 ADD SWAP1 PUSH2 0x52B SWAP2 SWAP1 PUSH2 0x2213 JUMP JUMPDEST PUSH2 0xD32 JUMP JUMPDEST PUSH1 0x40 MLOAD PUSH2 0x53D SWAP2 SWAP1 PUSH2 0x23AB JUMP JUMPDEST PUSH1 0x40 MLOAD DUP1 SWAP2 SUB SWAP1 RETURN JUMPDEST PUSH2 0x54E PUSH2 0xD7A JUMP JUMPDEST STOP JUMPDEST PUSH2 0x56A PUSH1 0x4 DUP1 CALLDATASIZE SUB DUP2 ADD SWAP1 PUSH2 0x565 SWAP2 SWAP1 PUSH2 0x2213 JUMP JUMPDEST PUSH2 0xD8E JUMP JUMPDEST STOP JUMPDEST PUSH2 0x574 PUSH2 0xE24 JUMP JUMPDEST PUSH1 0x40 MLOAD PUSH2 0x581 SWAP2 SWAP1 PUSH2 0x24F8 JUMP JUMPDEST PUSH1 0x40 MLOAD DUP1 SWAP2 SUB SWAP1 RETURN JUMPDEST PUSH2 0x5A4 PUSH1 0x4 DUP1 CALLDATASIZE SUB DUP2 ADD SWAP1 PUSH2 0x59F SWAP2 SWAP1 PUSH2 0x2472 JUMP JUMPDEST PUSH2 0xE4E JUMP JUMPDEST PUSH1 0x40 MLOAD PUSH2 0x5B1 SWAP2 SWAP1 PUSH2 0x219A JUMP JUMPDEST PUSH1 0x40 MLOAD DUP1 SWAP2 SUB SWAP1 RETURN JUMPDEST PUSH2 0x5C2 PUSH2 0xEB9 JUMP JUMPDEST PUSH1 0x40 MLOAD PUSH2 0x5CF SWAP2 SWAP1 PUSH2 0x2259 JUMP JUMPDEST PUSH1 0x40 MLOAD DUP1 SWAP2 SUB SWAP1 RETURN JUMPDEST PUSH2 0x5E0 PUSH2 0xEDD JUMP JUMPDEST PUSH1 0x40 MLOAD PUSH2 0x5ED SWAP2 SWAP1 PUSH2 0x2304 JUMP JUMPDEST PUSH1 0x40 MLOAD DUP1 SWAP2 SUB SWAP1 RETURN JUMPDEST PUSH2 0x610 PUSH1 0x4 DUP1 CALLDATASIZE SUB DUP2 ADD SWAP1 PUSH2 0x60B SWAP2 SWAP1 PUSH2 0x2213 JUMP JUMPDEST PUSH2 0xF6F JUMP JUMPDEST STOP JUMPDEST PUSH2 0x62C PUSH1 0x4 DUP1 CALLDATASIZE SUB DUP2 ADD SWAP1 PUSH2 0x627 SWAP2 SWAP1 PUSH2 0x2213 JUMP JUMPDEST PUSH2 0xFA4 JUMP JUMPDEST STOP JUMPDEST PUSH2 0x648 PUSH1 0x4 DUP1 CALLDATASIZE SUB DUP2 ADD SWAP1 PUSH2 0x643 SWAP2 SWAP1 PUSH2 0x235C JUMP JUMPDEST PUSH2 0xFD9 JUMP JUMPDEST STOP JUMPDEST PUSH2 0x652 PUSH2 0x1012 JUMP JUMPDEST PUSH1 0x40 MLOAD PUSH2 0x65F SWAP2 SWAP1 PUSH2 0x2259 JUMP JUMPDEST PUSH1 0x40 MLOAD DUP1 SWAP2 SUB SWAP1 RETURN JUMPDEST PUSH2 0x682 PUSH1 0x4 DUP1 CALLDATASIZE SUB DUP2 ADD SWAP1 PUSH2 0x67D SWAP2 SWAP1 PUSH2 0x235C JUMP JUMPDEST PUSH2 0x1019 JUMP JUMPDEST PUSH1 0x40 MLOAD PUSH2 0x68F SWAP2 SWAP1 PUSH2 0x219A JUMP JUMPDEST PUSH1 0x40 MLOAD DUP1 SWAP2 SUB SWAP1 RETURN JUMPDEST PUSH2 0x6B2 PUSH1 0x4 DUP1 CALLDATASIZE SUB DUP2 ADD SWAP1 PUSH2 0x6AD SWAP2 SWAP1 PUSH2 0x2213 JUMP JUMPDEST PUSH2 0x1135 JUMP JUMPDEST STOP JUMPDEST PUSH2 0x6CE PUSH1 0x4 DUP1 CALLDATASIZE SUB DUP2 ADD SWAP1 PUSH2 0x6C9 SWAP2 SWAP1 PUSH2 0x2213 JUMP JUMPDEST PUSH2 0x116A JUMP JUMPDEST STOP JUMPDEST PUSH2 0x6D8 PUSH2 0x119F JUMP JUMPDEST PUSH1 0x40 MLOAD PUSH2 0x6E5 SWAP2 SWAP1 PUSH2 0x2259 JUMP JUMPDEST PUSH1 0x40 MLOAD DUP1 SWAP2 SUB SWAP1 RETURN JUMPDEST PUSH2 0x708 PUSH1 0x4 DUP1 CALLDATASIZE SUB DUP2 ADD SWAP1 PUSH2 0x703 SWAP2 SWAP1 PUSH2 0x2472 JUMP JUMPDEST PUSH2 0x11C3 JUMP JUMPDEST STOP JUMPDEST PUSH2 0x724 PUSH1 0x4 DUP1 CALLDATASIZE SUB DUP2 ADD SWAP1 PUSH2 0x71F SWAP2 SWAP1 PUSH2 0x2513 JUMP JUMPDEST PUSH2 0x11E5 JUMP JUMPDEST PUSH1 0x40 MLOAD PUSH2 0x731 SWAP2 SWAP1 PUSH2 0x23AB JUMP JUMPDEST PUSH1 0x40 MLOAD DUP1 SWAP2 SUB SWAP1 RETURN JUMPDEST PUSH2 0x754 PUSH1 0x4 DUP1 CALLDATASIZE SUB DUP2 ADD SWAP1 PUSH2 0x74F SWAP2 SWAP1 PUSH2 0x2213 JUMP JUMPDEST PUSH2 0x126C JUMP JUMPDEST PUSH1 0x40 MLOAD PUSH2 0x761 SWAP2 SWAP1 PUSH2 0x219A JUMP JUMPDEST PUSH1 0x40 MLOAD DUP1 SWAP2 SUB SWAP1 RETURN JUMPDEST PUSH2 0x784 PUSH1 0x4 DUP1 CALLDATASIZE SUB DUP2 ADD SWAP1 PUSH2 0x77F SWAP2 SWAP1 PUSH2 0x2213 JUMP JUMPDEST PUSH2 0x1289 JUMP JUMPDEST STOP JUMPDEST PUSH2 0x7A0 PUSH1 0x4 DUP1 CALLDATASIZE SUB DUP2 ADD SWAP1 PUSH2 0x79B SWAP2 SWAP1 PUSH2 0x2213 JUMP JUMPDEST PUSH2 0x1320 JUMP JUMPDEST STOP JUMPDEST PUSH2 0x7BC PUSH1 0x4 DUP1 CALLDATASIZE SUB DUP2 ADD SWAP1 PUSH2 0x7B7 SWAP2 SWAP1 PUSH2 0x2213 JUMP JUMPDEST PUSH2 0x13A6 JUMP JUMPDEST STOP JUMPDEST PUSH2 0x7D8 PUSH1 0x4 DUP1 CALLDATASIZE SUB DUP2 ADD SWAP1 PUSH2 0x7D3 SWAP2 SWAP1 PUSH2 0x2213 JUMP JUMPDEST PUSH2 0x13DB JUMP JUMPDEST PUSH1 0x40 MLOAD PUSH2 0x7E5 SWAP2 SWAP1 PUSH2 0x219A JUMP JUMPDEST PUSH1 0x40 MLOAD DUP1 SWAP2 SUB SWAP1 RETURN JUMPDEST PUSH1 0x0 PUSH32 0x7965DB0B00000000000000000000000000000000000000000000000000000000 PUSH28 0xFFFFFFFFFFFFFFFFFFFFFFFFFFFFFFFFFFFFFFFFFFFFFFFFFFFFFFFF NOT AND DUP3 PUSH28 0xFFFFFFFFFFFFFFFFFFFFFFFFFFFFFFFFFFFFFFFFFFFFFFFFFFFFFFFF NOT AND EQ DUP1 PUSH2 0x861 JUMPI POP PUSH2 0x860 DUP3 PUSH2 0x13F8 JUMP JUMPDEST JUMPDEST SWAP1 POP SWAP2 SWAP1 POP JUMP JUMPDEST PUSH2 0x870 PUSH2 0x1462 JUMP JUMPDEST PUSH2 0x89A PUSH32 0x3C11D16CBAFFD01DF69CE1C404F6340EE057498F5F00246190EA54220576A848 DUP3 PUSH2 0x11C3 JUMP JUMPDEST POP JUMP JUMPDEST PUSH32 0x92DE27771F92D6942691D73358B3A4673E4880DE8356F8F2CF452BE87E02D363 DUP2 JUMP JUMPDEST PUSH1 0x60 PUSH1 0x3 DUP1 SLOAD PUSH2 0x8D0 SWAP1 PUSH2 0x2582 JUMP JUMPDEST DUP1 PUSH1 0x1F ADD PUSH1 0x20 DUP1 SWAP2 DIV MUL PUSH1 0x20 ADD PUSH1 0x40 MLOAD SWAP1 DUP2 ADD PUSH1 0x40 MSTORE DUP1 SWAP3 SWAP2 SWAP1 DUP2 DUP2 MSTORE PUSH1 0x20 ADD DUP3 DUP1 SLOAD PUSH2 0x8FC SWAP1 PUSH2 0x2582 JUMP JUMPDEST DUP1 ISZERO PUSH2 0x949 JUMPI DUP1 PUSH1 0x1F LT PUSH2 0x91E JUMPI PUSH2 0x100 DUP1 DUP4 SLOAD DIV MUL DUP4 MSTORE SWAP2 PUSH1 0x20 ADD SWAP2 PUSH2 0x949 JUMP JUMPDEST DUP3 ADD SWAP2 SWAP1 PUSH1 0x0 MSTORE PUSH1 0x20 PUSH1 0x0 KECCAK256 SWAP1 JUMPDEST DUP2 SLOAD DUP2 MSTORE SWAP1 PUSH1 0x1 ADD SWAP1 PUSH1 0x20 ADD DUP1 DUP4 GT PUSH2 0x92C JUMPI DUP3 SWAP1 SUB PUSH1 0x1F AND DUP3 ADD SWAP2 JUMPDEST POP POP POP POP POP SWAP1 POP SWAP1 JUMP JUMPDEST PUSH1 0x0 DUP1 PUSH2 0x95E PUSH2 0x14E9 JUMP JUMPDEST SWAP1 POP PUSH2 0x96B DUP2 DUP6 DUP6 PUSH2 0x14F1 JUMP JUMPDEST PUSH1 0x1 SWAP2 POP POP SWAP3 SWAP2 POP POP JUMP JUMPDEST PUSH2 0x97E PUSH2 0x1462 JUMP JUMPDEST PUSH2 0x9A8 PUSH32 0xF988E4FB62B8E14F4820FED03192306DDF4D7DBFA215595BA1C6BA4B76B369EE DUP3 PUSH2 0xA98 JUMP JUMPDEST POP JUMP JUMPDEST PUSH1 0x0 PUSH1 0x2 SLOAD SWAP1 POP SWAP1 JUMP JUMPDEST PUSH32 0x62B337EAEFEC74DADF1A62E856BF9DB4F14A0F27D4F48156A95A9F98E7D5E066 PUSH2 0x9DF DUP2 PUSH2 0x1503 JUMP JUMPDEST PUSH2 0x9EA DUP5 DUP5 DUP5 PUSH2 0x1517 JUMP JUMPDEST POP POP POP POP JUMP JUMPDEST PUSH1 0x0 DUP1 PUSH2 0x9FB PUSH2 0x14E9 JUMP JUMPDEST SWAP1 POP PUSH2 0xA08 DUP6 DUP3 DUP6 PUSH2 0x160B JUMP JUMPDEST PUSH2 0xA13 DUP6 DUP6 DUP6 PUSH2 0x1517 JUMP JUMPDEST PUSH1 0x1 SWAP2 POP POP SWAP4 SWAP3 POP POP POP JUMP JUMPDEST PUSH1 0x0 PUSH1 0x5 PUSH1 0x0 DUP4 DUP2 MSTORE PUSH1 0x20 ADD SWAP1 DUP2 MSTORE PUSH1 0x20 ADD PUSH1 0x0 KECCAK256 PUSH1 0x1 ADD SLOAD SWAP1 POP SWAP2 SWAP1 POP JUMP JUMPDEST PUSH32 0x3C11D16CBAFFD01DF69CE1C404F6340EE057498F5F00246190EA54220576A848 DUP2 JUMP JUMPDEST PUSH2 0xA6B PUSH2 0x1462 JUMP JUMPDEST PUSH2 0xA95 PUSH32 0x92DE27771F92D6942691D73358B3A4673E4880DE8356F8F2CF452BE87E02D363 DUP3 PUSH2 0x11C3 JUMP JUMPDEST POP JUMP JUMPDEST PUSH2 0xAA1 DUP3 PUSH2 0xA1F JUMP JUMPDEST PUSH2 0xAAA DUP2 PUSH2 0x1503 JUMP JUMPDEST PUSH2 0xAB4 DUP4 DUP4 PUSH2 0x169F JUMP JUMPDEST POP POP POP POP JUMP JUMPDEST PUSH2 0xAC2 PUSH2 0x1462 JUMP JUMPDEST PUSH2 0xAEC PUSH32 0x9F2DF0FED2C77648DE5860A4CC508CD0818C85B8B8A1AB4CEEEF8D981C8956A6 DUP3 PUSH2 0x11C3 JUMP JUMPDEST POP JUMP JUMPDEST PUSH1 0x0 PUSH1 0x12 SWAP1 POP SWAP1 JUMP JUMPDEST PUSH2 0xB00 PUSH2 0x14E9 JUMP JUMPDEST PUSH20 0xFFFFFFFFFFFFFFFFFFFFFFFFFFFFFFFFFFFFFFFF AND DUP2 PUSH20 0xFFFFFFFFFFFFFFFFFFFFFFFFFFFFFFFFFFFFFFFF AND EQ PUSH2 0xB64 JUMPI PUSH1 0x40 MLOAD PUSH32 0x6697B23200000000000000000000000000000000000000000000000000000000 DUP2 MSTORE PUSH1 0x4 ADD PUSH1 0x40 MLOAD DUP1 SWAP2 SUB SWAP1 REVERT JUMPDEST PUSH2 0xB6E DUP3 DUP3 PUSH2 0x1791 JUMP JUMPDEST POP POP POP JUMP JUMPDEST PUSH32 0x9F2DF0FED2C77648DE5860A4CC508CD0818C85B8B8A1AB4CEEEF8D981C8956A6 PUSH2 0xB9D DUP2 PUSH2 0x1503 JUMP JUMPDEST PUSH2 0xBA7 DUP4 DUP4 PUSH2 0x1884 JUMP JUMPDEST POP POP POP JUMP JUMPDEST PUSH32 0xF988E4FB62B8E14F4820FED03192306DDF4D7DBFA215595BA1C6BA4B76B369EE DUP2 JUMP JUMPDEST PUSH32 0xF988E4FB62B8E14F4820FED03192306DDF4D7DBFA215595BA1C6BA4B76B369EE PUSH2 0xBFA DUP2 PUSH2 0x1503 JUMP JUMPDEST PUSH2 0xC0E DUP3 PUSH1 0x9 PUSH2 0x1906 SWAP1 SWAP2 SWAP1 PUSH4 0xFFFFFFFF AND JUMP JUMPDEST ISZERO PUSH2 0xC4E JUMPI PUSH1 0x40 MLOAD PUSH32 0x8C379A000000000000000000000000000000000000000000000000000000000 DUP2 MSTORE PUSH1 0x4 ADD PUSH2 0xC45 SWAP1 PUSH2 0x25FF JUMP JUMPDEST PUSH1 0x40 MLOAD DUP1 SWAP2 SUB SWAP1 REVERT JUMPDEST PUSH2 0xC62 DUP3 PUSH1 0x9 PUSH2 0x1936 SWAP1 SWAP2 SWAP1 PUSH4 0xFFFFFFFF AND JUMP JUMPDEST POP POP POP JUMP JUMPDEST PUSH2 0xC6F PUSH2 0x1462 JUMP JUMPDEST PUSH2 0xC99 PUSH32 0x92DE27771F92D6942691D73358B3A4673E4880DE8356F8F2CF452BE87E02D363 DUP3 PUSH2 0xA98 JUMP JUMPDEST POP JUMP JUMPDEST PUSH32 0xF988E4FB62B8E14F4820FED03192306DDF4D7DBFA215595BA1C6BA4B76B369EE PUSH2 0xCC6 DUP2 PUSH2 0x1503 JUMP JUMPDEST PUSH2 0xCDA DUP3 PUSH1 0x9 PUSH2 0x1906 SWAP1 SWAP2 SWAP1 PUSH4 0xFFFFFFFF AND JUMP JUMPDEST PUSH2 0xD19 JUMPI PUSH1 0x40 MLOAD PUSH32 0x8C379A000000000000000000000000000000000000000000000000000000000 DUP2 MSTORE PUSH1 0x4 ADD PUSH2 0xD10 SWAP1 PUSH2 0x266B JUMP JUMPDEST PUSH1 0x40 MLOAD DUP1 SWAP2 SUB SWAP1 REVERT JUMPDEST PUSH2 0xD2D DUP3 PUSH1 0x9 PUSH2 0x1966 SWAP1 SWAP2 SWAP1 PUSH4 0xFFFFFFFF AND JUMP JUMPDEST POP POP POP JUMP JUMPDEST PUSH1 0x0 DUP1 PUSH1 0x0 DUP4 PUSH20 0xFFFFFFFFFFFFFFFFFFFFFFFFFFFFFFFFFFFFFFFF AND PUSH20 0xFFFFFFFFFFFFFFFFFFFFFFFFFFFFFFFFFFFFFFFF AND DUP2 MSTORE PUSH1 0x20 ADD SWAP1 DUP2 MSTORE PUSH1 0x20 ADD PUSH1 0x0 KECCAK256 SLOAD SWAP1 POP SWAP2 SWAP1 POP JUMP JUMPDEST PUSH2 0xD82 PUSH2 0x1462 JUMP JUMPDEST PUSH2 0xD8C PUSH1 0x0 PUSH2 0x1996 JUMP JUMPDEST JUMP JUMPDEST PUSH32 0x92DE27771F92D6942691D73358B3A4673E4880DE8356F8F2CF452BE87E02D363 PUSH2 0xDB8 DUP2 PUSH2 0x1503 JUMP JUMPDEST PUSH2 0xDCC DUP3 PUSH1 0x7 PUSH2 0x1906 SWAP1 SWAP2 SWAP1 PUSH4 0xFFFFFFFF AND JUMP JUMPDEST PUSH2 0xE0B JUMPI PUSH1 0x40 MLOAD PUSH32 0x8C379A000000000000000000000000000000000000000000000000000000000 DUP2 MSTORE PUSH1 0x4 ADD PUSH2 0xE02 SWAP1 PUSH2 0x26D7 JUMP JUMPDEST PUSH1 0x40 MLOAD DUP1 SWAP2 SUB SWAP1 REVERT JUMPDEST PUSH2 0xE1F DUP3 PUSH1 0x7 PUSH2 0x1966 SWAP1 SWAP2 SWAP1 PUSH4 0xFFFFFFFF AND JUMP JUMPDEST POP POP POP JUMP JUMPDEST PUSH1 0x0 PUSH1 0x6 PUSH1 0x0 SWAP1 SLOAD SWAP1 PUSH2 0x100 EXP SWAP1 DIV PUSH20 0xFFFFFFFFFFFFFFFFFFFFFFFFFFFFFFFFFFFFFFFF AND SWAP1 POP SWAP1 JUMP JUMPDEST PUSH1 0x0 PUSH1 0x5 PUSH1 0x0 DUP5 DUP2 MSTORE PUSH1 0x20 ADD SWAP1 DUP2 MSTORE PUSH1 0x20 ADD PUSH1 0x0 KECCAK256 PUSH1 0x0 ADD PUSH1 0x0 DUP4 PUSH20 0xFFFFFFFFFFFFFFFFFFFFFFFFFFFFFFFFFFFFFFFF AND PUSH20 0xFFFFFFFFFFFFFFFFFFFFFFFFFFFFFFFFFFFFFFFF AND DUP2 MSTORE PUSH1 0x20 ADD SWAP1 DUP2 MSTORE PUSH1 0x20 ADD PUSH1 0x0 KECCAK256 PUSH1 0x0 SWAP1 SLOAD SWAP1 PUSH2 0x100 EXP SWAP1 DIV PUSH1 0xFF AND SWAP1 POP SWAP3 SWAP2 POP POP JUMP JUMPDEST PUSH32 0x62B337EAEFEC74DADF1A62E856BF9DB4F14A0F27D4F48156A95A9F98E7D5E066 DUP2 JUMP JUMPDEST PUSH1 0x60 PUSH1 0x4 DUP1 SLOAD PUSH2 0xEEC SWAP1 PUSH2 0x2582 JUMP JUMPDEST DUP1 PUSH1 0x1F ADD PUSH1 0x20 DUP1 SWAP2 DIV MUL PUSH1 0x20 ADD PUSH1 0x40 MLOAD SWAP1 DUP2 ADD PUSH1 0x40 MSTORE DUP1 SWAP3 SWAP2 SWAP1 DUP2 DUP2 MSTORE PUSH1 0x20 ADD DUP3 DUP1 SLOAD PUSH2 0xF18 SWAP1 PUSH2 0x2582 JUMP JUMPDEST DUP1 ISZERO PUSH2 0xF65 JUMPI DUP1 PUSH1 0x1F LT PUSH2 0xF3A JUMPI PUSH2 0x100 DUP1 DUP4 SLOAD DIV MUL DUP4 MSTORE SWAP2 PUSH1 0x20 ADD SWAP2 PUSH2 0xF65 JUMP JUMPDEST DUP3 ADD SWAP2 SWAP1 PUSH1 0x0 MSTORE PUSH1 0x20 PUSH1 0x0 KECCAK256 SWAP1 JUMPDEST DUP2 SLOAD DUP2 MSTORE SWAP1 PUSH1 0x1 ADD SWAP1 PUSH1 0x20 ADD DUP1 DUP4 GT PUSH2 0xF48 JUMPI DUP3 SWAP1 SUB PUSH1 0x1F AND DUP3 ADD SWAP2 JUMPDEST POP POP POP POP POP SWAP1 POP SWAP1 JUMP JUMPDEST PUSH2 0xF77 PUSH2 0x1462 JUMP JUMPDEST PUSH2 0xFA1 PUSH32 0xF988E4FB62B8E14F4820FED03192306DDF4D7DBFA215595BA1C6BA4B76B369EE DUP3 PUSH2 0x11C3 JUMP JUMPDEST POP JUMP JUMPDEST PUSH2 0xFAC PUSH2 0x1462 JUMP JUMPDEST PUSH2 0xFD6 PUSH32 0x9F2DF0FED2C77648DE5860A4CC508CD0818C85B8B8A1AB4CEEEF8D981C8956A6 DUP3 PUSH2 0xA98 JUMP JUMPDEST POP JUMP JUMPDEST PUSH32 0x3C11D16CBAFFD01DF69CE1C404F6340EE057498F5F00246190EA54220576A848 PUSH2 0x1003 DUP2 PUSH2 0x1503 JUMP JUMPDEST PUSH2 0x100D DUP4 DUP4 PUSH2 0x1A5C JUMP JUMPDEST POP POP POP JUMP JUMPDEST PUSH1 0x0 DUP1 SHL DUP2 JUMP JUMPDEST PUSH1 0x0 DUP1 PUSH2 0x1024 PUSH2 0x14E9 JUMP JUMPDEST SWAP1 POP PUSH2 0x103A DUP2 PUSH1 0x7 PUSH2 0x1906 SWAP1 SWAP2 SWAP1 PUSH4 0xFFFFFFFF AND JUMP JUMPDEST ISZERO PUSH2 0x107A JUMPI PUSH1 0x40 MLOAD PUSH32 0x8C379A000000000000000000000000000000000000000000000000000000000 DUP2 MSTORE PUSH1 0x4 ADD PUSH2 0x1071 SWAP1 PUSH2 0x2743 JUMP JUMPDEST PUSH1 0x40 MLOAD DUP1 SWAP2 SUB SWAP1 REVERT JUMPDEST PUSH2 0x108E DUP2 PUSH1 0x9 PUSH2 0x1906 SWAP1 SWAP2 SWAP1 PUSH4 0xFFFFFFFF AND JUMP JUMPDEST ISZERO PUSH2 0x10CE JUMPI PUSH1 0x40 MLOAD PUSH32 0x8C379A000000000000000000000000000000000000000000000000000000000 DUP2 MSTORE PUSH1 0x4 ADD PUSH2 0x10C5 SWAP1 PUSH2 0x27AF JUMP JUMPDEST PUSH1 0x40 MLOAD DUP1 SWAP2 SUB SWAP1 REVERT JUMPDEST PUSH2 0x10E2 DUP5 PUSH1 0x9 PUSH2 0x1906 SWAP1 SWAP2 SWAP1 PUSH4 0xFFFFFFFF AND JUMP JUMPDEST ISZERO PUSH2 0x1122 JUMPI PUSH1 0x40 MLOAD PUSH32 0x8C379A000000000000000000000000000000000000000000000000000000000 DUP2 MSTORE PUSH1 0x4 ADD PUSH2 0x1119 SWAP1 PUSH2 0x281B JUMP JUMPDEST PUSH1 0x40 MLOAD DUP1 SWAP2 SUB SWAP1 REVERT JUMPDEST PUSH2 0x112C DUP5 DUP5 PUSH2 0x1ADE JUMP JUMPDEST SWAP2 POP POP SWAP3 SWAP2 POP POP JUMP JUMPDEST PUSH2 0x113D PUSH2 0x1462 JUMP JUMPDEST PUSH2 0x1167 PUSH32 0x62B337EAEFEC74DADF1A62E856BF9DB4F14A0F27D4F48156A95A9F98E7D5E066 DUP3 PUSH2 0xA98 JUMP JUMPDEST POP JUMP JUMPDEST PUSH2 0x1172 PUSH2 0x1462 JUMP JUMPDEST PUSH2 0x119C PUSH32 0x62B337EAEFEC74DADF1A62E856BF9DB4F14A0F27D4F48156A95A9F98E7D5E066 DUP3 PUSH2 0x11C3 JUMP JUMPDEST POP JUMP JUMPDEST PUSH32 0x9F2DF0FED2C77648DE5860A4CC508CD0818C85B8B8A1AB4CEEEF8D981C8956A6 DUP2 JUMP JUMPDEST PUSH2 0x11CC DUP3 PUSH2 0xA1F JUMP JUMPDEST PUSH2 0x11D5 DUP2 PUSH2 0x1503 JUMP JUMPDEST PUSH2 0x11DF DUP4 DUP4 PUSH2 0x1791 JUMP JUMPDEST POP POP POP POP JUMP JUMPDEST PUSH1 0x0 PUSH1 0x1 PUSH1 0x0 DUP5 PUSH20 0xFFFFFFFFFFFFFFFFFFFFFFFFFFFFFFFFFFFFFFFF AND PUSH20 0xFFFFFFFFFFFFFFFFFFFFFFFFFFFFFFFFFFFFFFFF AND DUP2 MSTORE PUSH1 0x20 ADD SWAP1 DUP2 MSTORE PUSH1 0x20 ADD PUSH1 0x0 KECCAK256 PUSH1 0x0 DUP4 PUSH20 0xFFFFFFFFFFFFFFFFFFFFFFFFFFFFFFFFFFFFFFFF AND PUSH20 0xFFFFFFFFFFFFFFFFFFFFFFFFFFFFFFFFFFFFFFFF AND DUP2 MSTORE PUSH1 0x20 ADD SWAP1 DUP2 MSTORE PUSH1 0x20 ADD PUSH1 0x0 KECCAK256 SLOAD SWAP1 POP SWAP3 SWAP2 POP POP JUMP JUMPDEST PUSH1 0x0 PUSH2 0x1282 DUP3 PUSH1 0x7 PUSH2 0x1906 SWAP1 SWAP2 SWAP1 PUSH4 0xFFFFFFFF AND JUMP JUMPDEST SWAP1 POP SWAP2 SWAP1 POP JUMP JUMPDEST PUSH32 0x92DE27771F92D6942691D73358B3A4673E4880DE8356F8F2CF452BE87E02D363 PUSH2 0x12B3 DUP2 PUSH2 0x1503 JUMP JUMPDEST PUSH2 0x12C7 DUP3 PUSH1 0x7 PUSH2 0x1906 SWAP1 SWAP2 SWAP1 PUSH4 0xFFFFFFFF AND JUMP JUMPDEST ISZERO PUSH2 0x1307 JUMPI PUSH1 0x40 MLOAD PUSH32 0x8C379A000000000000000000000000000000000000000000000000000000000 DUP2 MSTORE PUSH1 0x4 ADD PUSH2 0x12FE SWAP1 PUSH2 0x2887 JUMP JUMPDEST PUSH1 0x40 MLOAD DUP1 SWAP2 SUB SWAP1 REVERT JUMPDEST PUSH2 0x131B DUP3 PUSH1 0x7 PUSH2 0x1936 SWAP1 SWAP2 SWAP1 PUSH4 0xFFFFFFFF AND JUMP JUMPDEST POP POP POP JUMP JUMPDEST PUSH2 0x1328 PUSH2 0x1462 JUMP JUMPDEST PUSH1 0x0 PUSH20 0xFFFFFFFFFFFFFFFFFFFFFFFFFFFFFFFFFFFFFFFF AND DUP2 PUSH20 0xFFFFFFFFFFFFFFFFFFFFFFFFFFFFFFFFFFFFFFFF AND SUB PUSH2 0x139A JUMPI PUSH1 0x0 PUSH1 0x40 MLOAD PUSH32 0x1E4FBDF700000000000000000000000000000000000000000000000000000000 DUP2 MSTORE PUSH1 0x4 ADD PUSH2 0x1391 SWAP2 SWAP1 PUSH2 0x24F8 JUMP JUMPDEST PUSH1 0x40 MLOAD DUP1 SWAP2 SUB SWAP1 REVERT JUMPDEST PUSH2 0x13A3 DUP2 PUSH2 0x1996 JUMP JUMPDEST POP JUMP JUMPDEST PUSH2 0x13AE PUSH2 0x1462 JUMP JUMPDEST PUSH2 0x13D8 PUSH32 0x3C11D16CBAFFD01DF69CE1C404F6340EE057498F5F00246190EA54220576A848 DUP3 PUSH2 0xA98 JUMP JUMPDEST POP JUMP JUMPDEST PUSH1 0x0 PUSH2 0x13F1 DUP3 PUSH1 0x9 PUSH2 0x1906 SWAP1 SWAP2 SWAP1 PUSH4 0xFFFFFFFF AND JUMP JUMPDEST SWAP1 POP SWAP2 SWAP1 POP JUMP JUMPDEST PUSH1 0x0 PUSH32 0x1FFC9A700000000000000000000000000000000000000000000000000000000 PUSH28 0xFFFFFFFFFFFFFFFFFFFFFFFFFFFFFFFFFFFFFFFFFFFFFFFFFFFFFFFF NOT AND DUP3 PUSH28 0xFFFFFFFFFFFFFFFFFFFFFFFFFFFFFFFFFFFFFFFFFFFFFFFFFFFFFFFF NOT AND EQ SWAP1 POP SWAP2 SWAP1 POP JUMP JUMPDEST PUSH2 0x146A PUSH2 0x14E9 JUMP JUMPDEST PUSH20 0xFFFFFFFFFFFFFFFFFFFFFFFFFFFFFFFFFFFFFFFF AND PUSH2 0x1488 PUSH2 0xE24 JUMP JUMPDEST PUSH20 0xFFFFFFFFFFFFFFFFFFFFFFFFFFFFFFFFFFFFFFFF AND EQ PUSH2 0x14E7 JUMPI PUSH2 0x14AB PUSH2 0x14E9 JUMP JUMPDEST PUSH1 0x40 MLOAD PUSH32 0x118CDAA700000000000000000000000000000000000000000000000000000000 DUP2 MSTORE PUSH1 0x4 ADD PUSH2 0x14DE SWAP2 SWAP1 PUSH2 0x24F8 JUMP JUMPDEST PUSH1 0x40 MLOAD DUP1 SWAP2 SUB SWAP1 REVERT JUMPDEST JUMP JUMPDEST PUSH1 0x0 CALLER SWAP1 POP SWAP1 JUMP JUMPDEST PUSH2 0x14FE DUP4 DUP4 DUP4 PUSH1 0x1 PUSH2 0x1B01 JUMP JUMPDEST POP POP POP JUMP JUMPDEST PUSH2 0x1514 DUP2 PUSH2 0x150F PUSH2 0x14E9 JUMP JUMPDEST PUSH2 0x1CD8 JUMP JUMPDEST POP JUMP JUMPDEST PUSH1 0x0 PUSH20 0xFFFFFFFFFFFFFFFFFFFFFFFFFFFFFFFFFFFFFFFF AND DUP4 PUSH20 0xFFFFFFFFFFFFFFFFFFFFFFFFFFFFFFFFFFFFFFFF AND SUB PUSH2 0x1589 JUMPI PUSH1 0x0 PUSH1 0x40 MLOAD PUSH32 0x96C6FD1E00000000000000000000000000000000000000000000000000000000 DUP2 MSTORE PUSH1 0x4 ADD PUSH2 0x1580 SWAP2 SWAP1 PUSH2 0x24F8 JUMP JUMPDEST PUSH1 0x40 MLOAD DUP1 SWAP2 SUB SWAP1 REVERT JUMPDEST PUSH1 0x0 PUSH20 0xFFFFFFFFFFFFFFFFFFFFFFFFFFFFFFFFFFFFFFFF AND DUP3 PUSH20 0xFFFFFFFFFFFFFFFFFFFFFFFFFFFFFFFFFFFFFFFF AND SUB PUSH2 0x15FB JUMPI PUSH1 0x0 PUSH1 0x40 MLOAD PUSH32 0xEC442F0500000000000000000000000000000000000000000000000000000000 DUP2 MSTORE PUSH1 0x4 ADD PUSH2 0x15F2 SWAP2 SWAP1 PUSH2 0x24F8 JUMP JUMPDEST PUSH1 0x40 MLOAD DUP1 SWAP2 SUB SWAP1 REVERT JUMPDEST PUSH2 0x1606 DUP4 DUP4 DUP4 PUSH2 0x1D29 JUMP JUMPDEST POP POP POP JUMP JUMPDEST PUSH1 0x0 PUSH2 0x1617 DUP5 DUP5 PUSH2 0x11E5 JUMP JUMPDEST SWAP1 POP PUSH32 0xFFFFFFFFFFFFFFFFFFFFFFFFFFFFFFFFFFFFFFFFFFFFFFFFFFFFFFFFFFFFFFFF DUP2 EQ PUSH2 0x1699 JUMPI DUP2 DUP2 LT ISZERO PUSH2 0x1689 JUMPI DUP3 DUP2 DUP4 PUSH1 0x40 MLOAD PUSH32 0xFB8F41B200000000000000000000000000000000000000000000000000000000 DUP2 MSTORE PUSH1 0x4 ADD PUSH2 0x1680 SWAP4 SWAP3 SWAP2 SWAP1 PUSH2 0x28A7 JUMP JUMPDEST PUSH1 0x40 MLOAD DUP1 SWAP2 SUB SWAP1 REVERT JUMPDEST PUSH2 0x1698 DUP5 DUP5 DUP5 DUP5 SUB PUSH1 0x0 PUSH2 0x1B01 JUMP JUMPDEST JUMPDEST POP POP POP POP JUMP JUMPDEST PUSH1 0x0 PUSH2 0x16AB DUP4 DUP4 PUSH2 0xE4E JUMP JUMPDEST PUSH2 0x1786 JUMPI PUSH1 0x1 PUSH1 0x5 PUSH1 0x0 DUP6 DUP2 MSTORE PUSH1 0x20 ADD SWAP1 DUP2 MSTORE PUSH1 0x20 ADD PUSH1 0x0 KECCAK256 PUSH1 0x0 ADD PUSH1 0x0 DUP5 PUSH20 0xFFFFFFFFFFFFFFFFFFFFFFFFFFFFFFFFFFFFFFFF AND PUSH20 0xFFFFFFFFFFFFFFFFFFFFFFFFFFFFFFFFFFFFFFFF AND DUP2 MSTORE PUSH1 0x20 ADD SWAP1 DUP2 MSTORE PUSH1 0x20 ADD PUSH1 0x0 KECCAK256 PUSH1 0x0 PUSH2 0x100 EXP DUP2 SLOAD DUP2 PUSH1 0xFF MUL NOT AND SWAP1 DUP4 ISZERO ISZERO MUL OR SWAP1 SSTORE POP PUSH2 0x1723 PUSH2 0x14E9 JUMP JUMPDEST PUSH20 0xFFFFFFFFFFFFFFFFFFFFFFFFFFFFFFFFFFFFFFFF AND DUP3 PUSH20 0xFFFFFFFFFFFFFFFFFFFFFFFFFFFFFFFFFFFFFFFF AND DUP5 PUSH32 0x2F8788117E7EFF1D82E926EC794901D17C78024A50270940304540A733656F0D PUSH1 0x40 MLOAD PUSH1 0x40 MLOAD DUP1 SWAP2 SUB SWAP1 LOG4 PUSH1 0x1 SWAP1 POP PUSH2 0x178B JUMP JUMPDEST PUSH1 0x0 SWAP1 POP JUMPDEST SWAP3 SWAP2 POP POP JUMP JUMPDEST PUSH1 0x0 PUSH2 0x179D DUP4 DUP4 PUSH2 0xE4E JUMP JUMPDEST ISZERO PUSH2 0x1879 JUMPI PUSH1 0x0 PUSH1 0x5 PUSH1 0x0 DUP6 DUP2 MSTORE PUSH1 0x20 ADD SWAP1 DUP2 MSTORE PUSH1 0x20 ADD PUSH1 0x0 KECCAK256 PUSH1 0x0 ADD PUSH1 0x0 DUP5 PUSH20 0xFFFFFFFFFFFFFFFFFFFFFFFFFFFFFFFFFFFFFFFF AND PUSH20 0xFFFFFFFFFFFFFFFFFFFFFFFFFFFFFFFFFFFFFFFF AND DUP2 MSTORE PUSH1 0x20 ADD SWAP1 DUP2 MSTORE PUSH1 0x20 ADD PUSH1 0x0 KECCAK256 PUSH1 0x0 PUSH2 0x100 EXP DUP2 SLOAD DUP2 PUSH1 0xFF MUL NOT AND SWAP1 DUP4 ISZERO ISZERO MUL OR SWAP1 SSTORE POP PUSH2 0x1816 PUSH2 0x14E9 JUMP JUMPDEST PUSH20 0xFFFFFFFFFFFFFFFFFFFFFFFFFFFFFFFFFFFFFFFF AND DUP3 PUSH20 0xFFFFFFFFFFFFFFFFFFFFFFFFFFFFFFFFFFFFFFFF AND DUP5 PUSH32 0xF6391F5C32D9C69D2A47EA670B442974B53935D1EDC7FD64EB21E047A839171B PUSH1 0x40 MLOAD PUSH1 0x40 MLOAD DUP1 SWAP2 SUB SWAP1 LOG4 PUSH1 0x1 SWAP1 POP PUSH2 0x187E JUMP JUMPDEST PUSH1 0x0 SWAP1 POP JUMPDEST SWAP3 SWAP2 POP POP JUMP JUMPDEST PUSH1 0x0 PUSH20 0xFFFFFFFFFFFFFFFFFFFFFFFFFFFFFFFFFFFFFFFF AND DUP3 PUSH20 0xFFFFFFFFFFFFFFFFFFFFFFFFFFFFFFFFFFFFFFFF AND SUB PUSH2 0x18F6 JUMPI PUSH1 0x0 PUSH1 0x40 MLOAD PUSH32 0xEC442F0500000000000000000000000000000000000000000000000000000000 DUP2 MSTORE PUSH1 0x4 ADD PUSH2 0x18ED SWAP2 SWAP1 PUSH2 0x24F8 JUMP JUMPDEST PUSH1 0x40 MLOAD DUP1 SWAP2 SUB SWAP1 REVERT JUMPDEST PUSH2 0x1902 PUSH1 0x0 DUP4 DUP4 PUSH2 0x1D29 JUMP JUMPDEST POP POP JUMP JUMPDEST PUSH1 0x0 PUSH2 0x192E DUP4 PUSH1 0x0 ADD DUP4 PUSH20 0xFFFFFFFFFFFFFFFFFFFFFFFFFFFFFFFFFFFFFFFF AND PUSH1 0x0 SHL PUSH2 0x1F4E JUMP JUMPDEST SWAP1 POP SWAP3 SWAP2 POP POP JUMP JUMPDEST PUSH1 0x0 PUSH2 0x195E DUP4 PUSH1 0x0 ADD DUP4 PUSH20 0xFFFFFFFFFFFFFFFFFFFFFFFFFFFFFFFFFFFFFFFF AND PUSH1 0x0 SHL PUSH2 0x1F71 JUMP JUMPDEST SWAP1 POP SWAP3 SWAP2 POP POP JUMP JUMPDEST PUSH1 0x0 PUSH2 0x198E DUP4 PUSH1 0x0 ADD DUP4 PUSH20 0xFFFFFFFFFFFFFFFFFFFFFFFFFFFFFFFFFFFFFFFF AND PUSH1 0x0 SHL PUSH2 0x1FE1 JUMP JUMPDEST SWAP1 POP SWAP3 SWAP2 POP POP JUMP JUMPDEST PUSH1 0x0 PUSH1 0x6 PUSH1 0x0 SWAP1 SLOAD SWAP1 PUSH2 0x100 EXP SWAP1 DIV PUSH20 0xFFFFFFFFFFFFFFFFFFFFFFFFFFFFFFFFFFFFFFFF AND SWAP1 POP DUP2 PUSH1 0x6 PUSH1 0x0 PUSH2 0x100 EXP DUP2 SLOAD DUP2 PUSH20 0xFFFFFFFFFFFFFFFFFFFFFFFFFFFFFFFFFFFFFFFF MUL NOT AND SWAP1 DUP4 PUSH20 0xFFFFFFFFFFFFFFFFFFFFFFFFFFFFFFFFFFFFFFFF AND MUL OR SWAP1 SSTORE POP DUP2 PUSH20 0xFFFFFFFFFFFFFFFFFFFFFFFFFFFFFFFFFFFFFFFF AND DUP2 PUSH20 0xFFFFFFFFFFFFFFFFFFFFFFFFFFFFFFFFFFFFFFFF AND PUSH32 0x8BE0079C531659141344CD1FD0A4F28419497F9722A3DAAFE3B4186F6B6457E0 PUSH1 0x40 MLOAD PUSH1 0x40 MLOAD DUP1 SWAP2 SUB SWAP1 LOG3 POP POP JUMP JUMPDEST PUSH1 0x0 PUSH20 0xFFFFFFFFFFFFFFFFFFFFFFFFFFFFFFFFFFFFFFFF AND DUP3 PUSH20 0xFFFFFFFFFFFFFFFFFFFFFFFFFFFFFFFFFFFFFFFF AND SUB PUSH2 0x1ACE JUMPI PUSH1 0x0 PUSH1 0x40 MLOAD PUSH32 0x96C6FD1E00000000000000000000000000000000000000000000000000000000 DUP2 MSTORE PUSH1 0x4 ADD PUSH2 0x1AC5 SWAP2 SWAP1 PUSH2 0x24F8 JUMP JUMPDEST PUSH1 0x40 MLOAD DUP1 SWAP2 SUB SWAP1 REVERT JUMPDEST PUSH2 0x1ADA DUP3 PUSH1 0x0 DUP4 PUSH2 0x1D29 JUMP JUMPDEST POP POP JUMP JUMPDEST PUSH1 0x0 DUP1 PUSH2 0x1AE9 PUSH2 0x14E9 JUMP JUMPDEST SWAP1 POP PUSH2 0x1AF6 DUP2 DUP6 DUP6 PUSH2 0x1517 JUMP JUMPDEST PUSH1 0x1 SWAP2 POP POP SWAP3 SWAP2 POP POP JUMP JUMPDEST PUSH1 0x0 PUSH20 0xFFFFFFFFFFFFFFFFFFFFFFFFFFFFFFFFFFFFFFFF AND DUP5 PUSH20 0xFFFFFFFFFFFFFFFFFFFFFFFFFFFFFFFFFFFFFFFF AND SUB PUSH2 0x1B73 JUMPI PUSH1 0x0 PUSH1 0x40 MLOAD PUSH32 0xE602DF0500000000000000000000000000000000000000000000000000000000 DUP2 MSTORE PUSH1 0x4 ADD PUSH2 0x1B6A SWAP2 SWAP1 PUSH2 0x24F8 JUMP JUMPDEST PUSH1 0x40 MLOAD DUP1 SWAP2 SUB SWAP1 REVERT JUMPDEST PUSH1 0x0 PUSH20 0xFFFFFFFFFFFFFFFFFFFFFFFFFFFFFFFFFFFFFFFF AND DUP4 PUSH20 0xFFFFFFFFFFFFFFFFFFFFFFFFFFFFFFFFFFFFFFFF AND SUB PUSH2 0x1BE5 JUMPI PUSH1 0x0 PUSH1 0x40 MLOAD PUSH32 0x94280D6200000000000000000000000000000000000000000000000000000000 DUP2 MSTORE PUSH1 0x4 ADD PUSH2 0x1BDC SWAP2 SWAP1 PUSH2 0x24F8 JUMP JUMPDEST PUSH1 0x40 MLOAD DUP1 SWAP2 SUB SWAP1 REVERT JUMPDEST DUP2 PUSH1 0x1 PUSH1 0x0 DUP7 PUSH20 0xFFFFFFFFFFFFFFFFFFFFFFFFFFFFFFFFFFFFFFFF AND PUSH20 0xFFFFFFFFFFFFFFFFFFFFFFFFFFFFFFFFFFFFFFFF AND DUP2 MSTORE PUSH1 0x20 ADD SWAP1 DUP2 MSTORE PUSH1 0x20 ADD PUSH1 0x0 KECCAK256 PUSH1 0x0 DUP6 PUSH20 0xFFFFFFFFFFFFFFFFFFFFFFFFFFFFFFFFFFFFFFFF AND PUSH20 0xFFFFFFFFFFFFFFFFFFFFFFFFFFFFFFFFFFFFFFFF AND DUP2 MSTORE PUSH1 0x20 ADD SWAP1 DUP2 MSTORE PUSH1 0x20 ADD PUSH1 0x0 KECCAK256 DUP2 SWAP1 SSTORE POP DUP1 ISZERO PUSH2 0x1CD2 JUMPI DUP3 PUSH20 0xFFFFFFFFFFFFFFFFFFFFFFFFFFFFFFFFFFFFFFFF AND DUP5 PUSH20 0xFFFFFFFFFFFFFFFFFFFFFFFFFFFFFFFFFFFFFFFF AND PUSH32 0x8C5BE1E5EBEC7D5BD14F71427D1E84F3DD0314C0F7B2291E5B200AC8C7C3B925 DUP5 PUSH1 0x40 MLOAD PUSH2 0x1CC9 SWAP2 SWAP1 PUSH2 0x23AB JUMP JUMPDEST PUSH1 0x40 MLOAD DUP1 SWAP2 SUB SWAP1 LOG3 JUMPDEST POP POP POP POP JUMP JUMPDEST PUSH2 0x1CE2 DUP3 DUP3 PUSH2 0xE4E JUMP JUMPDEST PUSH2 0x1D25 JUMPI DUP1 DUP3 PUSH1 0x40 MLOAD PUSH32 0xE2517D3F00000000000000000000000000000000000000000000000000000000 DUP2 MSTORE PUSH1 0x4 ADD PUSH2 0x1D1C SWAP3 SWAP2 SWAP1 PUSH2 0x28DE JUMP JUMPDEST PUSH1 0x40 MLOAD DUP1 SWAP2 SUB SWAP1 REVERT JUMPDEST POP POP JUMP JUMPDEST PUSH1 0x0 PUSH20 0xFFFFFFFFFFFFFFFFFFFFFFFFFFFFFFFFFFFFFFFF AND DUP4 PUSH20 0xFFFFFFFFFFFFFFFFFFFFFFFFFFFFFFFFFFFFFFFF AND SUB PUSH2 0x1D7B JUMPI DUP1 PUSH1 0x2 PUSH1 0x0 DUP3 DUP3 SLOAD PUSH2 0x1D6F SWAP2 SWAP1 PUSH2 0x2936 JUMP JUMPDEST SWAP3 POP POP DUP2 SWAP1 SSTORE POP PUSH2 0x1E4E JUMP JUMPDEST PUSH1 0x0 DUP1 PUSH1 0x0 DUP6 PUSH20 0xFFFFFFFFFFFFFFFFFFFFFFFFFFFFFFFFFFFFFFFF AND PUSH20 0xFFFFFFFFFFFFFFFFFFFFFFFFFFFFFFFFFFFFFFFF AND DUP2 MSTORE PUSH1 0x20 ADD SWAP1 DUP2 MSTORE PUSH1 0x20 ADD PUSH1 0x0 KECCAK256 SLOAD SWAP1 POP DUP2 DUP2 LT ISZERO PUSH2 0x1E07 JUMPI DUP4 DUP2 DUP4 PUSH1 0x40 MLOAD PUSH32 0xE450D38C00000000000000000000000000000000000000000000000000000000 DUP2 MSTORE PUSH1 0x4 ADD PUSH2 0x1DFE SWAP4 SWAP3 SWAP2 SWAP1 PUSH2 0x28A7 JUMP JUMPDEST PUSH1 0x40 MLOAD DUP1 SWAP2 SUB SWAP1 REVERT JUMPDEST DUP2 DUP2 SUB PUSH1 0x0 DUP1 DUP7 PUSH20 0xFFFFFFFFFFFFFFFFFFFFFFFFFFFFFFFFFFFFFFFF AND PUSH20 0xFFFFFFFFFFFFFFFFFFFFFFFFFFFFFFFFFFFFFFFF AND DUP2 MSTORE PUSH1 0x20 ADD SWAP1 DUP2 MSTORE PUSH1 0x20 ADD PUSH1 0x0 KECCAK256 DUP2 SWAP1 SSTORE POP POP JUMPDEST PUSH1 0x0 PUSH20 0xFFFFFFFFFFFFFFFFFFFFFFFFFFFFFFFFFFFFFFFF AND DUP3 PUSH20 0xFFFFFFFFFFFFFFFFFFFFFFFFFFFFFFFFFFFFFFFF AND SUB PUSH2 0x1E97 JUMPI DUP1 PUSH1 0x2 PUSH1 0x0 DUP3 DUP3 SLOAD SUB SWAP3 POP POP DUP2 SWAP1 SSTORE POP PUSH2 0x1EE4 JUMP JUMPDEST DUP1 PUSH1 0x0 DUP1 DUP5 PUSH20 0xFFFFFFFFFFFFFFFFFFFFFFFFFFFFFFFFFFFFFFFF AND PUSH20 0xFFFFFFFFFFFFFFFFFFFFFFFFFFFFFFFFFFFFFFFF AND DUP2 MSTORE PUSH1 0x20 ADD SWAP1 DUP2 MSTORE PUSH1 0x20 ADD PUSH1 0x0 KECCAK256 PUSH1 0x0 DUP3 DUP3 SLOAD ADD SWAP3 POP POP DUP2 SWAP1 SSTORE POP JUMPDEST DUP2 PUSH20 0xFFFFFFFFFFFFFFFFFFFFFFFFFFFFFFFFFFFFFFFF AND DUP4 PUSH20 0xFFFFFFFFFFFFFFFFFFFFFFFFFFFFFFFFFFFFFFFF AND PUSH32 0xDDF252AD1BE2C89B69C2B068FC378DAA952BA7F163C4A11628F55A4DF523B3EF DUP4 PUSH1 0x40 MLOAD PUSH2 0x1F41 SWAP2 SWAP1 PUSH2 0x23AB JUMP JUMPDEST PUSH1 0x40 MLOAD DUP1 SWAP2 SUB SWAP1 LOG3 POP POP POP JUMP JUMPDEST PUSH1 0x0 DUP1 DUP4 PUSH1 0x1 ADD PUSH1 0x0 DUP5 DUP2 MSTORE PUSH1 0x20 ADD SWAP1 DUP2 MSTORE PUSH1 0x20 ADD PUSH1 0x0 KECCAK256 SLOAD EQ ISZERO SWAP1 POP SWAP3 SWAP2 POP POP JUMP JUMPDEST PUSH1 0x0 PUSH2 0x1F7D DUP4 DUP4 PUSH2 0x1F4E JUMP JUMPDEST PUSH2 0x1FD6 JUMPI DUP3 PUSH1 0x0 ADD DUP3 SWAP1 DUP1 PUSH1 0x1 DUP2 SLOAD ADD DUP1 DUP3 SSTORE DUP1 SWAP2 POP POP PUSH1 0x1 SWAP1 SUB SWAP1 PUSH1 0x0 MSTORE PUSH1 0x20 PUSH1 0x0 KECCAK256 ADD PUSH1 0x0 SWAP1 SWAP2 SWAP1 SWAP2 SWAP1 SWAP2 POP SSTORE DUP3 PUSH1 0x0 ADD DUP1 SLOAD SWAP1 POP DUP4 PUSH1 0x1 ADD PUSH1 0x0 DUP5 DUP2 MSTORE PUSH1 0x20 ADD SWAP1 DUP2 MSTORE PUSH1 0x20 ADD PUSH1 0x0 KECCAK256 DUP2 SWAP1 SSTORE POP PUSH1 0x1 SWAP1 POP PUSH2 0x1FDB JUMP JUMPDEST PUSH1 0x0 SWAP1 POP JUMPDEST SWAP3 SWAP2 POP POP JUMP JUMPDEST PUSH1 0x0 DUP1 DUP4 PUSH1 0x1 ADD PUSH1 0x0 DUP5 DUP2 MSTORE PUSH1 0x20 ADD SWAP1 DUP2 MSTORE PUSH1 0x20 ADD PUSH1 0x0 KECCAK256 SLOAD SWAP1 POP PUSH1 0x0 DUP2 EQ PUSH2 0x20E9 JUMPI PUSH1 0x0 PUSH1 0x1 DUP3 PUSH2 0x2013 SWAP2 SWAP1 PUSH2 0x296A JUMP JUMPDEST SWAP1 POP PUSH1 0x0 PUSH1 0x1 DUP7 PUSH1 0x0 ADD DUP1 SLOAD SWAP1 POP PUSH2 0x202B SWAP2 SWAP1 PUSH2 0x296A JUMP JUMPDEST SWAP1 POP DUP1 DUP3 EQ PUSH2 0x209A JUMPI PUSH1 0x0 DUP7 PUSH1 0x0 ADD DUP3 DUP2 SLOAD DUP2 LT PUSH2 0x204C JUMPI PUSH2 0x204B PUSH2 0x299E JUMP JUMPDEST JUMPDEST SWAP1 PUSH1 0x0 MSTORE PUSH1 0x20 PUSH1 0x0 KECCAK256 ADD SLOAD SWAP1 POP DUP1 DUP8 PUSH1 0x0 ADD DUP5 DUP2 SLOAD DUP2 LT PUSH2 0x2070 JUMPI PUSH2 0x206F PUSH2 0x299E JUMP JUMPDEST JUMPDEST SWAP1 PUSH1 0x0 MSTORE PUSH1 0x20 PUSH1 0x0 KECCAK256 ADD DUP2 SWAP1 SSTORE POP DUP4 DUP8 PUSH1 0x1 ADD PUSH1 0x0 DUP4 DUP2 MSTORE PUSH1 0x20 ADD SWAP1 DUP2 MSTORE PUSH1 0x20 ADD PUSH1 0x0 KECCAK256 DUP2 SWAP1 SSTORE POP POP JUMPDEST DUP6 PUSH1 0x0 ADD DUP1 SLOAD DUP1 PUSH2 0x20AE JUMPI PUSH2 0x20AD PUSH2 0x29CD JUMP JUMPDEST JUMPDEST PUSH1 0x1 SWAP1 SUB DUP2 DUP2 SWAP1 PUSH1 0x0 MSTORE PUSH1 0x20 PUSH1 0x0 KECCAK256 ADD PUSH1 0x0 SWAP1 SSTORE SWAP1 SSTORE DUP6 PUSH1 0x1 ADD PUSH1 0x0 DUP7 DUP2 MSTORE PUSH1 0x20 ADD SWAP1 DUP2 MSTORE PUSH1 0x20 ADD PUSH1 0x0 KECCAK256 PUSH1 0x0 SWAP1 SSTORE PUSH1 0x1 SWAP4 POP POP POP POP PUSH2 0x20EF JUMP JUMPDEST PUSH1 0x0 SWAP2 POP POP JUMPDEST SWAP3 SWAP2 POP POP JUMP JUMPDEST PUSH1 0x0 DUP1 REVERT JUMPDEST PUSH1 0x0 PUSH32 0xFFFFFFFF00000000000000000000000000000000000000000000000000000000 DUP3 AND SWAP1 POP SWAP2 SWAP1 POP JUMP JUMPDEST PUSH2 0x212F DUP2 PUSH2 0x20FA JUMP JUMPDEST DUP2 EQ PUSH2 0x213A JUMPI PUSH1 0x0 DUP1 REVERT JUMPDEST POP JUMP JUMPDEST PUSH1 0x0 DUP2 CALLDATALOAD SWAP1 POP PUSH2 0x214C DUP2 PUSH2 0x2126 JUMP JUMPDEST SWAP3 SWAP2 POP POP JUMP JUMPDEST PUSH1 0x0 PUSH1 0x20 DUP3 DUP5 SUB SLT ISZERO PUSH2 0x2168 JUMPI PUSH2 0x2167 PUSH2 0x20F5 JUMP JUMPDEST JUMPDEST PUSH1 0x0 PUSH2 0x2176 DUP5 DUP3 DUP6 ADD PUSH2 0x213D JUMP JUMPDEST SWAP2 POP POP SWAP3 SWAP2 POP POP JUMP JUMPDEST PUSH1 0x0 DUP2 ISZERO ISZERO SWAP1 POP SWAP2 SWAP1 POP JUMP JUMPDEST PUSH2 0x2194 DUP2 PUSH2 0x217F JUMP JUMPDEST DUP3 MSTORE POP POP JUMP JUMPDEST PUSH1 0x0 PUSH1 0x20 DUP3 ADD SWAP1 POP PUSH2 0x21AF PUSH1 0x0 DUP4 ADD DUP5 PUSH2 0x218B JUMP JUMPDEST SWAP3 SWAP2 POP POP JUMP JUMPDEST PUSH1 0x0 PUSH20 0xFFFFFFFFFFFFFFFFFFFFFFFFFFFFFFFFFFFFFFFF DUP3 AND SWAP1 POP SWAP2 SWAP1 POP JUMP JUMPDEST PUSH1 0x0 PUSH2 0x21E0 DUP3 PUSH2 0x21B5 JUMP JUMPDEST SWAP1 POP SWAP2 SWAP1 POP JUMP JUMPDEST PUSH2 0x21F0 DUP2 PUSH2 0x21D5 JUMP JUMPDEST DUP2 EQ PUSH2 0x21FB JUMPI PUSH1 0x0 DUP1 REVERT JUMPDEST POP JUMP JUMPDEST PUSH1 0x0 DUP2 CALLDATALOAD SWAP1 POP PUSH2 0x220D DUP2 PUSH2 0x21E7 JUMP JUMPDEST SWAP3 SWAP2 POP POP JUMP JUMPDEST PUSH1 0x0 PUSH1 0x20 DUP3 DUP5 SUB SLT ISZERO PUSH2 0x2229 JUMPI PUSH2 0x2228 PUSH2 0x20F5 JUMP JUMPDEST JUMPDEST PUSH1 0x0 PUSH2 0x2237 DUP5 DUP3 DUP6 ADD PUSH2 0x21FE JUMP JUMPDEST SWAP2 POP POP SWAP3 SWAP2 POP POP JUMP JUMPDEST PUSH1 0x0 DUP2 SWAP1 POP SWAP2 SWAP1 POP JUMP JUMPDEST PUSH2 0x2253 DUP2 PUSH2 0x2240 JUMP JUMPDEST DUP3 MSTORE POP POP JUMP JUMPDEST PUSH1 0x0 PUSH1 0x20 DUP3 ADD SWAP1 POP PUSH2 0x226E PUSH1 0x0 DUP4 ADD DUP5 PUSH2 0x224A JUMP JUMPDEST SWAP3 SWAP2 POP POP JUMP JUMPDEST PUSH1 0x0 DUP2 MLOAD SWAP1 POP SWAP2 SWAP1 POP JUMP JUMPDEST PUSH1 0x0 DUP3 DUP3 MSTORE PUSH1 0x20 DUP3 ADD SWAP1 POP SWAP3 SWAP2 POP POP JUMP JUMPDEST PUSH1 0x0 JUMPDEST DUP4 DUP2 LT ISZERO PUSH2 0x22AE JUMPI DUP1 DUP3 ADD MLOAD DUP2 DUP5 ADD MSTORE PUSH1 0x20 DUP2 ADD SWAP1 POP PUSH2 0x2293 JUMP JUMPDEST PUSH1 0x0 DUP5 DUP5 ADD MSTORE POP POP POP POP JUMP JUMPDEST PUSH1 0x0 PUSH1 0x1F NOT PUSH1 0x1F DUP4 ADD AND SWAP1 POP SWAP2 SWAP1 POP JUMP JUMPDEST PUSH1 0x0 PUSH2 0x22D6 DUP3 PUSH2 0x2274 JUMP JUMPDEST PUSH2 0x22E0 DUP2 DUP6 PUSH2 0x227F JUMP JUMPDEST SWAP4 POP PUSH2 0x22F0 DUP2 DUP6 PUSH1 0x20 DUP7 ADD PUSH2 0x2290 JUMP JUMPDEST PUSH2 0x22F9 DUP2 PUSH2 0x22BA JUMP JUMPDEST DUP5 ADD SWAP2 POP POP SWAP3 SWAP2 POP POP JUMP JUMPDEST PUSH1 0x0 PUSH1 0x20 DUP3 ADD SWAP1 POP DUP2 DUP2 SUB PUSH1 0x0 DUP4 ADD MSTORE PUSH2 0x231E DUP2 DUP5 PUSH2 0x22CB JUMP JUMPDEST SWAP1 POP SWAP3 SWAP2 POP POP JUMP JUMPDEST PUSH1 0x0 DUP2 SWAP1 POP SWAP2 SWAP1 POP JUMP JUMPDEST PUSH2 0x2339 DUP2 PUSH2 0x2326 JUMP JUMPDEST DUP2 EQ PUSH2 0x2344 JUMPI PUSH1 0x0 DUP1 REVERT JUMPDEST POP JUMP JUMPDEST PUSH1 0x0 DUP2 CALLDATALOAD SWAP1 POP PUSH2 0x2356 DUP2 PUSH2 0x2330 JUMP JUMPDEST SWAP3 SWAP2 POP POP JUMP JUMPDEST PUSH1 0x0 DUP1 PUSH1 0x40 DUP4 DUP6 SUB SLT ISZERO PUSH2 0x2373 JUMPI PUSH2 0x2372 PUSH2 0x20F5 JUMP JUMPDEST JUMPDEST PUSH1 0x0 PUSH2 0x2381 DUP6 DUP3 DUP7 ADD PUSH2 0x21FE JUMP JUMPDEST SWAP3 POP POP PUSH1 0x20 PUSH2 0x2392 DUP6 DUP3 DUP7 ADD PUSH2 0x2347 JUMP JUMPDEST SWAP2 POP POP SWAP3 POP SWAP3 SWAP1 POP JUMP JUMPDEST PUSH2 0x23A5 DUP2 PUSH2 0x2326 JUMP JUMPDEST DUP3 MSTORE POP POP JUMP JUMPDEST PUSH1 0x0 PUSH1 0x20 DUP3 ADD SWAP1 POP PUSH2 0x23C0 PUSH1 0x0 DUP4 ADD DUP5 PUSH2 0x239C JUMP JUMPDEST SWAP3 SWAP2 POP POP JUMP JUMPDEST PUSH1 0x0 DUP1 PUSH1 0x0 PUSH1 0x60 DUP5 DUP7 SUB SLT ISZERO PUSH2 0x23DF JUMPI PUSH2 0x23DE PUSH2 0x20F5 JUMP JUMPDEST JUMPDEST PUSH1 0x0 PUSH2 0x23ED DUP7 DUP3 DUP8 ADD PUSH2 0x21FE JUMP JUMPDEST SWAP4 POP POP PUSH1 0x20 PUSH2 0x23FE DUP7 DUP3 DUP8 ADD PUSH2 0x21FE JUMP JUMPDEST SWAP3 POP POP PUSH1 0x40 PUSH2 0x240F DUP7 DUP3 DUP8 ADD PUSH2 0x2347 JUMP JUMPDEST SWAP2 POP POP SWAP3 POP SWAP3 POP SWAP3 JUMP JUMPDEST PUSH2 0x2422 DUP2 PUSH2 0x2240 JUMP JUMPDEST DUP2 EQ PUSH2 0x242D JUMPI PUSH1 0x0 DUP1 REVERT JUMPDEST POP JUMP JUMPDEST PUSH1 0x0 DUP2 CALLDATALOAD SWAP1 POP PUSH2 0x243F DUP2 PUSH2 0x2419 JUMP JUMPDEST SWAP3 SWAP2 POP POP JUMP JUMPDEST PUSH1 0x0 PUSH1 0x20 DUP3 DUP5 SUB SLT ISZERO PUSH2 0x245B JUMPI PUSH2 0x245A PUSH2 0x20F5 JUMP JUMPDEST JUMPDEST PUSH1 0x0 PUSH2 0x2469 DUP5 DUP3 DUP6 ADD PUSH2 0x2430 JUMP JUMPDEST SWAP2 POP POP SWAP3 SWAP2 POP POP JUMP JUMPDEST PUSH1 0x0 DUP1 PUSH1 0x40 DUP4 DUP6 SUB SLT ISZERO PUSH2 0x2489 JUMPI PUSH2 0x2488 PUSH2 0x20F5 JUMP JUMPDEST JUMPDEST PUSH1 0x0 PUSH2 0x2497 DUP6 DUP3 DUP7 ADD PUSH2 0x2430 JUMP JUMPDEST SWAP3 POP POP PUSH1 0x20 PUSH2 0x24A8 DUP6 DUP3 DUP7 ADD PUSH2 0x21FE JUMP JUMPDEST SWAP2 POP POP SWAP3 POP SWAP3 SWAP1 POP JUMP JUMPDEST PUSH1 0x0 PUSH1 0xFF DUP3 AND SWAP1 POP SWAP2 SWAP1 POP JUMP JUMPDEST PUSH2 0x24C8 DUP2 PUSH2 0x24B2 JUMP JUMPDEST DUP3 MSTORE POP POP JUMP JUMPDEST PUSH1 0x0 PUSH1 0x20 DUP3 ADD SWAP1 POP PUSH2 0x24E3 PUSH1 0x0 DUP4 ADD DUP5 PUSH2 0x24BF JUMP JUMPDEST SWAP3 SWAP2 POP POP JUMP JUMPDEST PUSH2 0x24F2 DUP2 PUSH2 0x21D5 JUMP JUMPDEST DUP3 MSTORE POP POP JUMP JUMPDEST PUSH1 0x0 PUSH1 0x20 DUP3 ADD SWAP1 POP PUSH2 0x250D PUSH1 0x0 DUP4 ADD DUP5 PUSH2 0x24E9 JUMP JUMPDEST SWAP3 SWAP2 POP POP JUMP JUMPDEST PUSH1 0x0 DUP1 PUSH1 0x40 DUP4 DUP6 SUB SLT ISZERO PUSH2 0x252A JUMPI PUSH2 0x2529 PUSH2 0x20F5 JUMP JUMPDEST JUMPDEST PUSH1 0x0 PUSH2 0x2538 DUP6 DUP3 DUP7 ADD PUSH2 0x21FE JUMP JUMPDEST SWAP3 POP POP PUSH1 0x20 PUSH2 0x2549 DUP6 DUP3 DUP7 ADD PUSH2 0x21FE JUMP JUMPDEST SWAP2 POP POP SWAP3 POP SWAP3 SWAP1 POP JUMP JUMPDEST PUSH32 0x4E487B7100000000000000000000000000000000000000000000000000000000 PUSH1 0x0 MSTORE PUSH1 0x22 PUSH1 0x4 MSTORE PUSH1 0x24 PUSH1 0x0 REVERT JUMPDEST PUSH1 0x0 PUSH1 0x2 DUP3 DIV SWAP1 POP PUSH1 0x1 DUP3 AND DUP1 PUSH2 0x259A JUMPI PUSH1 0x7F DUP3 AND SWAP2 POP JUMPDEST PUSH1 0x20 DUP3 LT DUP2 SUB PUSH2 0x25AD JUMPI PUSH2 0x25AC PUSH2 0x2553 JUMP JUMPDEST JUMPDEST POP SWAP2 SWAP1 POP JUMP JUMPDEST PUSH32 0x4163636F756E7420697320616C726561647920626C61636B6C69737465640000 PUSH1 0x0 DUP3 ADD MSTORE POP JUMP JUMPDEST PUSH1 0x0 PUSH2 0x25E9 PUSH1 0x1E DUP4 PUSH2 0x227F JUMP JUMPDEST SWAP2 POP PUSH2 0x25F4 DUP3 PUSH2 0x25B3 JUMP JUMPDEST PUSH1 0x20 DUP3 ADD SWAP1 POP SWAP2 SWAP1 POP JUMP JUMPDEST PUSH1 0x0 PUSH1 0x20 DUP3 ADD SWAP1 POP DUP2 DUP2 SUB PUSH1 0x0 DUP4 ADD MSTORE PUSH2 0x2618 DUP2 PUSH2 0x25DC JUMP JUMPDEST SWAP1 POP SWAP2 SWAP1 POP JUMP JUMPDEST PUSH32 0x4163636F756E74206973206E6F7420626C61636B6C6973746564000000000000 PUSH1 0x0 DUP3 ADD MSTORE POP JUMP JUMPDEST PUSH1 0x0 PUSH2 0x2655 PUSH1 0x1A DUP4 PUSH2 0x227F JUMP JUMPDEST SWAP2 POP PUSH2 0x2660 DUP3 PUSH2 0x261F JUMP JUMPDEST PUSH1 0x20 DUP3 ADD SWAP1 POP SWAP2 SWAP1 POP JUMP JUMPDEST PUSH1 0x0 PUSH1 0x20 DUP3 ADD SWAP1 POP DUP2 DUP2 SUB PUSH1 0x0 DUP4 ADD MSTORE PUSH2 0x2684 DUP2 PUSH2 0x2648 JUMP JUMPDEST SWAP1 POP SWAP2 SWAP1 POP JUMP JUMPDEST PUSH32 0x4163636F756E74206973206E6F742066726F7A656E0000000000000000000000 PUSH1 0x0 DUP3 ADD MSTORE POP JUMP JUMPDEST PUSH1 0x0 PUSH2 0x26C1 PUSH1 0x15 DUP4 PUSH2 0x227F JUMP JUMPDEST SWAP2 POP PUSH2 0x26CC DUP3 PUSH2 0x268B JUMP JUMPDEST PUSH1 0x20 DUP3 ADD SWAP1 POP SWAP2 SWAP1 POP JUMP JUMPDEST PUSH1 0x0 PUSH1 0x20 DUP3 ADD SWAP1 POP DUP2 DUP2 SUB PUSH1 0x0 DUP4 ADD MSTORE PUSH2 0x26F0 DUP2 PUSH2 0x26B4 JUMP JUMPDEST SWAP1 POP SWAP2 SWAP1 POP JUMP JUMPDEST PUSH32 0x53656E646572206163636F756E742069732066726F7A656E0000000000000000 PUSH1 0x0 DUP3 ADD MSTORE POP JUMP JUMPDEST PUSH1 0x0 PUSH2 0x272D PUSH1 0x18 DUP4 PUSH2 0x227F JUMP JUMPDEST SWAP2 POP PUSH2 0x2738 DUP3 PUSH2 0x26F7 JUMP JUMPDEST PUSH1 0x20 DUP3 ADD SWAP1 POP SWAP2 SWAP1 POP JUMP JUMPDEST PUSH1 0x0 PUSH1 0x20 DUP3 ADD SWAP1 POP DUP2 DUP2 SUB PUSH1 0x0 DUP4 ADD MSTORE PUSH2 0x275C DUP2 PUSH2 0x2720 JUMP JUMPDEST SWAP1 POP SWAP2 SWAP1 POP JUMP JUMPDEST PUSH32 0x53656E646572206163636F756E7420697320626C61636B6C6973746564000000 PUSH1 0x0 DUP3 ADD MSTORE POP JUMP JUMPDEST PUSH1 0x0 PUSH2 0x2799 PUSH1 0x1D DUP4 PUSH2 0x227F JUMP JUMPDEST SWAP2 POP PUSH2 0x27A4 DUP3 PUSH2 0x2763 JUMP JUMPDEST PUSH1 0x20 DUP3 ADD SWAP1 POP SWAP2 SWAP1 POP JUMP JUMPDEST PUSH1 0x0 PUSH1 0x20 DUP3 ADD SWAP1 POP DUP2 DUP2 SUB PUSH1 0x0 DUP4 ADD MSTORE PUSH2 0x27C8 DUP2 PUSH2 0x278C JUMP JUMPDEST SWAP1 POP SWAP2 SWAP1 POP JUMP JUMPDEST PUSH32 0x526563697069656E74206163636F756E7420697320626C61636B6C6973746564 PUSH1 0x0 DUP3 ADD MSTORE POP JUMP JUMPDEST PUSH1 0x0 PUSH2 0x2805 PUSH1 0x20 DUP4 PUSH2 0x227F JUMP JUMPDEST SWAP2 POP PUSH2 0x2810 DUP3 PUSH2 0x27CF JUMP JUMPDEST PUSH1 0x20 DUP3 ADD SWAP1 POP SWAP2 SWAP1 POP JUMP JUMPDEST PUSH1 0x0 PUSH1 0x20 DUP3 ADD SWAP1 POP DUP2 DUP2 SUB PUSH1 0x0 DUP4 ADD MSTORE PUSH2 0x2834 DUP2 PUSH2 0x27F8 JUMP JUMPDEST SWAP1 POP SWAP2 SWAP1 POP JUMP JUMPDEST PUSH32 0x4163636F756E7420697320616C72656164792066726F7A656E00000000000000 PUSH1 0x0 DUP3 ADD MSTORE POP JUMP JUMPDEST PUSH1 0x0 PUSH2 0x2871 PUSH1 0x19 DUP4 PUSH2 0x227F JUMP JUMPDEST SWAP2 POP PUSH2 0x287C DUP3 PUSH2 0x283B JUMP JUMPDEST PUSH1 0x20 DUP3 ADD SWAP1 POP SWAP2 SWAP1 POP JUMP JUMPDEST PUSH1 0x0 PUSH1 0x20 DUP3 ADD SWAP1 POP DUP2 DUP2 SUB PUSH1 0x0 DUP4 ADD MSTORE PUSH2 0x28A0 DUP2 PUSH2 0x2864 JUMP JUMPDEST SWAP1 POP SWAP2 SWAP1 POP JUMP JUMPDEST PUSH1 0x0 PUSH1 0x60 DUP3 ADD SWAP1 POP PUSH2 0x28BC PUSH1 0x0 DUP4 ADD DUP7 PUSH2 0x24E9 JUMP JUMPDEST PUSH2 0x28C9 PUSH1 0x20 DUP4 ADD DUP6 PUSH2 0x239C JUMP JUMPDEST PUSH2 0x28D6 PUSH1 0x40 DUP4 ADD DUP5 PUSH2 0x239C JUMP JUMPDEST SWAP5 SWAP4 POP POP POP POP JUMP JUMPDEST PUSH1 0x0 PUSH1 0x40 DUP3 ADD SWAP1 POP PUSH2 0x28F3 PUSH1 0x0 DUP4 ADD DUP6 PUSH2 0x24E9 JUMP JUMPDEST PUSH2 0x2900 PUSH1 0x20 DUP4 ADD DUP5 PUSH2 0x224A JUMP JUMPDEST SWAP4 SWAP3 POP POP POP JUMP JUMPDEST PUSH32 0x4E487B7100000000000000000000000000000000000000000000000000000000 PUSH1 0x0 MSTORE PUSH1 0x11 PUSH1 0x4 MSTORE PUSH1 0x24 PUSH1 0x0 REVERT JUMPDEST PUSH1 0x0 PUSH2 0x2941 DUP3 PUSH2 0x2326 JUMP JUMPDEST SWAP2 POP PUSH2 0x294C DUP4 PUSH2 0x2326 JUMP JUMPDEST SWAP3 POP DUP3 DUP3 ADD SWAP1 POP DUP1 DUP3 GT ISZERO PUSH2 0x2964 JUMPI PUSH2 0x2963 PUSH2 0x2907 JUMP JUMPDEST JUMPDEST SWAP3 SWAP2 POP POP JUMP JUMPDEST PUSH1 0x0 PUSH2 0x2975 DUP3 PUSH2 0x2326 JUMP JUMPDEST SWAP2 POP PUSH2 0x2980 DUP4 PUSH2 0x2326 JUMP JUMPDEST SWAP3 POP DUP3 DUP3 SUB SWAP1 POP DUP2 DUP2 GT ISZERO PUSH2 0x2998 JUMPI PUSH2 0x2997 PUSH2 0x2907 JUMP JUMPDEST JUMPDEST SWAP3 SWAP2 POP POP JUMP JUMPDEST PUSH32 0x4E487B7100000000000000000000000000000000000000000000000000000000 PUSH1 0x0 MSTORE PUSH1 0x32 PUSH1 0x4 MSTORE PUSH1 0x24 PUSH1 0x0 REVERT JUMPDEST PUSH32 0x4E487B7100000000000000000000000000000000000000000000000000000000 PUSH1 0x0 MSTORE PUSH1 0x31 PUSH1 0x4 MSTORE PUSH1 0x24 PUSH1 0x0 REVERT INVALID LOG2 PUSH5 0x6970667358 0x22 SLT KECCAK256 PUSH20 0xB4BD9124BC36B7EDB744E3F9B26F56DDAB47AB8D CALLCODE 0xDC 0xA5 0x1E GAS PUSH14 0x6BB50BD21F64736F6C6343000818 STOP CALLER "},"methodIdentifiers":{"BLACKLIST_MANAGER_ROLE()":"410b2424","BURNER_ROLE()":"282c51f3","DEFAULT_ADMIN_ROLE()":"a217fddf","FREEZER_ROLE()":"06a85f0f","MINTER_ROLE()":"d5391393","RECOVER_ROLE()":"939bcbc9","addBlacklistManager(address)":"0eff2afc","addBurner(address)":"f44637ba","addFreezer(address)":"526606c9","addMinter(address)":"983b2d56","addRecoverer(address)":"c2134b23","addToBlacklist(address)":"44337ea1","allowance(address,address)":"dd62ed3e","approve(address,uint256)":"095ea7b3","balanceOf(address)":"70a08231","burn(address,uint256)":"9dc29fac","decimals()":"313ce567","freezeAccount(address)":"f26c159f","getRoleAdmin(bytes32)":"248a9ca3","grantRole(bytes32,address)":"2f2ff15d","hasRole(bytes32,address)":"91d14854","isBlacklisted(address)":"fe575a87","isFrozen(address)":"e5839836","mint(address,uint256)":"40c10f19","name()":"06fdde03","owner()":"8da5cb5b","recover(address,address,uint256)":"1ec82cb8","removeBlacklistManager(address)":"974b368c","removeBurner(address)":"02846858","removeFreezer(address)":"2acd2000","removeFromBlacklist(address)":"537df3b6","removeMinter(address)":"3092afd5","removeRecoverer(address)":"d1c2de0a","renounceOwnership()":"715018a6","renounceRole(bytes32,address)":"36568abe","revokeRole(bytes32,address)":"d547741f","supportsInterface(bytes4)":"01ffc9a7","symbol()":"95d89b41","totalSupply()":"18160ddd","transfer(address,uint256)":"a9059cbb","transferFrom(address,address,uint256)":"23b872dd","transferOwnership(address)":"f2fde38b","unfreezeAccount(address)":"788649ea"}}}}}