{
	"Permissions2.sol": {
		"ERC20PermissionsControl": {
			"abi": [
				{
					"inputs": [
						{
							"internalType": "string",
							"name": "name",
							"type": "string"
						},
						{
							"internalType": "string",
							"name": "symbol",
							"type": "string"
						},
						{
							"internalType": "uint256",
							"name": "amout",
							"type": "uint256"
						}
					],
					"stateMutability": "nonpayable",
					"type": "constructor"
				},
				{
					"inputs": [],
					"name": "AccessControlBadConfirmation",
					"type": "error"
				},
				{
					"inputs": [
						{
							"internalType": "address",
							"name": "account",
							"type": "address"
						},
						{
							"internalType": "bytes32",
							"name": "neededRole",
							"type": "bytes32"
						}
					],
					"name": "AccessControlUnauthorizedAccount",
					"type": "error"
				},
				{
					"inputs": [
						{
							"internalType": "address",
							"name": "spender",
							"type": "address"
						},
						{
							"internalType": "uint256",
							"name": "allowance",
							"type": "uint256"
						},
						{
							"internalType": "uint256",
							"name": "needed",
							"type": "uint256"
						}
					],
					"name": "ERC20InsufficientAllowance",
					"type": "error"
				},
				{
					"inputs": [
						{
							"internalType": "address",
							"name": "sender",
							"type": "address"
						},
						{
							"internalType": "uint256",
							"name": "balance",
							"type": "uint256"
						},
						{
							"internalType": "uint256",
							"name": "needed",
							"type": "uint256"
						}
					],
					"name": "ERC20InsufficientBalance",
					"type": "error"
				},
				{
					"inputs": [
						{
							"internalType": "address",
							"name": "approver",
							"type": "address"
						}
					],
					"name": "ERC20InvalidApprover",
					"type": "error"
				},
				{
					"inputs": [
						{
							"internalType": "address",
							"name": "receiver",
							"type": "address"
						}
					],
					"name": "ERC20InvalidReceiver",
					"type": "error"
				},
				{
					"inputs": [
						{
							"internalType": "address",
							"name": "sender",
							"type": "address"
						}
					],
					"name": "ERC20InvalidSender",
					"type": "error"
				},
				{
					"inputs": [
						{
							"internalType": "address",
							"name": "spender",
							"type": "address"
						}
					],
					"name": "ERC20InvalidSpender",
					"type": "error"
				},
				{
					"inputs": [
						{
							"internalType": "address",
							"name": "owner",
							"type": "address"
						}
					],
					"name": "OwnableInvalidOwner",
					"type": "error"
				},
				{
					"inputs": [
						{
							"internalType": "address",
							"name": "account",
							"type": "address"
						}
					],
					"name": "OwnableUnauthorizedAccount",
					"type": "error"
				},
				{
					"anonymous": false,
					"inputs": [
						{
							"indexed": true,
							"internalType": "address",
							"name": "owner",
							"type": "address"
						},
						{
							"indexed": true,
							"internalType": "address",
							"name": "spender",
							"type": "address"
						},
						{
							"indexed": false,
							"internalType": "uint256",
							"name": "value",
							"type": "uint256"
						}
					],
					"name": "Approval",
					"type": "event"
				},
				{
					"anonymous": false,
					"inputs": [
						{
							"indexed": true,
							"internalType": "address",
							"name": "previousOwner",
							"type": "address"
						},
						{
							"indexed": true,
							"internalType": "address",
							"name": "newOwner",
							"type": "address"
						}
					],
					"name": "OwnershipTransferred",
					"type": "event"
				},
				{
					"anonymous": false,
					"inputs": [
						{
							"indexed": true,
							"internalType": "bytes32",
							"name": "role",
							"type": "bytes32"
						},
						{
							"indexed": true,
							"internalType": "bytes32",
							"name": "previousAdminRole",
							"type": "bytes32"
						},
						{
							"indexed": true,
							"internalType": "bytes32",
							"name": "newAdminRole",
							"type": "bytes32"
						}
					],
					"name": "RoleAdminChanged",
					"type": "event"
				},
				{
					"anonymous": false,
					"inputs": [
						{
							"indexed": true,
							"internalType": "bytes32",
							"name": "role",
							"type": "bytes32"
						},
						{
							"indexed": true,
							"internalType": "address",
							"name": "account",
							"type": "address"
						},
						{
							"indexed": true,
							"internalType": "address",
							"name": "sender",
							"type": "address"
						}
					],
					"name": "RoleGranted",
					"type": "event"
				},
				{
					"anonymous": false,
					"inputs": [
						{
							"indexed": true,
							"internalType": "bytes32",
							"name": "role",
							"type": "bytes32"
						},
						{
							"indexed": true,
							"internalType": "address",
							"name": "account",
							"type": "address"
						},
						{
							"indexed": true,
							"internalType": "address",
							"name": "sender",
							"type": "address"
						}
					],
					"name": "RoleRevoked",
					"type": "event"
				},
				{
					"anonymous": false,
					"inputs": [
						{
							"indexed": true,
							"internalType": "address",
							"name": "from",
							"type": "address"
						},
						{
							"indexed": true,
							"internalType": "address",
							"name": "to",
							"type": "address"
						},
						{
							"indexed": false,
							"internalType": "uint256",
							"name": "value",
							"type": "uint256"
						}
					],
					"name": "Transfer",
					"type": "event"
				},
				{
					"inputs": [],
					"name": "BLACKLIST_MANAGER_ROLE",
					"outputs": [
						{
							"internalType": "bytes32",
							"name": "",
							"type": "bytes32"
						}
					],
					"stateMutability": "view",
					"type": "function"
				},
				{
					"inputs": [],
					"name": "BURNER_ROLE",
					"outputs": [
						{
							"internalType": "bytes32",
							"name": "",
							"type": "bytes32"
						}
					],
					"stateMutability": "view",
					"type": "function"
				},
				{
					"inputs": [],
					"name": "DEFAULT_ADMIN_ROLE",
					"outputs": [
						{
							"internalType": "bytes32",
							"name": "",
							"type": "bytes32"
						}
					],
					"stateMutability": "view",
					"type": "function"
				},
				{
					"inputs": [],
					"name": "FREEZER_ROLE",
					"outputs": [
						{
							"internalType": "bytes32",
							"name": "",
							"type": "bytes32"
						}
					],
					"stateMutability": "view",
					"type": "function"
				},
				{
					"inputs": [],
					"name": "MINTER_ROLE",
					"outputs": [
						{
							"internalType": "bytes32",
							"name": "",
							"type": "bytes32"
						}
					],
					"stateMutability": "view",
					"type": "function"
				},
				{
					"inputs": [],
					"name": "RECOVER_ROLE",
					"outputs": [
						{
							"internalType": "bytes32",
							"name": "",
							"type": "bytes32"
						}
					],
					"stateMutability": "view",
					"type": "function"
				},
				{
					"inputs": [
						{
							"internalType": "address",
							"name": "account",
							"type": "address"
						}
					],
					"name": "addBlacklistManager",
					"outputs": [],
					"stateMutability": "nonpayable",
					"type": "function"
				},
				{
					"inputs": [
						{
							"internalType": "address",
							"name": "account",
							"type": "address"
						}
					],
					"name": "addBurner",
					"outputs": [],
					"stateMutability": "nonpayable",
					"type": "function"
				},
				{
					"inputs": [
						{
							"internalType": "address",
							"name": "account",
							"type": "address"
						}
					],
					"name": "addFreezer",
					"outputs": [],
					"stateMutability": "nonpayable",
					"type": "function"
				},
				{
					"inputs": [
						{
							"internalType": "address",
							"name": "account",
							"type": "address"
						}
					],
					"name": "addMinter",
					"outputs": [],
					"stateMutability": "nonpayable",
					"type": "function"
				},
				{
					"inputs": [
						{
							"internalType": "address",
							"name": "account",
							"type": "address"
						}
					],
					"name": "addRecoverer",
					"outputs": [],
					"stateMutability": "nonpayable",
					"type": "function"
				},
				{
					"inputs": [
						{
							"internalType": "address",
							"name": "account",
							"type": "address"
						}
					],
					"name": "addToBlacklist",
					"outputs": [],
					"stateMutability": "nonpayable",
					"type": "function"
				},
				{
					"inputs": [
						{
							"internalType": "address",
							"name": "owner",
							"type": "address"
						},
						{
							"internalType": "address",
							"name": "spender",
							"type": "address"
						}
					],
					"name": "allowance",
					"outputs": [
						{
							"internalType": "uint256",
							"name": "",
							"type": "uint256"
						}
					],
					"stateMutability": "view",
					"type": "function"
				},
				{
					"inputs": [
						{
							"internalType": "address",
							"name": "spender",
							"type": "address"
						},
						{
							"internalType": "uint256",
							"name": "value",
							"type": "uint256"
						}
					],
					"name": "approve",
					"outputs": [
						{
							"internalType": "bool",
							"name": "",
							"type": "bool"
						}
					],
					"stateMutability": "nonpayable",
					"type": "function"
				},
				{
					"inputs": [
						{
							"internalType": "address",
							"name": "account",
							"type": "address"
						}
					],
					"name": "balanceOf",
					"outputs": [
						{
							"internalType": "uint256",
							"name": "",
							"type": "uint256"
						}
					],
					"stateMutability": "view",
					"type": "function"
				},
				{
					"inputs": [
						{
							"internalType": "address",
							"name": "from",
							"type": "address"
						},
						{
							"internalType": "uint256",
							"name": "amount",
							"type": "uint256"
						}
					],
					"name": "burn",
					"outputs": [],
					"stateMutability": "nonpayable",
					"type": "function"
				},
				{
					"inputs": [],
					"name": "decimals",
					"outputs": [
						{
							"internalType": "uint8",
							"name": "",
							"type": "uint8"
						}
					],
					"stateMutability": "view",
					"type": "function"
				},
				{
					"inputs": [
						{
							"internalType": "address",
							"name": "account",
							"type": "address"
						}
					],
					"name": "freezeAccount",
					"outputs": [],
					"stateMutability": "nonpayable",
					"type": "function"
				},
				{
					"inputs": [
						{
							"internalType": "bytes32",
							"name": "role",
							"type": "bytes32"
						}
					],
					"name": "getRoleAdmin",
					"outputs": [
						{
							"internalType": "bytes32",
							"name": "",
							"type": "bytes32"
						}
					],
					"stateMutability": "view",
					"type": "function"
				},
				{
					"inputs": [
						{
							"internalType": "bytes32",
							"name": "role",
							"type": "bytes32"
						},
						{
							"internalType": "address",
							"name": "account",
							"type": "address"
						}
					],
					"name": "grantRole",
					"outputs": [],
					"stateMutability": "nonpayable",
					"type": "function"
				},
				{
					"inputs": [
						{
							"internalType": "bytes32",
							"name": "role",
							"type": "bytes32"
						},
						{
							"internalType": "address",
							"name": "account",
							"type": "address"
						}
					],
					"name": "hasRole",
					"outputs": [
						{
							"internalType": "bool",
							"name": "",
							"type": "bool"
						}
					],
					"stateMutability": "view",
					"type": "function"
				},
				{
					"inputs": [
						{
							"internalType": "address",
							"name": "account",
							"type": "address"
						}
					],
					"name": "isBlacklisted",
					"outputs": [
						{
							"internalType": "bool",
							"name": "",
							"type": "bool"
						}
					],
					"stateMutability": "view",
					"type": "function"
				},
				{
					"inputs": [
						{
							"internalType": "address",
							"name": "account",
							"type": "address"
						}
					],
					"name": "isFrozen",
					"outputs": [
						{
							"internalType": "bool",
							"name": "",
							"type": "bool"
						}
					],
					"stateMutability": "view",
					"type": "function"
				},
				{
					"inputs": [
						{
							"internalType": "address",
							"name": "to",
							"type": "address"
						},
						{
							"internalType": "uint256",
							"name": "amount",
							"type": "uint256"
						}
					],
					"name": "mint",
					"outputs": [],
					"stateMutability": "nonpayable",
					"type": "function"
				},
				{
					"inputs": [],
					"name": "name",
					"outputs": [
						{
							"internalType": "string",
							"name": "",
							"type": "string"
						}
					],
					"stateMutability": "view",
					"type": "function"
				},
				{
					"inputs": [],
					"name": "owner",
					"outputs": [
						{
							"internalType": "address",
							"name": "",
							"type": "address"
						}
					],
					"stateMutability": "view",
					"type": "function"
				},
				{
					"inputs": [
						{
							"internalType": "address",
							"name": "from",
							"type": "address"
						},
						{
							"internalType": "address",
							"name": "to",
							"type": "address"
						},
						{
							"internalType": "uint256",
							"name": "amount",
							"type": "uint256"
						}
					],
					"name": "recover",
					"outputs": [],
					"stateMutability": "nonpayable",
					"type": "function"
				},
				{
					"inputs": [
						{
							"internalType": "address",
							"name": "account",
							"type": "address"
						}
					],
					"name": "removeBlacklistManager",
					"outputs": [],
					"stateMutability": "nonpayable",
					"type": "function"
				},
				{
					"inputs": [
						{
							"internalType": "address",
							"name": "account",
							"type": "address"
						}
					],
					"name": "removeBurner",
					"outputs": [],
					"stateMutability": "nonpayable",
					"type": "function"
				},
				{
					"inputs": [
						{
							"internalType": "address",
							"name": "account",
							"type": "address"
						}
					],
					"name": "removeFreezer",
					"outputs": [],
					"stateMutability": "nonpayable",
					"type": "function"
				},
				{
					"inputs": [
						{
							"internalType": "address",
							"name": "account",
							"type": "address"
						}
					],
					"name": "removeFromBlacklist",
					"outputs": [],
					"stateMutability": "nonpayable",
					"type": "function"
				},
				{
					"inputs": [
						{
							"internalType": "address",
							"name": "account",
							"type": "address"
						}
					],
					"name": "removeMinter",
					"outputs": [],
					"stateMutability": "nonpayable",
					"type": "function"
				},
				{
					"inputs": [
						{
							"internalType": "address",
							"name": "account",
							"type": "address"
						}
					],
					"name": "removeRecoverer",
					"outputs": [],
					"stateMutability": "nonpayable",
					"type": "function"
				},
				{
					"inputs": [],
					"name": "renounceOwnership",
					"outputs": [],
					"stateMutability": "nonpayable",
					"type": "function"
				},
				{
					"inputs": [
						{
							"internalType": "bytes32",
							"name": "role",
							"type": "bytes32"
						},
						{
							"internalType": "address",
							"name": "callerConfirmation",
							"type": "address"
						}
					],
					"name": "renounceRole",
					"outputs": [],
					"stateMutability": "nonpayable",
					"type": "function"
				},
				{
					"inputs": [
						{
							"internalType": "bytes32",
							"name": "role",
							"type": "bytes32"
						},
						{
							"internalType": "address",
							"name": "account",
							"type": "address"
						}
					],
					"name": "revokeRole",
					"outputs": [],
					"stateMutability": "nonpayable",
					"type": "function"
				},
				{
					"inputs": [
						{
							"internalType": "bytes4",
							"name": "interfaceId",
							"type": "bytes4"
						}
					],
					"name": "supportsInterface",
					"outputs": [
						{
							"internalType": "bool",
							"name": "",
							"type": "bool"
						}
					],
					"stateMutability": "view",
					"type": "function"
				},
				{
					"inputs": [],
					"name": "symbol",
					"outputs": [
						{
							"internalType": "string",
							"name": "",
							"type": "string"
						}
					],
					"stateMutability": "view",
					"type": "function"
				},
				{
					"inputs": [],
					"name": "totalSupply",
					"outputs": [
						{
							"internalType": "uint256",
							"name": "",
							"type": "uint256"
						}
					],
					"stateMutability": "view",
					"type": "function"
				},
				{
					"inputs": [
						{
							"internalType": "address",
							"name": "to",
							"type": "address"
						},
						{
							"internalType": "uint256",
							"name": "amount",
							"type": "uint256"
						}
					],
					"name": "transfer",
					"outputs": [
						{
							"internalType": "bool",
							"name": "",
							"type": "bool"
						}
					],
					"stateMutability": "nonpayable",
					"type": "function"
				},
				{
					"inputs": [
						{
							"internalType": "address",
							"name": "from",
							"type": "address"
						},
						{
							"internalType": "address",
							"name": "to",
							"type": "address"
						},
						{
							"internalType": "uint256",
							"name": "value",
							"type": "uint256"
						}
					],
					"name": "transferFrom",
					"outputs": [
						{
							"internalType": "bool",
							"name": "",
							"type": "bool"
						}
					],
					"stateMutability": "nonpayable",
					"type": "function"
				},
				{
					"inputs": [
						{
							"internalType": "address",
							"name": "newOwner",
							"type": "address"
						}
					],
					"name": "transferOwnership",
					"outputs": [],
					"stateMutability": "nonpayable",
					"type": "function"
				},
				{
					"inputs": [
						{
							"internalType": "address",
							"name": "account",
							"type": "address"
						}
					],
					"name": "unfreezeAccount",
					"outputs": [],
					"stateMutability": "nonpayable",
					"type": "function"
				}
			],
			"devdoc": {
				"errors": {
					"AccessControlBadConfirmation()": [
						{
							"details": "The caller of a function is not the expected one. NOTE: Don't confuse with {AccessControlUnauthorizedAccount}."
						}
					],
					"AccessControlUnauthorizedAccount(address,bytes32)": [
						{
							"details": "The `account` is missing a role."
						}
					],
					"ERC20InsufficientAllowance(address,uint256,uint256)": [
						{
							"details": "Indicates a failure with the `spender`’s `allowance`. Used in transfers.",
							"params": {
								"allowance": "Amount of tokens a `spender` is allowed to operate with.",
								"needed": "Minimum amount required to perform a transfer.",
								"spender": "Address that may be allowed to operate on tokens without being their owner."
							}
						}
					],
					"ERC20InsufficientBalance(address,uint256,uint256)": [
						{
							"details": "Indicates an error related to the current `balance` of a `sender`. Used in transfers.",
							"params": {
								"balance": "Current balance for the interacting account.",
								"needed": "Minimum amount required to perform a transfer.",
								"sender": "Address whose tokens are being transferred."
							}
						}
					],
					"ERC20InvalidApprover(address)": [
						{
							"details": "Indicates a failure with the `approver` of a token to be approved. Used in approvals.",
							"params": {
								"approver": "Address initiating an approval operation."
							}
						}
					],
					"ERC20InvalidReceiver(address)": [
						{
							"details": "Indicates a failure with the token `receiver`. Used in transfers.",
							"params": {
								"receiver": "Address to which tokens are being transferred."
							}
						}
					],
					"ERC20InvalidSender(address)": [
						{
							"details": "Indicates a failure with the token `sender`. Used in transfers.",
							"params": {
								"sender": "Address whose tokens are being transferred."
							}
						}
					],
					"ERC20InvalidSpender(address)": [
						{
							"details": "Indicates a failure with the `spender` to be approved. Used in approvals.",
							"params": {
								"spender": "Address that may be allowed to operate on tokens without being their owner."
							}
						}
					],
					"OwnableInvalidOwner(address)": [
						{
							"details": "The owner is not a valid owner account. (eg. `address(0)`)"
						}
					],
					"OwnableUnauthorizedAccount(address)": [
						{
							"details": "The caller account is not authorized to perform an operation."
						}
					]
				},
				"events": {
					"Approval(address,address,uint256)": {
						"details": "Emitted when the allowance of a `spender` for an `owner` is set by a call to {approve}. `value` is the new allowance."
					},
					"RoleAdminChanged(bytes32,bytes32,bytes32)": {
						"details": "Emitted when `newAdminRole` is set as ``role``'s admin role, replacing `previousAdminRole` `DEFAULT_ADMIN_ROLE` is the starting admin for all roles, despite {RoleAdminChanged} not being emitted signaling this."
					},
					"RoleGranted(bytes32,address,address)": {
						"details": "Emitted when `account` is granted `role`. `sender` is the account that originated the contract call, an admin role bearer except when using {AccessControl-_setupRole}."
					},
					"RoleRevoked(bytes32,address,address)": {
						"details": "Emitted when `account` is revoked `role`. `sender` is the account that originated the contract call:   - if using `revokeRole`, it is the admin role bearer   - if using `renounceRole`, it is the role bearer (i.e. `account`)"
					},
					"Transfer(address,address,uint256)": {
						"details": "Emitted when `value` tokens are moved from one account (`from`) to another (`to`). Note that `value` may be zero."
					}
				},
				"kind": "dev",
				"methods": {
					"allowance(address,address)": {
						"details": "See {IERC20-allowance}."
					},
					"approve(address,uint256)": {
						"details": "See {IERC20-approve}. NOTE: If `value` is the maximum `uint256`, the allowance is not updated on `transferFrom`. This is semantically equivalent to an infinite approval. Requirements: - `spender` cannot be the zero address."
					},
					"balanceOf(address)": {
						"details": "See {IERC20-balanceOf}."
					},
					"decimals()": {
						"details": "Returns the number of decimals used to get its user representation. For example, if `decimals` equals `2`, a balance of `505` tokens should be displayed to a user as `5.05` (`505 / 10 ** 2`). Tokens usually opt for a value of 18, imitating the relationship between Ether and Wei. This is the default value returned by this function, unless it's overridden. NOTE: This information is only used for _display_ purposes: it in no way affects any of the arithmetic of the contract, including {IERC20-balanceOf} and {IERC20-transfer}."
					},
					"getRoleAdmin(bytes32)": {
						"details": "Returns the admin role that controls `role`. See {grantRole} and {revokeRole}. To change a role's admin, use {_setRoleAdmin}."
					},
					"grantRole(bytes32,address)": {
						"details": "Grants `role` to `account`. If `account` had not been already granted `role`, emits a {RoleGranted} event. Requirements: - the caller must have ``role``'s admin role. May emit a {RoleGranted} event."
					},
					"hasRole(bytes32,address)": {
						"details": "Returns `true` if `account` has been granted `role`."
					},
					"name()": {
						"details": "Returns the name of the token."
					},
					"owner()": {
						"details": "Returns the address of the current owner."
					},
					"renounceOwnership()": {
						"details": "Leaves the contract without owner. It will not be possible to call `onlyOwner` functions. Can only be called by the current owner. NOTE: Renouncing ownership will leave the contract without an owner, thereby disabling any functionality that is only available to the owner."
					},
					"renounceRole(bytes32,address)": {
						"details": "Revokes `role` from the calling account. Roles are often managed via {grantRole} and {revokeRole}: this function's purpose is to provide a mechanism for accounts to lose their privileges if they are compromised (such as when a trusted device is misplaced). If the calling account had been revoked `role`, emits a {RoleRevoked} event. Requirements: - the caller must be `callerConfirmation`. May emit a {RoleRevoked} event."
					},
					"revokeRole(bytes32,address)": {
						"details": "Revokes `role` from `account`. If `account` had been granted `role`, emits a {RoleRevoked} event. Requirements: - the caller must have ``role``'s admin role. May emit a {RoleRevoked} event."
					},
					"supportsInterface(bytes4)": {
						"details": "See {IERC165-supportsInterface}."
					},
					"symbol()": {
						"details": "Returns the symbol of the token, usually a shorter version of the name."
					},
					"totalSupply()": {
						"details": "See {IERC20-totalSupply}."
					},
					"transferFrom(address,address,uint256)": {
						"details": "See {IERC20-transferFrom}. Emits an {Approval} event indicating the updated allowance. This is not required by the EIP. See the note at the beginning of {ERC20}. NOTE: Does not update the allowance if the current allowance is the maximum `uint256`. Requirements: - `from` and `to` cannot be the zero address. - `from` must have a balance of at least `value`. - the caller must have allowance for ``from``'s tokens of at least `value`."
					},
					"transferOwnership(address)": {
						"details": "Transfers ownership of the contract to a new account (`newOwner`). Can only be called by the current owner."
					}
				},
				"version": 1
			},
			"evm": {
				"assembly": "    /* \"Permissions2.sol\":314:6368  contract ERC20PermissionsControl is ERC20, AccessControl, Ownable {... */\n  mstore(0x40, 0x80)\n    /* \"Permissions2.sol\":1131:1532  constructor(string memory name, string memory symbol, uint amout) ... */\n  callvalue\n  dup1\n  iszero\n  tag_1\n  jumpi\n  0x00\n  dup1\n  revert\ntag_1:\n  pop\n  mload(0x40)\n  sub(codesize, bytecodeSize)\n  dup1\n  bytecodeSize\n  dup4\n  codecopy\n  dup2\n  dup2\n  add\n  0x40\n  mstore\n  dup2\n  add\n  swap1\n  tag_2\n  swap2\n  swap1\n  tag_3\n  jump\t// in\ntag_2:\n    /* \"Permissions2.sol\":1245:1255  msg.sender */\n  caller\n    /* \"Permissions2.sol\":1213:1217  name */\n  dup4\n    /* \"Permissions2.sol\":1219:1225  symbol */\n  dup4\n    /* \"@openzeppelin/contracts/token/ERC20/ERC20.sol\":1970:1975  name_ */\n  dup2\n    /* \"@openzeppelin/contracts/token/ERC20/ERC20.sol\":1962:1967  _name */\n  0x03\n    /* \"@openzeppelin/contracts/token/ERC20/ERC20.sol\":1962:1975  _name = name_ */\n  swap1\n  dup2\n  tag_8\n  swap2\n  swap1\n  tag_9\n  jump\t// in\ntag_8:\n  pop\n    /* \"@openzeppelin/contracts/token/ERC20/ERC20.sol\":1995:2002  symbol_ */\n  dup1\n    /* \"@openzeppelin/contracts/token/ERC20/ERC20.sol\":1985:1992  _symbol */\n  0x04\n    /* \"@openzeppelin/contracts/token/ERC20/ERC20.sol\":1985:2002  _symbol = symbol_ */\n  swap1\n  dup2\n  tag_10\n  swap2\n  swap1\n  tag_9\n  jump\t// in\ntag_10:\n  pop\n    /* \"@openzeppelin/contracts/token/ERC20/ERC20.sol\":1896:2009  constructor(string memory name_, string memory symbol_) {... */\n  pop\n  pop\n    /* \"@openzeppelin/contracts/access/Ownable.sol\":1297:1298  0 */\n  0x00\n    /* \"@openzeppelin/contracts/access/Ownable.sol\":1273:1299  initialOwner == address(0) */\n  0xffffffffffffffffffffffffffffffffffffffff\n  and\n    /* \"@openzeppelin/contracts/access/Ownable.sol\":1273:1285  initialOwner */\n  dup2\n    /* \"@openzeppelin/contracts/access/Ownable.sol\":1273:1299  initialOwner == address(0) */\n  0xffffffffffffffffffffffffffffffffffffffff\n  and\n  sub\n    /* \"@openzeppelin/contracts/access/Ownable.sol\":1269:1364  if (initialOwner == address(0)) {... */\n  tag_12\n  jumpi\n    /* \"@openzeppelin/contracts/access/Ownable.sol\":1350:1351  0 */\n  0x00\n    /* \"@openzeppelin/contracts/access/Ownable.sol\":1322:1353  OwnableInvalidOwner(address(0)) */\n  mload(0x40)\n  0x1e4fbdf700000000000000000000000000000000000000000000000000000000\n  dup2\n  mstore\n  0x04\n  add\n  tag_13\n  swap2\n  swap1\n  tag_14\n  jump\t// in\ntag_13:\n  mload(0x40)\n  dup1\n  swap2\n  sub\n  swap1\n  revert\n    /* \"@openzeppelin/contracts/access/Ownable.sol\":1269:1364  if (initialOwner == address(0)) {... */\ntag_12:\n    /* \"@openzeppelin/contracts/access/Ownable.sol\":1373:1405  _transferOwnership(initialOwner) */\n  tag_15\n    /* \"@openzeppelin/contracts/access/Ownable.sol\":1392:1404  initialOwner */\n  dup2\n    /* \"@openzeppelin/contracts/access/Ownable.sol\":1373:1391  _transferOwnership */\n  shl(0x20, tag_16)\n    /* \"@openzeppelin/contracts/access/Ownable.sol\":1373:1405  _transferOwnership(initialOwner) */\n  0x20\n  shr\n  jump\t// in\ntag_15:\n    /* \"@openzeppelin/contracts/access/Ownable.sol\":1225:1412  constructor(address initialOwner) {... */\n  pop\n    /* \"Permissions2.sol\":1273:1315  _grantRole(DEFAULT_ADMIN_ROLE, msg.sender) */\n  tag_18\n    /* \"@openzeppelin/contracts/access/AccessControl.sol\":2232:2236  0x00 */\n  0x00\n    /* \"Permissions2.sol\":1284:1302  DEFAULT_ADMIN_ROLE */\n  dup1\n  shl\n    /* \"Permissions2.sol\":1304:1314  msg.sender */\n  caller\n    /* \"Permissions2.sol\":1273:1283  _grantRole */\n  shl(0x20, tag_19)\n    /* \"Permissions2.sol\":1273:1315  _grantRole(DEFAULT_ADMIN_ROLE, msg.sender) */\n  0x20\n  shr\n  jump\t// in\ntag_18:\n  pop\n    /* \"Permissions2.sol\":1326:1350  _mint(msg.sender, amout) */\n  tag_20\n    /* \"Permissions2.sol\":1332:1342  msg.sender */\n  caller\n    /* \"Permissions2.sol\":1344:1349  amout */\n  dup3\n    /* \"Permissions2.sol\":1326:1331  _mint */\n  shl(0x20, tag_21)\n    /* \"Permissions2.sol\":1326:1350  _mint(msg.sender, amout) */\n  0x20\n  shr\n  jump\t// in\ntag_20:\n    /* \"Permissions2.sol\":1361:1382  addMinter(msg.sender) */\n  tag_22\n    /* \"Permissions2.sol\":1371:1381  msg.sender */\n  caller\n    /* \"Permissions2.sol\":1361:1370  addMinter */\n  shl(0x20, tag_23)\n    /* \"Permissions2.sol\":1361:1382  addMinter(msg.sender) */\n  0x20\n  shr\n  jump\t// in\ntag_22:\n    /* \"Permissions2.sol\":1393:1414  addBurner(msg.sender) */\n  tag_24\n    /* \"Permissions2.sol\":1403:1413  msg.sender */\n  caller\n    /* \"Permissions2.sol\":1393:1402  addBurner */\n  shl(0x20, tag_25)\n    /* \"Permissions2.sol\":1393:1414  addBurner(msg.sender) */\n  0x20\n  shr\n  jump\t// in\ntag_24:\n    /* \"Permissions2.sol\":1425:1447  addFreezer(msg.sender) */\n  tag_26\n    /* \"Permissions2.sol\":1436:1446  msg.sender */\n  caller\n    /* \"Permissions2.sol\":1425:1435  addFreezer */\n  shl(0x20, tag_27)\n    /* \"Permissions2.sol\":1425:1447  addFreezer(msg.sender) */\n  0x20\n  shr\n  jump\t// in\ntag_26:\n    /* \"Permissions2.sol\":1458:1489  addBlacklistManager(msg.sender) */\n  tag_28\n    /* \"Permissions2.sol\":1478:1488  msg.sender */\n  caller\n    /* \"Permissions2.sol\":1458:1477  addBlacklistManager */\n  shl(0x20, tag_29)\n    /* \"Permissions2.sol\":1458:1489  addBlacklistManager(msg.sender) */\n  0x20\n  shr\n  jump\t// in\ntag_28:\n    /* \"Permissions2.sol\":1500:1524  addRecoverer(msg.sender) */\n  tag_30\n    /* \"Permissions2.sol\":1513:1523  msg.sender */\n  caller\n    /* \"Permissions2.sol\":1500:1512  addRecoverer */\n  shl(0x20, tag_31)\n    /* \"Permissions2.sol\":1500:1524  addRecoverer(msg.sender) */\n  0x20\n  shr\n  jump\t// in\ntag_30:\n    /* \"Permissions2.sol\":1131:1532  constructor(string memory name, string memory symbol, uint amout) ... */\n  pop\n  pop\n  pop\n    /* \"Permissions2.sol\":314:6368  contract ERC20PermissionsControl is ERC20, AccessControl, Ownable {... */\n  jump(tag_32)\n    /* \"@openzeppelin/contracts/access/Ownable.sol\":2912:3099  function _transferOwnership(address newOwner) internal virtual {... */\ntag_16:\n    /* \"@openzeppelin/contracts/access/Ownable.sol\":2985:3001  address oldOwner */\n  0x00\n    /* \"@openzeppelin/contracts/access/Ownable.sol\":3004:3010  _owner */\n  0x06\n  0x00\n  swap1\n  sload\n  swap1\n  0x0100\n  exp\n  swap1\n  div\n  0xffffffffffffffffffffffffffffffffffffffff\n  and\n    /* \"@openzeppelin/contracts/access/Ownable.sol\":2985:3010  address oldOwner = _owner */\n  swap1\n  pop\n    /* \"@openzeppelin/contracts/access/Ownable.sol\":3029:3037  newOwner */\n  dup2\n    /* \"@openzeppelin/contracts/access/Ownable.sol\":3020:3026  _owner */\n  0x06\n  0x00\n    /* \"@openzeppelin/contracts/access/Ownable.sol\":3020:3037  _owner = newOwner */\n  0x0100\n  exp\n  dup2\n  sload\n  dup2\n  0xffffffffffffffffffffffffffffffffffffffff\n  mul\n  not\n  and\n  swap1\n  dup4\n  0xffffffffffffffffffffffffffffffffffffffff\n  and\n  mul\n  or\n  swap1\n  sstore\n  pop\n    /* \"@openzeppelin/contracts/access/Ownable.sol\":3083:3091  newOwner */\n  dup2\n    /* \"@openzeppelin/contracts/access/Ownable.sol\":3052:3092  OwnershipTransferred(oldOwner, newOwner) */\n  0xffffffffffffffffffffffffffffffffffffffff\n  and\n    /* \"@openzeppelin/contracts/access/Ownable.sol\":3073:3081  oldOwner */\n  dup2\n    /* \"@openzeppelin/contracts/access/Ownable.sol\":3052:3092  OwnershipTransferred(oldOwner, newOwner) */\n  0xffffffffffffffffffffffffffffffffffffffff\n  and\n  0x8be0079c531659141344cd1fd0a4f28419497f9722a3daafe3b4186f6b6457e0\n  mload(0x40)\n  mload(0x40)\n  dup1\n  swap2\n  sub\n  swap1\n  log3\n    /* \"@openzeppelin/contracts/access/Ownable.sol\":2975:3099  {... */\n  pop\n    /* \"@openzeppelin/contracts/access/Ownable.sol\":2912:3099  function _transferOwnership(address newOwner) internal virtual {... */\n  pop\n  jump\t// out\n    /* \"@openzeppelin/contracts/access/AccessControl.sol\":6179:6495  function _grantRole(bytes32 role, address account) internal virtual returns (bool) {... */\ntag_19:\n    /* \"@openzeppelin/contracts/access/AccessControl.sol\":6256:6260  bool */\n  0x00\n    /* \"@openzeppelin/contracts/access/AccessControl.sol\":6277:6299  hasRole(role, account) */\n  tag_35\n    /* \"@openzeppelin/contracts/access/AccessControl.sol\":6285:6289  role */\n  dup4\n    /* \"@openzeppelin/contracts/access/AccessControl.sol\":6291:6298  account */\n  dup4\n    /* \"@openzeppelin/contracts/access/AccessControl.sol\":6277:6284  hasRole */\n  shl(0x20, tag_36)\n    /* \"@openzeppelin/contracts/access/AccessControl.sol\":6277:6299  hasRole(role, account) */\n  0x20\n  shr\n  jump\t// in\ntag_35:\n    /* \"@openzeppelin/contracts/access/AccessControl.sol\":6272:6489  if (!hasRole(role, account)) {... */\n  tag_37\n  jumpi\n    /* \"@openzeppelin/contracts/access/AccessControl.sol\":6347:6351  true */\n  0x01\n    /* \"@openzeppelin/contracts/access/AccessControl.sol\":6315:6321  _roles */\n  0x05\n    /* \"@openzeppelin/contracts/access/AccessControl.sol\":6315:6327  _roles[role] */\n  0x00\n    /* \"@openzeppelin/contracts/access/AccessControl.sol\":6322:6326  role */\n  dup6\n    /* \"@openzeppelin/contracts/access/AccessControl.sol\":6315:6327  _roles[role] */\n  dup2\n  mstore\n  0x20\n  add\n  swap1\n  dup2\n  mstore\n  0x20\n  add\n  0x00\n  keccak256\n    /* \"@openzeppelin/contracts/access/AccessControl.sol\":6315:6335  _roles[role].hasRole */\n  0x00\n  add\n    /* \"@openzeppelin/contracts/access/AccessControl.sol\":6315:6344  _roles[role].hasRole[account] */\n  0x00\n    /* \"@openzeppelin/contracts/access/AccessControl.sol\":6336:6343  account */\n  dup5\n    /* \"@openzeppelin/contracts/access/AccessControl.sol\":6315:6344  _roles[role].hasRole[account] */\n  0xffffffffffffffffffffffffffffffffffffffff\n  and\n  0xffffffffffffffffffffffffffffffffffffffff\n  and\n  dup2\n  mstore\n  0x20\n  add\n  swap1\n  dup2\n  mstore\n  0x20\n  add\n  0x00\n  keccak256\n  0x00\n    /* \"@openzeppelin/contracts/access/AccessControl.sol\":6315:6351  _roles[role].hasRole[account] = true */\n  0x0100\n  exp\n  dup2\n  sload\n  dup2\n  0xff\n  mul\n  not\n  and\n  swap1\n  dup4\n  iszero\n  iszero\n  mul\n  or\n  swap1\n  sstore\n  pop\n    /* \"@openzeppelin/contracts/access/AccessControl.sol\":6397:6409  _msgSender() */\n  tag_38\n    /* \"@openzeppelin/contracts/access/AccessControl.sol\":6397:6407  _msgSender */\n  shl(0x20, tag_39)\n    /* \"@openzeppelin/contracts/access/AccessControl.sol\":6397:6409  _msgSender() */\n  0x20\n  shr\n  jump\t// in\ntag_38:\n    /* \"@openzeppelin/contracts/access/AccessControl.sol\":6370:6410  RoleGranted(role, account, _msgSender()) */\n  0xffffffffffffffffffffffffffffffffffffffff\n  and\n    /* \"@openzeppelin/contracts/access/AccessControl.sol\":6388:6395  account */\n  dup3\n    /* \"@openzeppelin/contracts/access/AccessControl.sol\":6370:6410  RoleGranted(role, account, _msgSender()) */\n  0xffffffffffffffffffffffffffffffffffffffff\n  and\n    /* \"@openzeppelin/contracts/access/AccessControl.sol\":6382:6386  role */\n  dup5\n    /* \"@openzeppelin/contracts/access/AccessControl.sol\":6370:6410  RoleGranted(role, account, _msgSender()) */\n  0x2f8788117e7eff1d82e926ec794901d17c78024a50270940304540a733656f0d\n  mload(0x40)\n  mload(0x40)\n  dup1\n  swap2\n  sub\n  swap1\n  log4\n    /* \"@openzeppelin/contracts/access/AccessControl.sol\":6431:6435  true */\n  0x01\n    /* \"@openzeppelin/contracts/access/AccessControl.sol\":6424:6435  return true */\n  swap1\n  pop\n  jump(tag_34)\n    /* \"@openzeppelin/contracts/access/AccessControl.sol\":6272:6489  if (!hasRole(role, account)) {... */\ntag_37:\n    /* \"@openzeppelin/contracts/access/AccessControl.sol\":6473:6478  false */\n  0x00\n    /* \"@openzeppelin/contracts/access/AccessControl.sol\":6466:6478  return false */\n  swap1\n  pop\n    /* \"@openzeppelin/contracts/access/AccessControl.sol\":6179:6495  function _grantRole(bytes32 role, address account) internal virtual returns (bool) {... */\ntag_34:\n  swap3\n  swap2\n  pop\n  pop\n  jump\t// out\n    /* \"@openzeppelin/contracts/token/ERC20/ERC20.sol\":7721:7929  function _mint(address account, uint256 value) internal {... */\ntag_21:\n    /* \"@openzeppelin/contracts/token/ERC20/ERC20.sol\":7810:7811  0 */\n  0x00\n    /* \"@openzeppelin/contracts/token/ERC20/ERC20.sol\":7791:7812  account == address(0) */\n  0xffffffffffffffffffffffffffffffffffffffff\n  and\n    /* \"@openzeppelin/contracts/token/ERC20/ERC20.sol\":7791:7798  account */\n  dup3\n    /* \"@openzeppelin/contracts/token/ERC20/ERC20.sol\":7791:7812  account == address(0) */\n  0xffffffffffffffffffffffffffffffffffffffff\n  and\n  sub\n    /* \"@openzeppelin/contracts/token/ERC20/ERC20.sol\":7787:7878  if (account == address(0)) {... */\n  tag_42\n  jumpi\n    /* \"@openzeppelin/contracts/token/ERC20/ERC20.sol\":7864:7865  0 */\n  0x00\n    /* \"@openzeppelin/contracts/token/ERC20/ERC20.sol\":7835:7867  ERC20InvalidReceiver(address(0)) */\n  mload(0x40)\n  0xec442f0500000000000000000000000000000000000000000000000000000000\n  dup2\n  mstore\n  0x04\n  add\n  tag_43\n  swap2\n  swap1\n  tag_14\n  jump\t// in\ntag_43:\n  mload(0x40)\n  dup1\n  swap2\n  sub\n  swap1\n  revert\n    /* \"@openzeppelin/contracts/token/ERC20/ERC20.sol\":7787:7878  if (account == address(0)) {... */\ntag_42:\n    /* \"@openzeppelin/contracts/token/ERC20/ERC20.sol\":7887:7922  _update(address(0), account, value) */\n  tag_44\n    /* \"@openzeppelin/contracts/token/ERC20/ERC20.sol\":7903:7904  0 */\n  0x00\n    /* \"@openzeppelin/contracts/token/ERC20/ERC20.sol\":7907:7914  account */\n  dup4\n    /* \"@openzeppelin/contracts/token/ERC20/ERC20.sol\":7916:7921  value */\n  dup4\n    /* \"@openzeppelin/contracts/token/ERC20/ERC20.sol\":7887:7894  _update */\n  shl(0x20, tag_45)\n    /* \"@openzeppelin/contracts/token/ERC20/ERC20.sol\":7887:7922  _update(address(0), account, value) */\n  0x20\n  shr\n  jump\t// in\ntag_44:\n    /* \"@openzeppelin/contracts/token/ERC20/ERC20.sol\":7721:7929  function _mint(address account, uint256 value) internal {... */\n  pop\n  pop\n  jump\t// out\n    /* \"Permissions2.sol\":4551:4654  function addMinter(address account) public onlyOwner {... */\ntag_23:\n    /* \"@openzeppelin/contracts/access/Ownable.sol\":1531:1544  _checkOwner() */\n  tag_47\n    /* \"@openzeppelin/contracts/access/Ownable.sol\":1531:1542  _checkOwner */\n  shl(0x20, tag_48)\n    /* \"@openzeppelin/contracts/access/Ownable.sol\":1531:1544  _checkOwner() */\n  0x20\n  shr\n  jump\t// in\ntag_47:\n    /* \"Permissions2.sol\":4615:4646  grantRole(MINTER_ROLE, account) */\n  tag_50\n    /* \"Permissions2.sol\":510:534  keccak256(\"MINTER_ROLE\") */\n  0x9f2df0fed2c77648de5860a4cc508cd0818c85b8b8a1ab4ceeef8d981c8956a6\n    /* \"Permissions2.sol\":4638:4645  account */\n  dup3\n    /* \"Permissions2.sol\":4615:4624  grantRole */\n  shl(0x20, tag_51)\n    /* \"Permissions2.sol\":4615:4646  grantRole(MINTER_ROLE, account) */\n  0x20\n  shr\n  jump\t// in\ntag_50:\n    /* \"Permissions2.sol\":4551:4654  function addMinter(address account) public onlyOwner {... */\n  pop\n  jump\t// out\n    /* \"Permissions2.sol\":4913:5016  function addBurner(address account) public onlyOwner {... */\ntag_25:\n    /* \"@openzeppelin/contracts/access/Ownable.sol\":1531:1544  _checkOwner() */\n  tag_53\n    /* \"@openzeppelin/contracts/access/Ownable.sol\":1531:1542  _checkOwner */\n  shl(0x20, tag_48)\n    /* \"@openzeppelin/contracts/access/Ownable.sol\":1531:1544  _checkOwner() */\n  0x20\n  shr\n  jump\t// in\ntag_53:\n    /* \"Permissions2.sol\":4977:5008  grantRole(BURNER_ROLE, account) */\n  tag_55\n    /* \"Permissions2.sol\":579:603  keccak256(\"BURNER_ROLE\") */\n  0x3c11d16cbaffd01df69ce1c404f6340ee057498f5f00246190ea54220576a848\n    /* \"Permissions2.sol\":5000:5007  account */\n  dup3\n    /* \"Permissions2.sol\":4977:4986  grantRole */\n  shl(0x20, tag_51)\n    /* \"Permissions2.sol\":4977:5008  grantRole(BURNER_ROLE, account) */\n  0x20\n  shr\n  jump\t// in\ntag_55:\n    /* \"Permissions2.sol\":4913:5016  function addBurner(address account) public onlyOwner {... */\n  pop\n  jump\t// out\n    /* \"Permissions2.sol\":5276:5381  function addFreezer(address account) public onlyOwner {... */\ntag_27:\n    /* \"@openzeppelin/contracts/access/Ownable.sol\":1531:1544  _checkOwner() */\n  tag_57\n    /* \"@openzeppelin/contracts/access/Ownable.sol\":1531:1542  _checkOwner */\n  shl(0x20, tag_48)\n    /* \"@openzeppelin/contracts/access/Ownable.sol\":1531:1544  _checkOwner() */\n  0x20\n  shr\n  jump\t// in\ntag_57:\n    /* \"Permissions2.sol\":5341:5373  grantRole(FREEZER_ROLE, account) */\n  tag_59\n    /* \"Permissions2.sol\":649:674  keccak256(\"FREEZER_ROLE\") */\n  0x92de27771f92d6942691d73358b3a4673e4880de8356f8f2cf452be87e02d363\n    /* \"Permissions2.sol\":5365:5372  account */\n  dup3\n    /* \"Permissions2.sol\":5341:5350  grantRole */\n  shl(0x20, tag_51)\n    /* \"Permissions2.sol\":5341:5373  grantRole(FREEZER_ROLE, account) */\n  0x20\n  shr\n  jump\t// in\ntag_59:\n    /* \"Permissions2.sol\":5276:5381  function addFreezer(address account) public onlyOwner {... */\n  pop\n  jump\t// out\n    /* \"Permissions2.sol\":5654:5778  function addBlacklistManager(address account) public onlyOwner {... */\ntag_29:\n    /* \"@openzeppelin/contracts/access/Ownable.sol\":1531:1544  _checkOwner() */\n  tag_61\n    /* \"@openzeppelin/contracts/access/Ownable.sol\":1531:1542  _checkOwner */\n  shl(0x20, tag_48)\n    /* \"@openzeppelin/contracts/access/Ownable.sol\":1531:1544  _checkOwner() */\n  0x20\n  shr\n  jump\t// in\ntag_61:\n    /* \"Permissions2.sol\":5728:5770  grantRole(BLACKLIST_MANAGER_ROLE, account) */\n  tag_63\n    /* \"Permissions2.sol\":730:765  keccak256(\"BLACKLIST_MANAGER_ROLE\") */\n  0xf988e4fb62b8e14f4820fed03192306ddf4d7dbfa215595ba1c6ba4b76b369ee\n    /* \"Permissions2.sol\":5762:5769  account */\n  dup3\n    /* \"Permissions2.sol\":5728:5737  grantRole */\n  shl(0x20, tag_51)\n    /* \"Permissions2.sol\":5728:5770  grantRole(BLACKLIST_MANAGER_ROLE, account) */\n  0x20\n  shr\n  jump\t// in\ntag_63:\n    /* \"Permissions2.sol\":5654:5778  function addBlacklistManager(address account) public onlyOwner {... */\n  pop\n  jump\t// out\n    /* \"Permissions2.sol\":6070:6177  function addRecoverer(address account) public onlyOwner {... */\ntag_31:\n    /* \"@openzeppelin/contracts/access/Ownable.sol\":1531:1544  _checkOwner() */\n  tag_65\n    /* \"@openzeppelin/contracts/access/Ownable.sol\":1531:1542  _checkOwner */\n  shl(0x20, tag_48)\n    /* \"@openzeppelin/contracts/access/Ownable.sol\":1531:1544  _checkOwner() */\n  0x20\n  shr\n  jump\t// in\ntag_65:\n    /* \"Permissions2.sol\":6137:6169  grantRole(RECOVER_ROLE, account) */\n  tag_67\n    /* \"Permissions2.sol\":811:836  keccak256(\"RECOVER_ROLE\") */\n  0x62b337eaefec74dadf1a62e856bf9db4f14a0f27d4f48156a95a9f98e7d5e066\n    /* \"Permissions2.sol\":6161:6168  account */\n  dup3\n    /* \"Permissions2.sol\":6137:6146  grantRole */\n  shl(0x20, tag_51)\n    /* \"Permissions2.sol\":6137:6169  grantRole(RECOVER_ROLE, account) */\n  0x20\n  shr\n  jump\t// in\ntag_67:\n    /* \"Permissions2.sol\":6070:6177  function addRecoverer(address account) public onlyOwner {... */\n  pop\n  jump\t// out\n    /* \"@openzeppelin/contracts/access/AccessControl.sol\":2854:2990  function hasRole(bytes32 role, address account) public view virtual returns (bool) {... */\ntag_36:\n    /* \"@openzeppelin/contracts/access/AccessControl.sol\":2931:2935  bool */\n  0x00\n    /* \"@openzeppelin/contracts/access/AccessControl.sol\":2954:2960  _roles */\n  0x05\n    /* \"@openzeppelin/contracts/access/AccessControl.sol\":2954:2966  _roles[role] */\n  0x00\n    /* \"@openzeppelin/contracts/access/AccessControl.sol\":2961:2965  role */\n  dup5\n    /* \"@openzeppelin/contracts/access/AccessControl.sol\":2954:2966  _roles[role] */\n  dup2\n  mstore\n  0x20\n  add\n  swap1\n  dup2\n  mstore\n  0x20\n  add\n  0x00\n  keccak256\n    /* \"@openzeppelin/contracts/access/AccessControl.sol\":2954:2974  _roles[role].hasRole */\n  0x00\n  add\n    /* \"@openzeppelin/contracts/access/AccessControl.sol\":2954:2983  _roles[role].hasRole[account] */\n  0x00\n    /* \"@openzeppelin/contracts/access/AccessControl.sol\":2975:2982  account */\n  dup4\n    /* \"@openzeppelin/contracts/access/AccessControl.sol\":2954:2983  _roles[role].hasRole[account] */\n  0xffffffffffffffffffffffffffffffffffffffff\n  and\n  0xffffffffffffffffffffffffffffffffffffffff\n  and\n  dup2\n  mstore\n  0x20\n  add\n  swap1\n  dup2\n  mstore\n  0x20\n  add\n  0x00\n  keccak256\n  0x00\n  swap1\n  sload\n  swap1\n  0x0100\n  exp\n  swap1\n  div\n  0xff\n  and\n    /* \"@openzeppelin/contracts/access/AccessControl.sol\":2947:2983  return _roles[role].hasRole[account] */\n  swap1\n  pop\n    /* \"@openzeppelin/contracts/access/AccessControl.sol\":2854:2990  function hasRole(bytes32 role, address account) public view virtual returns (bool) {... */\n  swap3\n  swap2\n  pop\n  pop\n  jump\t// out\n    /* \"@openzeppelin/contracts/utils/Context.sol\":656:752  function _msgSender() internal view virtual returns (address) {... */\ntag_39:\n    /* \"@openzeppelin/contracts/utils/Context.sol\":709:716  address */\n  0x00\n    /* \"@openzeppelin/contracts/utils/Context.sol\":735:745  msg.sender */\n  caller\n    /* \"@openzeppelin/contracts/utils/Context.sol\":728:745  return msg.sender */\n  swap1\n  pop\n    /* \"@openzeppelin/contracts/utils/Context.sol\":656:752  function _msgSender() internal view virtual returns (address) {... */\n  swap1\n  jump\t// out\n    /* \"@openzeppelin/contracts/token/ERC20/ERC20.sol\":6271:7378  function _update(address from, address to, uint256 value) internal virtual {... */\ntag_45:\n    /* \"@openzeppelin/contracts/token/ERC20/ERC20.sol\":6376:6377  0 */\n  0x00\n    /* \"@openzeppelin/contracts/token/ERC20/ERC20.sol\":6360:6378  from == address(0) */\n  0xffffffffffffffffffffffffffffffffffffffff\n  and\n    /* \"@openzeppelin/contracts/token/ERC20/ERC20.sol\":6360:6364  from */\n  dup4\n    /* \"@openzeppelin/contracts/token/ERC20/ERC20.sol\":6360:6378  from == address(0) */\n  0xffffffffffffffffffffffffffffffffffffffff\n  and\n  sub\n    /* \"@openzeppelin/contracts/token/ERC20/ERC20.sol\":6356:6896  if (from == address(0)) {... */\n  tag_71\n  jumpi\n    /* \"@openzeppelin/contracts/token/ERC20/ERC20.sol\":6512:6517  value */\n  dup1\n    /* \"@openzeppelin/contracts/token/ERC20/ERC20.sol\":6496:6508  _totalSupply */\n  0x02\n  0x00\n    /* \"@openzeppelin/contracts/token/ERC20/ERC20.sol\":6496:6517  _totalSupply += value */\n  dup3\n  dup3\n  sload\n  tag_72\n  swap2\n  swap1\n  tag_73\n  jump\t// in\ntag_72:\n  swap3\n  pop\n  pop\n  dup2\n  swap1\n  sstore\n  pop\n    /* \"@openzeppelin/contracts/token/ERC20/ERC20.sol\":6356:6896  if (from == address(0)) {... */\n  jump(tag_74)\ntag_71:\n    /* \"@openzeppelin/contracts/token/ERC20/ERC20.sol\":6548:6567  uint256 fromBalance */\n  0x00\n    /* \"@openzeppelin/contracts/token/ERC20/ERC20.sol\":6570:6579  _balances */\n  dup1\n    /* \"@openzeppelin/contracts/token/ERC20/ERC20.sol\":6570:6585  _balances[from] */\n  0x00\n    /* \"@openzeppelin/contracts/token/ERC20/ERC20.sol\":6580:6584  from */\n  dup6\n    /* \"@openzeppelin/contracts/token/ERC20/ERC20.sol\":6570:6585  _balances[from] */\n  0xffffffffffffffffffffffffffffffffffffffff\n  and\n  0xffffffffffffffffffffffffffffffffffffffff\n  and\n  dup2\n  mstore\n  0x20\n  add\n  swap1\n  dup2\n  mstore\n  0x20\n  add\n  0x00\n  keccak256\n  sload\n    /* \"@openzeppelin/contracts/token/ERC20/ERC20.sol\":6548:6585  uint256 fromBalance = _balances[from] */\n  swap1\n  pop\n    /* \"@openzeppelin/contracts/token/ERC20/ERC20.sol\":6617:6622  value */\n  dup2\n    /* \"@openzeppelin/contracts/token/ERC20/ERC20.sol\":6603:6614  fromBalance */\n  dup2\n    /* \"@openzeppelin/contracts/token/ERC20/ERC20.sol\":6603:6622  fromBalance < value */\n  lt\n    /* \"@openzeppelin/contracts/token/ERC20/ERC20.sol\":6599:6714  if (fromBalance < value) {... */\n  iszero\n  tag_75\n  jumpi\n    /* \"@openzeppelin/contracts/token/ERC20/ERC20.sol\":6674:6678  from */\n  dup4\n    /* \"@openzeppelin/contracts/token/ERC20/ERC20.sol\":6680:6691  fromBalance */\n  dup2\n    /* \"@openzeppelin/contracts/token/ERC20/ERC20.sol\":6693:6698  value */\n  dup4\n    /* \"@openzeppelin/contracts/token/ERC20/ERC20.sol\":6649:6699  ERC20InsufficientBalance(from, fromBalance, value) */\n  mload(0x40)\n  0xe450d38c00000000000000000000000000000000000000000000000000000000\n  dup2\n  mstore\n  0x04\n  add\n  tag_76\n  swap4\n  swap3\n  swap2\n  swap1\n  tag_77\n  jump\t// in\ntag_76:\n  mload(0x40)\n  dup1\n  swap2\n  sub\n  swap1\n  revert\n    /* \"@openzeppelin/contracts/token/ERC20/ERC20.sol\":6599:6714  if (fromBalance < value) {... */\ntag_75:\n    /* \"@openzeppelin/contracts/token/ERC20/ERC20.sol\":6866:6871  value */\n  dup2\n    /* \"@openzeppelin/contracts/token/ERC20/ERC20.sol\":6852:6863  fromBalance */\n  dup2\n    /* \"@openzeppelin/contracts/token/ERC20/ERC20.sol\":6852:6871  fromBalance - value */\n  sub\n    /* \"@openzeppelin/contracts/token/ERC20/ERC20.sol\":6834:6843  _balances */\n  0x00\n    /* \"@openzeppelin/contracts/token/ERC20/ERC20.sol\":6834:6849  _balances[from] */\n  dup1\n    /* \"@openzeppelin/contracts/token/ERC20/ERC20.sol\":6844:6848  from */\n  dup7\n    /* \"@openzeppelin/contracts/token/ERC20/ERC20.sol\":6834:6849  _balances[from] */\n  0xffffffffffffffffffffffffffffffffffffffff\n  and\n  0xffffffffffffffffffffffffffffffffffffffff\n  and\n  dup2\n  mstore\n  0x20\n  add\n  swap1\n  dup2\n  mstore\n  0x20\n  add\n  0x00\n  keccak256\n    /* \"@openzeppelin/contracts/token/ERC20/ERC20.sol\":6834:6871  _balances[from] = fromBalance - value */\n  dup2\n  swap1\n  sstore\n  pop\n    /* \"@openzeppelin/contracts/token/ERC20/ERC20.sol\":6534:6896  {... */\n  pop\n    /* \"@openzeppelin/contracts/token/ERC20/ERC20.sol\":6356:6896  if (from == address(0)) {... */\ntag_74:\n    /* \"@openzeppelin/contracts/token/ERC20/ERC20.sol\":6924:6925  0 */\n  0x00\n    /* \"@openzeppelin/contracts/token/ERC20/ERC20.sol\":6910:6926  to == address(0) */\n  0xffffffffffffffffffffffffffffffffffffffff\n  and\n    /* \"@openzeppelin/contracts/token/ERC20/ERC20.sol\":6910:6912  to */\n  dup3\n    /* \"@openzeppelin/contracts/token/ERC20/ERC20.sol\":6910:6926  to == address(0) */\n  0xffffffffffffffffffffffffffffffffffffffff\n  and\n  sub\n    /* \"@openzeppelin/contracts/token/ERC20/ERC20.sol\":6906:7331  if (to == address(0)) {... */\n  tag_78\n  jumpi\n    /* \"@openzeppelin/contracts/token/ERC20/ERC20.sol\":7089:7094  value */\n  dup1\n    /* \"@openzeppelin/contracts/token/ERC20/ERC20.sol\":7073:7085  _totalSupply */\n  0x02\n  0x00\n    /* \"@openzeppelin/contracts/token/ERC20/ERC20.sol\":7073:7094  _totalSupply -= value */\n  dup3\n  dup3\n  sload\n  sub\n  swap3\n  pop\n  pop\n  dup2\n  swap1\n  sstore\n  pop\n    /* \"@openzeppelin/contracts/token/ERC20/ERC20.sol\":6906:7331  if (to == address(0)) {... */\n  jump(tag_79)\ntag_78:\n    /* \"@openzeppelin/contracts/token/ERC20/ERC20.sol\":7301:7306  value */\n  dup1\n    /* \"@openzeppelin/contracts/token/ERC20/ERC20.sol\":7284:7293  _balances */\n  0x00\n    /* \"@openzeppelin/contracts/token/ERC20/ERC20.sol\":7284:7297  _balances[to] */\n  dup1\n    /* \"@openzeppelin/contracts/token/ERC20/ERC20.sol\":7294:7296  to */\n  dup5\n    /* \"@openzeppelin/contracts/token/ERC20/ERC20.sol\":7284:7297  _balances[to] */\n  0xffffffffffffffffffffffffffffffffffffffff\n  and\n  0xffffffffffffffffffffffffffffffffffffffff\n  and\n  dup2\n  mstore\n  0x20\n  add\n  swap1\n  dup2\n  mstore\n  0x20\n  add\n  0x00\n  keccak256\n  0x00\n    /* \"@openzeppelin/contracts/token/ERC20/ERC20.sol\":7284:7306  _balances[to] += value */\n  dup3\n  dup3\n  sload\n  add\n  swap3\n  pop\n  pop\n  dup2\n  swap1\n  sstore\n  pop\n    /* \"@openzeppelin/contracts/token/ERC20/ERC20.sol\":6906:7331  if (to == address(0)) {... */\ntag_79:\n    /* \"@openzeppelin/contracts/token/ERC20/ERC20.sol\":7361:7363  to */\n  dup2\n    /* \"@openzeppelin/contracts/token/ERC20/ERC20.sol\":7346:7371  Transfer(from, to, value) */\n  0xffffffffffffffffffffffffffffffffffffffff\n  and\n    /* \"@openzeppelin/contracts/token/ERC20/ERC20.sol\":7355:7359  from */\n  dup4\n    /* \"@openzeppelin/contracts/token/ERC20/ERC20.sol\":7346:7371  Transfer(from, to, value) */\n  0xffffffffffffffffffffffffffffffffffffffff\n  and\n  0xddf252ad1be2c89b69c2b068fc378daa952ba7f163c4a11628f55a4df523b3ef\n    /* \"@openzeppelin/contracts/token/ERC20/ERC20.sol\":7365:7370  value */\n  dup4\n    /* \"@openzeppelin/contracts/token/ERC20/ERC20.sol\":7346:7371  Transfer(from, to, value) */\n  mload(0x40)\n  tag_80\n  swap2\n  swap1\n  tag_81\n  jump\t// in\ntag_80:\n  mload(0x40)\n  dup1\n  swap2\n  sub\n  swap1\n  log3\n    /* \"@openzeppelin/contracts/token/ERC20/ERC20.sol\":6271:7378  function _update(address from, address to, uint256 value) internal virtual {... */\n  pop\n  pop\n  pop\n  jump\t// out\n    /* \"@openzeppelin/contracts/access/Ownable.sol\":1796:1958  function _checkOwner() internal view virtual {... */\ntag_48:\n    /* \"@openzeppelin/contracts/access/Ownable.sol\":1866:1878  _msgSender() */\n  tag_83\n    /* \"@openzeppelin/contracts/access/Ownable.sol\":1866:1876  _msgSender */\n  shl(0x20, tag_39)\n    /* \"@openzeppelin/contracts/access/Ownable.sol\":1866:1878  _msgSender() */\n  0x20\n  shr\n  jump\t// in\ntag_83:\n    /* \"@openzeppelin/contracts/access/Ownable.sol\":1855:1878  owner() != _msgSender() */\n  0xffffffffffffffffffffffffffffffffffffffff\n  and\n    /* \"@openzeppelin/contracts/access/Ownable.sol\":1855:1862  owner() */\n  tag_84\n    /* \"@openzeppelin/contracts/access/Ownable.sol\":1855:1860  owner */\n  shl(0x20, tag_85)\n    /* \"@openzeppelin/contracts/access/Ownable.sol\":1855:1862  owner() */\n  0x20\n  shr\n  jump\t// in\ntag_84:\n    /* \"@openzeppelin/contracts/access/Ownable.sol\":1855:1878  owner() != _msgSender() */\n  0xffffffffffffffffffffffffffffffffffffffff\n  and\n  eq\n    /* \"@openzeppelin/contracts/access/Ownable.sol\":1851:1952  if (owner() != _msgSender()) {... */\n  tag_86\n  jumpi\n    /* \"@openzeppelin/contracts/access/Ownable.sol\":1928:1940  _msgSender() */\n  tag_87\n    /* \"@openzeppelin/contracts/access/Ownable.sol\":1928:1938  _msgSender */\n  shl(0x20, tag_39)\n    /* \"@openzeppelin/contracts/access/Ownable.sol\":1928:1940  _msgSender() */\n  0x20\n  shr\n  jump\t// in\ntag_87:\n    /* \"@openzeppelin/contracts/access/Ownable.sol\":1901:1941  OwnableUnauthorizedAccount(_msgSender()) */\n  mload(0x40)\n  0x118cdaa700000000000000000000000000000000000000000000000000000000\n  dup2\n  mstore\n  0x04\n  add\n  tag_88\n  swap2\n  swap1\n  tag_14\n  jump\t// in\ntag_88:\n  mload(0x40)\n  dup1\n  swap2\n  sub\n  swap1\n  revert\n    /* \"@openzeppelin/contracts/access/Ownable.sol\":1851:1952  if (owner() != _msgSender()) {... */\ntag_86:\n    /* \"@openzeppelin/contracts/access/Ownable.sol\":1796:1958  function _checkOwner() internal view virtual {... */\n  jump\t// out\n    /* \"@openzeppelin/contracts/access/AccessControl.sol\":4226:4362  function grantRole(bytes32 role, address account) public virtual onlyRole(getRoleAdmin(role)) {... */\ntag_51:\n    /* \"@openzeppelin/contracts/access/AccessControl.sol\":4300:4318  getRoleAdmin(role) */\n  tag_89\n    /* \"@openzeppelin/contracts/access/AccessControl.sol\":4313:4317  role */\n  dup3\n    /* \"@openzeppelin/contracts/access/AccessControl.sol\":4300:4312  getRoleAdmin */\n  shl(0x20, tag_90)\n    /* \"@openzeppelin/contracts/access/AccessControl.sol\":4300:4318  getRoleAdmin(role) */\n  0x20\n  shr\n  jump\t// in\ntag_89:\n    /* \"@openzeppelin/contracts/access/AccessControl.sol\":2464:2480  _checkRole(role) */\n  tag_92\n    /* \"@openzeppelin/contracts/access/AccessControl.sol\":2475:2479  role */\n  dup2\n    /* \"@openzeppelin/contracts/access/AccessControl.sol\":2464:2474  _checkRole */\n  shl(0x20, tag_93)\n    /* \"@openzeppelin/contracts/access/AccessControl.sol\":2464:2480  _checkRole(role) */\n  0x20\n  shr\n  jump\t// in\ntag_92:\n    /* \"@openzeppelin/contracts/access/AccessControl.sol\":4330:4355  _grantRole(role, account) */\n  tag_95\n    /* \"@openzeppelin/contracts/access/AccessControl.sol\":4341:4345  role */\n  dup4\n    /* \"@openzeppelin/contracts/access/AccessControl.sol\":4347:4354  account */\n  dup4\n    /* \"@openzeppelin/contracts/access/AccessControl.sol\":4330:4340  _grantRole */\n  shl(0x20, tag_19)\n    /* \"@openzeppelin/contracts/access/AccessControl.sol\":4330:4355  _grantRole(role, account) */\n  0x20\n  shr\n  jump\t// in\ntag_95:\n  pop\n    /* \"@openzeppelin/contracts/access/AccessControl.sol\":4226:4362  function grantRole(bytes32 role, address account) public virtual onlyRole(getRoleAdmin(role)) {... */\n  pop\n  pop\n  pop\n  jump\t// out\n    /* \"@openzeppelin/contracts/access/Ownable.sol\":1638:1723  function owner() public view virtual returns (address) {... */\ntag_85:\n    /* \"@openzeppelin/contracts/access/Ownable.sol\":1684:1691  address */\n  0x00\n    /* \"@openzeppelin/contracts/access/Ownable.sol\":1710:1716  _owner */\n  0x06\n  0x00\n  swap1\n  sload\n  swap1\n  0x0100\n  exp\n  swap1\n  div\n  0xffffffffffffffffffffffffffffffffffffffff\n  and\n    /* \"@openzeppelin/contracts/access/Ownable.sol\":1703:1716  return _owner */\n  swap1\n  pop\n    /* \"@openzeppelin/contracts/access/Ownable.sol\":1638:1723  function owner() public view virtual returns (address) {... */\n  swap1\n  jump\t// out\n    /* \"@openzeppelin/contracts/access/AccessControl.sol\":3810:3930  function getRoleAdmin(bytes32 role) public view virtual returns (bytes32) {... */\ntag_90:\n    /* \"@openzeppelin/contracts/access/AccessControl.sol\":3875:3882  bytes32 */\n  0x00\n    /* \"@openzeppelin/contracts/access/AccessControl.sol\":3901:3907  _roles */\n  0x05\n    /* \"@openzeppelin/contracts/access/AccessControl.sol\":3901:3913  _roles[role] */\n  0x00\n    /* \"@openzeppelin/contracts/access/AccessControl.sol\":3908:3912  role */\n  dup4\n    /* \"@openzeppelin/contracts/access/AccessControl.sol\":3901:3913  _roles[role] */\n  dup2\n  mstore\n  0x20\n  add\n  swap1\n  dup2\n  mstore\n  0x20\n  add\n  0x00\n  keccak256\n    /* \"@openzeppelin/contracts/access/AccessControl.sol\":3901:3923  _roles[role].adminRole */\n  0x01\n  add\n  sload\n    /* \"@openzeppelin/contracts/access/AccessControl.sol\":3894:3923  return _roles[role].adminRole */\n  swap1\n  pop\n    /* \"@openzeppelin/contracts/access/AccessControl.sol\":3810:3930  function getRoleAdmin(bytes32 role) public view virtual returns (bytes32) {... */\n  swap2\n  swap1\n  pop\n  jump\t// out\n    /* \"@openzeppelin/contracts/access/AccessControl.sol\":3199:3302  function _checkRole(bytes32 role) internal view virtual {... */\ntag_93:\n    /* \"@openzeppelin/contracts/access/AccessControl.sol\":3265:3295  _checkRole(role, _msgSender()) */\n  tag_99\n    /* \"@openzeppelin/contracts/access/AccessControl.sol\":3276:3280  role */\n  dup2\n    /* \"@openzeppelin/contracts/access/AccessControl.sol\":3282:3294  _msgSender() */\n  tag_100\n    /* \"@openzeppelin/contracts/access/AccessControl.sol\":3282:3292  _msgSender */\n  shl(0x20, tag_39)\n    /* \"@openzeppelin/contracts/access/AccessControl.sol\":3282:3294  _msgSender() */\n  0x20\n  shr\n  jump\t// in\ntag_100:\n    /* \"@openzeppelin/contracts/access/AccessControl.sol\":3265:3275  _checkRole */\n  shl(0x20, tag_101)\n    /* \"@openzeppelin/contracts/access/AccessControl.sol\":3265:3295  _checkRole(role, _msgSender()) */\n  0x20\n  shr\n  jump\t// in\ntag_99:\n    /* \"@openzeppelin/contracts/access/AccessControl.sol\":3199:3302  function _checkRole(bytes32 role) internal view virtual {... */\n  pop\n  jump\t// out\n    /* \"@openzeppelin/contracts/access/AccessControl.sol\":3432:3629  function _checkRole(bytes32 role, address account) internal view virtual {... */\ntag_101:\n    /* \"@openzeppelin/contracts/access/AccessControl.sol\":3520:3542  hasRole(role, account) */\n  tag_103\n    /* \"@openzeppelin/contracts/access/AccessControl.sol\":3528:3532  role */\n  dup3\n    /* \"@openzeppelin/contracts/access/AccessControl.sol\":3534:3541  account */\n  dup3\n    /* \"@openzeppelin/contracts/access/AccessControl.sol\":3520:3527  hasRole */\n  shl(0x20, tag_36)\n    /* \"@openzeppelin/contracts/access/AccessControl.sol\":3520:3542  hasRole(role, account) */\n  0x20\n  shr\n  jump\t// in\ntag_103:\n    /* \"@openzeppelin/contracts/access/AccessControl.sol\":3515:3623  if (!hasRole(role, account)) {... */\n  tag_104\n  jumpi\n    /* \"@openzeppelin/contracts/access/AccessControl.sol\":3598:3605  account */\n  dup1\n    /* \"@openzeppelin/contracts/access/AccessControl.sol\":3607:3611  role */\n  dup3\n    /* \"@openzeppelin/contracts/access/AccessControl.sol\":3565:3612  AccessControlUnauthorizedAccount(account, role) */\n  mload(0x40)\n  0xe2517d3f00000000000000000000000000000000000000000000000000000000\n  dup2\n  mstore\n  0x04\n  add\n  tag_105\n  swap3\n  swap2\n  swap1\n  tag_106\n  jump\t// in\ntag_105:\n  mload(0x40)\n  dup1\n  swap2\n  sub\n  swap1\n  revert\n    /* \"@openzeppelin/contracts/access/AccessControl.sol\":3515:3623  if (!hasRole(role, account)) {... */\ntag_104:\n    /* \"@openzeppelin/contracts/access/AccessControl.sol\":3432:3629  function _checkRole(bytes32 role, address account) internal view virtual {... */\n  pop\n  pop\n  jump\t// out\n    /* \"#utility.yul\":7:82   */\ntag_107:\n    /* \"#utility.yul\":40:46   */\n  0x00\n    /* \"#utility.yul\":73:75   */\n  0x40\n    /* \"#utility.yul\":67:76   */\n  mload\n    /* \"#utility.yul\":57:76   */\n  swap1\n  pop\n    /* \"#utility.yul\":7:82   */\n  swap1\n  jump\t// out\n    /* \"#utility.yul\":88:205   */\ntag_108:\n    /* \"#utility.yul\":197:198   */\n  0x00\n    /* \"#utility.yul\":194:195   */\n  dup1\n    /* \"#utility.yul\":187:199   */\n  revert\n    /* \"#utility.yul\":211:328   */\ntag_109:\n    /* \"#utility.yul\":320:321   */\n  0x00\n    /* \"#utility.yul\":317:318   */\n  dup1\n    /* \"#utility.yul\":310:322   */\n  revert\n    /* \"#utility.yul\":334:451   */\ntag_110:\n    /* \"#utility.yul\":443:444   */\n  0x00\n    /* \"#utility.yul\":440:441   */\n  dup1\n    /* \"#utility.yul\":433:445   */\n  revert\n    /* \"#utility.yul\":457:574   */\ntag_111:\n    /* \"#utility.yul\":566:567   */\n  0x00\n    /* \"#utility.yul\":563:564   */\n  dup1\n    /* \"#utility.yul\":556:568   */\n  revert\n    /* \"#utility.yul\":580:682   */\ntag_112:\n    /* \"#utility.yul\":621:627   */\n  0x00\n    /* \"#utility.yul\":672:674   */\n  0x1f\n    /* \"#utility.yul\":668:675   */\n  not\n    /* \"#utility.yul\":663:665   */\n  0x1f\n    /* \"#utility.yul\":656:661   */\n  dup4\n    /* \"#utility.yul\":652:666   */\n  add\n    /* \"#utility.yul\":648:676   */\n  and\n    /* \"#utility.yul\":638:676   */\n  swap1\n  pop\n    /* \"#utility.yul\":580:682   */\n  swap2\n  swap1\n  pop\n  jump\t// out\n    /* \"#utility.yul\":688:868   */\ntag_113:\n    /* \"#utility.yul\":736:813   */\n  0x4e487b7100000000000000000000000000000000000000000000000000000000\n    /* \"#utility.yul\":733:734   */\n  0x00\n    /* \"#utility.yul\":726:814   */\n  mstore\n    /* \"#utility.yul\":833:837   */\n  0x41\n    /* \"#utility.yul\":830:831   */\n  0x04\n    /* \"#utility.yul\":823:838   */\n  mstore\n    /* \"#utility.yul\":857:861   */\n  0x24\n    /* \"#utility.yul\":854:855   */\n  0x00\n    /* \"#utility.yul\":847:862   */\n  revert\n    /* \"#utility.yul\":874:1155   */\ntag_114:\n    /* \"#utility.yul\":957:984   */\n  tag_157\n    /* \"#utility.yul\":979:983   */\n  dup3\n    /* \"#utility.yul\":957:984   */\n  tag_112\n  jump\t// in\ntag_157:\n    /* \"#utility.yul\":949:955   */\n  dup2\n    /* \"#utility.yul\":945:985   */\n  add\n    /* \"#utility.yul\":1087:1093   */\n  dup2\n    /* \"#utility.yul\":1075:1085   */\n  dup2\n    /* \"#utility.yul\":1072:1094   */\n  lt\n    /* \"#utility.yul\":1051:1069   */\n  0xffffffffffffffff\n    /* \"#utility.yul\":1039:1049   */\n  dup3\n    /* \"#utility.yul\":1036:1070   */\n  gt\n    /* \"#utility.yul\":1033:1095   */\n  or\n    /* \"#utility.yul\":1030:1118   */\n  iszero\n  tag_158\n  jumpi\n    /* \"#utility.yul\":1098:1116   */\n  tag_159\n  tag_113\n  jump\t// in\ntag_159:\n    /* \"#utility.yul\":1030:1118   */\ntag_158:\n    /* \"#utility.yul\":1138:1148   */\n  dup1\n    /* \"#utility.yul\":1134:1136   */\n  0x40\n    /* \"#utility.yul\":1127:1149   */\n  mstore\n    /* \"#utility.yul\":917:1155   */\n  pop\n    /* \"#utility.yul\":874:1155   */\n  pop\n  pop\n  jump\t// out\n    /* \"#utility.yul\":1161:1290   */\ntag_115:\n    /* \"#utility.yul\":1195:1201   */\n  0x00\n    /* \"#utility.yul\":1222:1242   */\n  tag_161\n  tag_107\n  jump\t// in\ntag_161:\n    /* \"#utility.yul\":1212:1242   */\n  swap1\n  pop\n    /* \"#utility.yul\":1251:1284   */\n  tag_162\n    /* \"#utility.yul\":1279:1283   */\n  dup3\n    /* \"#utility.yul\":1271:1277   */\n  dup3\n    /* \"#utility.yul\":1251:1284   */\n  tag_114\n  jump\t// in\ntag_162:\n    /* \"#utility.yul\":1161:1290   */\n  swap2\n  swap1\n  pop\n  jump\t// out\n    /* \"#utility.yul\":1296:1604   */\ntag_116:\n    /* \"#utility.yul\":1358:1362   */\n  0x00\n    /* \"#utility.yul\":1448:1466   */\n  0xffffffffffffffff\n    /* \"#utility.yul\":1440:1446   */\n  dup3\n    /* \"#utility.yul\":1437:1467   */\n  gt\n    /* \"#utility.yul\":1434:1490   */\n  iszero\n  tag_164\n  jumpi\n    /* \"#utility.yul\":1470:1488   */\n  tag_165\n  tag_113\n  jump\t// in\ntag_165:\n    /* \"#utility.yul\":1434:1490   */\ntag_164:\n    /* \"#utility.yul\":1508:1537   */\n  tag_166\n    /* \"#utility.yul\":1530:1536   */\n  dup3\n    /* \"#utility.yul\":1508:1537   */\n  tag_112\n  jump\t// in\ntag_166:\n    /* \"#utility.yul\":1500:1537   */\n  swap1\n  pop\n    /* \"#utility.yul\":1592:1596   */\n  0x20\n    /* \"#utility.yul\":1586:1590   */\n  dup2\n    /* \"#utility.yul\":1582:1597   */\n  add\n    /* \"#utility.yul\":1574:1597   */\n  swap1\n  pop\n    /* \"#utility.yul\":1296:1604   */\n  swap2\n  swap1\n  pop\n  jump\t// out\n    /* \"#utility.yul\":1610:1749   */\ntag_117:\n    /* \"#utility.yul\":1699:1705   */\n  dup3\n    /* \"#utility.yul\":1694:1697   */\n  dup2\n    /* \"#utility.yul\":1689:1692   */\n  dup4\n    /* \"#utility.yul\":1683:1706   */\n  mcopy\n    /* \"#utility.yul\":1740:1741   */\n  0x00\n    /* \"#utility.yul\":1731:1737   */\n  dup4\n    /* \"#utility.yul\":1726:1729   */\n  dup4\n    /* \"#utility.yul\":1722:1738   */\n  add\n    /* \"#utility.yul\":1715:1742   */\n  mstore\n    /* \"#utility.yul\":1610:1749   */\n  pop\n  pop\n  pop\n  jump\t// out\n    /* \"#utility.yul\":1755:2189   */\ntag_118:\n    /* \"#utility.yul\":1844:1849   */\n  0x00\n    /* \"#utility.yul\":1869:1935   */\n  tag_169\n    /* \"#utility.yul\":1885:1934   */\n  tag_170\n    /* \"#utility.yul\":1927:1933   */\n  dup5\n    /* \"#utility.yul\":1885:1934   */\n  tag_116\n  jump\t// in\ntag_170:\n    /* \"#utility.yul\":1869:1935   */\n  tag_115\n  jump\t// in\ntag_169:\n    /* \"#utility.yul\":1860:1935   */\n  swap1\n  pop\n    /* \"#utility.yul\":1958:1964   */\n  dup3\n    /* \"#utility.yul\":1951:1956   */\n  dup2\n    /* \"#utility.yul\":1944:1965   */\n  mstore\n    /* \"#utility.yul\":1996:2000   */\n  0x20\n    /* \"#utility.yul\":1989:1994   */\n  dup2\n    /* \"#utility.yul\":1985:2001   */\n  add\n    /* \"#utility.yul\":2034:2037   */\n  dup5\n    /* \"#utility.yul\":2025:2031   */\n  dup5\n    /* \"#utility.yul\":2020:2023   */\n  dup5\n    /* \"#utility.yul\":2016:2032   */\n  add\n    /* \"#utility.yul\":2013:2038   */\n  gt\n    /* \"#utility.yul\":2010:2122   */\n  iszero\n  tag_171\n  jumpi\n    /* \"#utility.yul\":2041:2120   */\n  tag_172\n  tag_111\n  jump\t// in\ntag_172:\n    /* \"#utility.yul\":2010:2122   */\ntag_171:\n    /* \"#utility.yul\":2131:2183   */\n  tag_173\n    /* \"#utility.yul\":2176:2182   */\n  dup5\n    /* \"#utility.yul\":2171:2174   */\n  dup3\n    /* \"#utility.yul\":2166:2169   */\n  dup6\n    /* \"#utility.yul\":2131:2183   */\n  tag_117\n  jump\t// in\ntag_173:\n    /* \"#utility.yul\":1850:2189   */\n  pop\n    /* \"#utility.yul\":1755:2189   */\n  swap4\n  swap3\n  pop\n  pop\n  pop\n  jump\t// out\n    /* \"#utility.yul\":2209:2564   */\ntag_119:\n    /* \"#utility.yul\":2276:2281   */\n  0x00\n    /* \"#utility.yul\":2325:2328   */\n  dup3\n    /* \"#utility.yul\":2318:2322   */\n  0x1f\n    /* \"#utility.yul\":2310:2316   */\n  dup4\n    /* \"#utility.yul\":2306:2323   */\n  add\n    /* \"#utility.yul\":2302:2329   */\n  slt\n    /* \"#utility.yul\":2292:2414   */\n  tag_175\n  jumpi\n    /* \"#utility.yul\":2333:2412   */\n  tag_176\n  tag_110\n  jump\t// in\ntag_176:\n    /* \"#utility.yul\":2292:2414   */\ntag_175:\n    /* \"#utility.yul\":2443:2449   */\n  dup2\n    /* \"#utility.yul\":2437:2450   */\n  mload\n    /* \"#utility.yul\":2468:2558   */\n  tag_177\n    /* \"#utility.yul\":2554:2557   */\n  dup5\n    /* \"#utility.yul\":2546:2552   */\n  dup3\n    /* \"#utility.yul\":2539:2543   */\n  0x20\n    /* \"#utility.yul\":2531:2537   */\n  dup7\n    /* \"#utility.yul\":2527:2544   */\n  add\n    /* \"#utility.yul\":2468:2558   */\n  tag_118\n  jump\t// in\ntag_177:\n    /* \"#utility.yul\":2459:2558   */\n  swap2\n  pop\n    /* \"#utility.yul\":2282:2564   */\n  pop\n    /* \"#utility.yul\":2209:2564   */\n  swap3\n  swap2\n  pop\n  pop\n  jump\t// out\n    /* \"#utility.yul\":2570:2647   */\ntag_120:\n    /* \"#utility.yul\":2607:2614   */\n  0x00\n    /* \"#utility.yul\":2636:2641   */\n  dup2\n    /* \"#utility.yul\":2625:2641   */\n  swap1\n  pop\n    /* \"#utility.yul\":2570:2647   */\n  swap2\n  swap1\n  pop\n  jump\t// out\n    /* \"#utility.yul\":2653:2775   */\ntag_121:\n    /* \"#utility.yul\":2726:2750   */\n  tag_180\n    /* \"#utility.yul\":2744:2749   */\n  dup2\n    /* \"#utility.yul\":2726:2750   */\n  tag_120\n  jump\t// in\ntag_180:\n    /* \"#utility.yul\":2719:2724   */\n  dup2\n    /* \"#utility.yul\":2716:2751   */\n  eq\n    /* \"#utility.yul\":2706:2769   */\n  tag_181\n  jumpi\n    /* \"#utility.yul\":2765:2766   */\n  0x00\n    /* \"#utility.yul\":2762:2763   */\n  dup1\n    /* \"#utility.yul\":2755:2767   */\n  revert\n    /* \"#utility.yul\":2706:2769   */\ntag_181:\n    /* \"#utility.yul\":2653:2775   */\n  pop\n  jump\t// out\n    /* \"#utility.yul\":2781:2924   */\ntag_122:\n    /* \"#utility.yul\":2838:2843   */\n  0x00\n    /* \"#utility.yul\":2869:2875   */\n  dup2\n    /* \"#utility.yul\":2863:2876   */\n  mload\n    /* \"#utility.yul\":2854:2876   */\n  swap1\n  pop\n    /* \"#utility.yul\":2885:2918   */\n  tag_183\n    /* \"#utility.yul\":2912:2917   */\n  dup2\n    /* \"#utility.yul\":2885:2918   */\n  tag_121\n  jump\t// in\ntag_183:\n    /* \"#utility.yul\":2781:2924   */\n  swap3\n  swap2\n  pop\n  pop\n  jump\t// out\n    /* \"#utility.yul\":2930:3939   */\ntag_3:\n    /* \"#utility.yul\":3038:3044   */\n  0x00\n    /* \"#utility.yul\":3046:3052   */\n  dup1\n    /* \"#utility.yul\":3054:3060   */\n  0x00\n    /* \"#utility.yul\":3103:3105   */\n  0x60\n    /* \"#utility.yul\":3091:3100   */\n  dup5\n    /* \"#utility.yul\":3082:3089   */\n  dup7\n    /* \"#utility.yul\":3078:3101   */\n  sub\n    /* \"#utility.yul\":3074:3106   */\n  slt\n    /* \"#utility.yul\":3071:3190   */\n  iszero\n  tag_185\n  jumpi\n    /* \"#utility.yul\":3109:3188   */\n  tag_186\n  tag_108\n  jump\t// in\ntag_186:\n    /* \"#utility.yul\":3071:3190   */\ntag_185:\n    /* \"#utility.yul\":3250:3251   */\n  0x00\n    /* \"#utility.yul\":3239:3248   */\n  dup5\n    /* \"#utility.yul\":3235:3252   */\n  add\n    /* \"#utility.yul\":3229:3253   */\n  mload\n    /* \"#utility.yul\":3280:3298   */\n  0xffffffffffffffff\n    /* \"#utility.yul\":3272:3278   */\n  dup2\n    /* \"#utility.yul\":3269:3299   */\n  gt\n    /* \"#utility.yul\":3266:3383   */\n  iszero\n  tag_187\n  jumpi\n    /* \"#utility.yul\":3302:3381   */\n  tag_188\n  tag_109\n  jump\t// in\ntag_188:\n    /* \"#utility.yul\":3266:3383   */\ntag_187:\n    /* \"#utility.yul\":3407:3481   */\n  tag_189\n    /* \"#utility.yul\":3473:3480   */\n  dup7\n    /* \"#utility.yul\":3464:3470   */\n  dup3\n    /* \"#utility.yul\":3453:3462   */\n  dup8\n    /* \"#utility.yul\":3449:3471   */\n  add\n    /* \"#utility.yul\":3407:3481   */\n  tag_119\n  jump\t// in\ntag_189:\n    /* \"#utility.yul\":3397:3481   */\n  swap4\n  pop\n    /* \"#utility.yul\":3200:3491   */\n  pop\n    /* \"#utility.yul\":3551:3553   */\n  0x20\n    /* \"#utility.yul\":3540:3549   */\n  dup5\n    /* \"#utility.yul\":3536:3554   */\n  add\n    /* \"#utility.yul\":3530:3555   */\n  mload\n    /* \"#utility.yul\":3582:3600   */\n  0xffffffffffffffff\n    /* \"#utility.yul\":3574:3580   */\n  dup2\n    /* \"#utility.yul\":3571:3601   */\n  gt\n    /* \"#utility.yul\":3568:3685   */\n  iszero\n  tag_190\n  jumpi\n    /* \"#utility.yul\":3604:3683   */\n  tag_191\n  tag_109\n  jump\t// in\ntag_191:\n    /* \"#utility.yul\":3568:3685   */\ntag_190:\n    /* \"#utility.yul\":3709:3783   */\n  tag_192\n    /* \"#utility.yul\":3775:3782   */\n  dup7\n    /* \"#utility.yul\":3766:3772   */\n  dup3\n    /* \"#utility.yul\":3755:3764   */\n  dup8\n    /* \"#utility.yul\":3751:3773   */\n  add\n    /* \"#utility.yul\":3709:3783   */\n  tag_119\n  jump\t// in\ntag_192:\n    /* \"#utility.yul\":3699:3783   */\n  swap3\n  pop\n    /* \"#utility.yul\":3501:3793   */\n  pop\n    /* \"#utility.yul\":3832:3834   */\n  0x40\n    /* \"#utility.yul\":3858:3922   */\n  tag_193\n    /* \"#utility.yul\":3914:3921   */\n  dup7\n    /* \"#utility.yul\":3905:3911   */\n  dup3\n    /* \"#utility.yul\":3894:3903   */\n  dup8\n    /* \"#utility.yul\":3890:3912   */\n  add\n    /* \"#utility.yul\":3858:3922   */\n  tag_122\n  jump\t// in\ntag_193:\n    /* \"#utility.yul\":3848:3922   */\n  swap2\n  pop\n    /* \"#utility.yul\":3803:3932   */\n  pop\n    /* \"#utility.yul\":2930:3939   */\n  swap3\n  pop\n  swap3\n  pop\n  swap3\n  jump\t// out\n    /* \"#utility.yul\":3945:4044   */\ntag_123:\n    /* \"#utility.yul\":3997:4003   */\n  0x00\n    /* \"#utility.yul\":4031:4036   */\n  dup2\n    /* \"#utility.yul\":4025:4037   */\n  mload\n    /* \"#utility.yul\":4015:4037   */\n  swap1\n  pop\n    /* \"#utility.yul\":3945:4044   */\n  swap2\n  swap1\n  pop\n  jump\t// out\n    /* \"#utility.yul\":4050:4230   */\ntag_124:\n    /* \"#utility.yul\":4098:4175   */\n  0x4e487b7100000000000000000000000000000000000000000000000000000000\n    /* \"#utility.yul\":4095:4096   */\n  0x00\n    /* \"#utility.yul\":4088:4176   */\n  mstore\n    /* \"#utility.yul\":4195:4199   */\n  0x22\n    /* \"#utility.yul\":4192:4193   */\n  0x04\n    /* \"#utility.yul\":4185:4200   */\n  mstore\n    /* \"#utility.yul\":4219:4223   */\n  0x24\n    /* \"#utility.yul\":4216:4217   */\n  0x00\n    /* \"#utility.yul\":4209:4224   */\n  revert\n    /* \"#utility.yul\":4236:4556   */\ntag_125:\n    /* \"#utility.yul\":4280:4286   */\n  0x00\n    /* \"#utility.yul\":4317:4318   */\n  0x02\n    /* \"#utility.yul\":4311:4315   */\n  dup3\n    /* \"#utility.yul\":4307:4319   */\n  div\n    /* \"#utility.yul\":4297:4319   */\n  swap1\n  pop\n    /* \"#utility.yul\":4364:4365   */\n  0x01\n    /* \"#utility.yul\":4358:4362   */\n  dup3\n    /* \"#utility.yul\":4354:4366   */\n  and\n    /* \"#utility.yul\":4385:4403   */\n  dup1\n    /* \"#utility.yul\":4375:4456   */\n  tag_197\n  jumpi\n    /* \"#utility.yul\":4441:4445   */\n  0x7f\n    /* \"#utility.yul\":4433:4439   */\n  dup3\n    /* \"#utility.yul\":4429:4446   */\n  and\n    /* \"#utility.yul\":4419:4446   */\n  swap2\n  pop\n    /* \"#utility.yul\":4375:4456   */\ntag_197:\n    /* \"#utility.yul\":4503:4505   */\n  0x20\n    /* \"#utility.yul\":4495:4501   */\n  dup3\n    /* \"#utility.yul\":4492:4506   */\n  lt\n    /* \"#utility.yul\":4472:4490   */\n  dup2\n    /* \"#utility.yul\":4469:4507   */\n  sub\n    /* \"#utility.yul\":4466:4550   */\n  tag_198\n  jumpi\n    /* \"#utility.yul\":4522:4540   */\n  tag_199\n  tag_124\n  jump\t// in\ntag_199:\n    /* \"#utility.yul\":4466:4550   */\ntag_198:\n    /* \"#utility.yul\":4287:4556   */\n  pop\n    /* \"#utility.yul\":4236:4556   */\n  swap2\n  swap1\n  pop\n  jump\t// out\n    /* \"#utility.yul\":4562:4703   */\ntag_126:\n    /* \"#utility.yul\":4611:4615   */\n  0x00\n    /* \"#utility.yul\":4634:4637   */\n  dup2\n    /* \"#utility.yul\":4626:4637   */\n  swap1\n  pop\n    /* \"#utility.yul\":4657:4660   */\n  dup2\n    /* \"#utility.yul\":4654:4655   */\n  0x00\n    /* \"#utility.yul\":4647:4661   */\n  mstore\n    /* \"#utility.yul\":4691:4695   */\n  0x20\n    /* \"#utility.yul\":4688:4689   */\n  0x00\n    /* \"#utility.yul\":4678:4696   */\n  keccak256\n    /* \"#utility.yul\":4670:4696   */\n  swap1\n  pop\n    /* \"#utility.yul\":4562:4703   */\n  swap2\n  swap1\n  pop\n  jump\t// out\n    /* \"#utility.yul\":4709:4802   */\ntag_127:\n    /* \"#utility.yul\":4746:4752   */\n  0x00\n    /* \"#utility.yul\":4793:4795   */\n  0x20\n    /* \"#utility.yul\":4788:4790   */\n  0x1f\n    /* \"#utility.yul\":4781:4786   */\n  dup4\n    /* \"#utility.yul\":4777:4791   */\n  add\n    /* \"#utility.yul\":4773:4796   */\n  div\n    /* \"#utility.yul\":4763:4796   */\n  swap1\n  pop\n    /* \"#utility.yul\":4709:4802   */\n  swap2\n  swap1\n  pop\n  jump\t// out\n    /* \"#utility.yul\":4808:4915   */\ntag_128:\n    /* \"#utility.yul\":4852:4860   */\n  0x00\n    /* \"#utility.yul\":4902:4907   */\n  dup3\n    /* \"#utility.yul\":4896:4900   */\n  dup3\n    /* \"#utility.yul\":4892:4908   */\n  shl\n    /* \"#utility.yul\":4871:4908   */\n  swap1\n  pop\n    /* \"#utility.yul\":4808:4915   */\n  swap3\n  swap2\n  pop\n  pop\n  jump\t// out\n    /* \"#utility.yul\":4921:5314   */\ntag_129:\n    /* \"#utility.yul\":4990:4996   */\n  0x00\n    /* \"#utility.yul\":5040:5041   */\n  0x08\n    /* \"#utility.yul\":5028:5038   */\n  dup4\n    /* \"#utility.yul\":5024:5042   */\n  mul\n    /* \"#utility.yul\":5063:5160   */\n  tag_204\n    /* \"#utility.yul\":5093:5159   */\n  0xffffffffffffffffffffffffffffffffffffffffffffffffffffffffffffffff\n    /* \"#utility.yul\":5082:5091   */\n  dup3\n    /* \"#utility.yul\":5063:5160   */\n  tag_128\n  jump\t// in\ntag_204:\n    /* \"#utility.yul\":5181:5220   */\n  tag_205\n    /* \"#utility.yul\":5211:5219   */\n  dup7\n    /* \"#utility.yul\":5200:5209   */\n  dup4\n    /* \"#utility.yul\":5181:5220   */\n  tag_128\n  jump\t// in\ntag_205:\n    /* \"#utility.yul\":5169:5220   */\n  swap6\n  pop\n    /* \"#utility.yul\":5253:5257   */\n  dup1\n    /* \"#utility.yul\":5249:5258   */\n  not\n    /* \"#utility.yul\":5242:5247   */\n  dup5\n    /* \"#utility.yul\":5238:5259   */\n  and\n    /* \"#utility.yul\":5229:5259   */\n  swap4\n  pop\n    /* \"#utility.yul\":5302:5306   */\n  dup1\n    /* \"#utility.yul\":5292:5300   */\n  dup7\n    /* \"#utility.yul\":5288:5307   */\n  and\n    /* \"#utility.yul\":5281:5286   */\n  dup5\n    /* \"#utility.yul\":5278:5308   */\n  or\n    /* \"#utility.yul\":5268:5308   */\n  swap3\n  pop\n    /* \"#utility.yul\":4997:5314   */\n  pop\n  pop\n    /* \"#utility.yul\":4921:5314   */\n  swap4\n  swap3\n  pop\n  pop\n  pop\n  jump\t// out\n    /* \"#utility.yul\":5320:5380   */\ntag_130:\n    /* \"#utility.yul\":5348:5351   */\n  0x00\n    /* \"#utility.yul\":5369:5374   */\n  dup2\n    /* \"#utility.yul\":5362:5374   */\n  swap1\n  pop\n    /* \"#utility.yul\":5320:5380   */\n  swap2\n  swap1\n  pop\n  jump\t// out\n    /* \"#utility.yul\":5386:5528   */\ntag_131:\n    /* \"#utility.yul\":5436:5445   */\n  0x00\n    /* \"#utility.yul\":5469:5522   */\n  tag_208\n    /* \"#utility.yul\":5487:5521   */\n  tag_209\n    /* \"#utility.yul\":5496:5520   */\n  tag_210\n    /* \"#utility.yul\":5514:5519   */\n  dup5\n    /* \"#utility.yul\":5496:5520   */\n  tag_120\n  jump\t// in\ntag_210:\n    /* \"#utility.yul\":5487:5521   */\n  tag_130\n  jump\t// in\ntag_209:\n    /* \"#utility.yul\":5469:5522   */\n  tag_120\n  jump\t// in\ntag_208:\n    /* \"#utility.yul\":5456:5522   */\n  swap1\n  pop\n    /* \"#utility.yul\":5386:5528   */\n  swap2\n  swap1\n  pop\n  jump\t// out\n    /* \"#utility.yul\":5534:5609   */\ntag_132:\n    /* \"#utility.yul\":5577:5580   */\n  0x00\n    /* \"#utility.yul\":5598:5603   */\n  dup2\n    /* \"#utility.yul\":5591:5603   */\n  swap1\n  pop\n    /* \"#utility.yul\":5534:5609   */\n  swap2\n  swap1\n  pop\n  jump\t// out\n    /* \"#utility.yul\":5615:5884   */\ntag_133:\n    /* \"#utility.yul\":5725:5764   */\n  tag_213\n    /* \"#utility.yul\":5756:5763   */\n  dup4\n    /* \"#utility.yul\":5725:5764   */\n  tag_131\n  jump\t// in\ntag_213:\n    /* \"#utility.yul\":5786:5877   */\n  tag_214\n    /* \"#utility.yul\":5835:5876   */\n  tag_215\n    /* \"#utility.yul\":5859:5875   */\n  dup3\n    /* \"#utility.yul\":5835:5876   */\n  tag_132\n  jump\t// in\ntag_215:\n    /* \"#utility.yul\":5827:5833   */\n  dup5\n    /* \"#utility.yul\":5820:5824   */\n  dup5\n    /* \"#utility.yul\":5814:5825   */\n  sload\n    /* \"#utility.yul\":5786:5877   */\n  tag_129\n  jump\t// in\ntag_214:\n    /* \"#utility.yul\":5780:5784   */\n  dup3\n    /* \"#utility.yul\":5773:5878   */\n  sstore\n    /* \"#utility.yul\":5691:5884   */\n  pop\n    /* \"#utility.yul\":5615:5884   */\n  pop\n  pop\n  pop\n  jump\t// out\n    /* \"#utility.yul\":5890:5963   */\ntag_134:\n    /* \"#utility.yul\":5935:5938   */\n  0x00\n    /* \"#utility.yul\":5890:5963   */\n  swap1\n  jump\t// out\n    /* \"#utility.yul\":5969:6158   */\ntag_135:\n    /* \"#utility.yul\":6046:6078   */\n  tag_218\n  tag_134\n  jump\t// in\ntag_218:\n    /* \"#utility.yul\":6087:6152   */\n  tag_219\n    /* \"#utility.yul\":6145:6151   */\n  dup2\n    /* \"#utility.yul\":6137:6143   */\n  dup5\n    /* \"#utility.yul\":6131:6135   */\n  dup5\n    /* \"#utility.yul\":6087:6152   */\n  tag_133\n  jump\t// in\ntag_219:\n    /* \"#utility.yul\":6022:6158   */\n  pop\n    /* \"#utility.yul\":5969:6158   */\n  pop\n  pop\n  jump\t// out\n    /* \"#utility.yul\":6164:6350   */\ntag_136:\n    /* \"#utility.yul\":6224:6344   */\ntag_221:\n    /* \"#utility.yul\":6241:6244   */\n  dup2\n    /* \"#utility.yul\":6234:6239   */\n  dup2\n    /* \"#utility.yul\":6231:6245   */\n  lt\n    /* \"#utility.yul\":6224:6344   */\n  iszero\n  tag_223\n  jumpi\n    /* \"#utility.yul\":6295:6334   */\n  tag_224\n    /* \"#utility.yul\":6332:6333   */\n  0x00\n    /* \"#utility.yul\":6325:6330   */\n  dup3\n    /* \"#utility.yul\":6295:6334   */\n  tag_135\n  jump\t// in\ntag_224:\n    /* \"#utility.yul\":6268:6269   */\n  0x01\n    /* \"#utility.yul\":6261:6266   */\n  dup2\n    /* \"#utility.yul\":6257:6270   */\n  add\n    /* \"#utility.yul\":6248:6270   */\n  swap1\n  pop\n    /* \"#utility.yul\":6224:6344   */\n  jump(tag_221)\ntag_223:\n    /* \"#utility.yul\":6164:6350   */\n  pop\n  pop\n  jump\t// out\n    /* \"#utility.yul\":6356:6899   */\ntag_137:\n    /* \"#utility.yul\":6457:6459   */\n  0x1f\n    /* \"#utility.yul\":6452:6455   */\n  dup3\n    /* \"#utility.yul\":6449:6460   */\n  gt\n    /* \"#utility.yul\":6446:6892   */\n  iszero\n  tag_226\n  jumpi\n    /* \"#utility.yul\":6491:6529   */\n  tag_227\n    /* \"#utility.yul\":6523:6528   */\n  dup2\n    /* \"#utility.yul\":6491:6529   */\n  tag_126\n  jump\t// in\ntag_227:\n    /* \"#utility.yul\":6575:6604   */\n  tag_228\n    /* \"#utility.yul\":6593:6603   */\n  dup5\n    /* \"#utility.yul\":6575:6604   */\n  tag_127\n  jump\t// in\ntag_228:\n    /* \"#utility.yul\":6565:6573   */\n  dup2\n    /* \"#utility.yul\":6561:6605   */\n  add\n    /* \"#utility.yul\":6758:6760   */\n  0x20\n    /* \"#utility.yul\":6746:6756   */\n  dup6\n    /* \"#utility.yul\":6743:6761   */\n  lt\n    /* \"#utility.yul\":6740:6789   */\n  iszero\n  tag_229\n  jumpi\n    /* \"#utility.yul\":6779:6787   */\n  dup2\n    /* \"#utility.yul\":6764:6787   */\n  swap1\n  pop\n    /* \"#utility.yul\":6740:6789   */\ntag_229:\n    /* \"#utility.yul\":6802:6882   */\n  tag_230\n    /* \"#utility.yul\":6858:6880   */\n  tag_231\n    /* \"#utility.yul\":6876:6879   */\n  dup6\n    /* \"#utility.yul\":6858:6880   */\n  tag_127\n  jump\t// in\ntag_231:\n    /* \"#utility.yul\":6848:6856   */\n  dup4\n    /* \"#utility.yul\":6844:6881   */\n  add\n    /* \"#utility.yul\":6831:6842   */\n  dup3\n    /* \"#utility.yul\":6802:6882   */\n  tag_136\n  jump\t// in\ntag_230:\n    /* \"#utility.yul\":6461:6892   */\n  pop\n  pop\n    /* \"#utility.yul\":6446:6892   */\ntag_226:\n    /* \"#utility.yul\":6356:6899   */\n  pop\n  pop\n  pop\n  jump\t// out\n    /* \"#utility.yul\":6905:7022   */\ntag_138:\n    /* \"#utility.yul\":6959:6967   */\n  0x00\n    /* \"#utility.yul\":7009:7014   */\n  dup3\n    /* \"#utility.yul\":7003:7007   */\n  dup3\n    /* \"#utility.yul\":6999:7015   */\n  shr\n    /* \"#utility.yul\":6978:7015   */\n  swap1\n  pop\n    /* \"#utility.yul\":6905:7022   */\n  swap3\n  swap2\n  pop\n  pop\n  jump\t// out\n    /* \"#utility.yul\":7028:7197   */\ntag_139:\n    /* \"#utility.yul\":7072:7078   */\n  0x00\n    /* \"#utility.yul\":7105:7156   */\n  tag_234\n    /* \"#utility.yul\":7153:7154   */\n  0x00\n    /* \"#utility.yul\":7149:7155   */\n  not\n    /* \"#utility.yul\":7141:7146   */\n  dup5\n    /* \"#utility.yul\":7138:7139   */\n  0x08\n    /* \"#utility.yul\":7134:7147   */\n  mul\n    /* \"#utility.yul\":7105:7156   */\n  tag_138\n  jump\t// in\ntag_234:\n    /* \"#utility.yul\":7101:7157   */\n  not\n    /* \"#utility.yul\":7186:7190   */\n  dup1\n    /* \"#utility.yul\":7180:7184   */\n  dup4\n    /* \"#utility.yul\":7176:7191   */\n  and\n    /* \"#utility.yul\":7166:7191   */\n  swap2\n  pop\n    /* \"#utility.yul\":7079:7197   */\n  pop\n    /* \"#utility.yul\":7028:7197   */\n  swap3\n  swap2\n  pop\n  pop\n  jump\t// out\n    /* \"#utility.yul\":7202:7497   */\ntag_140:\n    /* \"#utility.yul\":7278:7282   */\n  0x00\n    /* \"#utility.yul\":7424:7453   */\n  tag_236\n    /* \"#utility.yul\":7449:7452   */\n  dup4\n    /* \"#utility.yul\":7443:7447   */\n  dup4\n    /* \"#utility.yul\":7424:7453   */\n  tag_139\n  jump\t// in\ntag_236:\n    /* \"#utility.yul\":7416:7453   */\n  swap2\n  pop\n    /* \"#utility.yul\":7486:7489   */\n  dup3\n    /* \"#utility.yul\":7483:7484   */\n  0x02\n    /* \"#utility.yul\":7479:7490   */\n  mul\n    /* \"#utility.yul\":7473:7477   */\n  dup3\n    /* \"#utility.yul\":7470:7491   */\n  or\n    /* \"#utility.yul\":7462:7491   */\n  swap1\n  pop\n    /* \"#utility.yul\":7202:7497   */\n  swap3\n  swap2\n  pop\n  pop\n  jump\t// out\n    /* \"#utility.yul\":7502:8897   */\ntag_9:\n    /* \"#utility.yul\":7619:7656   */\n  tag_238\n    /* \"#utility.yul\":7652:7655   */\n  dup3\n    /* \"#utility.yul\":7619:7656   */\n  tag_123\n  jump\t// in\ntag_238:\n    /* \"#utility.yul\":7721:7739   */\n  0xffffffffffffffff\n    /* \"#utility.yul\":7713:7719   */\n  dup2\n    /* \"#utility.yul\":7710:7740   */\n  gt\n    /* \"#utility.yul\":7707:7763   */\n  iszero\n  tag_239\n  jumpi\n    /* \"#utility.yul\":7743:7761   */\n  tag_240\n  tag_113\n  jump\t// in\ntag_240:\n    /* \"#utility.yul\":7707:7763   */\ntag_239:\n    /* \"#utility.yul\":7787:7825   */\n  tag_241\n    /* \"#utility.yul\":7819:7823   */\n  dup3\n    /* \"#utility.yul\":7813:7824   */\n  sload\n    /* \"#utility.yul\":7787:7825   */\n  tag_125\n  jump\t// in\ntag_241:\n    /* \"#utility.yul\":7872:7939   */\n  tag_242\n    /* \"#utility.yul\":7932:7938   */\n  dup3\n    /* \"#utility.yul\":7924:7930   */\n  dup3\n    /* \"#utility.yul\":7918:7922   */\n  dup6\n    /* \"#utility.yul\":7872:7939   */\n  tag_137\n  jump\t// in\ntag_242:\n    /* \"#utility.yul\":7966:7967   */\n  0x00\n    /* \"#utility.yul\":7990:7994   */\n  0x20\n    /* \"#utility.yul\":7977:7994   */\n  swap1\n  pop\n    /* \"#utility.yul\":8022:8024   */\n  0x1f\n    /* \"#utility.yul\":8014:8020   */\n  dup4\n    /* \"#utility.yul\":8011:8025   */\n  gt\n    /* \"#utility.yul\":8039:8040   */\n  0x01\n    /* \"#utility.yul\":8034:8652   */\n  dup2\n  eq\n  tag_244\n  jumpi\n    /* \"#utility.yul\":8696:8697   */\n  0x00\n    /* \"#utility.yul\":8713:8719   */\n  dup5\n    /* \"#utility.yul\":8710:8787   */\n  iszero\n  tag_245\n  jumpi\n    /* \"#utility.yul\":8762:8771   */\n  dup3\n    /* \"#utility.yul\":8757:8760   */\n  dup8\n    /* \"#utility.yul\":8753:8772   */\n  add\n    /* \"#utility.yul\":8747:8773   */\n  mload\n    /* \"#utility.yul\":8738:8773   */\n  swap1\n  pop\n    /* \"#utility.yul\":8710:8787   */\ntag_245:\n    /* \"#utility.yul\":8813:8880   */\n  tag_246\n    /* \"#utility.yul\":8873:8879   */\n  dup6\n    /* \"#utility.yul\":8866:8871   */\n  dup3\n    /* \"#utility.yul\":8813:8880   */\n  tag_140\n  jump\t// in\ntag_246:\n    /* \"#utility.yul\":8807:8811   */\n  dup7\n    /* \"#utility.yul\":8800:8881   */\n  sstore\n    /* \"#utility.yul\":8669:8891   */\n  pop\n    /* \"#utility.yul\":8004:8891   */\n  jump(tag_243)\n    /* \"#utility.yul\":8034:8652   */\ntag_244:\n    /* \"#utility.yul\":8086:8090   */\n  0x1f\n    /* \"#utility.yul\":8082:8091   */\n  not\n    /* \"#utility.yul\":8074:8080   */\n  dup5\n    /* \"#utility.yul\":8070:8092   */\n  and\n    /* \"#utility.yul\":8120:8157   */\n  tag_247\n    /* \"#utility.yul\":8152:8156   */\n  dup7\n    /* \"#utility.yul\":8120:8157   */\n  tag_126\n  jump\t// in\ntag_247:\n    /* \"#utility.yul\":8179:8180   */\n  0x00\n    /* \"#utility.yul\":8193:8401   */\ntag_248:\n    /* \"#utility.yul\":8207:8214   */\n  dup3\n    /* \"#utility.yul\":8204:8205   */\n  dup2\n    /* \"#utility.yul\":8201:8215   */\n  lt\n    /* \"#utility.yul\":8193:8401   */\n  iszero\n  tag_250\n  jumpi\n    /* \"#utility.yul\":8286:8295   */\n  dup5\n    /* \"#utility.yul\":8281:8284   */\n  dup10\n    /* \"#utility.yul\":8277:8296   */\n  add\n    /* \"#utility.yul\":8271:8297   */\n  mload\n    /* \"#utility.yul\":8263:8269   */\n  dup3\n    /* \"#utility.yul\":8256:8298   */\n  sstore\n    /* \"#utility.yul\":8337:8338   */\n  0x01\n    /* \"#utility.yul\":8329:8335   */\n  dup3\n    /* \"#utility.yul\":8325:8339   */\n  add\n    /* \"#utility.yul\":8315:8339   */\n  swap2\n  pop\n    /* \"#utility.yul\":8384:8386   */\n  0x20\n    /* \"#utility.yul\":8373:8382   */\n  dup6\n    /* \"#utility.yul\":8369:8387   */\n  add\n    /* \"#utility.yul\":8356:8387   */\n  swap5\n  pop\n    /* \"#utility.yul\":8230:8234   */\n  0x20\n    /* \"#utility.yul\":8227:8228   */\n  dup2\n    /* \"#utility.yul\":8223:8235   */\n  add\n    /* \"#utility.yul\":8218:8235   */\n  swap1\n  pop\n    /* \"#utility.yul\":8193:8401   */\n  jump(tag_248)\ntag_250:\n    /* \"#utility.yul\":8429:8435   */\n  dup7\n    /* \"#utility.yul\":8420:8427   */\n  dup4\n    /* \"#utility.yul\":8417:8436   */\n  lt\n    /* \"#utility.yul\":8414:8593   */\n  iszero\n  tag_251\n  jumpi\n    /* \"#utility.yul\":8487:8496   */\n  dup5\n    /* \"#utility.yul\":8482:8485   */\n  dup10\n    /* \"#utility.yul\":8478:8497   */\n  add\n    /* \"#utility.yul\":8472:8498   */\n  mload\n    /* \"#utility.yul\":8530:8578   */\n  tag_252\n    /* \"#utility.yul\":8572:8576   */\n  0x1f\n    /* \"#utility.yul\":8564:8570   */\n  dup10\n    /* \"#utility.yul\":8560:8577   */\n  and\n    /* \"#utility.yul\":8549:8558   */\n  dup3\n    /* \"#utility.yul\":8530:8578   */\n  tag_139\n  jump\t// in\ntag_252:\n    /* \"#utility.yul\":8522:8528   */\n  dup4\n    /* \"#utility.yul\":8515:8579   */\n  sstore\n    /* \"#utility.yul\":8437:8593   */\n  pop\n    /* \"#utility.yul\":8414:8593   */\ntag_251:\n    /* \"#utility.yul\":8639:8640   */\n  0x01\n    /* \"#utility.yul\":8635:8636   */\n  0x02\n    /* \"#utility.yul\":8627:8633   */\n  dup9\n    /* \"#utility.yul\":8623:8637   */\n  mul\n    /* \"#utility.yul\":8619:8641   */\n  add\n    /* \"#utility.yul\":8613:8617   */\n  dup9\n    /* \"#utility.yul\":8606:8642   */\n  sstore\n    /* \"#utility.yul\":8041:8652   */\n  pop\n  pop\n  pop\n    /* \"#utility.yul\":8004:8891   */\ntag_243:\n  pop\n    /* \"#utility.yul\":7594:8897   */\n  pop\n  pop\n  pop\n    /* \"#utility.yul\":7502:8897   */\n  pop\n  pop\n  jump\t// out\n    /* \"#utility.yul\":8903:9029   */\ntag_141:\n    /* \"#utility.yul\":8940:8947   */\n  0x00\n    /* \"#utility.yul\":8980:9022   */\n  0xffffffffffffffffffffffffffffffffffffffff\n    /* \"#utility.yul\":8973:8978   */\n  dup3\n    /* \"#utility.yul\":8969:9023   */\n  and\n    /* \"#utility.yul\":8958:9023   */\n  swap1\n  pop\n    /* \"#utility.yul\":8903:9029   */\n  swap2\n  swap1\n  pop\n  jump\t// out\n    /* \"#utility.yul\":9035:9131   */\ntag_142:\n    /* \"#utility.yul\":9072:9079   */\n  0x00\n    /* \"#utility.yul\":9101:9125   */\n  tag_255\n    /* \"#utility.yul\":9119:9124   */\n  dup3\n    /* \"#utility.yul\":9101:9125   */\n  tag_141\n  jump\t// in\ntag_255:\n    /* \"#utility.yul\":9090:9125   */\n  swap1\n  pop\n    /* \"#utility.yul\":9035:9131   */\n  swap2\n  swap1\n  pop\n  jump\t// out\n    /* \"#utility.yul\":9137:9255   */\ntag_143:\n    /* \"#utility.yul\":9224:9248   */\n  tag_257\n    /* \"#utility.yul\":9242:9247   */\n  dup2\n    /* \"#utility.yul\":9224:9248   */\n  tag_142\n  jump\t// in\ntag_257:\n    /* \"#utility.yul\":9219:9222   */\n  dup3\n    /* \"#utility.yul\":9212:9249   */\n  mstore\n    /* \"#utility.yul\":9137:9255   */\n  pop\n  pop\n  jump\t// out\n    /* \"#utility.yul\":9261:9483   */\ntag_14:\n    /* \"#utility.yul\":9354:9358   */\n  0x00\n    /* \"#utility.yul\":9392:9394   */\n  0x20\n    /* \"#utility.yul\":9381:9390   */\n  dup3\n    /* \"#utility.yul\":9377:9395   */\n  add\n    /* \"#utility.yul\":9369:9395   */\n  swap1\n  pop\n    /* \"#utility.yul\":9405:9476   */\n  tag_259\n    /* \"#utility.yul\":9473:9474   */\n  0x00\n    /* \"#utility.yul\":9462:9471   */\n  dup4\n    /* \"#utility.yul\":9458:9475   */\n  add\n    /* \"#utility.yul\":9449:9455   */\n  dup5\n    /* \"#utility.yul\":9405:9476   */\n  tag_143\n  jump\t// in\ntag_259:\n    /* \"#utility.yul\":9261:9483   */\n  swap3\n  swap2\n  pop\n  pop\n  jump\t// out\n    /* \"#utility.yul\":9489:9669   */\ntag_144:\n    /* \"#utility.yul\":9537:9614   */\n  0x4e487b7100000000000000000000000000000000000000000000000000000000\n    /* \"#utility.yul\":9534:9535   */\n  0x00\n    /* \"#utility.yul\":9527:9615   */\n  mstore\n    /* \"#utility.yul\":9634:9638   */\n  0x11\n    /* \"#utility.yul\":9631:9632   */\n  0x04\n    /* \"#utility.yul\":9624:9639   */\n  mstore\n    /* \"#utility.yul\":9658:9662   */\n  0x24\n    /* \"#utility.yul\":9655:9656   */\n  0x00\n    /* \"#utility.yul\":9648:9663   */\n  revert\n    /* \"#utility.yul\":9675:9866   */\ntag_73:\n    /* \"#utility.yul\":9715:9718   */\n  0x00\n    /* \"#utility.yul\":9734:9754   */\n  tag_262\n    /* \"#utility.yul\":9752:9753   */\n  dup3\n    /* \"#utility.yul\":9734:9754   */\n  tag_120\n  jump\t// in\ntag_262:\n    /* \"#utility.yul\":9729:9754   */\n  swap2\n  pop\n    /* \"#utility.yul\":9768:9788   */\n  tag_263\n    /* \"#utility.yul\":9786:9787   */\n  dup4\n    /* \"#utility.yul\":9768:9788   */\n  tag_120\n  jump\t// in\ntag_263:\n    /* \"#utility.yul\":9763:9788   */\n  swap3\n  pop\n    /* \"#utility.yul\":9811:9812   */\n  dup3\n    /* \"#utility.yul\":9808:9809   */\n  dup3\n    /* \"#utility.yul\":9804:9813   */\n  add\n    /* \"#utility.yul\":9797:9813   */\n  swap1\n  pop\n    /* \"#utility.yul\":9832:9835   */\n  dup1\n    /* \"#utility.yul\":9829:9830   */\n  dup3\n    /* \"#utility.yul\":9826:9836   */\n  gt\n    /* \"#utility.yul\":9823:9859   */\n  iszero\n  tag_264\n  jumpi\n    /* \"#utility.yul\":9839:9857   */\n  tag_265\n  tag_144\n  jump\t// in\ntag_265:\n    /* \"#utility.yul\":9823:9859   */\ntag_264:\n    /* \"#utility.yul\":9675:9866   */\n  swap3\n  swap2\n  pop\n  pop\n  jump\t// out\n    /* \"#utility.yul\":9872:9990   */\ntag_145:\n    /* \"#utility.yul\":9959:9983   */\n  tag_267\n    /* \"#utility.yul\":9977:9982   */\n  dup2\n    /* \"#utility.yul\":9959:9983   */\n  tag_120\n  jump\t// in\ntag_267:\n    /* \"#utility.yul\":9954:9957   */\n  dup3\n    /* \"#utility.yul\":9947:9984   */\n  mstore\n    /* \"#utility.yul\":9872:9990   */\n  pop\n  pop\n  jump\t// out\n    /* \"#utility.yul\":9996:10438   */\ntag_77:\n    /* \"#utility.yul\":10145:10149   */\n  0x00\n    /* \"#utility.yul\":10183:10185   */\n  0x60\n    /* \"#utility.yul\":10172:10181   */\n  dup3\n    /* \"#utility.yul\":10168:10186   */\n  add\n    /* \"#utility.yul\":10160:10186   */\n  swap1\n  pop\n    /* \"#utility.yul\":10196:10267   */\n  tag_269\n    /* \"#utility.yul\":10264:10265   */\n  0x00\n    /* \"#utility.yul\":10253:10262   */\n  dup4\n    /* \"#utility.yul\":10249:10266   */\n  add\n    /* \"#utility.yul\":10240:10246   */\n  dup7\n    /* \"#utility.yul\":10196:10267   */\n  tag_143\n  jump\t// in\ntag_269:\n    /* \"#utility.yul\":10277:10349   */\n  tag_270\n    /* \"#utility.yul\":10345:10347   */\n  0x20\n    /* \"#utility.yul\":10334:10343   */\n  dup4\n    /* \"#utility.yul\":10330:10348   */\n  add\n    /* \"#utility.yul\":10321:10327   */\n  dup6\n    /* \"#utility.yul\":10277:10349   */\n  tag_145\n  jump\t// in\ntag_270:\n    /* \"#utility.yul\":10359:10431   */\n  tag_271\n    /* \"#utility.yul\":10427:10429   */\n  0x40\n    /* \"#utility.yul\":10416:10425   */\n  dup4\n    /* \"#utility.yul\":10412:10430   */\n  add\n    /* \"#utility.yul\":10403:10409   */\n  dup5\n    /* \"#utility.yul\":10359:10431   */\n  tag_145\n  jump\t// in\ntag_271:\n    /* \"#utility.yul\":9996:10438   */\n  swap5\n  swap4\n  pop\n  pop\n  pop\n  pop\n  jump\t// out\n    /* \"#utility.yul\":10444:10666   */\ntag_81:\n    /* \"#utility.yul\":10537:10541   */\n  0x00\n    /* \"#utility.yul\":10575:10577   */\n  0x20\n    /* \"#utility.yul\":10564:10573   */\n  dup3\n    /* \"#utility.yul\":10560:10578   */\n  add\n    /* \"#utility.yul\":10552:10578   */\n  swap1\n  pop\n    /* \"#utility.yul\":10588:10659   */\n  tag_273\n    /* \"#utility.yul\":10656:10657   */\n  0x00\n    /* \"#utility.yul\":10645:10654   */\n  dup4\n    /* \"#utility.yul\":10641:10658   */\n  add\n    /* \"#utility.yul\":10632:10638   */\n  dup5\n    /* \"#utility.yul\":10588:10659   */\n  tag_145\n  jump\t// in\ntag_273:\n    /* \"#utility.yul\":10444:10666   */\n  swap3\n  swap2\n  pop\n  pop\n  jump\t// out\n    /* \"#utility.yul\":10672:10749   */\ntag_146:\n    /* \"#utility.yul\":10709:10716   */\n  0x00\n    /* \"#utility.yul\":10738:10743   */\n  dup2\n    /* \"#utility.yul\":10727:10743   */\n  swap1\n  pop\n    /* \"#utility.yul\":10672:10749   */\n  swap2\n  swap1\n  pop\n  jump\t// out\n    /* \"#utility.yul\":10755:10873   */\ntag_147:\n    /* \"#utility.yul\":10842:10866   */\n  tag_276\n    /* \"#utility.yul\":10860:10865   */\n  dup2\n    /* \"#utility.yul\":10842:10866   */\n  tag_146\n  jump\t// in\ntag_276:\n    /* \"#utility.yul\":10837:10840   */\n  dup3\n    /* \"#utility.yul\":10830:10867   */\n  mstore\n    /* \"#utility.yul\":10755:10873   */\n  pop\n  pop\n  jump\t// out\n    /* \"#utility.yul\":10879:11211   */\ntag_106:\n    /* \"#utility.yul\":11000:11004   */\n  0x00\n    /* \"#utility.yul\":11038:11040   */\n  0x40\n    /* \"#utility.yul\":11027:11036   */\n  dup3\n    /* \"#utility.yul\":11023:11041   */\n  add\n    /* \"#utility.yul\":11015:11041   */\n  swap1\n  pop\n    /* \"#utility.yul\":11051:11122   */\n  tag_278\n    /* \"#utility.yul\":11119:11120   */\n  0x00\n    /* \"#utility.yul\":11108:11117   */\n  dup4\n    /* \"#utility.yul\":11104:11121   */\n  add\n    /* \"#utility.yul\":11095:11101   */\n  dup6\n    /* \"#utility.yul\":11051:11122   */\n  tag_143\n  jump\t// in\ntag_278:\n    /* \"#utility.yul\":11132:11204   */\n  tag_279\n    /* \"#utility.yul\":11200:11202   */\n  0x20\n    /* \"#utility.yul\":11189:11198   */\n  dup4\n    /* \"#utility.yul\":11185:11203   */\n  add\n    /* \"#utility.yul\":11176:11182   */\n  dup5\n    /* \"#utility.yul\":11132:11204   */\n  tag_147\n  jump\t// in\ntag_279:\n    /* \"#utility.yul\":10879:11211   */\n  swap4\n  swap3\n  pop\n  pop\n  pop\n  jump\t// out\n    /* \"Permissions2.sol\":314:6368  contract ERC20PermissionsControl is ERC20, AccessControl, Ownable {... */\ntag_32:\n  dataSize(sub_0)\n  dup1\n  dataOffset(sub_0)\n  0x00\n  codecopy\n  0x00\n  return\nstop\n\nsub_0: assembly {\n        /* \"Permissions2.sol\":314:6368  contract ERC20PermissionsControl is ERC20, AccessControl, Ownable {... */\n      mstore(0x40, 0x80)\n      callvalue\n      dup1\n      iszero\n      tag_1\n      jumpi\n      0x00\n      dup1\n      revert\n    tag_1:\n      pop\n      jumpi(tag_2, lt(calldatasize, 0x04))\n      shr(0xe0, calldataload(0x00))\n      dup1\n      0x70a08231\n      gt\n      tag_46\n      jumpi\n      dup1\n      0xa9059cbb\n      gt\n      tag_47\n      jumpi\n      dup1\n      0xdd62ed3e\n      gt\n      tag_48\n      jumpi\n      dup1\n      0xdd62ed3e\n      eq\n      tag_40\n      jumpi\n      dup1\n      0xe5839836\n      eq\n      tag_41\n      jumpi\n      dup1\n      0xf26c159f\n      eq\n      tag_42\n      jumpi\n      dup1\n      0xf2fde38b\n      eq\n      tag_43\n      jumpi\n      dup1\n      0xf44637ba\n      eq\n      tag_44\n      jumpi\n      dup1\n      0xfe575a87\n      eq\n      tag_45\n      jumpi\n      jump(tag_2)\n    tag_48:\n      dup1\n      0xa9059cbb\n      eq\n      tag_35\n      jumpi\n      dup1\n      0xc2134b23\n      eq\n      tag_36\n      jumpi\n      dup1\n      0xd1c2de0a\n      eq\n      tag_37\n      jumpi\n      dup1\n      0xd5391393\n      eq\n      tag_38\n      jumpi\n      dup1\n      0xd547741f\n      eq\n      tag_39\n      jumpi\n      jump(tag_2)\n    tag_47:\n      dup1\n      0x939bcbc9\n      gt\n      tag_49\n      jumpi\n      dup1\n      0x939bcbc9\n      eq\n      tag_29\n      jumpi\n      dup1\n      0x95d89b41\n      eq\n      tag_30\n      jumpi\n      dup1\n      0x974b368c\n      eq\n      tag_31\n      jumpi\n      dup1\n      0x983b2d56\n      eq\n      tag_32\n      jumpi\n      dup1\n      0x9dc29fac\n      eq\n      tag_33\n      jumpi\n      dup1\n      0xa217fddf\n      eq\n      tag_34\n      jumpi\n      jump(tag_2)\n    tag_49:\n      dup1\n      0x70a08231\n      eq\n      tag_24\n      jumpi\n      dup1\n      0x715018a6\n      eq\n      tag_25\n      jumpi\n      dup1\n      0x788649ea\n      eq\n      tag_26\n      jumpi\n      dup1\n      0x8da5cb5b\n      eq\n      tag_27\n      jumpi\n      dup1\n      0x91d14854\n      eq\n      tag_28\n      jumpi\n      jump(tag_2)\n    tag_46:\n      dup1\n      0x282c51f3\n      gt\n      tag_50\n      jumpi\n      dup1\n      0x36568abe\n      gt\n      tag_51\n      jumpi\n      dup1\n      0x36568abe\n      eq\n      tag_18\n      jumpi\n      dup1\n      0x40c10f19\n      eq\n      tag_19\n      jumpi\n      dup1\n      0x410b2424\n      eq\n      tag_20\n      jumpi\n      dup1\n      0x44337ea1\n      eq\n      tag_21\n      jumpi\n      dup1\n      0x526606c9\n      eq\n      tag_22\n      jumpi\n      dup1\n      0x537df3b6\n      eq\n      tag_23\n      jumpi\n      jump(tag_2)\n    tag_51:\n      dup1\n      0x282c51f3\n      eq\n      tag_13\n      jumpi\n      dup1\n      0x2acd2000\n      eq\n      tag_14\n      jumpi\n      dup1\n      0x2f2ff15d\n      eq\n      tag_15\n      jumpi\n      dup1\n      0x3092afd5\n      eq\n      tag_16\n      jumpi\n      dup1\n      0x313ce567\n      eq\n      tag_17\n      jumpi\n      jump(tag_2)\n    tag_50:\n      dup1\n      0x0eff2afc\n      gt\n      tag_52\n      jumpi\n      dup1\n      0x0eff2afc\n      eq\n      tag_8\n      jumpi\n      dup1\n      0x18160ddd\n      eq\n      tag_9\n      jumpi\n      dup1\n      0x1ec82cb8\n      eq\n      tag_10\n      jumpi\n      dup1\n      0x23b872dd\n      eq\n      tag_11\n      jumpi\n      dup1\n      0x248a9ca3\n      eq\n      tag_12\n      jumpi\n      jump(tag_2)\n    tag_52:\n      dup1\n      0x01ffc9a7\n      eq\n      tag_3\n      jumpi\n      dup1\n      0x02846858\n      eq\n      tag_4\n      jumpi\n      dup1\n      0x06a85f0f\n      eq\n      tag_5\n      jumpi\n      dup1\n      0x06fdde03\n      eq\n      tag_6\n      jumpi\n      dup1\n      0x095ea7b3\n      eq\n      tag_7\n      jumpi\n    tag_2:\n      0x00\n      dup1\n      revert\n        /* \"@openzeppelin/contracts/access/AccessControl.sol\":2565:2767  function supportsInterface(bytes4 interfaceId) public view virtual override returns (bool) {... */\n    tag_3:\n      tag_53\n      0x04\n      dup1\n      calldatasize\n      sub\n      dup2\n      add\n      swap1\n      tag_54\n      swap2\n      swap1\n      tag_55\n      jump\t// in\n    tag_54:\n      tag_56\n      jump\t// in\n    tag_53:\n      mload(0x40)\n      tag_57\n      swap2\n      swap1\n      tag_58\n      jump\t// in\n    tag_57:\n      mload(0x40)\n      dup1\n      swap2\n      sub\n      swap1\n      return\n        /* \"Permissions2.sol\":5092:5199  function removeBurner(address account) public onlyOwner {... */\n    tag_4:\n      tag_59\n      0x04\n      dup1\n      calldatasize\n      sub\n      dup2\n      add\n      swap1\n      tag_60\n      swap2\n      swap1\n      tag_61\n      jump\t// in\n    tag_60:\n      tag_62\n      jump\t// in\n    tag_59:\n      stop\n        /* \"Permissions2.sol\":610:674  bytes32 public constant FREEZER_ROLE = keccak256(\"FREEZER_ROLE\") */\n    tag_5:\n      tag_63\n      tag_64\n      jump\t// in\n    tag_63:\n      mload(0x40)\n      tag_65\n      swap2\n      swap1\n      tag_66\n      jump\t// in\n    tag_65:\n      mload(0x40)\n      dup1\n      swap2\n      sub\n      swap1\n      return\n        /* \"@openzeppelin/contracts/token/ERC20/ERC20.sol\":2074:2163  function name() public view virtual returns (string memory) {... */\n    tag_6:\n      tag_67\n      tag_68\n      jump\t// in\n    tag_67:\n      mload(0x40)\n      tag_69\n      swap2\n      swap1\n      tag_70\n      jump\t// in\n    tag_69:\n      mload(0x40)\n      dup1\n      swap2\n      sub\n      swap1\n      return\n        /* \"@openzeppelin/contracts/token/ERC20/ERC20.sol\":4293:4479  function approve(address spender, uint256 value) public virtual returns (bool) {... */\n    tag_7:\n      tag_71\n      0x04\n      dup1\n      calldatasize\n      sub\n      dup2\n      add\n      swap1\n      tag_72\n      swap2\n      swap1\n      tag_73\n      jump\t// in\n    tag_72:\n      tag_74\n      jump\t// in\n    tag_71:\n      mload(0x40)\n      tag_75\n      swap2\n      swap1\n      tag_58\n      jump\t// in\n    tag_75:\n      mload(0x40)\n      dup1\n      swap2\n      sub\n      swap1\n      return\n        /* \"Permissions2.sol\":5654:5778  function addBlacklistManager(address account) public onlyOwner {... */\n    tag_8:\n      tag_76\n      0x04\n      dup1\n      calldatasize\n      sub\n      dup2\n      add\n      swap1\n      tag_77\n      swap2\n      swap1\n      tag_61\n      jump\t// in\n    tag_77:\n      tag_78\n      jump\t// in\n    tag_76:\n      stop\n        /* \"@openzeppelin/contracts/token/ERC20/ERC20.sol\":3144:3241  function totalSupply() public view virtual returns (uint256) {... */\n    tag_9:\n      tag_79\n      tag_80\n      jump\t// in\n    tag_79:\n      mload(0x40)\n      tag_81\n      swap2\n      swap1\n      tag_82\n      jump\t// in\n    tag_81:\n      mload(0x40)\n      dup1\n      swap2\n      sub\n      swap1\n      return\n        /* \"Permissions2.sol\":3746:3881  function recover(address from, address to, uint256 amount) public onlyRole(RECOVER_ROLE) {... */\n    tag_10:\n      tag_83\n      0x04\n      dup1\n      calldatasize\n      sub\n      dup2\n      add\n      swap1\n      tag_84\n      swap2\n      swap1\n      tag_85\n      jump\t// in\n    tag_84:\n      tag_86\n      jump\t// in\n    tag_83:\n      stop\n        /* \"@openzeppelin/contracts/token/ERC20/ERC20.sol\":5039:5283  function transferFrom(address from, address to, uint256 value) public virtual returns (bool) {... */\n    tag_11:\n      tag_87\n      0x04\n      dup1\n      calldatasize\n      sub\n      dup2\n      add\n      swap1\n      tag_88\n      swap2\n      swap1\n      tag_85\n      jump\t// in\n    tag_88:\n      tag_89\n      jump\t// in\n    tag_87:\n      mload(0x40)\n      tag_90\n      swap2\n      swap1\n      tag_58\n      jump\t// in\n    tag_90:\n      mload(0x40)\n      dup1\n      swap2\n      sub\n      swap1\n      return\n        /* \"@openzeppelin/contracts/access/AccessControl.sol\":3810:3930  function getRoleAdmin(bytes32 role) public view virtual returns (bytes32) {... */\n    tag_12:\n      tag_91\n      0x04\n      dup1\n      calldatasize\n      sub\n      dup2\n      add\n      swap1\n      tag_92\n      swap2\n      swap1\n      tag_93\n      jump\t// in\n    tag_92:\n      tag_94\n      jump\t// in\n    tag_91:\n      mload(0x40)\n      tag_95\n      swap2\n      swap1\n      tag_66\n      jump\t// in\n    tag_95:\n      mload(0x40)\n      dup1\n      swap2\n      sub\n      swap1\n      return\n        /* \"Permissions2.sol\":541:603  bytes32 public constant BURNER_ROLE = keccak256(\"BURNER_ROLE\") */\n    tag_13:\n      tag_96\n      tag_97\n      jump\t// in\n    tag_96:\n      mload(0x40)\n      tag_98\n      swap2\n      swap1\n      tag_66\n      jump\t// in\n    tag_98:\n      mload(0x40)\n      dup1\n      swap2\n      sub\n      swap1\n      return\n        /* \"Permissions2.sol\":5458:5567  function removeFreezer(address account) public onlyOwner {... */\n    tag_14:\n      tag_99\n      0x04\n      dup1\n      calldatasize\n      sub\n      dup2\n      add\n      swap1\n      tag_100\n      swap2\n      swap1\n      tag_61\n      jump\t// in\n    tag_100:\n      tag_101\n      jump\t// in\n    tag_99:\n      stop\n        /* \"@openzeppelin/contracts/access/AccessControl.sol\":4226:4362  function grantRole(bytes32 role, address account) public virtual onlyRole(getRoleAdmin(role)) {... */\n    tag_15:\n      tag_102\n      0x04\n      dup1\n      calldatasize\n      sub\n      dup2\n      add\n      swap1\n      tag_103\n      swap2\n      swap1\n      tag_104\n      jump\t// in\n    tag_103:\n      tag_105\n      jump\t// in\n    tag_102:\n      stop\n        /* \"Permissions2.sol\":4730:4837  function removeMinter(address account) public onlyOwner {... */\n    tag_16:\n      tag_106\n      0x04\n      dup1\n      calldatasize\n      sub\n      dup2\n      add\n      swap1\n      tag_107\n      swap2\n      swap1\n      tag_61\n      jump\t// in\n    tag_107:\n      tag_108\n      jump\t// in\n    tag_106:\n      stop\n        /* \"@openzeppelin/contracts/token/ERC20/ERC20.sol\":3002:3084  function decimals() public view virtual returns (uint8) {... */\n    tag_17:\n      tag_109\n      tag_110\n      jump\t// in\n    tag_109:\n      mload(0x40)\n      tag_111\n      swap2\n      swap1\n      tag_112\n      jump\t// in\n    tag_111:\n      mload(0x40)\n      dup1\n      swap2\n      sub\n      swap1\n      return\n        /* \"@openzeppelin/contracts/access/AccessControl.sol\":5328:5573  function renounceRole(bytes32 role, address callerConfirmation) public virtual {... */\n    tag_18:\n      tag_113\n      0x04\n      dup1\n      calldatasize\n      sub\n      dup2\n      add\n      swap1\n      tag_114\n      swap2\n      swap1\n      tag_104\n      jump\t// in\n    tag_114:\n      tag_115\n      jump\t// in\n    tag_113:\n      stop\n        /* \"Permissions2.sol\":1585:1692  function mint(address to, uint256 amount) public onlyRole(MINTER_ROLE) {... */\n    tag_19:\n      tag_116\n      0x04\n      dup1\n      calldatasize\n      sub\n      dup2\n      add\n      swap1\n      tag_117\n      swap2\n      swap1\n      tag_73\n      jump\t// in\n    tag_117:\n      tag_118\n      jump\t// in\n    tag_116:\n      stop\n        /* \"Permissions2.sol\":681:765  bytes32 public constant BLACKLIST_MANAGER_ROLE = keccak256(\"BLACKLIST_MANAGER_ROLE\") */\n    tag_20:\n      tag_119\n      tag_120\n      jump\t// in\n    tag_119:\n      mload(0x40)\n      tag_121\n      swap2\n      swap1\n      tag_66\n      jump\t// in\n    tag_121:\n      mload(0x40)\n      dup1\n      swap2\n      sub\n      swap1\n      return\n        /* \"Permissions2.sol\":2888:3112  function addToBlacklist(address account) public onlyRole(BLACKLIST_MANAGER_ROLE) {... */\n    tag_21:\n      tag_122\n      0x04\n      dup1\n      calldatasize\n      sub\n      dup2\n      add\n      swap1\n      tag_123\n      swap2\n      swap1\n      tag_61\n      jump\t// in\n    tag_123:\n      tag_124\n      jump\t// in\n    tag_122:\n      stop\n        /* \"Permissions2.sol\":5276:5381  function addFreezer(address account) public onlyOwner {... */\n    tag_22:\n      tag_125\n      0x04\n      dup1\n      calldatasize\n      sub\n      dup2\n      add\n      swap1\n      tag_126\n      swap2\n      swap1\n      tag_61\n      jump\t// in\n    tag_126:\n      tag_127\n      jump\t// in\n    tag_125:\n      stop\n        /* \"Permissions2.sol\":3192:3419  function removeFromBlacklist(address account) public onlyRole(BLACKLIST_MANAGER_ROLE) {... */\n    tag_23:\n      tag_128\n      0x04\n      dup1\n      calldatasize\n      sub\n      dup2\n      add\n      swap1\n      tag_129\n      swap2\n      swap1\n      tag_61\n      jump\t// in\n    tag_129:\n      tag_130\n      jump\t// in\n    tag_128:\n      stop\n        /* \"@openzeppelin/contracts/token/ERC20/ERC20.sol\":3299:3415  function balanceOf(address account) public view virtual returns (uint256) {... */\n    tag_24:\n      tag_131\n      0x04\n      dup1\n      calldatasize\n      sub\n      dup2\n      add\n      swap1\n      tag_132\n      swap2\n      swap1\n      tag_61\n      jump\t// in\n    tag_132:\n      tag_133\n      jump\t// in\n    tag_131:\n      mload(0x40)\n      tag_134\n      swap2\n      swap1\n      tag_82\n      jump\t// in\n    tag_134:\n      mload(0x40)\n      dup1\n      swap2\n      sub\n      swap1\n      return\n        /* \"@openzeppelin/contracts/access/Ownable.sol\":2293:2394  function renounceOwnership() public virtual onlyOwner {... */\n    tag_25:\n      tag_135\n      tag_136\n      jump\t// in\n    tag_135:\n      stop\n        /* \"Permissions2.sol\":2309:2507  function unfreezeAccount(address account) public onlyRole(FREEZER_ROLE) {... */\n    tag_26:\n      tag_137\n      0x04\n      dup1\n      calldatasize\n      sub\n      dup2\n      add\n      swap1\n      tag_138\n      swap2\n      swap1\n      tag_61\n      jump\t// in\n    tag_138:\n      tag_139\n      jump\t// in\n    tag_137:\n      stop\n        /* \"@openzeppelin/contracts/access/Ownable.sol\":1638:1723  function owner() public view virtual returns (address) {... */\n    tag_27:\n      tag_140\n      tag_141\n      jump\t// in\n    tag_140:\n      mload(0x40)\n      tag_142\n      swap2\n      swap1\n      tag_143\n      jump\t// in\n    tag_142:\n      mload(0x40)\n      dup1\n      swap2\n      sub\n      swap1\n      return\n        /* \"@openzeppelin/contracts/access/AccessControl.sol\":2854:2990  function hasRole(bytes32 role, address account) public view virtual returns (bool) {... */\n    tag_28:\n      tag_144\n      0x04\n      dup1\n      calldatasize\n      sub\n      dup2\n      add\n      swap1\n      tag_145\n      swap2\n      swap1\n      tag_104\n      jump\t// in\n    tag_145:\n      tag_146\n      jump\t// in\n    tag_144:\n      mload(0x40)\n      tag_147\n      swap2\n      swap1\n      tag_58\n      jump\t// in\n    tag_147:\n      mload(0x40)\n      dup1\n      swap2\n      sub\n      swap1\n      return\n        /* \"Permissions2.sol\":772:836  bytes32 public constant RECOVER_ROLE = keccak256(\"RECOVER_ROLE\") */\n    tag_29:\n      tag_148\n      tag_149\n      jump\t// in\n    tag_148:\n      mload(0x40)\n      tag_150\n      swap2\n      swap1\n      tag_66\n      jump\t// in\n    tag_150:\n      mload(0x40)\n      dup1\n      swap2\n      sub\n      swap1\n      return\n        /* \"@openzeppelin/contracts/token/ERC20/ERC20.sol\":2276:2369  function symbol() public view virtual returns (string memory) {... */\n    tag_30:\n      tag_151\n      tag_152\n      jump\t// in\n    tag_151:\n      mload(0x40)\n      tag_153\n      swap2\n      swap1\n      tag_70\n      jump\t// in\n    tag_153:\n      mload(0x40)\n      dup1\n      swap2\n      sub\n      swap1\n      return\n        /* \"Permissions2.sol\":5865:5993  function removeBlacklistManager(address account) public onlyOwner {... */\n    tag_31:\n      tag_154\n      0x04\n      dup1\n      calldatasize\n      sub\n      dup2\n      add\n      swap1\n      tag_155\n      swap2\n      swap1\n      tag_61\n      jump\t// in\n    tag_155:\n      tag_156\n      jump\t// in\n    tag_154:\n      stop\n        /* \"Permissions2.sol\":4551:4654  function addMinter(address account) public onlyOwner {... */\n    tag_32:\n      tag_157\n      0x04\n      dup1\n      calldatasize\n      sub\n      dup2\n      add\n      swap1\n      tag_158\n      swap2\n      swap1\n      tag_61\n      jump\t// in\n    tag_158:\n      tag_159\n      jump\t// in\n    tag_157:\n      stop\n        /* \"Permissions2.sol\":1742:1853  function burn(address from, uint256 amount) public onlyRole(BURNER_ROLE) {... */\n    tag_33:\n      tag_160\n      0x04\n      dup1\n      calldatasize\n      sub\n      dup2\n      add\n      swap1\n      tag_161\n      swap2\n      swap1\n      tag_73\n      jump\t// in\n    tag_161:\n      tag_162\n      jump\t// in\n    tag_160:\n      stop\n        /* \"@openzeppelin/contracts/access/AccessControl.sol\":2187:2236  bytes32 public constant DEFAULT_ADMIN_ROLE = 0x00 */\n    tag_34:\n      tag_163\n      tag_164\n      jump\t// in\n    tag_163:\n      mload(0x40)\n      tag_165\n      swap2\n      swap1\n      tag_66\n      jump\t// in\n    tag_165:\n      mload(0x40)\n      dup1\n      swap2\n      sub\n      swap1\n      return\n        /* \"Permissions2.sol\":3975:4475  function transfer(address to, uint256 amount) public virtual override returns (bool) {... */\n    tag_35:\n      tag_166\n      0x04\n      dup1\n      calldatasize\n      sub\n      dup2\n      add\n      swap1\n      tag_167\n      swap2\n      swap1\n      tag_73\n      jump\t// in\n    tag_167:\n      tag_168\n      jump\t// in\n    tag_166:\n      mload(0x40)\n      tag_169\n      swap2\n      swap1\n      tag_58\n      jump\t// in\n    tag_169:\n      mload(0x40)\n      dup1\n      swap2\n      sub\n      swap1\n      return\n        /* \"Permissions2.sol\":6070:6177  function addRecoverer(address account) public onlyOwner {... */\n    tag_36:\n      tag_170\n      0x04\n      dup1\n      calldatasize\n      sub\n      dup2\n      add\n      swap1\n      tag_171\n      swap2\n      swap1\n      tag_61\n      jump\t// in\n    tag_171:\n      tag_172\n      jump\t// in\n    tag_170:\n      stop\n        /* \"Permissions2.sol\":6254:6365  function removeRecoverer(address account) public onlyOwner {... */\n    tag_37:\n      tag_173\n      0x04\n      dup1\n      calldatasize\n      sub\n      dup2\n      add\n      swap1\n      tag_174\n      swap2\n      swap1\n      tag_61\n      jump\t// in\n    tag_174:\n      tag_175\n      jump\t// in\n    tag_173:\n      stop\n        /* \"Permissions2.sol\":472:534  bytes32 public constant MINTER_ROLE = keccak256(\"MINTER_ROLE\") */\n    tag_38:\n      tag_176\n      tag_177\n      jump\t// in\n    tag_176:\n      mload(0x40)\n      tag_178\n      swap2\n      swap1\n      tag_66\n      jump\t// in\n    tag_178:\n      mload(0x40)\n      dup1\n      swap2\n      sub\n      swap1\n      return\n        /* \"@openzeppelin/contracts/access/AccessControl.sol\":4642:4780  function revokeRole(bytes32 role, address account) public virtual onlyRole(getRoleAdmin(role)) {... */\n    tag_39:\n      tag_179\n      0x04\n      dup1\n      calldatasize\n      sub\n      dup2\n      add\n      swap1\n      tag_180\n      swap2\n      swap1\n      tag_104\n      jump\t// in\n    tag_180:\n      tag_181\n      jump\t// in\n    tag_179:\n      stop\n        /* \"@openzeppelin/contracts/token/ERC20/ERC20.sol\":3846:3986  function allowance(address owner, address spender) public view virtual returns (uint256) {... */\n    tag_40:\n      tag_182\n      0x04\n      dup1\n      calldatasize\n      sub\n      dup2\n      add\n      swap1\n      tag_183\n      swap2\n      swap1\n      tag_184\n      jump\t// in\n    tag_183:\n      tag_185\n      jump\t// in\n    tag_182:\n      mload(0x40)\n      tag_186\n      swap2\n      swap1\n      tag_82\n      jump\t// in\n    tag_186:\n      mload(0x40)\n      dup1\n      swap2\n      sub\n      swap1\n      return\n        /* \"Permissions2.sol\":2570:2686  function isFrozen(address account) public view returns (bool) {... */\n    tag_41:\n      tag_187\n      0x04\n      dup1\n      calldatasize\n      sub\n      dup2\n      add\n      swap1\n      tag_188\n      swap2\n      swap1\n      tag_61\n      jump\t// in\n    tag_188:\n      tag_189\n      jump\t// in\n    tag_187:\n      mload(0x40)\n      tag_190\n      swap2\n      swap1\n      tag_58\n      jump\t// in\n    tag_190:\n      mload(0x40)\n      dup1\n      swap2\n      sub\n      swap1\n      return\n        /* \"Permissions2.sol\":2043:2241  function freezeAccount(address account) public onlyRole(FREEZER_ROLE) {... */\n    tag_42:\n      tag_191\n      0x04\n      dup1\n      calldatasize\n      sub\n      dup2\n      add\n      swap1\n      tag_192\n      swap2\n      swap1\n      tag_61\n      jump\t// in\n    tag_192:\n      tag_193\n      jump\t// in\n    tag_191:\n      stop\n        /* \"@openzeppelin/contracts/access/Ownable.sol\":2543:2758  function transferOwnership(address newOwner) public virtual onlyOwner {... */\n    tag_43:\n      tag_194\n      0x04\n      dup1\n      calldatasize\n      sub\n      dup2\n      add\n      swap1\n      tag_195\n      swap2\n      swap1\n      tag_61\n      jump\t// in\n    tag_195:\n      tag_196\n      jump\t// in\n    tag_194:\n      stop\n        /* \"Permissions2.sol\":4913:5016  function addBurner(address account) public onlyOwner {... */\n    tag_44:\n      tag_197\n      0x04\n      dup1\n      calldatasize\n      sub\n      dup2\n      add\n      swap1\n      tag_198\n      swap2\n      swap1\n      tag_61\n      jump\t// in\n    tag_198:\n      tag_199\n      jump\t// in\n    tag_197:\n      stop\n        /* \"Permissions2.sol\":3484:3610  function isBlacklisted(address account) public view returns (bool) {... */\n    tag_45:\n      tag_200\n      0x04\n      dup1\n      calldatasize\n      sub\n      dup2\n      add\n      swap1\n      tag_201\n      swap2\n      swap1\n      tag_61\n      jump\t// in\n    tag_201:\n      tag_202\n      jump\t// in\n    tag_200:\n      mload(0x40)\n      tag_203\n      swap2\n      swap1\n      tag_58\n      jump\t// in\n    tag_203:\n      mload(0x40)\n      dup1\n      swap2\n      sub\n      swap1\n      return\n        /* \"@openzeppelin/contracts/access/AccessControl.sol\":2565:2767  function supportsInterface(bytes4 interfaceId) public view virtual override returns (bool) {... */\n    tag_56:\n        /* \"@openzeppelin/contracts/access/AccessControl.sol\":2650:2654  bool */\n      0x00\n        /* \"@openzeppelin/contracts/access/AccessControl.sol\":2688:2720  type(IAccessControl).interfaceId */\n      0x7965db0b00000000000000000000000000000000000000000000000000000000\n        /* \"@openzeppelin/contracts/access/AccessControl.sol\":2673:2720  interfaceId == type(IAccessControl).interfaceId */\n      not(0xffffffffffffffffffffffffffffffffffffffffffffffffffffffff)\n      and\n        /* \"@openzeppelin/contracts/access/AccessControl.sol\":2673:2684  interfaceId */\n      dup3\n        /* \"@openzeppelin/contracts/access/AccessControl.sol\":2673:2720  interfaceId == type(IAccessControl).interfaceId */\n      not(0xffffffffffffffffffffffffffffffffffffffffffffffffffffffff)\n      and\n      eq\n        /* \"@openzeppelin/contracts/access/AccessControl.sol\":2673:2760  interfaceId == type(IAccessControl).interfaceId || super.supportsInterface(interfaceId) */\n      dup1\n      tag_205\n      jumpi\n      pop\n        /* \"@openzeppelin/contracts/access/AccessControl.sol\":2724:2760  super.supportsInterface(interfaceId) */\n      tag_206\n        /* \"@openzeppelin/contracts/access/AccessControl.sol\":2748:2759  interfaceId */\n      dup3\n        /* \"@openzeppelin/contracts/access/AccessControl.sol\":2724:2747  super.supportsInterface */\n      tag_207\n        /* \"@openzeppelin/contracts/access/AccessControl.sol\":2724:2760  super.supportsInterface(interfaceId) */\n      jump\t// in\n    tag_206:\n        /* \"@openzeppelin/contracts/access/AccessControl.sol\":2673:2760  interfaceId == type(IAccessControl).interfaceId || super.supportsInterface(interfaceId) */\n    tag_205:\n        /* \"@openzeppelin/contracts/access/AccessControl.sol\":2666:2760  return interfaceId == type(IAccessControl).interfaceId || super.supportsInterface(interfaceId) */\n      swap1\n      pop\n        /* \"@openzeppelin/contracts/access/AccessControl.sol\":2565:2767  function supportsInterface(bytes4 interfaceId) public view virtual override returns (bool) {... */\n      swap2\n      swap1\n      pop\n      jump\t// out\n        /* \"Permissions2.sol\":5092:5199  function removeBurner(address account) public onlyOwner {... */\n    tag_62:\n        /* \"@openzeppelin/contracts/access/Ownable.sol\":1531:1544  _checkOwner() */\n      tag_209\n        /* \"@openzeppelin/contracts/access/Ownable.sol\":1531:1542  _checkOwner */\n      tag_210\n        /* \"@openzeppelin/contracts/access/Ownable.sol\":1531:1544  _checkOwner() */\n      jump\t// in\n    tag_209:\n        /* \"Permissions2.sol\":5159:5191  revokeRole(BURNER_ROLE, account) */\n      tag_212\n        /* \"Permissions2.sol\":579:603  keccak256(\"BURNER_ROLE\") */\n      0x3c11d16cbaffd01df69ce1c404f6340ee057498f5f00246190ea54220576a848\n        /* \"Permissions2.sol\":5183:5190  account */\n      dup3\n        /* \"Permissions2.sol\":5159:5169  revokeRole */\n      tag_181\n        /* \"Permissions2.sol\":5159:5191  revokeRole(BURNER_ROLE, account) */\n      jump\t// in\n    tag_212:\n        /* \"Permissions2.sol\":5092:5199  function removeBurner(address account) public onlyOwner {... */\n      pop\n      jump\t// out\n        /* \"Permissions2.sol\":610:674  bytes32 public constant FREEZER_ROLE = keccak256(\"FREEZER_ROLE\") */\n    tag_64:\n        /* \"Permissions2.sol\":649:674  keccak256(\"FREEZER_ROLE\") */\n      0x92de27771f92d6942691d73358b3a4673e4880de8356f8f2cf452be87e02d363\n        /* \"Permissions2.sol\":610:674  bytes32 public constant FREEZER_ROLE = keccak256(\"FREEZER_ROLE\") */\n      dup2\n      jump\t// out\n        /* \"@openzeppelin/contracts/token/ERC20/ERC20.sol\":2074:2163  function name() public view virtual returns (string memory) {... */\n    tag_68:\n        /* \"@openzeppelin/contracts/token/ERC20/ERC20.sol\":2119:2132  string memory */\n      0x60\n        /* \"@openzeppelin/contracts/token/ERC20/ERC20.sol\":2151:2156  _name */\n      0x03\n        /* \"@openzeppelin/contracts/token/ERC20/ERC20.sol\":2144:2156  return _name */\n      dup1\n      sload\n      tag_214\n      swap1\n      tag_215\n      jump\t// in\n    tag_214:\n      dup1\n      0x1f\n      add\n      0x20\n      dup1\n      swap2\n      div\n      mul\n      0x20\n      add\n      mload(0x40)\n      swap1\n      dup2\n      add\n      0x40\n      mstore\n      dup1\n      swap3\n      swap2\n      swap1\n      dup2\n      dup2\n      mstore\n      0x20\n      add\n      dup3\n      dup1\n      sload\n      tag_216\n      swap1\n      tag_215\n      jump\t// in\n    tag_216:\n      dup1\n      iszero\n      tag_217\n      jumpi\n      dup1\n      0x1f\n      lt\n      tag_218\n      jumpi\n      0x0100\n      dup1\n      dup4\n      sload\n      div\n      mul\n      dup4\n      mstore\n      swap2\n      0x20\n      add\n      swap2\n      jump(tag_217)\n    tag_218:\n      dup3\n      add\n      swap2\n      swap1\n      0x00\n      mstore\n      keccak256(0x00, 0x20)\n      swap1\n    tag_219:\n      dup2\n      sload\n      dup2\n      mstore\n      swap1\n      0x01\n      add\n      swap1\n      0x20\n      add\n      dup1\n      dup4\n      gt\n      tag_219\n      jumpi\n      dup3\n      swap1\n      sub\n      0x1f\n      and\n      dup3\n      add\n      swap2\n    tag_217:\n      pop\n      pop\n      pop\n      pop\n      pop\n      swap1\n      pop\n        /* \"@openzeppelin/contracts/token/ERC20/ERC20.sol\":2074:2163  function name() public view virtual returns (string memory) {... */\n      swap1\n      jump\t// out\n        /* \"@openzeppelin/contracts/token/ERC20/ERC20.sol\":4293:4479  function approve(address spender, uint256 value) public virtual returns (bool) {... */\n    tag_74:\n        /* \"@openzeppelin/contracts/token/ERC20/ERC20.sol\":4366:4370  bool */\n      0x00\n        /* \"@openzeppelin/contracts/token/ERC20/ERC20.sol\":4382:4395  address owner */\n      dup1\n        /* \"@openzeppelin/contracts/token/ERC20/ERC20.sol\":4398:4410  _msgSender() */\n      tag_221\n        /* \"@openzeppelin/contracts/token/ERC20/ERC20.sol\":4398:4408  _msgSender */\n      tag_222\n        /* \"@openzeppelin/contracts/token/ERC20/ERC20.sol\":4398:4410  _msgSender() */\n      jump\t// in\n    tag_221:\n        /* \"@openzeppelin/contracts/token/ERC20/ERC20.sol\":4382:4410  address owner = _msgSender() */\n      swap1\n      pop\n        /* \"@openzeppelin/contracts/token/ERC20/ERC20.sol\":4420:4451  _approve(owner, spender, value) */\n      tag_223\n        /* \"@openzeppelin/contracts/token/ERC20/ERC20.sol\":4429:4434  owner */\n      dup2\n        /* \"@openzeppelin/contracts/token/ERC20/ERC20.sol\":4436:4443  spender */\n      dup6\n        /* \"@openzeppelin/contracts/token/ERC20/ERC20.sol\":4445:4450  value */\n      dup6\n        /* \"@openzeppelin/contracts/token/ERC20/ERC20.sol\":4420:4428  _approve */\n      tag_224\n        /* \"@openzeppelin/contracts/token/ERC20/ERC20.sol\":4420:4451  _approve(owner, spender, value) */\n      jump\t// in\n    tag_223:\n        /* \"@openzeppelin/contracts/token/ERC20/ERC20.sol\":4468:4472  true */\n      0x01\n        /* \"@openzeppelin/contracts/token/ERC20/ERC20.sol\":4461:4472  return true */\n      swap2\n      pop\n      pop\n        /* \"@openzeppelin/contracts/token/ERC20/ERC20.sol\":4293:4479  function approve(address spender, uint256 value) public virtual returns (bool) {... */\n      swap3\n      swap2\n      pop\n      pop\n      jump\t// out\n        /* \"Permissions2.sol\":5654:5778  function addBlacklistManager(address account) public onlyOwner {... */\n    tag_78:\n        /* \"@openzeppelin/contracts/access/Ownable.sol\":1531:1544  _checkOwner() */\n      tag_226\n        /* \"@openzeppelin/contracts/access/Ownable.sol\":1531:1542  _checkOwner */\n      tag_210\n        /* \"@openzeppelin/contracts/access/Ownable.sol\":1531:1544  _checkOwner() */\n      jump\t// in\n    tag_226:\n        /* \"Permissions2.sol\":5728:5770  grantRole(BLACKLIST_MANAGER_ROLE, account) */\n      tag_228\n        /* \"Permissions2.sol\":730:765  keccak256(\"BLACKLIST_MANAGER_ROLE\") */\n      0xf988e4fb62b8e14f4820fed03192306ddf4d7dbfa215595ba1c6ba4b76b369ee\n        /* \"Permissions2.sol\":5762:5769  account */\n      dup3\n        /* \"Permissions2.sol\":5728:5737  grantRole */\n      tag_105\n        /* \"Permissions2.sol\":5728:5770  grantRole(BLACKLIST_MANAGER_ROLE, account) */\n      jump\t// in\n    tag_228:\n        /* \"Permissions2.sol\":5654:5778  function addBlacklistManager(address account) public onlyOwner {... */\n      pop\n      jump\t// out\n        /* \"@openzeppelin/contracts/token/ERC20/ERC20.sol\":3144:3241  function totalSupply() public view virtual returns (uint256) {... */\n    tag_80:\n        /* \"@openzeppelin/contracts/token/ERC20/ERC20.sol\":3196:3203  uint256 */\n      0x00\n        /* \"@openzeppelin/contracts/token/ERC20/ERC20.sol\":3222:3234  _totalSupply */\n      sload(0x02)\n        /* \"@openzeppelin/contracts/token/ERC20/ERC20.sol\":3215:3234  return _totalSupply */\n      swap1\n      pop\n        /* \"@openzeppelin/contracts/token/ERC20/ERC20.sol\":3144:3241  function totalSupply() public view virtual returns (uint256) {... */\n      swap1\n      jump\t// out\n        /* \"Permissions2.sol\":3746:3881  function recover(address from, address to, uint256 amount) public onlyRole(RECOVER_ROLE) {... */\n    tag_86:\n        /* \"Permissions2.sol\":811:836  keccak256(\"RECOVER_ROLE\") */\n      0x62b337eaefec74dadf1a62e856bf9db4f14a0f27d4f48156a95a9f98e7d5e066\n        /* \"@openzeppelin/contracts/access/AccessControl.sol\":2464:2480  _checkRole(role) */\n      tag_231\n        /* \"@openzeppelin/contracts/access/AccessControl.sol\":2475:2479  role */\n      dup2\n        /* \"@openzeppelin/contracts/access/AccessControl.sol\":2464:2474  _checkRole */\n      tag_232\n        /* \"@openzeppelin/contracts/access/AccessControl.sol\":2464:2480  _checkRole(role) */\n      jump\t// in\n    tag_231:\n        /* \"Permissions2.sol\":3846:3873  _transfer(from, to, amount) */\n      tag_234\n        /* \"Permissions2.sol\":3856:3860  from */\n      dup5\n        /* \"Permissions2.sol\":3862:3864  to */\n      dup5\n        /* \"Permissions2.sol\":3866:3872  amount */\n      dup5\n        /* \"Permissions2.sol\":3846:3855  _transfer */\n      tag_235\n        /* \"Permissions2.sol\":3846:3873  _transfer(from, to, amount) */\n      jump\t// in\n    tag_234:\n        /* \"Permissions2.sol\":3746:3881  function recover(address from, address to, uint256 amount) public onlyRole(RECOVER_ROLE) {... */\n      pop\n      pop\n      pop\n      pop\n      jump\t// out\n        /* \"@openzeppelin/contracts/token/ERC20/ERC20.sol\":5039:5283  function transferFrom(address from, address to, uint256 value) public virtual returns (bool) {... */\n    tag_89:\n        /* \"@openzeppelin/contracts/token/ERC20/ERC20.sol\":5126:5130  bool */\n      0x00\n        /* \"@openzeppelin/contracts/token/ERC20/ERC20.sol\":5142:5157  address spender */\n      dup1\n        /* \"@openzeppelin/contracts/token/ERC20/ERC20.sol\":5160:5172  _msgSender() */\n      tag_237\n        /* \"@openzeppelin/contracts/token/ERC20/ERC20.sol\":5160:5170  _msgSender */\n      tag_222\n        /* \"@openzeppelin/contracts/token/ERC20/ERC20.sol\":5160:5172  _msgSender() */\n      jump\t// in\n    tag_237:\n        /* \"@openzeppelin/contracts/token/ERC20/ERC20.sol\":5142:5172  address spender = _msgSender() */\n      swap1\n      pop\n        /* \"@openzeppelin/contracts/token/ERC20/ERC20.sol\":5182:5219  _spendAllowance(from, spender, value) */\n      tag_238\n        /* \"@openzeppelin/contracts/token/ERC20/ERC20.sol\":5198:5202  from */\n      dup6\n        /* \"@openzeppelin/contracts/token/ERC20/ERC20.sol\":5204:5211  spender */\n      dup3\n        /* \"@openzeppelin/contracts/token/ERC20/ERC20.sol\":5213:5218  value */\n      dup6\n        /* \"@openzeppelin/contracts/token/ERC20/ERC20.sol\":5182:5197  _spendAllowance */\n      tag_239\n        /* \"@openzeppelin/contracts/token/ERC20/ERC20.sol\":5182:5219  _spendAllowance(from, spender, value) */\n      jump\t// in\n    tag_238:\n        /* \"@openzeppelin/contracts/token/ERC20/ERC20.sol\":5229:5255  _transfer(from, to, value) */\n      tag_240\n        /* \"@openzeppelin/contracts/token/ERC20/ERC20.sol\":5239:5243  from */\n      dup6\n        /* \"@openzeppelin/contracts/token/ERC20/ERC20.sol\":5245:5247  to */\n      dup6\n        /* \"@openzeppelin/contracts/token/ERC20/ERC20.sol\":5249:5254  value */\n      dup6\n        /* \"@openzeppelin/contracts/token/ERC20/ERC20.sol\":5229:5238  _transfer */\n      tag_235\n        /* \"@openzeppelin/contracts/token/ERC20/ERC20.sol\":5229:5255  _transfer(from, to, value) */\n      jump\t// in\n    tag_240:\n        /* \"@openzeppelin/contracts/token/ERC20/ERC20.sol\":5272:5276  true */\n      0x01\n        /* \"@openzeppelin/contracts/token/ERC20/ERC20.sol\":5265:5276  return true */\n      swap2\n      pop\n      pop\n        /* \"@openzeppelin/contracts/token/ERC20/ERC20.sol\":5039:5283  function transferFrom(address from, address to, uint256 value) public virtual returns (bool) {... */\n      swap4\n      swap3\n      pop\n      pop\n      pop\n      jump\t// out\n        /* \"@openzeppelin/contracts/access/AccessControl.sol\":3810:3930  function getRoleAdmin(bytes32 role) public view virtual returns (bytes32) {... */\n    tag_94:\n        /* \"@openzeppelin/contracts/access/AccessControl.sol\":3875:3882  bytes32 */\n      0x00\n        /* \"@openzeppelin/contracts/access/AccessControl.sol\":3901:3907  _roles */\n      0x05\n        /* \"@openzeppelin/contracts/access/AccessControl.sol\":3901:3913  _roles[role] */\n      0x00\n        /* \"@openzeppelin/contracts/access/AccessControl.sol\":3908:3912  role */\n      dup4\n        /* \"@openzeppelin/contracts/access/AccessControl.sol\":3901:3913  _roles[role] */\n      dup2\n      mstore\n      0x20\n      add\n      swap1\n      dup2\n      mstore\n      0x20\n      add\n      0x00\n      keccak256\n        /* \"@openzeppelin/contracts/access/AccessControl.sol\":3901:3923  _roles[role].adminRole */\n      0x01\n      add\n      sload\n        /* \"@openzeppelin/contracts/access/AccessControl.sol\":3894:3923  return _roles[role].adminRole */\n      swap1\n      pop\n        /* \"@openzeppelin/contracts/access/AccessControl.sol\":3810:3930  function getRoleAdmin(bytes32 role) public view virtual returns (bytes32) {... */\n      swap2\n      swap1\n      pop\n      jump\t// out\n        /* \"Permissions2.sol\":541:603  bytes32 public constant BURNER_ROLE = keccak256(\"BURNER_ROLE\") */\n    tag_97:\n        /* \"Permissions2.sol\":579:603  keccak256(\"BURNER_ROLE\") */\n      0x3c11d16cbaffd01df69ce1c404f6340ee057498f5f00246190ea54220576a848\n        /* \"Permissions2.sol\":541:603  bytes32 public constant BURNER_ROLE = keccak256(\"BURNER_ROLE\") */\n      dup2\n      jump\t// out\n        /* \"Permissions2.sol\":5458:5567  function removeFreezer(address account) public onlyOwner {... */\n    tag_101:\n        /* \"@openzeppelin/contracts/access/Ownable.sol\":1531:1544  _checkOwner() */\n      tag_243\n        /* \"@openzeppelin/contracts/access/Ownable.sol\":1531:1542  _checkOwner */\n      tag_210\n        /* \"@openzeppelin/contracts/access/Ownable.sol\":1531:1544  _checkOwner() */\n      jump\t// in\n    tag_243:\n        /* \"Permissions2.sol\":5526:5559  revokeRole(FREEZER_ROLE, account) */\n      tag_245\n        /* \"Permissions2.sol\":649:674  keccak256(\"FREEZER_ROLE\") */\n      0x92de27771f92d6942691d73358b3a4673e4880de8356f8f2cf452be87e02d363\n        /* \"Permissions2.sol\":5551:5558  account */\n      dup3\n        /* \"Permissions2.sol\":5526:5536  revokeRole */\n      tag_181\n        /* \"Permissions2.sol\":5526:5559  revokeRole(FREEZER_ROLE, account) */\n      jump\t// in\n    tag_245:\n        /* \"Permissions2.sol\":5458:5567  function removeFreezer(address account) public onlyOwner {... */\n      pop\n      jump\t// out\n        /* \"@openzeppelin/contracts/access/AccessControl.sol\":4226:4362  function grantRole(bytes32 role, address account) public virtual onlyRole(getRoleAdmin(role)) {... */\n    tag_105:\n        /* \"@openzeppelin/contracts/access/AccessControl.sol\":4300:4318  getRoleAdmin(role) */\n      tag_246\n        /* \"@openzeppelin/contracts/access/AccessControl.sol\":4313:4317  role */\n      dup3\n        /* \"@openzeppelin/contracts/access/AccessControl.sol\":4300:4312  getRoleAdmin */\n      tag_94\n        /* \"@openzeppelin/contracts/access/AccessControl.sol\":4300:4318  getRoleAdmin(role) */\n      jump\t// in\n    tag_246:\n        /* \"@openzeppelin/contracts/access/AccessControl.sol\":2464:2480  _checkRole(role) */\n      tag_248\n        /* \"@openzeppelin/contracts/access/AccessControl.sol\":2475:2479  role */\n      dup2\n        /* \"@openzeppelin/contracts/access/AccessControl.sol\":2464:2474  _checkRole */\n      tag_232\n        /* \"@openzeppelin/contracts/access/AccessControl.sol\":2464:2480  _checkRole(role) */\n      jump\t// in\n    tag_248:\n        /* \"@openzeppelin/contracts/access/AccessControl.sol\":4330:4355  _grantRole(role, account) */\n      tag_250\n        /* \"@openzeppelin/contracts/access/AccessControl.sol\":4341:4345  role */\n      dup4\n        /* \"@openzeppelin/contracts/access/AccessControl.sol\":4347:4354  account */\n      dup4\n        /* \"@openzeppelin/contracts/access/AccessControl.sol\":4330:4340  _grantRole */\n      tag_251\n        /* \"@openzeppelin/contracts/access/AccessControl.sol\":4330:4355  _grantRole(role, account) */\n      jump\t// in\n    tag_250:\n      pop\n        /* \"@openzeppelin/contracts/access/AccessControl.sol\":4226:4362  function grantRole(bytes32 role, address account) public virtual onlyRole(getRoleAdmin(role)) {... */\n      pop\n      pop\n      pop\n      jump\t// out\n        /* \"Permissions2.sol\":4730:4837  function removeMinter(address account) public onlyOwner {... */\n    tag_108:\n        /* \"@openzeppelin/contracts/access/Ownable.sol\":1531:1544  _checkOwner() */\n      tag_253\n        /* \"@openzeppelin/contracts/access/Ownable.sol\":1531:1542  _checkOwner */\n      tag_210\n        /* \"@openzeppelin/contracts/access/Ownable.sol\":1531:1544  _checkOwner() */\n      jump\t// in\n    tag_253:\n        /* \"Permissions2.sol\":4797:4829  revokeRole(MINTER_ROLE, account) */\n      tag_255\n        /* \"Permissions2.sol\":510:534  keccak256(\"MINTER_ROLE\") */\n      0x9f2df0fed2c77648de5860a4cc508cd0818c85b8b8a1ab4ceeef8d981c8956a6\n        /* \"Permissions2.sol\":4821:4828  account */\n      dup3\n        /* \"Permissions2.sol\":4797:4807  revokeRole */\n      tag_181\n        /* \"Permissions2.sol\":4797:4829  revokeRole(MINTER_ROLE, account) */\n      jump\t// in\n    tag_255:\n        /* \"Permissions2.sol\":4730:4837  function removeMinter(address account) public onlyOwner {... */\n      pop\n      jump\t// out\n        /* \"@openzeppelin/contracts/token/ERC20/ERC20.sol\":3002:3084  function decimals() public view virtual returns (uint8) {... */\n    tag_110:\n        /* \"@openzeppelin/contracts/token/ERC20/ERC20.sol\":3051:3056  uint8 */\n      0x00\n        /* \"@openzeppelin/contracts/token/ERC20/ERC20.sol\":3075:3077  18 */\n      0x12\n        /* \"@openzeppelin/contracts/token/ERC20/ERC20.sol\":3068:3077  return 18 */\n      swap1\n      pop\n        /* \"@openzeppelin/contracts/token/ERC20/ERC20.sol\":3002:3084  function decimals() public view virtual returns (uint8) {... */\n      swap1\n      jump\t// out\n        /* \"@openzeppelin/contracts/access/AccessControl.sol\":5328:5573  function renounceRole(bytes32 role, address callerConfirmation) public virtual {... */\n    tag_115:\n        /* \"@openzeppelin/contracts/access/AccessControl.sol\":5443:5455  _msgSender() */\n      tag_258\n        /* \"@openzeppelin/contracts/access/AccessControl.sol\":5443:5453  _msgSender */\n      tag_222\n        /* \"@openzeppelin/contracts/access/AccessControl.sol\":5443:5455  _msgSender() */\n      jump\t// in\n    tag_258:\n        /* \"@openzeppelin/contracts/access/AccessControl.sol\":5421:5455  callerConfirmation != _msgSender() */\n      0xffffffffffffffffffffffffffffffffffffffff\n      and\n        /* \"@openzeppelin/contracts/access/AccessControl.sol\":5421:5439  callerConfirmation */\n      dup2\n        /* \"@openzeppelin/contracts/access/AccessControl.sol\":5421:5455  callerConfirmation != _msgSender() */\n      0xffffffffffffffffffffffffffffffffffffffff\n      and\n      eq\n        /* \"@openzeppelin/contracts/access/AccessControl.sol\":5417:5519  if (callerConfirmation != _msgSender()) {... */\n      tag_259\n      jumpi\n        /* \"@openzeppelin/contracts/access/AccessControl.sol\":5478:5508  AccessControlBadConfirmation() */\n      mload(0x40)\n      0x6697b23200000000000000000000000000000000000000000000000000000000\n      dup2\n      mstore\n      0x04\n      add\n      mload(0x40)\n      dup1\n      swap2\n      sub\n      swap1\n      revert\n        /* \"@openzeppelin/contracts/access/AccessControl.sol\":5417:5519  if (callerConfirmation != _msgSender()) {... */\n    tag_259:\n        /* \"@openzeppelin/contracts/access/AccessControl.sol\":5529:5566  _revokeRole(role, callerConfirmation) */\n      tag_260\n        /* \"@openzeppelin/contracts/access/AccessControl.sol\":5541:5545  role */\n      dup3\n        /* \"@openzeppelin/contracts/access/AccessControl.sol\":5547:5565  callerConfirmation */\n      dup3\n        /* \"@openzeppelin/contracts/access/AccessControl.sol\":5529:5540  _revokeRole */\n      tag_261\n        /* \"@openzeppelin/contracts/access/AccessControl.sol\":5529:5566  _revokeRole(role, callerConfirmation) */\n      jump\t// in\n    tag_260:\n      pop\n        /* \"@openzeppelin/contracts/access/AccessControl.sol\":5328:5573  function renounceRole(bytes32 role, address callerConfirmation) public virtual {... */\n      pop\n      pop\n      jump\t// out\n        /* \"Permissions2.sol\":1585:1692  function mint(address to, uint256 amount) public onlyRole(MINTER_ROLE) {... */\n    tag_118:\n        /* \"Permissions2.sol\":510:534  keccak256(\"MINTER_ROLE\") */\n      0x9f2df0fed2c77648de5860a4cc508cd0818c85b8b8a1ab4ceeef8d981c8956a6\n        /* \"@openzeppelin/contracts/access/AccessControl.sol\":2464:2480  _checkRole(role) */\n      tag_263\n        /* \"@openzeppelin/contracts/access/AccessControl.sol\":2475:2479  role */\n      dup2\n        /* \"@openzeppelin/contracts/access/AccessControl.sol\":2464:2474  _checkRole */\n      tag_232\n        /* \"@openzeppelin/contracts/access/AccessControl.sol\":2464:2480  _checkRole(role) */\n      jump\t// in\n    tag_263:\n        /* \"Permissions2.sol\":1667:1684  _mint(to, amount) */\n      tag_265\n        /* \"Permissions2.sol\":1673:1675  to */\n      dup4\n        /* \"Permissions2.sol\":1677:1683  amount */\n      dup4\n        /* \"Permissions2.sol\":1667:1672  _mint */\n      tag_266\n        /* \"Permissions2.sol\":1667:1684  _mint(to, amount) */\n      jump\t// in\n    tag_265:\n        /* \"Permissions2.sol\":1585:1692  function mint(address to, uint256 amount) public onlyRole(MINTER_ROLE) {... */\n      pop\n      pop\n      pop\n      jump\t// out\n        /* \"Permissions2.sol\":681:765  bytes32 public constant BLACKLIST_MANAGER_ROLE = keccak256(\"BLACKLIST_MANAGER_ROLE\") */\n    tag_120:\n        /* \"Permissions2.sol\":730:765  keccak256(\"BLACKLIST_MANAGER_ROLE\") */\n      0xf988e4fb62b8e14f4820fed03192306ddf4d7dbfa215595ba1c6ba4b76b369ee\n        /* \"Permissions2.sol\":681:765  bytes32 public constant BLACKLIST_MANAGER_ROLE = keccak256(\"BLACKLIST_MANAGER_ROLE\") */\n      dup2\n      jump\t// out\n        /* \"Permissions2.sol\":2888:3112  function addToBlacklist(address account) public onlyRole(BLACKLIST_MANAGER_ROLE) {... */\n    tag_124:\n        /* \"Permissions2.sol\":730:765  keccak256(\"BLACKLIST_MANAGER_ROLE\") */\n      0xf988e4fb62b8e14f4820fed03192306ddf4d7dbfa215595ba1c6ba4b76b369ee\n        /* \"@openzeppelin/contracts/access/AccessControl.sol\":2464:2480  _checkRole(role) */\n      tag_268\n        /* \"@openzeppelin/contracts/access/AccessControl.sol\":2475:2479  role */\n      dup2\n        /* \"@openzeppelin/contracts/access/AccessControl.sol\":2464:2474  _checkRole */\n      tag_232\n        /* \"@openzeppelin/contracts/access/AccessControl.sol\":2464:2480  _checkRole(role) */\n      jump\t// in\n    tag_268:\n        /* \"Permissions2.sol\":2989:3026  blacklistedAccounts.contains(account) */\n      tag_270\n        /* \"Permissions2.sol\":3018:3025  account */\n      dup3\n        /* \"Permissions2.sol\":2989:3008  blacklistedAccounts */\n      0x09\n        /* \"Permissions2.sol\":2989:3017  blacklistedAccounts.contains */\n      tag_271\n      swap1\n        /* \"Permissions2.sol\":2989:3026  blacklistedAccounts.contains(account) */\n      swap2\n      swap1\n      0xffffffff\n      and\n      jump\t// in\n    tag_270:\n        /* \"Permissions2.sol\":2988:3026  !blacklistedAccounts.contains(account) */\n      iszero\n        /* \"Permissions2.sol\":2980:3061  require(!blacklistedAccounts.contains(account), \"Account is already blacklisted\") */\n      tag_272\n      jumpi\n      mload(0x40)\n      0x08c379a000000000000000000000000000000000000000000000000000000000\n      dup2\n      mstore\n      0x04\n      add\n      tag_273\n      swap1\n      tag_274\n      jump\t// in\n    tag_273:\n      mload(0x40)\n      dup1\n      swap2\n      sub\n      swap1\n      revert\n    tag_272:\n        /* \"Permissions2.sol\":3072:3104  blacklistedAccounts.add(account) */\n      tag_275\n        /* \"Permissions2.sol\":3096:3103  account */\n      dup3\n        /* \"Permissions2.sol\":3072:3091  blacklistedAccounts */\n      0x09\n        /* \"Permissions2.sol\":3072:3095  blacklistedAccounts.add */\n      tag_276\n      swap1\n        /* \"Permissions2.sol\":3072:3104  blacklistedAccounts.add(account) */\n      swap2\n      swap1\n      0xffffffff\n      and\n      jump\t// in\n    tag_275:\n      pop\n        /* \"Permissions2.sol\":2888:3112  function addToBlacklist(address account) public onlyRole(BLACKLIST_MANAGER_ROLE) {... */\n      pop\n      pop\n      jump\t// out\n        /* \"Permissions2.sol\":5276:5381  function addFreezer(address account) public onlyOwner {... */\n    tag_127:\n        /* \"@openzeppelin/contracts/access/Ownable.sol\":1531:1544  _checkOwner() */\n      tag_278\n        /* \"@openzeppelin/contracts/access/Ownable.sol\":1531:1542  _checkOwner */\n      tag_210\n        /* \"@openzeppelin/contracts/access/Ownable.sol\":1531:1544  _checkOwner() */\n      jump\t// in\n    tag_278:\n        /* \"Permissions2.sol\":5341:5373  grantRole(FREEZER_ROLE, account) */\n      tag_280\n        /* \"Permissions2.sol\":649:674  keccak256(\"FREEZER_ROLE\") */\n      0x92de27771f92d6942691d73358b3a4673e4880de8356f8f2cf452be87e02d363\n        /* \"Permissions2.sol\":5365:5372  account */\n      dup3\n        /* \"Permissions2.sol\":5341:5350  grantRole */\n      tag_105\n        /* \"Permissions2.sol\":5341:5373  grantRole(FREEZER_ROLE, account) */\n      jump\t// in\n    tag_280:\n        /* \"Permissions2.sol\":5276:5381  function addFreezer(address account) public onlyOwner {... */\n      pop\n      jump\t// out\n        /* \"Permissions2.sol\":3192:3419  function removeFromBlacklist(address account) public onlyRole(BLACKLIST_MANAGER_ROLE) {... */\n    tag_130:\n        /* \"Permissions2.sol\":730:765  keccak256(\"BLACKLIST_MANAGER_ROLE\") */\n      0xf988e4fb62b8e14f4820fed03192306ddf4d7dbfa215595ba1c6ba4b76b369ee\n        /* \"@openzeppelin/contracts/access/AccessControl.sol\":2464:2480  _checkRole(role) */\n      tag_282\n        /* \"@openzeppelin/contracts/access/AccessControl.sol\":2475:2479  role */\n      dup2\n        /* \"@openzeppelin/contracts/access/AccessControl.sol\":2464:2474  _checkRole */\n      tag_232\n        /* \"@openzeppelin/contracts/access/AccessControl.sol\":2464:2480  _checkRole(role) */\n      jump\t// in\n    tag_282:\n        /* \"Permissions2.sol\":3297:3334  blacklistedAccounts.contains(account) */\n      tag_284\n        /* \"Permissions2.sol\":3326:3333  account */\n      dup3\n        /* \"Permissions2.sol\":3297:3316  blacklistedAccounts */\n      0x09\n        /* \"Permissions2.sol\":3297:3325  blacklistedAccounts.contains */\n      tag_271\n      swap1\n        /* \"Permissions2.sol\":3297:3334  blacklistedAccounts.contains(account) */\n      swap2\n      swap1\n      0xffffffff\n      and\n      jump\t// in\n    tag_284:\n        /* \"Permissions2.sol\":3289:3365  require(blacklistedAccounts.contains(account), \"Account is not blacklisted\") */\n      tag_285\n      jumpi\n      mload(0x40)\n      0x08c379a000000000000000000000000000000000000000000000000000000000\n      dup2\n      mstore\n      0x04\n      add\n      tag_286\n      swap1\n      tag_287\n      jump\t// in\n    tag_286:\n      mload(0x40)\n      dup1\n      swap2\n      sub\n      swap1\n      revert\n    tag_285:\n        /* \"Permissions2.sol\":3376:3411  blacklistedAccounts.remove(account) */\n      tag_288\n        /* \"Permissions2.sol\":3403:3410  account */\n      dup3\n        /* \"Permissions2.sol\":3376:3395  blacklistedAccounts */\n      0x09\n        /* \"Permissions2.sol\":3376:3402  blacklistedAccounts.remove */\n      tag_289\n      swap1\n        /* \"Permissions2.sol\":3376:3411  blacklistedAccounts.remove(account) */\n      swap2\n      swap1\n      0xffffffff\n      and\n      jump\t// in\n    tag_288:\n      pop\n        /* \"Permissions2.sol\":3192:3419  function removeFromBlacklist(address account) public onlyRole(BLACKLIST_MANAGER_ROLE) {... */\n      pop\n      pop\n      jump\t// out\n        /* \"@openzeppelin/contracts/token/ERC20/ERC20.sol\":3299:3415  function balanceOf(address account) public view virtual returns (uint256) {... */\n    tag_133:\n        /* \"@openzeppelin/contracts/token/ERC20/ERC20.sol\":3364:3371  uint256 */\n      0x00\n        /* \"@openzeppelin/contracts/token/ERC20/ERC20.sol\":3390:3399  _balances */\n      dup1\n        /* \"@openzeppelin/contracts/token/ERC20/ERC20.sol\":3390:3408  _balances[account] */\n      0x00\n        /* \"@openzeppelin/contracts/token/ERC20/ERC20.sol\":3400:3407  account */\n      dup4\n        /* \"@openzeppelin/contracts/token/ERC20/ERC20.sol\":3390:3408  _balances[account] */\n      0xffffffffffffffffffffffffffffffffffffffff\n      and\n      0xffffffffffffffffffffffffffffffffffffffff\n      and\n      dup2\n      mstore\n      0x20\n      add\n      swap1\n      dup2\n      mstore\n      0x20\n      add\n      0x00\n      keccak256\n      sload\n        /* \"@openzeppelin/contracts/token/ERC20/ERC20.sol\":3383:3408  return _balances[account] */\n      swap1\n      pop\n        /* \"@openzeppelin/contracts/token/ERC20/ERC20.sol\":3299:3415  function balanceOf(address account) public view virtual returns (uint256) {... */\n      swap2\n      swap1\n      pop\n      jump\t// out\n        /* \"@openzeppelin/contracts/access/Ownable.sol\":2293:2394  function renounceOwnership() public virtual onlyOwner {... */\n    tag_136:\n        /* \"@openzeppelin/contracts/access/Ownable.sol\":1531:1544  _checkOwner() */\n      tag_292\n        /* \"@openzeppelin/contracts/access/Ownable.sol\":1531:1542  _checkOwner */\n      tag_210\n        /* \"@openzeppelin/contracts/access/Ownable.sol\":1531:1544  _checkOwner() */\n      jump\t// in\n    tag_292:\n        /* \"@openzeppelin/contracts/access/Ownable.sol\":2357:2387  _transferOwnership(address(0)) */\n      tag_294\n        /* \"@openzeppelin/contracts/access/Ownable.sol\":2384:2385  0 */\n      0x00\n        /* \"@openzeppelin/contracts/access/Ownable.sol\":2357:2375  _transferOwnership */\n      tag_295\n        /* \"@openzeppelin/contracts/access/Ownable.sol\":2357:2387  _transferOwnership(address(0)) */\n      jump\t// in\n    tag_294:\n        /* \"@openzeppelin/contracts/access/Ownable.sol\":2293:2394  function renounceOwnership() public virtual onlyOwner {... */\n      jump\t// out\n        /* \"Permissions2.sol\":2309:2507  function unfreezeAccount(address account) public onlyRole(FREEZER_ROLE) {... */\n    tag_139:\n        /* \"Permissions2.sol\":649:674  keccak256(\"FREEZER_ROLE\") */\n      0x92de27771f92d6942691d73358b3a4673e4880de8356f8f2cf452be87e02d363\n        /* \"@openzeppelin/contracts/access/AccessControl.sol\":2464:2480  _checkRole(role) */\n      tag_297\n        /* \"@openzeppelin/contracts/access/AccessControl.sol\":2475:2479  role */\n      dup2\n        /* \"@openzeppelin/contracts/access/AccessControl.sol\":2464:2474  _checkRole */\n      tag_232\n        /* \"@openzeppelin/contracts/access/AccessControl.sol\":2464:2480  _checkRole(role) */\n      jump\t// in\n    tag_297:\n        /* \"Permissions2.sol\":2400:2432  frozenAccounts.contains(account) */\n      tag_299\n        /* \"Permissions2.sol\":2424:2431  account */\n      dup3\n        /* \"Permissions2.sol\":2400:2414  frozenAccounts */\n      0x07\n        /* \"Permissions2.sol\":2400:2423  frozenAccounts.contains */\n      tag_271\n      swap1\n        /* \"Permissions2.sol\":2400:2432  frozenAccounts.contains(account) */\n      swap2\n      swap1\n      0xffffffff\n      and\n      jump\t// in\n    tag_299:\n        /* \"Permissions2.sol\":2392:2458  require(frozenAccounts.contains(account), \"Account is not frozen\") */\n      tag_300\n      jumpi\n      mload(0x40)\n      0x08c379a000000000000000000000000000000000000000000000000000000000\n      dup2\n      mstore\n      0x04\n      add\n      tag_301\n      swap1\n      tag_302\n      jump\t// in\n    tag_301:\n      mload(0x40)\n      dup1\n      swap2\n      sub\n      swap1\n      revert\n    tag_300:\n        /* \"Permissions2.sol\":2469:2499  frozenAccounts.remove(account) */\n      tag_303\n        /* \"Permissions2.sol\":2491:2498  account */\n      dup3\n        /* \"Permissions2.sol\":2469:2483  frozenAccounts */\n      0x07\n        /* \"Permissions2.sol\":2469:2490  frozenAccounts.remove */\n      tag_289\n      swap1\n        /* \"Permissions2.sol\":2469:2499  frozenAccounts.remove(account) */\n      swap2\n      swap1\n      0xffffffff\n      and\n      jump\t// in\n    tag_303:\n      pop\n        /* \"Permissions2.sol\":2309:2507  function unfreezeAccount(address account) public onlyRole(FREEZER_ROLE) {... */\n      pop\n      pop\n      jump\t// out\n        /* \"@openzeppelin/contracts/access/Ownable.sol\":1638:1723  function owner() public view virtual returns (address) {... */\n    tag_141:\n        /* \"@openzeppelin/contracts/access/Ownable.sol\":1684:1691  address */\n      0x00\n        /* \"@openzeppelin/contracts/access/Ownable.sol\":1710:1716  _owner */\n      0x06\n      0x00\n      swap1\n      sload\n      swap1\n      0x0100\n      exp\n      swap1\n      div\n      0xffffffffffffffffffffffffffffffffffffffff\n      and\n        /* \"@openzeppelin/contracts/access/Ownable.sol\":1703:1716  return _owner */\n      swap1\n      pop\n        /* \"@openzeppelin/contracts/access/Ownable.sol\":1638:1723  function owner() public view virtual returns (address) {... */\n      swap1\n      jump\t// out\n        /* \"@openzeppelin/contracts/access/AccessControl.sol\":2854:2990  function hasRole(bytes32 role, address account) public view virtual returns (bool) {... */\n    tag_146:\n        /* \"@openzeppelin/contracts/access/AccessControl.sol\":2931:2935  bool */\n      0x00\n        /* \"@openzeppelin/contracts/access/AccessControl.sol\":2954:2960  _roles */\n      0x05\n        /* \"@openzeppelin/contracts/access/AccessControl.sol\":2954:2966  _roles[role] */\n      0x00\n        /* \"@openzeppelin/contracts/access/AccessControl.sol\":2961:2965  role */\n      dup5\n        /* \"@openzeppelin/contracts/access/AccessControl.sol\":2954:2966  _roles[role] */\n      dup2\n      mstore\n      0x20\n      add\n      swap1\n      dup2\n      mstore\n      0x20\n      add\n      0x00\n      keccak256\n        /* \"@openzeppelin/contracts/access/AccessControl.sol\":2954:2974  _roles[role].hasRole */\n      0x00\n      add\n        /* \"@openzeppelin/contracts/access/AccessControl.sol\":2954:2983  _roles[role].hasRole[account] */\n      0x00\n        /* \"@openzeppelin/contracts/access/AccessControl.sol\":2975:2982  account */\n      dup4\n        /* \"@openzeppelin/contracts/access/AccessControl.sol\":2954:2983  _roles[role].hasRole[account] */\n      0xffffffffffffffffffffffffffffffffffffffff\n      and\n      0xffffffffffffffffffffffffffffffffffffffff\n      and\n      dup2\n      mstore\n      0x20\n      add\n      swap1\n      dup2\n      mstore\n      0x20\n      add\n      0x00\n      keccak256\n      0x00\n      swap1\n      sload\n      swap1\n      0x0100\n      exp\n      swap1\n      div\n      0xff\n      and\n        /* \"@openzeppelin/contracts/access/AccessControl.sol\":2947:2983  return _roles[role].hasRole[account] */\n      swap1\n      pop\n        /* \"@openzeppelin/contracts/access/AccessControl.sol\":2854:2990  function hasRole(bytes32 role, address account) public view virtual returns (bool) {... */\n      swap3\n      swap2\n      pop\n      pop\n      jump\t// out\n        /* \"Permissions2.sol\":772:836  bytes32 public constant RECOVER_ROLE = keccak256(\"RECOVER_ROLE\") */\n    tag_149:\n        /* \"Permissions2.sol\":811:836  keccak256(\"RECOVER_ROLE\") */\n      0x62b337eaefec74dadf1a62e856bf9db4f14a0f27d4f48156a95a9f98e7d5e066\n        /* \"Permissions2.sol\":772:836  bytes32 public constant RECOVER_ROLE = keccak256(\"RECOVER_ROLE\") */\n      dup2\n      jump\t// out\n        /* \"@openzeppelin/contracts/token/ERC20/ERC20.sol\":2276:2369  function symbol() public view virtual returns (string memory) {... */\n    tag_152:\n        /* \"@openzeppelin/contracts/token/ERC20/ERC20.sol\":2323:2336  string memory */\n      0x60\n        /* \"@openzeppelin/contracts/token/ERC20/ERC20.sol\":2355:2362  _symbol */\n      0x04\n        /* \"@openzeppelin/contracts/token/ERC20/ERC20.sol\":2348:2362  return _symbol */\n      dup1\n      sload\n      tag_307\n      swap1\n      tag_215\n      jump\t// in\n    tag_307:\n      dup1\n      0x1f\n      add\n      0x20\n      dup1\n      swap2\n      div\n      mul\n      0x20\n      add\n      mload(0x40)\n      swap1\n      dup2\n      add\n      0x40\n      mstore\n      dup1\n      swap3\n      swap2\n      swap1\n      dup2\n      dup2\n      mstore\n      0x20\n      add\n      dup3\n      dup1\n      sload\n      tag_308\n      swap1\n      tag_215\n      jump\t// in\n    tag_308:\n      dup1\n      iszero\n      tag_309\n      jumpi\n      dup1\n      0x1f\n      lt\n      tag_310\n      jumpi\n      0x0100\n      dup1\n      dup4\n      sload\n      div\n      mul\n      dup4\n      mstore\n      swap2\n      0x20\n      add\n      swap2\n      jump(tag_309)\n    tag_310:\n      dup3\n      add\n      swap2\n      swap1\n      0x00\n      mstore\n      keccak256(0x00, 0x20)\n      swap1\n    tag_311:\n      dup2\n      sload\n      dup2\n      mstore\n      swap1\n      0x01\n      add\n      swap1\n      0x20\n      add\n      dup1\n      dup4\n      gt\n      tag_311\n      jumpi\n      dup3\n      swap1\n      sub\n      0x1f\n      and\n      dup3\n      add\n      swap2\n    tag_309:\n      pop\n      pop\n      pop\n      pop\n      pop\n      swap1\n      pop\n        /* \"@openzeppelin/contracts/token/ERC20/ERC20.sol\":2276:2369  function symbol() public view virtual returns (string memory) {... */\n      swap1\n      jump\t// out\n        /* \"Permissions2.sol\":5865:5993  function removeBlacklistManager(address account) public onlyOwner {... */\n    tag_156:\n        /* \"@openzeppelin/contracts/access/Ownable.sol\":1531:1544  _checkOwner() */\n      tag_313\n        /* \"@openzeppelin/contracts/access/Ownable.sol\":1531:1542  _checkOwner */\n      tag_210\n        /* \"@openzeppelin/contracts/access/Ownable.sol\":1531:1544  _checkOwner() */\n      jump\t// in\n    tag_313:\n        /* \"Permissions2.sol\":5942:5985  revokeRole(BLACKLIST_MANAGER_ROLE, account) */\n      tag_315\n        /* \"Permissions2.sol\":730:765  keccak256(\"BLACKLIST_MANAGER_ROLE\") */\n      0xf988e4fb62b8e14f4820fed03192306ddf4d7dbfa215595ba1c6ba4b76b369ee\n        /* \"Permissions2.sol\":5977:5984  account */\n      dup3\n        /* \"Permissions2.sol\":5942:5952  revokeRole */\n      tag_181\n        /* \"Permissions2.sol\":5942:5985  revokeRole(BLACKLIST_MANAGER_ROLE, account) */\n      jump\t// in\n    tag_315:\n        /* \"Permissions2.sol\":5865:5993  function removeBlacklistManager(address account) public onlyOwner {... */\n      pop\n      jump\t// out\n        /* \"Permissions2.sol\":4551:4654  function addMinter(address account) public onlyOwner {... */\n    tag_159:\n        /* \"@openzeppelin/contracts/access/Ownable.sol\":1531:1544  _checkOwner() */\n      tag_317\n        /* \"@openzeppelin/contracts/access/Ownable.sol\":1531:1542  _checkOwner */\n      tag_210\n        /* \"@openzeppelin/contracts/access/Ownable.sol\":1531:1544  _checkOwner() */\n      jump\t// in\n    tag_317:\n        /* \"Permissions2.sol\":4615:4646  grantRole(MINTER_ROLE, account) */\n      tag_319\n        /* \"Permissions2.sol\":510:534  keccak256(\"MINTER_ROLE\") */\n      0x9f2df0fed2c77648de5860a4cc508cd0818c85b8b8a1ab4ceeef8d981c8956a6\n        /* \"Permissions2.sol\":4638:4645  account */\n      dup3\n        /* \"Permissions2.sol\":4615:4624  grantRole */\n      tag_105\n        /* \"Permissions2.sol\":4615:4646  grantRole(MINTER_ROLE, account) */\n      jump\t// in\n    tag_319:\n        /* \"Permissions2.sol\":4551:4654  function addMinter(address account) public onlyOwner {... */\n      pop\n      jump\t// out\n        /* \"Permissions2.sol\":1742:1853  function burn(address from, uint256 amount) public onlyRole(BURNER_ROLE) {... */\n    tag_162:\n        /* \"Permissions2.sol\":579:603  keccak256(\"BURNER_ROLE\") */\n      0x3c11d16cbaffd01df69ce1c404f6340ee057498f5f00246190ea54220576a848\n        /* \"@openzeppelin/contracts/access/AccessControl.sol\":2464:2480  _checkRole(role) */\n      tag_321\n        /* \"@openzeppelin/contracts/access/AccessControl.sol\":2475:2479  role */\n      dup2\n        /* \"@openzeppelin/contracts/access/AccessControl.sol\":2464:2474  _checkRole */\n      tag_232\n        /* \"@openzeppelin/contracts/access/AccessControl.sol\":2464:2480  _checkRole(role) */\n      jump\t// in\n    tag_321:\n        /* \"Permissions2.sol\":1826:1845  _burn(from, amount) */\n      tag_323\n        /* \"Permissions2.sol\":1832:1836  from */\n      dup4\n        /* \"Permissions2.sol\":1838:1844  amount */\n      dup4\n        /* \"Permissions2.sol\":1826:1831  _burn */\n      tag_324\n        /* \"Permissions2.sol\":1826:1845  _burn(from, amount) */\n      jump\t// in\n    tag_323:\n        /* \"Permissions2.sol\":1742:1853  function burn(address from, uint256 amount) public onlyRole(BURNER_ROLE) {... */\n      pop\n      pop\n      pop\n      jump\t// out\n        /* \"@openzeppelin/contracts/access/AccessControl.sol\":2187:2236  bytes32 public constant DEFAULT_ADMIN_ROLE = 0x00 */\n    tag_164:\n        /* \"@openzeppelin/contracts/access/AccessControl.sol\":2232:2236  0x00 */\n      0x00\n        /* \"@openzeppelin/contracts/access/AccessControl.sol\":2187:2236  bytes32 public constant DEFAULT_ADMIN_ROLE = 0x00 */\n      dup1\n      shl\n      dup2\n      jump\t// out\n        /* \"Permissions2.sol\":3975:4475  function transfer(address to, uint256 amount) public virtual override returns (bool) {... */\n    tag_168:\n        /* \"Permissions2.sol\":4054:4058  bool */\n      0x00\n        /* \"Permissions2.sol\":4071:4084  address owner */\n      dup1\n        /* \"Permissions2.sol\":4087:4099  _msgSender() */\n      tag_326\n        /* \"Permissions2.sol\":4087:4097  _msgSender */\n      tag_222\n        /* \"Permissions2.sol\":4087:4099  _msgSender() */\n      jump\t// in\n    tag_326:\n        /* \"Permissions2.sol\":4071:4099  address owner = _msgSender() */\n      swap1\n      pop\n        /* \"Permissions2.sol\":4119:4149  frozenAccounts.contains(owner) */\n      tag_327\n        /* \"Permissions2.sol\":4143:4148  owner */\n      dup2\n        /* \"Permissions2.sol\":4119:4133  frozenAccounts */\n      0x07\n        /* \"Permissions2.sol\":4119:4142  frozenAccounts.contains */\n      tag_271\n      swap1\n        /* \"Permissions2.sol\":4119:4149  frozenAccounts.contains(owner) */\n      swap2\n      swap1\n      0xffffffff\n      and\n      jump\t// in\n    tag_327:\n        /* \"Permissions2.sol\":4118:4149  !frozenAccounts.contains(owner) */\n      iszero\n        /* \"Permissions2.sol\":4110:4178  require(!frozenAccounts.contains(owner), \"Sender account is frozen\") */\n      tag_328\n      jumpi\n      mload(0x40)\n      0x08c379a000000000000000000000000000000000000000000000000000000000\n      dup2\n      mstore\n      0x04\n      add\n      tag_329\n      swap1\n      tag_330\n      jump\t// in\n    tag_329:\n      mload(0x40)\n      dup1\n      swap2\n      sub\n      swap1\n      revert\n    tag_328:\n        /* \"Permissions2.sol\":4198:4233  blacklistedAccounts.contains(owner) */\n      tag_331\n        /* \"Permissions2.sol\":4227:4232  owner */\n      dup2\n        /* \"Permissions2.sol\":4198:4217  blacklistedAccounts */\n      0x09\n        /* \"Permissions2.sol\":4198:4226  blacklistedAccounts.contains */\n      tag_271\n      swap1\n        /* \"Permissions2.sol\":4198:4233  blacklistedAccounts.contains(owner) */\n      swap2\n      swap1\n      0xffffffff\n      and\n      jump\t// in\n    tag_331:\n        /* \"Permissions2.sol\":4197:4233  !blacklistedAccounts.contains(owner) */\n      iszero\n        /* \"Permissions2.sol\":4189:4267  require(!blacklistedAccounts.contains(owner), \"Sender account is blacklisted\") */\n      tag_332\n      jumpi\n      mload(0x40)\n      0x08c379a000000000000000000000000000000000000000000000000000000000\n      dup2\n      mstore\n      0x04\n      add\n      tag_333\n      swap1\n      tag_334\n      jump\t// in\n    tag_333:\n      mload(0x40)\n      dup1\n      swap2\n      sub\n      swap1\n      revert\n    tag_332:\n        /* \"Permissions2.sol\":4287:4319  blacklistedAccounts.contains(to) */\n      tag_335\n        /* \"Permissions2.sol\":4316:4318  to */\n      dup5\n        /* \"Permissions2.sol\":4287:4306  blacklistedAccounts */\n      0x09\n        /* \"Permissions2.sol\":4287:4315  blacklistedAccounts.contains */\n      tag_271\n      swap1\n        /* \"Permissions2.sol\":4287:4319  blacklistedAccounts.contains(to) */\n      swap2\n      swap1\n      0xffffffff\n      and\n      jump\t// in\n    tag_335:\n        /* \"Permissions2.sol\":4286:4319  !blacklistedAccounts.contains(to) */\n      iszero\n        /* \"Permissions2.sol\":4278:4356  require(!blacklistedAccounts.contains(to), \"Recipient account is blacklisted\") */\n      tag_336\n      jumpi\n      mload(0x40)\n      0x08c379a000000000000000000000000000000000000000000000000000000000\n      dup2\n      mstore\n      0x04\n      add\n      tag_337\n      swap1\n      tag_338\n      jump\t// in\n    tag_337:\n      mload(0x40)\n      dup1\n      swap2\n      sub\n      swap1\n      revert\n    tag_336:\n        /* \"Permissions2.sol\":4376:4402  super.transfer(to, amount) */\n      tag_339\n        /* \"Permissions2.sol\":4391:4393  to */\n      dup5\n        /* \"Permissions2.sol\":4395:4401  amount */\n      dup5\n        /* \"Permissions2.sol\":4376:4390  super.transfer */\n      tag_340\n        /* \"Permissions2.sol\":4376:4402  super.transfer(to, amount) */\n      jump\t// in\n    tag_339:\n        /* \"Permissions2.sol\":4369:4402  return super.transfer(to, amount) */\n      swap2\n      pop\n      pop\n        /* \"Permissions2.sol\":3975:4475  function transfer(address to, uint256 amount) public virtual override returns (bool) {... */\n      swap3\n      swap2\n      pop\n      pop\n      jump\t// out\n        /* \"Permissions2.sol\":6070:6177  function addRecoverer(address account) public onlyOwner {... */\n    tag_172:\n        /* \"@openzeppelin/contracts/access/Ownable.sol\":1531:1544  _checkOwner() */\n      tag_342\n        /* \"@openzeppelin/contracts/access/Ownable.sol\":1531:1542  _checkOwner */\n      tag_210\n        /* \"@openzeppelin/contracts/access/Ownable.sol\":1531:1544  _checkOwner() */\n      jump\t// in\n    tag_342:\n        /* \"Permissions2.sol\":6137:6169  grantRole(RECOVER_ROLE, account) */\n      tag_344\n        /* \"Permissions2.sol\":811:836  keccak256(\"RECOVER_ROLE\") */\n      0x62b337eaefec74dadf1a62e856bf9db4f14a0f27d4f48156a95a9f98e7d5e066\n        /* \"Permissions2.sol\":6161:6168  account */\n      dup3\n        /* \"Permissions2.sol\":6137:6146  grantRole */\n      tag_105\n        /* \"Permissions2.sol\":6137:6169  grantRole(RECOVER_ROLE, account) */\n      jump\t// in\n    tag_344:\n        /* \"Permissions2.sol\":6070:6177  function addRecoverer(address account) public onlyOwner {... */\n      pop\n      jump\t// out\n        /* \"Permissions2.sol\":6254:6365  function removeRecoverer(address account) public onlyOwner {... */\n    tag_175:\n        /* \"@openzeppelin/contracts/access/Ownable.sol\":1531:1544  _checkOwner() */\n      tag_346\n        /* \"@openzeppelin/contracts/access/Ownable.sol\":1531:1542  _checkOwner */\n      tag_210\n        /* \"@openzeppelin/contracts/access/Ownable.sol\":1531:1544  _checkOwner() */\n      jump\t// in\n    tag_346:\n        /* \"Permissions2.sol\":6324:6357  revokeRole(RECOVER_ROLE, account) */\n      tag_348\n        /* \"Permissions2.sol\":811:836  keccak256(\"RECOVER_ROLE\") */\n      0x62b337eaefec74dadf1a62e856bf9db4f14a0f27d4f48156a95a9f98e7d5e066\n        /* \"Permissions2.sol\":6349:6356  account */\n      dup3\n        /* \"Permissions2.sol\":6324:6334  revokeRole */\n      tag_181\n        /* \"Permissions2.sol\":6324:6357  revokeRole(RECOVER_ROLE, account) */\n      jump\t// in\n    tag_348:\n        /* \"Permissions2.sol\":6254:6365  function removeRecoverer(address account) public onlyOwner {... */\n      pop\n      jump\t// out\n        /* \"Permissions2.sol\":472:534  bytes32 public constant MINTER_ROLE = keccak256(\"MINTER_ROLE\") */\n    tag_177:\n        /* \"Permissions2.sol\":510:534  keccak256(\"MINTER_ROLE\") */\n      0x9f2df0fed2c77648de5860a4cc508cd0818c85b8b8a1ab4ceeef8d981c8956a6\n        /* \"Permissions2.sol\":472:534  bytes32 public constant MINTER_ROLE = keccak256(\"MINTER_ROLE\") */\n      dup2\n      jump\t// out\n        /* \"@openzeppelin/contracts/access/AccessControl.sol\":4642:4780  function revokeRole(bytes32 role, address account) public virtual onlyRole(getRoleAdmin(role)) {... */\n    tag_181:\n        /* \"@openzeppelin/contracts/access/AccessControl.sol\":4717:4735  getRoleAdmin(role) */\n      tag_349\n        /* \"@openzeppelin/contracts/access/AccessControl.sol\":4730:4734  role */\n      dup3\n        /* \"@openzeppelin/contracts/access/AccessControl.sol\":4717:4729  getRoleAdmin */\n      tag_94\n        /* \"@openzeppelin/contracts/access/AccessControl.sol\":4717:4735  getRoleAdmin(role) */\n      jump\t// in\n    tag_349:\n        /* \"@openzeppelin/contracts/access/AccessControl.sol\":2464:2480  _checkRole(role) */\n      tag_351\n        /* \"@openzeppelin/contracts/access/AccessControl.sol\":2475:2479  role */\n      dup2\n        /* \"@openzeppelin/contracts/access/AccessControl.sol\":2464:2474  _checkRole */\n      tag_232\n        /* \"@openzeppelin/contracts/access/AccessControl.sol\":2464:2480  _checkRole(role) */\n      jump\t// in\n    tag_351:\n        /* \"@openzeppelin/contracts/access/AccessControl.sol\":4747:4773  _revokeRole(role, account) */\n      tag_353\n        /* \"@openzeppelin/contracts/access/AccessControl.sol\":4759:4763  role */\n      dup4\n        /* \"@openzeppelin/contracts/access/AccessControl.sol\":4765:4772  account */\n      dup4\n        /* \"@openzeppelin/contracts/access/AccessControl.sol\":4747:4758  _revokeRole */\n      tag_261\n        /* \"@openzeppelin/contracts/access/AccessControl.sol\":4747:4773  _revokeRole(role, account) */\n      jump\t// in\n    tag_353:\n      pop\n        /* \"@openzeppelin/contracts/access/AccessControl.sol\":4642:4780  function revokeRole(bytes32 role, address account) public virtual onlyRole(getRoleAdmin(role)) {... */\n      pop\n      pop\n      pop\n      jump\t// out\n        /* \"@openzeppelin/contracts/token/ERC20/ERC20.sol\":3846:3986  function allowance(address owner, address spender) public view virtual returns (uint256) {... */\n    tag_185:\n        /* \"@openzeppelin/contracts/token/ERC20/ERC20.sol\":3926:3933  uint256 */\n      0x00\n        /* \"@openzeppelin/contracts/token/ERC20/ERC20.sol\":3952:3963  _allowances */\n      0x01\n        /* \"@openzeppelin/contracts/token/ERC20/ERC20.sol\":3952:3970  _allowances[owner] */\n      0x00\n        /* \"@openzeppelin/contracts/token/ERC20/ERC20.sol\":3964:3969  owner */\n      dup5\n        /* \"@openzeppelin/contracts/token/ERC20/ERC20.sol\":3952:3970  _allowances[owner] */\n      0xffffffffffffffffffffffffffffffffffffffff\n      and\n      0xffffffffffffffffffffffffffffffffffffffff\n      and\n      dup2\n      mstore\n      0x20\n      add\n      swap1\n      dup2\n      mstore\n      0x20\n      add\n      0x00\n      keccak256\n        /* \"@openzeppelin/contracts/token/ERC20/ERC20.sol\":3952:3979  _allowances[owner][spender] */\n      0x00\n        /* \"@openzeppelin/contracts/token/ERC20/ERC20.sol\":3971:3978  spender */\n      dup4\n        /* \"@openzeppelin/contracts/token/ERC20/ERC20.sol\":3952:3979  _allowances[owner][spender] */\n      0xffffffffffffffffffffffffffffffffffffffff\n      and\n      0xffffffffffffffffffffffffffffffffffffffff\n      and\n      dup2\n      mstore\n      0x20\n      add\n      swap1\n      dup2\n      mstore\n      0x20\n      add\n      0x00\n      keccak256\n      sload\n        /* \"@openzeppelin/contracts/token/ERC20/ERC20.sol\":3945:3979  return _allowances[owner][spender] */\n      swap1\n      pop\n        /* \"@openzeppelin/contracts/token/ERC20/ERC20.sol\":3846:3986  function allowance(address owner, address spender) public view virtual returns (uint256) {... */\n      swap3\n      swap2\n      pop\n      pop\n      jump\t// out\n        /* \"Permissions2.sol\":2570:2686  function isFrozen(address account) public view returns (bool) {... */\n    tag_189:\n        /* \"Permissions2.sol\":2626:2630  bool */\n      0x00\n        /* \"Permissions2.sol\":2646:2678  frozenAccounts.contains(account) */\n      tag_356\n        /* \"Permissions2.sol\":2670:2677  account */\n      dup3\n        /* \"Permissions2.sol\":2646:2660  frozenAccounts */\n      0x07\n        /* \"Permissions2.sol\":2646:2669  frozenAccounts.contains */\n      tag_271\n      swap1\n        /* \"Permissions2.sol\":2646:2678  frozenAccounts.contains(account) */\n      swap2\n      swap1\n      0xffffffff\n      and\n      jump\t// in\n    tag_356:\n        /* \"Permissions2.sol\":2639:2678  return frozenAccounts.contains(account) */\n      swap1\n      pop\n        /* \"Permissions2.sol\":2570:2686  function isFrozen(address account) public view returns (bool) {... */\n      swap2\n      swap1\n      pop\n      jump\t// out\n        /* \"Permissions2.sol\":2043:2241  function freezeAccount(address account) public onlyRole(FREEZER_ROLE) {... */\n    tag_193:\n        /* \"Permissions2.sol\":649:674  keccak256(\"FREEZER_ROLE\") */\n      0x92de27771f92d6942691d73358b3a4673e4880de8356f8f2cf452be87e02d363\n        /* \"@openzeppelin/contracts/access/AccessControl.sol\":2464:2480  _checkRole(role) */\n      tag_358\n        /* \"@openzeppelin/contracts/access/AccessControl.sol\":2475:2479  role */\n      dup2\n        /* \"@openzeppelin/contracts/access/AccessControl.sol\":2464:2474  _checkRole */\n      tag_232\n        /* \"@openzeppelin/contracts/access/AccessControl.sol\":2464:2480  _checkRole(role) */\n      jump\t// in\n    tag_358:\n        /* \"Permissions2.sol\":2133:2165  frozenAccounts.contains(account) */\n      tag_360\n        /* \"Permissions2.sol\":2157:2164  account */\n      dup3\n        /* \"Permissions2.sol\":2133:2147  frozenAccounts */\n      0x07\n        /* \"Permissions2.sol\":2133:2156  frozenAccounts.contains */\n      tag_271\n      swap1\n        /* \"Permissions2.sol\":2133:2165  frozenAccounts.contains(account) */\n      swap2\n      swap1\n      0xffffffff\n      and\n      jump\t// in\n    tag_360:\n        /* \"Permissions2.sol\":2132:2165  !frozenAccounts.contains(account) */\n      iszero\n        /* \"Permissions2.sol\":2124:2195  require(!frozenAccounts.contains(account), \"Account is already frozen\") */\n      tag_361\n      jumpi\n      mload(0x40)\n      0x08c379a000000000000000000000000000000000000000000000000000000000\n      dup2\n      mstore\n      0x04\n      add\n      tag_362\n      swap1\n      tag_363\n      jump\t// in\n    tag_362:\n      mload(0x40)\n      dup1\n      swap2\n      sub\n      swap1\n      revert\n    tag_361:\n        /* \"Permissions2.sol\":2206:2233  frozenAccounts.add(account) */\n      tag_364\n        /* \"Permissions2.sol\":2225:2232  account */\n      dup3\n        /* \"Permissions2.sol\":2206:2220  frozenAccounts */\n      0x07\n        /* \"Permissions2.sol\":2206:2224  frozenAccounts.add */\n      tag_276\n      swap1\n        /* \"Permissions2.sol\":2206:2233  frozenAccounts.add(account) */\n      swap2\n      swap1\n      0xffffffff\n      and\n      jump\t// in\n    tag_364:\n      pop\n        /* \"Permissions2.sol\":2043:2241  function freezeAccount(address account) public onlyRole(FREEZER_ROLE) {... */\n      pop\n      pop\n      jump\t// out\n        /* \"@openzeppelin/contracts/access/Ownable.sol\":2543:2758  function transferOwnership(address newOwner) public virtual onlyOwner {... */\n    tag_196:\n        /* \"@openzeppelin/contracts/access/Ownable.sol\":1531:1544  _checkOwner() */\n      tag_366\n        /* \"@openzeppelin/contracts/access/Ownable.sol\":1531:1542  _checkOwner */\n      tag_210\n        /* \"@openzeppelin/contracts/access/Ownable.sol\":1531:1544  _checkOwner() */\n      jump\t// in\n    tag_366:\n        /* \"@openzeppelin/contracts/access/Ownable.sol\":2647:2648  0 */\n      0x00\n        /* \"@openzeppelin/contracts/access/Ownable.sol\":2627:2649  newOwner == address(0) */\n      0xffffffffffffffffffffffffffffffffffffffff\n      and\n        /* \"@openzeppelin/contracts/access/Ownable.sol\":2627:2635  newOwner */\n      dup2\n        /* \"@openzeppelin/contracts/access/Ownable.sol\":2627:2649  newOwner == address(0) */\n      0xffffffffffffffffffffffffffffffffffffffff\n      and\n      sub\n        /* \"@openzeppelin/contracts/access/Ownable.sol\":2623:2714  if (newOwner == address(0)) {... */\n      tag_368\n      jumpi\n        /* \"@openzeppelin/contracts/access/Ownable.sol\":2700:2701  0 */\n      0x00\n        /* \"@openzeppelin/contracts/access/Ownable.sol\":2672:2703  OwnableInvalidOwner(address(0)) */\n      mload(0x40)\n      0x1e4fbdf700000000000000000000000000000000000000000000000000000000\n      dup2\n      mstore\n      0x04\n      add\n      tag_369\n      swap2\n      swap1\n      tag_143\n      jump\t// in\n    tag_369:\n      mload(0x40)\n      dup1\n      swap2\n      sub\n      swap1\n      revert\n        /* \"@openzeppelin/contracts/access/Ownable.sol\":2623:2714  if (newOwner == address(0)) {... */\n    tag_368:\n        /* \"@openzeppelin/contracts/access/Ownable.sol\":2723:2751  _transferOwnership(newOwner) */\n      tag_370\n        /* \"@openzeppelin/contracts/access/Ownable.sol\":2742:2750  newOwner */\n      dup2\n        /* \"@openzeppelin/contracts/access/Ownable.sol\":2723:2741  _transferOwnership */\n      tag_295\n        /* \"@openzeppelin/contracts/access/Ownable.sol\":2723:2751  _transferOwnership(newOwner) */\n      jump\t// in\n    tag_370:\n        /* \"@openzeppelin/contracts/access/Ownable.sol\":2543:2758  function transferOwnership(address newOwner) public virtual onlyOwner {... */\n      pop\n      jump\t// out\n        /* \"Permissions2.sol\":4913:5016  function addBurner(address account) public onlyOwner {... */\n    tag_199:\n        /* \"@openzeppelin/contracts/access/Ownable.sol\":1531:1544  _checkOwner() */\n      tag_372\n        /* \"@openzeppelin/contracts/access/Ownable.sol\":1531:1542  _checkOwner */\n      tag_210\n        /* \"@openzeppelin/contracts/access/Ownable.sol\":1531:1544  _checkOwner() */\n      jump\t// in\n    tag_372:\n        /* \"Permissions2.sol\":4977:5008  grantRole(BURNER_ROLE, account) */\n      tag_374\n        /* \"Permissions2.sol\":579:603  keccak256(\"BURNER_ROLE\") */\n      0x3c11d16cbaffd01df69ce1c404f6340ee057498f5f00246190ea54220576a848\n        /* \"Permissions2.sol\":5000:5007  account */\n      dup3\n        /* \"Permissions2.sol\":4977:4986  grantRole */\n      tag_105\n        /* \"Permissions2.sol\":4977:5008  grantRole(BURNER_ROLE, account) */\n      jump\t// in\n    tag_374:\n        /* \"Permissions2.sol\":4913:5016  function addBurner(address account) public onlyOwner {... */\n      pop\n      jump\t// out\n        /* \"Permissions2.sol\":3484:3610  function isBlacklisted(address account) public view returns (bool) {... */\n    tag_202:\n        /* \"Permissions2.sol\":3545:3549  bool */\n      0x00\n        /* \"Permissions2.sol\":3565:3602  blacklistedAccounts.contains(account) */\n      tag_376\n        /* \"Permissions2.sol\":3594:3601  account */\n      dup3\n        /* \"Permissions2.sol\":3565:3584  blacklistedAccounts */\n      0x09\n        /* \"Permissions2.sol\":3565:3593  blacklistedAccounts.contains */\n      tag_271\n      swap1\n        /* \"Permissions2.sol\":3565:3602  blacklistedAccounts.contains(account) */\n      swap2\n      swap1\n      0xffffffff\n      and\n      jump\t// in\n    tag_376:\n        /* \"Permissions2.sol\":3558:3602  return blacklistedAccounts.contains(account) */\n      swap1\n      pop\n        /* \"Permissions2.sol\":3484:3610  function isBlacklisted(address account) public view returns (bool) {... */\n      swap2\n      swap1\n      pop\n      jump\t// out\n        /* \"@openzeppelin/contracts/utils/introspection/ERC165.sol\":762:908  function supportsInterface(bytes4 interfaceId) public view virtual returns (bool) {... */\n    tag_207:\n        /* \"@openzeppelin/contracts/utils/introspection/ERC165.sol\":838:842  bool */\n      0x00\n        /* \"@openzeppelin/contracts/utils/introspection/ERC165.sol\":876:901  type(IERC165).interfaceId */\n      0x01ffc9a700000000000000000000000000000000000000000000000000000000\n        /* \"@openzeppelin/contracts/utils/introspection/ERC165.sol\":861:901  interfaceId == type(IERC165).interfaceId */\n      not(0xffffffffffffffffffffffffffffffffffffffffffffffffffffffff)\n      and\n        /* \"@openzeppelin/contracts/utils/introspection/ERC165.sol\":861:872  interfaceId */\n      dup3\n        /* \"@openzeppelin/contracts/utils/introspection/ERC165.sol\":861:901  interfaceId == type(IERC165).interfaceId */\n      not(0xffffffffffffffffffffffffffffffffffffffffffffffffffffffff)\n      and\n      eq\n        /* \"@openzeppelin/contracts/utils/introspection/ERC165.sol\":854:901  return interfaceId == type(IERC165).interfaceId */\n      swap1\n      pop\n        /* \"@openzeppelin/contracts/utils/introspection/ERC165.sol\":762:908  function supportsInterface(bytes4 interfaceId) public view virtual returns (bool) {... */\n      swap2\n      swap1\n      pop\n      jump\t// out\n        /* \"@openzeppelin/contracts/access/Ownable.sol\":1796:1958  function _checkOwner() internal view virtual {... */\n    tag_210:\n        /* \"@openzeppelin/contracts/access/Ownable.sol\":1866:1878  _msgSender() */\n      tag_379\n        /* \"@openzeppelin/contracts/access/Ownable.sol\":1866:1876  _msgSender */\n      tag_222\n        /* \"@openzeppelin/contracts/access/Ownable.sol\":1866:1878  _msgSender() */\n      jump\t// in\n    tag_379:\n        /* \"@openzeppelin/contracts/access/Ownable.sol\":1855:1878  owner() != _msgSender() */\n      0xffffffffffffffffffffffffffffffffffffffff\n      and\n        /* \"@openzeppelin/contracts/access/Ownable.sol\":1855:1862  owner() */\n      tag_380\n        /* \"@openzeppelin/contracts/access/Ownable.sol\":1855:1860  owner */\n      tag_141\n        /* \"@openzeppelin/contracts/access/Ownable.sol\":1855:1862  owner() */\n      jump\t// in\n    tag_380:\n        /* \"@openzeppelin/contracts/access/Ownable.sol\":1855:1878  owner() != _msgSender() */\n      0xffffffffffffffffffffffffffffffffffffffff\n      and\n      eq\n        /* \"@openzeppelin/contracts/access/Ownable.sol\":1851:1952  if (owner() != _msgSender()) {... */\n      tag_381\n      jumpi\n        /* \"@openzeppelin/contracts/access/Ownable.sol\":1928:1940  _msgSender() */\n      tag_382\n        /* \"@openzeppelin/contracts/access/Ownable.sol\":1928:1938  _msgSender */\n      tag_222\n        /* \"@openzeppelin/contracts/access/Ownable.sol\":1928:1940  _msgSender() */\n      jump\t// in\n    tag_382:\n        /* \"@openzeppelin/contracts/access/Ownable.sol\":1901:1941  OwnableUnauthorizedAccount(_msgSender()) */\n      mload(0x40)\n      0x118cdaa700000000000000000000000000000000000000000000000000000000\n      dup2\n      mstore\n      0x04\n      add\n      tag_383\n      swap2\n      swap1\n      tag_143\n      jump\t// in\n    tag_383:\n      mload(0x40)\n      dup1\n      swap2\n      sub\n      swap1\n      revert\n        /* \"@openzeppelin/contracts/access/Ownable.sol\":1851:1952  if (owner() != _msgSender()) {... */\n    tag_381:\n        /* \"@openzeppelin/contracts/access/Ownable.sol\":1796:1958  function _checkOwner() internal view virtual {... */\n      jump\t// out\n        /* \"@openzeppelin/contracts/utils/Context.sol\":656:752  function _msgSender() internal view virtual returns (address) {... */\n    tag_222:\n        /* \"@openzeppelin/contracts/utils/Context.sol\":709:716  address */\n      0x00\n        /* \"@openzeppelin/contracts/utils/Context.sol\":735:745  msg.sender */\n      caller\n        /* \"@openzeppelin/contracts/utils/Context.sol\":728:745  return msg.sender */\n      swap1\n      pop\n        /* \"@openzeppelin/contracts/utils/Context.sol\":656:752  function _msgSender() internal view virtual returns (address) {... */\n      swap1\n      jump\t// out\n        /* \"@openzeppelin/contracts/token/ERC20/ERC20.sol\":8989:9117  function _approve(address owner, address spender, uint256 value) internal {... */\n    tag_224:\n        /* \"@openzeppelin/contracts/token/ERC20/ERC20.sol\":9073:9110  _approve(owner, spender, value, true) */\n      tag_386\n        /* \"@openzeppelin/contracts/token/ERC20/ERC20.sol\":9082:9087  owner */\n      dup4\n        /* \"@openzeppelin/contracts/token/ERC20/ERC20.sol\":9089:9096  spender */\n      dup4\n        /* \"@openzeppelin/contracts/token/ERC20/ERC20.sol\":9098:9103  value */\n      dup4\n        /* \"@openzeppelin/contracts/token/ERC20/ERC20.sol\":9105:9109  true */\n      0x01\n        /* \"@openzeppelin/contracts/token/ERC20/ERC20.sol\":9073:9081  _approve */\n      tag_387\n        /* \"@openzeppelin/contracts/token/ERC20/ERC20.sol\":9073:9110  _approve(owner, spender, value, true) */\n      jump\t// in\n    tag_386:\n        /* \"@openzeppelin/contracts/token/ERC20/ERC20.sol\":8989:9117  function _approve(address owner, address spender, uint256 value) internal {... */\n      pop\n      pop\n      pop\n      jump\t// out\n        /* \"@openzeppelin/contracts/access/AccessControl.sol\":3199:3302  function _checkRole(bytes32 role) internal view virtual {... */\n    tag_232:\n        /* \"@openzeppelin/contracts/access/AccessControl.sol\":3265:3295  _checkRole(role, _msgSender()) */\n      tag_389\n        /* \"@openzeppelin/contracts/access/AccessControl.sol\":3276:3280  role */\n      dup2\n        /* \"@openzeppelin/contracts/access/AccessControl.sol\":3282:3294  _msgSender() */\n      tag_390\n        /* \"@openzeppelin/contracts/access/AccessControl.sol\":3282:3292  _msgSender */\n      tag_222\n        /* \"@openzeppelin/contracts/access/AccessControl.sol\":3282:3294  _msgSender() */\n      jump\t// in\n    tag_390:\n        /* \"@openzeppelin/contracts/access/AccessControl.sol\":3265:3275  _checkRole */\n      tag_391\n        /* \"@openzeppelin/contracts/access/AccessControl.sol\":3265:3295  _checkRole(role, _msgSender()) */\n      jump\t// in\n    tag_389:\n        /* \"@openzeppelin/contracts/access/AccessControl.sol\":3199:3302  function _checkRole(bytes32 role) internal view virtual {... */\n      pop\n      jump\t// out\n        /* \"@openzeppelin/contracts/token/ERC20/ERC20.sol\":5656:5956  function _transfer(address from, address to, uint256 value) internal {... */\n    tag_235:\n        /* \"@openzeppelin/contracts/token/ERC20/ERC20.sol\":5755:5756  0 */\n      0x00\n        /* \"@openzeppelin/contracts/token/ERC20/ERC20.sol\":5739:5757  from == address(0) */\n      0xffffffffffffffffffffffffffffffffffffffff\n      and\n        /* \"@openzeppelin/contracts/token/ERC20/ERC20.sol\":5739:5743  from */\n      dup4\n        /* \"@openzeppelin/contracts/token/ERC20/ERC20.sol\":5739:5757  from == address(0) */\n      0xffffffffffffffffffffffffffffffffffffffff\n      and\n      sub\n        /* \"@openzeppelin/contracts/token/ERC20/ERC20.sol\":5735:5821  if (from == address(0)) {... */\n      tag_393\n      jumpi\n        /* \"@openzeppelin/contracts/token/ERC20/ERC20.sol\":5807:5808  0 */\n      0x00\n        /* \"@openzeppelin/contracts/token/ERC20/ERC20.sol\":5780:5810  ERC20InvalidSender(address(0)) */\n      mload(0x40)\n      0x96c6fd1e00000000000000000000000000000000000000000000000000000000\n      dup2\n      mstore\n      0x04\n      add\n      tag_394\n      swap2\n      swap1\n      tag_143\n      jump\t// in\n    tag_394:\n      mload(0x40)\n      dup1\n      swap2\n      sub\n      swap1\n      revert\n        /* \"@openzeppelin/contracts/token/ERC20/ERC20.sol\":5735:5821  if (from == address(0)) {... */\n    tag_393:\n        /* \"@openzeppelin/contracts/token/ERC20/ERC20.sol\":5848:5849  0 */\n      0x00\n        /* \"@openzeppelin/contracts/token/ERC20/ERC20.sol\":5834:5850  to == address(0) */\n      0xffffffffffffffffffffffffffffffffffffffff\n      and\n        /* \"@openzeppelin/contracts/token/ERC20/ERC20.sol\":5834:5836  to */\n      dup3\n        /* \"@openzeppelin/contracts/token/ERC20/ERC20.sol\":5834:5850  to == address(0) */\n      0xffffffffffffffffffffffffffffffffffffffff\n      and\n      sub\n        /* \"@openzeppelin/contracts/token/ERC20/ERC20.sol\":5830:5916  if (to == address(0)) {... */\n      tag_395\n      jumpi\n        /* \"@openzeppelin/contracts/token/ERC20/ERC20.sol\":5902:5903  0 */\n      0x00\n        /* \"@openzeppelin/contracts/token/ERC20/ERC20.sol\":5873:5905  ERC20InvalidReceiver(address(0)) */\n      mload(0x40)\n      0xec442f0500000000000000000000000000000000000000000000000000000000\n      dup2\n      mstore\n      0x04\n      add\n      tag_396\n      swap2\n      swap1\n      tag_143\n      jump\t// in\n    tag_396:\n      mload(0x40)\n      dup1\n      swap2\n      sub\n      swap1\n      revert\n        /* \"@openzeppelin/contracts/token/ERC20/ERC20.sol\":5830:5916  if (to == address(0)) {... */\n    tag_395:\n        /* \"@openzeppelin/contracts/token/ERC20/ERC20.sol\":5925:5949  _update(from, to, value) */\n      tag_397\n        /* \"@openzeppelin/contracts/token/ERC20/ERC20.sol\":5933:5937  from */\n      dup4\n        /* \"@openzeppelin/contracts/token/ERC20/ERC20.sol\":5939:5941  to */\n      dup4\n        /* \"@openzeppelin/contracts/token/ERC20/ERC20.sol\":5943:5948  value */\n      dup4\n        /* \"@openzeppelin/contracts/token/ERC20/ERC20.sol\":5925:5932  _update */\n      tag_398\n        /* \"@openzeppelin/contracts/token/ERC20/ERC20.sol\":5925:5949  _update(from, to, value) */\n      jump\t// in\n    tag_397:\n        /* \"@openzeppelin/contracts/token/ERC20/ERC20.sol\":5656:5956  function _transfer(address from, address to, uint256 value) internal {... */\n      pop\n      pop\n      pop\n      jump\t// out\n        /* \"@openzeppelin/contracts/token/ERC20/ERC20.sol\":10663:11140  function _spendAllowance(address owner, address spender, uint256 value) internal virtual {... */\n    tag_239:\n        /* \"@openzeppelin/contracts/token/ERC20/ERC20.sol\":10762:10786  uint256 currentAllowance */\n      0x00\n        /* \"@openzeppelin/contracts/token/ERC20/ERC20.sol\":10789:10814  allowance(owner, spender) */\n      tag_400\n        /* \"@openzeppelin/contracts/token/ERC20/ERC20.sol\":10799:10804  owner */\n      dup5\n        /* \"@openzeppelin/contracts/token/ERC20/ERC20.sol\":10806:10813  spender */\n      dup5\n        /* \"@openzeppelin/contracts/token/ERC20/ERC20.sol\":10789:10798  allowance */\n      tag_185\n        /* \"@openzeppelin/contracts/token/ERC20/ERC20.sol\":10789:10814  allowance(owner, spender) */\n      jump\t// in\n    tag_400:\n        /* \"@openzeppelin/contracts/token/ERC20/ERC20.sol\":10762:10814  uint256 currentAllowance = allowance(owner, spender) */\n      swap1\n      pop\n        /* \"@openzeppelin/contracts/token/ERC20/ERC20.sol\":10848:10865  type(uint256).max */\n      0xffffffffffffffffffffffffffffffffffffffffffffffffffffffffffffffff\n        /* \"@openzeppelin/contracts/token/ERC20/ERC20.sol\":10828:10844  currentAllowance */\n      dup2\n        /* \"@openzeppelin/contracts/token/ERC20/ERC20.sol\":10828:10865  currentAllowance != type(uint256).max */\n      eq\n        /* \"@openzeppelin/contracts/token/ERC20/ERC20.sol\":10824:11134  if (currentAllowance != type(uint256).max) {... */\n      tag_401\n      jumpi\n        /* \"@openzeppelin/contracts/token/ERC20/ERC20.sol\":10904:10909  value */\n      dup2\n        /* \"@openzeppelin/contracts/token/ERC20/ERC20.sol\":10885:10901  currentAllowance */\n      dup2\n        /* \"@openzeppelin/contracts/token/ERC20/ERC20.sol\":10885:10909  currentAllowance < value */\n      lt\n        /* \"@openzeppelin/contracts/token/ERC20/ERC20.sol\":10881:11011  if (currentAllowance < value) {... */\n      iszero\n      tag_402\n      jumpi\n        /* \"@openzeppelin/contracts/token/ERC20/ERC20.sol\":10963:10970  spender */\n      dup3\n        /* \"@openzeppelin/contracts/token/ERC20/ERC20.sol\":10972:10988  currentAllowance */\n      dup2\n        /* \"@openzeppelin/contracts/token/ERC20/ERC20.sol\":10990:10995  value */\n      dup4\n        /* \"@openzeppelin/contracts/token/ERC20/ERC20.sol\":10936:10996  ERC20InsufficientAllowance(spender, currentAllowance, value) */\n      mload(0x40)\n      0xfb8f41b200000000000000000000000000000000000000000000000000000000\n      dup2\n      mstore\n      0x04\n      add\n      tag_403\n      swap4\n      swap3\n      swap2\n      swap1\n      tag_404\n      jump\t// in\n    tag_403:\n      mload(0x40)\n      dup1\n      swap2\n      sub\n      swap1\n      revert\n        /* \"@openzeppelin/contracts/token/ERC20/ERC20.sol\":10881:11011  if (currentAllowance < value) {... */\n    tag_402:\n        /* \"@openzeppelin/contracts/token/ERC20/ERC20.sol\":11052:11109  _approve(owner, spender, currentAllowance - value, false) */\n      tag_405\n        /* \"@openzeppelin/contracts/token/ERC20/ERC20.sol\":11061:11066  owner */\n      dup5\n        /* \"@openzeppelin/contracts/token/ERC20/ERC20.sol\":11068:11075  spender */\n      dup5\n        /* \"@openzeppelin/contracts/token/ERC20/ERC20.sol\":11096:11101  value */\n      dup5\n        /* \"@openzeppelin/contracts/token/ERC20/ERC20.sol\":11077:11093  currentAllowance */\n      dup5\n        /* \"@openzeppelin/contracts/token/ERC20/ERC20.sol\":11077:11101  currentAllowance - value */\n      sub\n        /* \"@openzeppelin/contracts/token/ERC20/ERC20.sol\":11103:11108  false */\n      0x00\n        /* \"@openzeppelin/contracts/token/ERC20/ERC20.sol\":11052:11060  _approve */\n      tag_387\n        /* \"@openzeppelin/contracts/token/ERC20/ERC20.sol\":11052:11109  _approve(owner, spender, currentAllowance - value, false) */\n      jump\t// in\n    tag_405:\n        /* \"@openzeppelin/contracts/token/ERC20/ERC20.sol\":10824:11134  if (currentAllowance != type(uint256).max) {... */\n    tag_401:\n        /* \"@openzeppelin/contracts/token/ERC20/ERC20.sol\":10752:11140  {... */\n      pop\n        /* \"@openzeppelin/contracts/token/ERC20/ERC20.sol\":10663:11140  function _spendAllowance(address owner, address spender, uint256 value) internal virtual {... */\n      pop\n      pop\n      pop\n      jump\t// out\n        /* \"@openzeppelin/contracts/access/AccessControl.sol\":6179:6495  function _grantRole(bytes32 role, address account) internal virtual returns (bool) {... */\n    tag_251:\n        /* \"@openzeppelin/contracts/access/AccessControl.sol\":6256:6260  bool */\n      0x00\n        /* \"@openzeppelin/contracts/access/AccessControl.sol\":6277:6299  hasRole(role, account) */\n      tag_407\n        /* \"@openzeppelin/contracts/access/AccessControl.sol\":6285:6289  role */\n      dup4\n        /* \"@openzeppelin/contracts/access/AccessControl.sol\":6291:6298  account */\n      dup4\n        /* \"@openzeppelin/contracts/access/AccessControl.sol\":6277:6284  hasRole */\n      tag_146\n        /* \"@openzeppelin/contracts/access/AccessControl.sol\":6277:6299  hasRole(role, account) */\n      jump\t// in\n    tag_407:\n        /* \"@openzeppelin/contracts/access/AccessControl.sol\":6272:6489  if (!hasRole(role, account)) {... */\n      tag_408\n      jumpi\n        /* \"@openzeppelin/contracts/access/AccessControl.sol\":6347:6351  true */\n      0x01\n        /* \"@openzeppelin/contracts/access/AccessControl.sol\":6315:6321  _roles */\n      0x05\n        /* \"@openzeppelin/contracts/access/AccessControl.sol\":6315:6327  _roles[role] */\n      0x00\n        /* \"@openzeppelin/contracts/access/AccessControl.sol\":6322:6326  role */\n      dup6\n        /* \"@openzeppelin/contracts/access/AccessControl.sol\":6315:6327  _roles[role] */\n      dup2\n      mstore\n      0x20\n      add\n      swap1\n      dup2\n      mstore\n      0x20\n      add\n      0x00\n      keccak256\n        /* \"@openzeppelin/contracts/access/AccessControl.sol\":6315:6335  _roles[role].hasRole */\n      0x00\n      add\n        /* \"@openzeppelin/contracts/access/AccessControl.sol\":6315:6344  _roles[role].hasRole[account] */\n      0x00\n        /* \"@openzeppelin/contracts/access/AccessControl.sol\":6336:6343  account */\n      dup5\n        /* \"@openzeppelin/contracts/access/AccessControl.sol\":6315:6344  _roles[role].hasRole[account] */\n      0xffffffffffffffffffffffffffffffffffffffff\n      and\n      0xffffffffffffffffffffffffffffffffffffffff\n      and\n      dup2\n      mstore\n      0x20\n      add\n      swap1\n      dup2\n      mstore\n      0x20\n      add\n      0x00\n      keccak256\n      0x00\n        /* \"@openzeppelin/contracts/access/AccessControl.sol\":6315:6351  _roles[role].hasRole[account] = true */\n      0x0100\n      exp\n      dup2\n      sload\n      dup2\n      0xff\n      mul\n      not\n      and\n      swap1\n      dup4\n      iszero\n      iszero\n      mul\n      or\n      swap1\n      sstore\n      pop\n        /* \"@openzeppelin/contracts/access/AccessControl.sol\":6397:6409  _msgSender() */\n      tag_409\n        /* \"@openzeppelin/contracts/access/AccessControl.sol\":6397:6407  _msgSender */\n      tag_222\n        /* \"@openzeppelin/contracts/access/AccessControl.sol\":6397:6409  _msgSender() */\n      jump\t// in\n    tag_409:\n        /* \"@openzeppelin/contracts/access/AccessControl.sol\":6370:6410  RoleGranted(role, account, _msgSender()) */\n      0xffffffffffffffffffffffffffffffffffffffff\n      and\n        /* \"@openzeppelin/contracts/access/AccessControl.sol\":6388:6395  account */\n      dup3\n        /* \"@openzeppelin/contracts/access/AccessControl.sol\":6370:6410  RoleGranted(role, account, _msgSender()) */\n      0xffffffffffffffffffffffffffffffffffffffff\n      and\n        /* \"@openzeppelin/contracts/access/AccessControl.sol\":6382:6386  role */\n      dup5\n        /* \"@openzeppelin/contracts/access/AccessControl.sol\":6370:6410  RoleGranted(role, account, _msgSender()) */\n      0x2f8788117e7eff1d82e926ec794901d17c78024a50270940304540a733656f0d\n      mload(0x40)\n      mload(0x40)\n      dup1\n      swap2\n      sub\n      swap1\n      log4\n        /* \"@openzeppelin/contracts/access/AccessControl.sol\":6431:6435  true */\n      0x01\n        /* \"@openzeppelin/contracts/access/AccessControl.sol\":6424:6435  return true */\n      swap1\n      pop\n      jump(tag_406)\n        /* \"@openzeppelin/contracts/access/AccessControl.sol\":6272:6489  if (!hasRole(role, account)) {... */\n    tag_408:\n        /* \"@openzeppelin/contracts/access/AccessControl.sol\":6473:6478  false */\n      0x00\n        /* \"@openzeppelin/contracts/access/AccessControl.sol\":6466:6478  return false */\n      swap1\n      pop\n        /* \"@openzeppelin/contracts/access/AccessControl.sol\":6179:6495  function _grantRole(bytes32 role, address account) internal virtual returns (bool) {... */\n    tag_406:\n      swap3\n      swap2\n      pop\n      pop\n      jump\t// out\n        /* \"@openzeppelin/contracts/access/AccessControl.sol\":6730:7047  function _revokeRole(bytes32 role, address account) internal virtual returns (bool) {... */\n    tag_261:\n        /* \"@openzeppelin/contracts/access/AccessControl.sol\":6808:6812  bool */\n      0x00\n        /* \"@openzeppelin/contracts/access/AccessControl.sol\":6828:6850  hasRole(role, account) */\n      tag_412\n        /* \"@openzeppelin/contracts/access/AccessControl.sol\":6836:6840  role */\n      dup4\n        /* \"@openzeppelin/contracts/access/AccessControl.sol\":6842:6849  account */\n      dup4\n        /* \"@openzeppelin/contracts/access/AccessControl.sol\":6828:6835  hasRole */\n      tag_146\n        /* \"@openzeppelin/contracts/access/AccessControl.sol\":6828:6850  hasRole(role, account) */\n      jump\t// in\n    tag_412:\n        /* \"@openzeppelin/contracts/access/AccessControl.sol\":6824:7041  if (hasRole(role, account)) {... */\n      iszero\n      tag_413\n      jumpi\n        /* \"@openzeppelin/contracts/access/AccessControl.sol\":6898:6903  false */\n      0x00\n        /* \"@openzeppelin/contracts/access/AccessControl.sol\":6866:6872  _roles */\n      0x05\n        /* \"@openzeppelin/contracts/access/AccessControl.sol\":6866:6878  _roles[role] */\n      0x00\n        /* \"@openzeppelin/contracts/access/AccessControl.sol\":6873:6877  role */\n      dup6\n        /* \"@openzeppelin/contracts/access/AccessControl.sol\":6866:6878  _roles[role] */\n      dup2\n      mstore\n      0x20\n      add\n      swap1\n      dup2\n      mstore\n      0x20\n      add\n      0x00\n      keccak256\n        /* \"@openzeppelin/contracts/access/AccessControl.sol\":6866:6886  _roles[role].hasRole */\n      0x00\n      add\n        /* \"@openzeppelin/contracts/access/AccessControl.sol\":6866:6895  _roles[role].hasRole[account] */\n      0x00\n        /* \"@openzeppelin/contracts/access/AccessControl.sol\":6887:6894  account */\n      dup5\n        /* \"@openzeppelin/contracts/access/AccessControl.sol\":6866:6895  _roles[role].hasRole[account] */\n      0xffffffffffffffffffffffffffffffffffffffff\n      and\n      0xffffffffffffffffffffffffffffffffffffffff\n      and\n      dup2\n      mstore\n      0x20\n      add\n      swap1\n      dup2\n      mstore\n      0x20\n      add\n      0x00\n      keccak256\n      0x00\n        /* \"@openzeppelin/contracts/access/AccessControl.sol\":6866:6903  _roles[role].hasRole[account] = false */\n      0x0100\n      exp\n      dup2\n      sload\n      dup2\n      0xff\n      mul\n      not\n      and\n      swap1\n      dup4\n      iszero\n      iszero\n      mul\n      or\n      swap1\n      sstore\n      pop\n        /* \"@openzeppelin/contracts/access/AccessControl.sol\":6949:6961  _msgSender() */\n      tag_414\n        /* \"@openzeppelin/contracts/access/AccessControl.sol\":6949:6959  _msgSender */\n      tag_222\n        /* \"@openzeppelin/contracts/access/AccessControl.sol\":6949:6961  _msgSender() */\n      jump\t// in\n    tag_414:\n        /* \"@openzeppelin/contracts/access/AccessControl.sol\":6922:6962  RoleRevoked(role, account, _msgSender()) */\n      0xffffffffffffffffffffffffffffffffffffffff\n      and\n        /* \"@openzeppelin/contracts/access/AccessControl.sol\":6940:6947  account */\n      dup3\n        /* \"@openzeppelin/contracts/access/AccessControl.sol\":6922:6962  RoleRevoked(role, account, _msgSender()) */\n      0xffffffffffffffffffffffffffffffffffffffff\n      and\n        /* \"@openzeppelin/contracts/access/AccessControl.sol\":6934:6938  role */\n      dup5\n        /* \"@openzeppelin/contracts/access/AccessControl.sol\":6922:6962  RoleRevoked(role, account, _msgSender()) */\n      0xf6391f5c32d9c69d2a47ea670b442974b53935d1edc7fd64eb21e047a839171b\n      mload(0x40)\n      mload(0x40)\n      dup1\n      swap2\n      sub\n      swap1\n      log4\n        /* \"@openzeppelin/contracts/access/AccessControl.sol\":6983:6987  true */\n      0x01\n        /* \"@openzeppelin/contracts/access/AccessControl.sol\":6976:6987  return true */\n      swap1\n      pop\n      jump(tag_411)\n        /* \"@openzeppelin/contracts/access/AccessControl.sol\":6824:7041  if (hasRole(role, account)) {... */\n    tag_413:\n        /* \"@openzeppelin/contracts/access/AccessControl.sol\":7025:7030  false */\n      0x00\n        /* \"@openzeppelin/contracts/access/AccessControl.sol\":7018:7030  return false */\n      swap1\n      pop\n        /* \"@openzeppelin/contracts/access/AccessControl.sol\":6730:7047  function _revokeRole(bytes32 role, address account) internal virtual returns (bool) {... */\n    tag_411:\n      swap3\n      swap2\n      pop\n      pop\n      jump\t// out\n        /* \"@openzeppelin/contracts/token/ERC20/ERC20.sol\":7721:7929  function _mint(address account, uint256 value) internal {... */\n    tag_266:\n        /* \"@openzeppelin/contracts/token/ERC20/ERC20.sol\":7810:7811  0 */\n      0x00\n        /* \"@openzeppelin/contracts/token/ERC20/ERC20.sol\":7791:7812  account == address(0) */\n      0xffffffffffffffffffffffffffffffffffffffff\n      and\n        /* \"@openzeppelin/contracts/token/ERC20/ERC20.sol\":7791:7798  account */\n      dup3\n        /* \"@openzeppelin/contracts/token/ERC20/ERC20.sol\":7791:7812  account == address(0) */\n      0xffffffffffffffffffffffffffffffffffffffff\n      and\n      sub\n        /* \"@openzeppelin/contracts/token/ERC20/ERC20.sol\":7787:7878  if (account == address(0)) {... */\n      tag_417\n      jumpi\n        /* \"@openzeppelin/contracts/token/ERC20/ERC20.sol\":7864:7865  0 */\n      0x00\n        /* \"@openzeppelin/contracts/token/ERC20/ERC20.sol\":7835:7867  ERC20InvalidReceiver(address(0)) */\n      mload(0x40)\n      0xec442f0500000000000000000000000000000000000000000000000000000000\n      dup2\n      mstore\n      0x04\n      add\n      tag_418\n      swap2\n      swap1\n      tag_143\n      jump\t// in\n    tag_418:\n      mload(0x40)\n      dup1\n      swap2\n      sub\n      swap1\n      revert\n        /* \"@openzeppelin/contracts/token/ERC20/ERC20.sol\":7787:7878  if (account == address(0)) {... */\n    tag_417:\n        /* \"@openzeppelin/contracts/token/ERC20/ERC20.sol\":7887:7922  _update(address(0), account, value) */\n      tag_419\n        /* \"@openzeppelin/contracts/token/ERC20/ERC20.sol\":7903:7904  0 */\n      0x00\n        /* \"@openzeppelin/contracts/token/ERC20/ERC20.sol\":7907:7914  account */\n      dup4\n        /* \"@openzeppelin/contracts/token/ERC20/ERC20.sol\":7916:7921  value */\n      dup4\n        /* \"@openzeppelin/contracts/token/ERC20/ERC20.sol\":7887:7894  _update */\n      tag_398\n        /* \"@openzeppelin/contracts/token/ERC20/ERC20.sol\":7887:7922  _update(address(0), account, value) */\n      jump\t// in\n    tag_419:\n        /* \"@openzeppelin/contracts/token/ERC20/ERC20.sol\":7721:7929  function _mint(address account, uint256 value) internal {... */\n      pop\n      pop\n      jump\t// out\n        /* \"@openzeppelin/contracts/utils/structs/EnumerableSet.sol\":8871:9036  function contains(AddressSet storage set, address value) internal view returns (bool) {... */\n    tag_271:\n        /* \"@openzeppelin/contracts/utils/structs/EnumerableSet.sol\":8951:8955  bool */\n      0x00\n        /* \"@openzeppelin/contracts/utils/structs/EnumerableSet.sol\":8974:9029  _contains(set._inner, bytes32(uint256(uint160(value)))) */\n      tag_421\n        /* \"@openzeppelin/contracts/utils/structs/EnumerableSet.sol\":8984:8987  set */\n      dup4\n        /* \"@openzeppelin/contracts/utils/structs/EnumerableSet.sol\":8984:8994  set._inner */\n      0x00\n      add\n        /* \"@openzeppelin/contracts/utils/structs/EnumerableSet.sol\":9020:9025  value */\n      dup4\n        /* \"@openzeppelin/contracts/utils/structs/EnumerableSet.sol\":9004:9027  uint256(uint160(value)) */\n      0xffffffffffffffffffffffffffffffffffffffff\n      and\n        /* \"@openzeppelin/contracts/utils/structs/EnumerableSet.sol\":8996:9028  bytes32(uint256(uint160(value))) */\n      0x00\n      shl\n        /* \"@openzeppelin/contracts/utils/structs/EnumerableSet.sol\":8974:8983  _contains */\n      tag_422\n        /* \"@openzeppelin/contracts/utils/structs/EnumerableSet.sol\":8974:9029  _contains(set._inner, bytes32(uint256(uint160(value)))) */\n      jump\t// in\n    tag_421:\n        /* \"@openzeppelin/contracts/utils/structs/EnumerableSet.sol\":8967:9029  return _contains(set._inner, bytes32(uint256(uint160(value)))) */\n      swap1\n      pop\n        /* \"@openzeppelin/contracts/utils/structs/EnumerableSet.sol\":8871:9036  function contains(AddressSet storage set, address value) internal view returns (bool) {... */\n      swap3\n      swap2\n      pop\n      pop\n      jump\t// out\n        /* \"@openzeppelin/contracts/utils/structs/EnumerableSet.sol\":8316:8466  function add(AddressSet storage set, address value) internal returns (bool) {... */\n    tag_276:\n        /* \"@openzeppelin/contracts/utils/structs/EnumerableSet.sol\":8386:8390  bool */\n      0x00\n        /* \"@openzeppelin/contracts/utils/structs/EnumerableSet.sol\":8409:8459  _add(set._inner, bytes32(uint256(uint160(value)))) */\n      tag_424\n        /* \"@openzeppelin/contracts/utils/structs/EnumerableSet.sol\":8414:8417  set */\n      dup4\n        /* \"@openzeppelin/contracts/utils/structs/EnumerableSet.sol\":8414:8424  set._inner */\n      0x00\n      add\n        /* \"@openzeppelin/contracts/utils/structs/EnumerableSet.sol\":8450:8455  value */\n      dup4\n        /* \"@openzeppelin/contracts/utils/structs/EnumerableSet.sol\":8434:8457  uint256(uint160(value)) */\n      0xffffffffffffffffffffffffffffffffffffffff\n      and\n        /* \"@openzeppelin/contracts/utils/structs/EnumerableSet.sol\":8426:8458  bytes32(uint256(uint160(value))) */\n      0x00\n      shl\n        /* \"@openzeppelin/contracts/utils/structs/EnumerableSet.sol\":8409:8413  _add */\n      tag_425\n        /* \"@openzeppelin/contracts/utils/structs/EnumerableSet.sol\":8409:8459  _add(set._inner, bytes32(uint256(uint160(value)))) */\n      jump\t// in\n    tag_424:\n        /* \"@openzeppelin/contracts/utils/structs/EnumerableSet.sol\":8402:8459  return _add(set._inner, bytes32(uint256(uint160(value)))) */\n      swap1\n      pop\n        /* \"@openzeppelin/contracts/utils/structs/EnumerableSet.sol\":8316:8466  function add(AddressSet storage set, address value) internal returns (bool) {... */\n      swap3\n      swap2\n      pop\n      pop\n      jump\t// out\n        /* \"@openzeppelin/contracts/utils/structs/EnumerableSet.sol\":8634:8790  function remove(AddressSet storage set, address value) internal returns (bool) {... */\n    tag_289:\n        /* \"@openzeppelin/contracts/utils/structs/EnumerableSet.sol\":8707:8711  bool */\n      0x00\n        /* \"@openzeppelin/contracts/utils/structs/EnumerableSet.sol\":8730:8783  _remove(set._inner, bytes32(uint256(uint160(value)))) */\n      tag_427\n        /* \"@openzeppelin/contracts/utils/structs/EnumerableSet.sol\":8738:8741  set */\n      dup4\n        /* \"@openzeppelin/contracts/utils/structs/EnumerableSet.sol\":8738:8748  set._inner */\n      0x00\n      add\n        /* \"@openzeppelin/contracts/utils/structs/EnumerableSet.sol\":8774:8779  value */\n      dup4\n        /* \"@openzeppelin/contracts/utils/structs/EnumerableSet.sol\":8758:8781  uint256(uint160(value)) */\n      0xffffffffffffffffffffffffffffffffffffffff\n      and\n        /* \"@openzeppelin/contracts/utils/structs/EnumerableSet.sol\":8750:8782  bytes32(uint256(uint160(value))) */\n      0x00\n      shl\n        /* \"@openzeppelin/contracts/utils/structs/EnumerableSet.sol\":8730:8737  _remove */\n      tag_428\n        /* \"@openzeppelin/contracts/utils/structs/EnumerableSet.sol\":8730:8783  _remove(set._inner, bytes32(uint256(uint160(value)))) */\n      jump\t// in\n    tag_427:\n        /* \"@openzeppelin/contracts/utils/structs/EnumerableSet.sol\":8723:8783  return _remove(set._inner, bytes32(uint256(uint160(value)))) */\n      swap1\n      pop\n        /* \"@openzeppelin/contracts/utils/structs/EnumerableSet.sol\":8634:8790  function remove(AddressSet storage set, address value) internal returns (bool) {... */\n      swap3\n      swap2\n      pop\n      pop\n      jump\t// out\n        /* \"@openzeppelin/contracts/access/Ownable.sol\":2912:3099  function _transferOwnership(address newOwner) internal virtual {... */\n    tag_295:\n        /* \"@openzeppelin/contracts/access/Ownable.sol\":2985:3001  address oldOwner */\n      0x00\n        /* \"@openzeppelin/contracts/access/Ownable.sol\":3004:3010  _owner */\n      0x06\n      0x00\n      swap1\n      sload\n      swap1\n      0x0100\n      exp\n      swap1\n      div\n      0xffffffffffffffffffffffffffffffffffffffff\n      and\n        /* \"@openzeppelin/contracts/access/Ownable.sol\":2985:3010  address oldOwner = _owner */\n      swap1\n      pop\n        /* \"@openzeppelin/contracts/access/Ownable.sol\":3029:3037  newOwner */\n      dup2\n        /* \"@openzeppelin/contracts/access/Ownable.sol\":3020:3026  _owner */\n      0x06\n      0x00\n        /* \"@openzeppelin/contracts/access/Ownable.sol\":3020:3037  _owner = newOwner */\n      0x0100\n      exp\n      dup2\n      sload\n      dup2\n      0xffffffffffffffffffffffffffffffffffffffff\n      mul\n      not\n      and\n      swap1\n      dup4\n      0xffffffffffffffffffffffffffffffffffffffff\n      and\n      mul\n      or\n      swap1\n      sstore\n      pop\n        /* \"@openzeppelin/contracts/access/Ownable.sol\":3083:3091  newOwner */\n      dup2\n        /* \"@openzeppelin/contracts/access/Ownable.sol\":3052:3092  OwnershipTransferred(oldOwner, newOwner) */\n      0xffffffffffffffffffffffffffffffffffffffff\n      and\n        /* \"@openzeppelin/contracts/access/Ownable.sol\":3073:3081  oldOwner */\n      dup2\n        /* \"@openzeppelin/contracts/access/Ownable.sol\":3052:3092  OwnershipTransferred(oldOwner, newOwner) */\n      0xffffffffffffffffffffffffffffffffffffffff\n      and\n      0x8be0079c531659141344cd1fd0a4f28419497f9722a3daafe3b4186f6b6457e0\n      mload(0x40)\n      mload(0x40)\n      dup1\n      swap2\n      sub\n      swap1\n      log3\n        /* \"@openzeppelin/contracts/access/Ownable.sol\":2975:3099  {... */\n      pop\n        /* \"@openzeppelin/contracts/access/Ownable.sol\":2912:3099  function _transferOwnership(address newOwner) internal virtual {... */\n      pop\n      jump\t// out\n        /* \"@openzeppelin/contracts/token/ERC20/ERC20.sol\":8247:8453  function _burn(address account, uint256 value) internal {... */\n    tag_324:\n        /* \"@openzeppelin/contracts/token/ERC20/ERC20.sol\":8336:8337  0 */\n      0x00\n        /* \"@openzeppelin/contracts/token/ERC20/ERC20.sol\":8317:8338  account == address(0) */\n      0xffffffffffffffffffffffffffffffffffffffff\n      and\n        /* \"@openzeppelin/contracts/token/ERC20/ERC20.sol\":8317:8324  account */\n      dup3\n        /* \"@openzeppelin/contracts/token/ERC20/ERC20.sol\":8317:8338  account == address(0) */\n      0xffffffffffffffffffffffffffffffffffffffff\n      and\n      sub\n        /* \"@openzeppelin/contracts/token/ERC20/ERC20.sol\":8313:8402  if (account == address(0)) {... */\n      tag_431\n      jumpi\n        /* \"@openzeppelin/contracts/token/ERC20/ERC20.sol\":8388:8389  0 */\n      0x00\n        /* \"@openzeppelin/contracts/token/ERC20/ERC20.sol\":8361:8391  ERC20InvalidSender(address(0)) */\n      mload(0x40)\n      0x96c6fd1e00000000000000000000000000000000000000000000000000000000\n      dup2\n      mstore\n      0x04\n      add\n      tag_432\n      swap2\n      swap1\n      tag_143\n      jump\t// in\n    tag_432:\n      mload(0x40)\n      dup1\n      swap2\n      sub\n      swap1\n      revert\n        /* \"@openzeppelin/contracts/token/ERC20/ERC20.sol\":8313:8402  if (account == address(0)) {... */\n    tag_431:\n        /* \"@openzeppelin/contracts/token/ERC20/ERC20.sol\":8411:8446  _update(account, address(0), value) */\n      tag_433\n        /* \"@openzeppelin/contracts/token/ERC20/ERC20.sol\":8419:8426  account */\n      dup3\n        /* \"@openzeppelin/contracts/token/ERC20/ERC20.sol\":8436:8437  0 */\n      0x00\n        /* \"@openzeppelin/contracts/token/ERC20/ERC20.sol\":8440:8445  value */\n      dup4\n        /* \"@openzeppelin/contracts/token/ERC20/ERC20.sol\":8411:8418  _update */\n      tag_398\n        /* \"@openzeppelin/contracts/token/ERC20/ERC20.sol\":8411:8446  _update(account, address(0), value) */\n      jump\t// in\n    tag_433:\n        /* \"@openzeppelin/contracts/token/ERC20/ERC20.sol\":8247:8453  function _burn(address account, uint256 value) internal {... */\n      pop\n      pop\n      jump\t// out\n        /* \"@openzeppelin/contracts/token/ERC20/ERC20.sol\":3610:3788  function transfer(address to, uint256 value) public virtual returns (bool) {... */\n    tag_340:\n        /* \"@openzeppelin/contracts/token/ERC20/ERC20.sol\":3679:3683  bool */\n      0x00\n        /* \"@openzeppelin/contracts/token/ERC20/ERC20.sol\":3695:3708  address owner */\n      dup1\n        /* \"@openzeppelin/contracts/token/ERC20/ERC20.sol\":3711:3723  _msgSender() */\n      tag_435\n        /* \"@openzeppelin/contracts/token/ERC20/ERC20.sol\":3711:3721  _msgSender */\n      tag_222\n        /* \"@openzeppelin/contracts/token/ERC20/ERC20.sol\":3711:3723  _msgSender() */\n      jump\t// in\n    tag_435:\n        /* \"@openzeppelin/contracts/token/ERC20/ERC20.sol\":3695:3723  address owner = _msgSender() */\n      swap1\n      pop\n        /* \"@openzeppelin/contracts/token/ERC20/ERC20.sol\":3733:3760  _transfer(owner, to, value) */\n      tag_436\n        /* \"@openzeppelin/contracts/token/ERC20/ERC20.sol\":3743:3748  owner */\n      dup2\n        /* \"@openzeppelin/contracts/token/ERC20/ERC20.sol\":3750:3752  to */\n      dup6\n        /* \"@openzeppelin/contracts/token/ERC20/ERC20.sol\":3754:3759  value */\n      dup6\n        /* \"@openzeppelin/contracts/token/ERC20/ERC20.sol\":3733:3742  _transfer */\n      tag_235\n        /* \"@openzeppelin/contracts/token/ERC20/ERC20.sol\":3733:3760  _transfer(owner, to, value) */\n      jump\t// in\n    tag_436:\n        /* \"@openzeppelin/contracts/token/ERC20/ERC20.sol\":3777:3781  true */\n      0x01\n        /* \"@openzeppelin/contracts/token/ERC20/ERC20.sol\":3770:3781  return true */\n      swap2\n      pop\n      pop\n        /* \"@openzeppelin/contracts/token/ERC20/ERC20.sol\":3610:3788  function transfer(address to, uint256 value) public virtual returns (bool) {... */\n      swap3\n      swap2\n      pop\n      pop\n      jump\t// out\n        /* \"@openzeppelin/contracts/token/ERC20/ERC20.sol\":9949:10381  function _approve(address owner, address spender, uint256 value, bool emitEvent) internal virtual {... */\n    tag_387:\n        /* \"@openzeppelin/contracts/token/ERC20/ERC20.sol\":10078:10079  0 */\n      0x00\n        /* \"@openzeppelin/contracts/token/ERC20/ERC20.sol\":10061:10080  owner == address(0) */\n      0xffffffffffffffffffffffffffffffffffffffff\n      and\n        /* \"@openzeppelin/contracts/token/ERC20/ERC20.sol\":10061:10066  owner */\n      dup5\n        /* \"@openzeppelin/contracts/token/ERC20/ERC20.sol\":10061:10080  owner == address(0) */\n      0xffffffffffffffffffffffffffffffffffffffff\n      and\n      sub\n        /* \"@openzeppelin/contracts/token/ERC20/ERC20.sol\":10057:10146  if (owner == address(0)) {... */\n      tag_438\n      jumpi\n        /* \"@openzeppelin/contracts/token/ERC20/ERC20.sol\":10132:10133  0 */\n      0x00\n        /* \"@openzeppelin/contracts/token/ERC20/ERC20.sol\":10103:10135  ERC20InvalidApprover(address(0)) */\n      mload(0x40)\n      0xe602df0500000000000000000000000000000000000000000000000000000000\n      dup2\n      mstore\n      0x04\n      add\n      tag_439\n      swap2\n      swap1\n      tag_143\n      jump\t// in\n    tag_439:\n      mload(0x40)\n      dup1\n      swap2\n      sub\n      swap1\n      revert\n        /* \"@openzeppelin/contracts/token/ERC20/ERC20.sol\":10057:10146  if (owner == address(0)) {... */\n    tag_438:\n        /* \"@openzeppelin/contracts/token/ERC20/ERC20.sol\":10178:10179  0 */\n      0x00\n        /* \"@openzeppelin/contracts/token/ERC20/ERC20.sol\":10159:10180  spender == address(0) */\n      0xffffffffffffffffffffffffffffffffffffffff\n      and\n        /* \"@openzeppelin/contracts/token/ERC20/ERC20.sol\":10159:10166  spender */\n      dup4\n        /* \"@openzeppelin/contracts/token/ERC20/ERC20.sol\":10159:10180  spender == address(0) */\n      0xffffffffffffffffffffffffffffffffffffffff\n      and\n      sub\n        /* \"@openzeppelin/contracts/token/ERC20/ERC20.sol\":10155:10245  if (spender == address(0)) {... */\n      tag_440\n      jumpi\n        /* \"@openzeppelin/contracts/token/ERC20/ERC20.sol\":10231:10232  0 */\n      0x00\n        /* \"@openzeppelin/contracts/token/ERC20/ERC20.sol\":10203:10234  ERC20InvalidSpender(address(0)) */\n      mload(0x40)\n      0x94280d6200000000000000000000000000000000000000000000000000000000\n      dup2\n      mstore\n      0x04\n      add\n      tag_441\n      swap2\n      swap1\n      tag_143\n      jump\t// in\n    tag_441:\n      mload(0x40)\n      dup1\n      swap2\n      sub\n      swap1\n      revert\n        /* \"@openzeppelin/contracts/token/ERC20/ERC20.sol\":10155:10245  if (spender == address(0)) {... */\n    tag_440:\n        /* \"@openzeppelin/contracts/token/ERC20/ERC20.sol\":10284:10289  value */\n      dup2\n        /* \"@openzeppelin/contracts/token/ERC20/ERC20.sol\":10254:10265  _allowances */\n      0x01\n        /* \"@openzeppelin/contracts/token/ERC20/ERC20.sol\":10254:10272  _allowances[owner] */\n      0x00\n        /* \"@openzeppelin/contracts/token/ERC20/ERC20.sol\":10266:10271  owner */\n      dup7\n        /* \"@openzeppelin/contracts/token/ERC20/ERC20.sol\":10254:10272  _allowances[owner] */\n      0xffffffffffffffffffffffffffffffffffffffff\n      and\n      0xffffffffffffffffffffffffffffffffffffffff\n      and\n      dup2\n      mstore\n      0x20\n      add\n      swap1\n      dup2\n      mstore\n      0x20\n      add\n      0x00\n      keccak256\n        /* \"@openzeppelin/contracts/token/ERC20/ERC20.sol\":10254:10281  _allowances[owner][spender] */\n      0x00\n        /* \"@openzeppelin/contracts/token/ERC20/ERC20.sol\":10273:10280  spender */\n      dup6\n        /* \"@openzeppelin/contracts/token/ERC20/ERC20.sol\":10254:10281  _allowances[owner][spender] */\n      0xffffffffffffffffffffffffffffffffffffffff\n      and\n      0xffffffffffffffffffffffffffffffffffffffff\n      and\n      dup2\n      mstore\n      0x20\n      add\n      swap1\n      dup2\n      mstore\n      0x20\n      add\n      0x00\n      keccak256\n        /* \"@openzeppelin/contracts/token/ERC20/ERC20.sol\":10254:10289  _allowances[owner][spender] = value */\n      dup2\n      swap1\n      sstore\n      pop\n        /* \"@openzeppelin/contracts/token/ERC20/ERC20.sol\":10303:10312  emitEvent */\n      dup1\n        /* \"@openzeppelin/contracts/token/ERC20/ERC20.sol\":10299:10375  if (emitEvent) {... */\n      iszero\n      tag_442\n      jumpi\n        /* \"@openzeppelin/contracts/token/ERC20/ERC20.sol\":10349:10356  spender */\n      dup3\n        /* \"@openzeppelin/contracts/token/ERC20/ERC20.sol\":10333:10364  Approval(owner, spender, value) */\n      0xffffffffffffffffffffffffffffffffffffffff\n      and\n        /* \"@openzeppelin/contracts/token/ERC20/ERC20.sol\":10342:10347  owner */\n      dup5\n        /* \"@openzeppelin/contracts/token/ERC20/ERC20.sol\":10333:10364  Approval(owner, spender, value) */\n      0xffffffffffffffffffffffffffffffffffffffff\n      and\n      0x8c5be1e5ebec7d5bd14f71427d1e84f3dd0314c0f7b2291e5b200ac8c7c3b925\n        /* \"@openzeppelin/contracts/token/ERC20/ERC20.sol\":10358:10363  value */\n      dup5\n        /* \"@openzeppelin/contracts/token/ERC20/ERC20.sol\":10333:10364  Approval(owner, spender, value) */\n      mload(0x40)\n      tag_443\n      swap2\n      swap1\n      tag_82\n      jump\t// in\n    tag_443:\n      mload(0x40)\n      dup1\n      swap2\n      sub\n      swap1\n      log3\n        /* \"@openzeppelin/contracts/token/ERC20/ERC20.sol\":10299:10375  if (emitEvent) {... */\n    tag_442:\n        /* \"@openzeppelin/contracts/token/ERC20/ERC20.sol\":9949:10381  function _approve(address owner, address spender, uint256 value, bool emitEvent) internal virtual {... */\n      pop\n      pop\n      pop\n      pop\n      jump\t// out\n        /* \"@openzeppelin/contracts/access/AccessControl.sol\":3432:3629  function _checkRole(bytes32 role, address account) internal view virtual {... */\n    tag_391:\n        /* \"@openzeppelin/contracts/access/AccessControl.sol\":3520:3542  hasRole(role, account) */\n      tag_445\n        /* \"@openzeppelin/contracts/access/AccessControl.sol\":3528:3532  role */\n      dup3\n        /* \"@openzeppelin/contracts/access/AccessControl.sol\":3534:3541  account */\n      dup3\n        /* \"@openzeppelin/contracts/access/AccessControl.sol\":3520:3527  hasRole */\n      tag_146\n        /* \"@openzeppelin/contracts/access/AccessControl.sol\":3520:3542  hasRole(role, account) */\n      jump\t// in\n    tag_445:\n        /* \"@openzeppelin/contracts/access/AccessControl.sol\":3515:3623  if (!hasRole(role, account)) {... */\n      tag_446\n      jumpi\n        /* \"@openzeppelin/contracts/access/AccessControl.sol\":3598:3605  account */\n      dup1\n        /* \"@openzeppelin/contracts/access/AccessControl.sol\":3607:3611  role */\n      dup3\n        /* \"@openzeppelin/contracts/access/AccessControl.sol\":3565:3612  AccessControlUnauthorizedAccount(account, role) */\n      mload(0x40)\n      0xe2517d3f00000000000000000000000000000000000000000000000000000000\n      dup2\n      mstore\n      0x04\n      add\n      tag_447\n      swap3\n      swap2\n      swap1\n      tag_448\n      jump\t// in\n    tag_447:\n      mload(0x40)\n      dup1\n      swap2\n      sub\n      swap1\n      revert\n        /* \"@openzeppelin/contracts/access/AccessControl.sol\":3515:3623  if (!hasRole(role, account)) {... */\n    tag_446:\n        /* \"@openzeppelin/contracts/access/AccessControl.sol\":3432:3629  function _checkRole(bytes32 role, address account) internal view virtual {... */\n      pop\n      pop\n      jump\t// out\n        /* \"@openzeppelin/contracts/token/ERC20/ERC20.sol\":6271:7378  function _update(address from, address to, uint256 value) internal virtual {... */\n    tag_398:\n        /* \"@openzeppelin/contracts/token/ERC20/ERC20.sol\":6376:6377  0 */\n      0x00\n        /* \"@openzeppelin/contracts/token/ERC20/ERC20.sol\":6360:6378  from == address(0) */\n      0xffffffffffffffffffffffffffffffffffffffff\n      and\n        /* \"@openzeppelin/contracts/token/ERC20/ERC20.sol\":6360:6364  from */\n      dup4\n        /* \"@openzeppelin/contracts/token/ERC20/ERC20.sol\":6360:6378  from == address(0) */\n      0xffffffffffffffffffffffffffffffffffffffff\n      and\n      sub\n        /* \"@openzeppelin/contracts/token/ERC20/ERC20.sol\":6356:6896  if (from == address(0)) {... */\n      tag_450\n      jumpi\n        /* \"@openzeppelin/contracts/token/ERC20/ERC20.sol\":6512:6517  value */\n      dup1\n        /* \"@openzeppelin/contracts/token/ERC20/ERC20.sol\":6496:6508  _totalSupply */\n      0x02\n      0x00\n        /* \"@openzeppelin/contracts/token/ERC20/ERC20.sol\":6496:6517  _totalSupply += value */\n      dup3\n      dup3\n      sload\n      tag_451\n      swap2\n      swap1\n      tag_452\n      jump\t// in\n    tag_451:\n      swap3\n      pop\n      pop\n      dup2\n      swap1\n      sstore\n      pop\n        /* \"@openzeppelin/contracts/token/ERC20/ERC20.sol\":6356:6896  if (from == address(0)) {... */\n      jump(tag_453)\n    tag_450:\n        /* \"@openzeppelin/contracts/token/ERC20/ERC20.sol\":6548:6567  uint256 fromBalance */\n      0x00\n        /* \"@openzeppelin/contracts/token/ERC20/ERC20.sol\":6570:6579  _balances */\n      dup1\n        /* \"@openzeppelin/contracts/token/ERC20/ERC20.sol\":6570:6585  _balances[from] */\n      0x00\n        /* \"@openzeppelin/contracts/token/ERC20/ERC20.sol\":6580:6584  from */\n      dup6\n        /* \"@openzeppelin/contracts/token/ERC20/ERC20.sol\":6570:6585  _balances[from] */\n      0xffffffffffffffffffffffffffffffffffffffff\n      and\n      0xffffffffffffffffffffffffffffffffffffffff\n      and\n      dup2\n      mstore\n      0x20\n      add\n      swap1\n      dup2\n      mstore\n      0x20\n      add\n      0x00\n      keccak256\n      sload\n        /* \"@openzeppelin/contracts/token/ERC20/ERC20.sol\":6548:6585  uint256 fromBalance = _balances[from] */\n      swap1\n      pop\n        /* \"@openzeppelin/contracts/token/ERC20/ERC20.sol\":6617:6622  value */\n      dup2\n        /* \"@openzeppelin/contracts/token/ERC20/ERC20.sol\":6603:6614  fromBalance */\n      dup2\n        /* \"@openzeppelin/contracts/token/ERC20/ERC20.sol\":6603:6622  fromBalance < value */\n      lt\n        /* \"@openzeppelin/contracts/token/ERC20/ERC20.sol\":6599:6714  if (fromBalance < value) {... */\n      iszero\n      tag_454\n      jumpi\n        /* \"@openzeppelin/contracts/token/ERC20/ERC20.sol\":6674:6678  from */\n      dup4\n        /* \"@openzeppelin/contracts/token/ERC20/ERC20.sol\":6680:6691  fromBalance */\n      dup2\n        /* \"@openzeppelin/contracts/token/ERC20/ERC20.sol\":6693:6698  value */\n      dup4\n        /* \"@openzeppelin/contracts/token/ERC20/ERC20.sol\":6649:6699  ERC20InsufficientBalance(from, fromBalance, value) */\n      mload(0x40)\n      0xe450d38c00000000000000000000000000000000000000000000000000000000\n      dup2\n      mstore\n      0x04\n      add\n      tag_455\n      swap4\n      swap3\n      swap2\n      swap1\n      tag_404\n      jump\t// in\n    tag_455:\n      mload(0x40)\n      dup1\n      swap2\n      sub\n      swap1\n      revert\n        /* \"@openzeppelin/contracts/token/ERC20/ERC20.sol\":6599:6714  if (fromBalance < value) {... */\n    tag_454:\n        /* \"@openzeppelin/contracts/token/ERC20/ERC20.sol\":6866:6871  value */\n      dup2\n        /* \"@openzeppelin/contracts/token/ERC20/ERC20.sol\":6852:6863  fromBalance */\n      dup2\n        /* \"@openzeppelin/contracts/token/ERC20/ERC20.sol\":6852:6871  fromBalance - value */\n      sub\n        /* \"@openzeppelin/contracts/token/ERC20/ERC20.sol\":6834:6843  _balances */\n      0x00\n        /* \"@openzeppelin/contracts/token/ERC20/ERC20.sol\":6834:6849  _balances[from] */\n      dup1\n        /* \"@openzeppelin/contracts/token/ERC20/ERC20.sol\":6844:6848  from */\n      dup7\n        /* \"@openzeppelin/contracts/token/ERC20/ERC20.sol\":6834:6849  _balances[from] */\n      0xffffffffffffffffffffffffffffffffffffffff\n      and\n      0xffffffffffffffffffffffffffffffffffffffff\n      and\n      dup2\n      mstore\n      0x20\n      add\n      swap1\n      dup2\n      mstore\n      0x20\n      add\n      0x00\n      keccak256\n        /* \"@openzeppelin/contracts/token/ERC20/ERC20.sol\":6834:6871  _balances[from] = fromBalance - value */\n      dup2\n      swap1\n      sstore\n      pop\n        /* \"@openzeppelin/contracts/token/ERC20/ERC20.sol\":6534:6896  {... */\n      pop\n        /* \"@openzeppelin/contracts/token/ERC20/ERC20.sol\":6356:6896  if (from == address(0)) {... */\n    tag_453:\n        /* \"@openzeppelin/contracts/token/ERC20/ERC20.sol\":6924:6925  0 */\n      0x00\n        /* \"@openzeppelin/contracts/token/ERC20/ERC20.sol\":6910:6926  to == address(0) */\n      0xffffffffffffffffffffffffffffffffffffffff\n      and\n        /* \"@openzeppelin/contracts/token/ERC20/ERC20.sol\":6910:6912  to */\n      dup3\n        /* \"@openzeppelin/contracts/token/ERC20/ERC20.sol\":6910:6926  to == address(0) */\n      0xffffffffffffffffffffffffffffffffffffffff\n      and\n      sub\n        /* \"@openzeppelin/contracts/token/ERC20/ERC20.sol\":6906:7331  if (to == address(0)) {... */\n      tag_456\n      jumpi\n        /* \"@openzeppelin/contracts/token/ERC20/ERC20.sol\":7089:7094  value */\n      dup1\n        /* \"@openzeppelin/contracts/token/ERC20/ERC20.sol\":7073:7085  _totalSupply */\n      0x02\n      0x00\n        /* \"@openzeppelin/contracts/token/ERC20/ERC20.sol\":7073:7094  _totalSupply -= value */\n      dup3\n      dup3\n      sload\n      sub\n      swap3\n      pop\n      pop\n      dup2\n      swap1\n      sstore\n      pop\n        /* \"@openzeppelin/contracts/token/ERC20/ERC20.sol\":6906:7331  if (to == address(0)) {... */\n      jump(tag_457)\n    tag_456:\n        /* \"@openzeppelin/contracts/token/ERC20/ERC20.sol\":7301:7306  value */\n      dup1\n        /* \"@openzeppelin/contracts/token/ERC20/ERC20.sol\":7284:7293  _balances */\n      0x00\n        /* \"@openzeppelin/contracts/token/ERC20/ERC20.sol\":7284:7297  _balances[to] */\n      dup1\n        /* \"@openzeppelin/contracts/token/ERC20/ERC20.sol\":7294:7296  to */\n      dup5\n        /* \"@openzeppelin/contracts/token/ERC20/ERC20.sol\":7284:7297  _balances[to] */\n      0xffffffffffffffffffffffffffffffffffffffff\n      and\n      0xffffffffffffffffffffffffffffffffffffffff\n      and\n      dup2\n      mstore\n      0x20\n      add\n      swap1\n      dup2\n      mstore\n      0x20\n      add\n      0x00\n      keccak256\n      0x00\n        /* \"@openzeppelin/contracts/token/ERC20/ERC20.sol\":7284:7306  _balances[to] += value */\n      dup3\n      dup3\n      sload\n      add\n      swap3\n      pop\n      pop\n      dup2\n      swap1\n      sstore\n      pop\n        /* \"@openzeppelin/contracts/token/ERC20/ERC20.sol\":6906:7331  if (to == address(0)) {... */\n    tag_457:\n        /* \"@openzeppelin/contracts/token/ERC20/ERC20.sol\":7361:7363  to */\n      dup2\n        /* \"@openzeppelin/contracts/token/ERC20/ERC20.sol\":7346:7371  Transfer(from, to, value) */\n      0xffffffffffffffffffffffffffffffffffffffff\n      and\n        /* \"@openzeppelin/contracts/token/ERC20/ERC20.sol\":7355:7359  from */\n      dup4\n        /* \"@openzeppelin/contracts/token/ERC20/ERC20.sol\":7346:7371  Transfer(from, to, value) */\n      0xffffffffffffffffffffffffffffffffffffffff\n      and\n      0xddf252ad1be2c89b69c2b068fc378daa952ba7f163c4a11628f55a4df523b3ef\n        /* \"@openzeppelin/contracts/token/ERC20/ERC20.sol\":7365:7370  value */\n      dup4\n        /* \"@openzeppelin/contracts/token/ERC20/ERC20.sol\":7346:7371  Transfer(from, to, value) */\n      mload(0x40)\n      tag_458\n      swap2\n      swap1\n      tag_82\n      jump\t// in\n    tag_458:\n      mload(0x40)\n      dup1\n      swap2\n      sub\n      swap1\n      log3\n        /* \"@openzeppelin/contracts/token/ERC20/ERC20.sol\":6271:7378  function _update(address from, address to, uint256 value) internal virtual {... */\n      pop\n      pop\n      pop\n      jump\t// out\n        /* \"@openzeppelin/contracts/utils/structs/EnumerableSet.sol\":4264:4393  function _contains(Set storage set, bytes32 value) private view returns (bool) {... */\n    tag_422:\n        /* \"@openzeppelin/contracts/utils/structs/EnumerableSet.sol\":4337:4341  bool */\n      0x00\n        /* \"@openzeppelin/contracts/utils/structs/EnumerableSet.sol\":4385:4386  0 */\n      dup1\n        /* \"@openzeppelin/contracts/utils/structs/EnumerableSet.sol\":4360:4363  set */\n      dup4\n        /* \"@openzeppelin/contracts/utils/structs/EnumerableSet.sol\":4360:4374  set._positions */\n      0x01\n      add\n        /* \"@openzeppelin/contracts/utils/structs/EnumerableSet.sol\":4360:4381  set._positions[value] */\n      0x00\n        /* \"@openzeppelin/contracts/utils/structs/EnumerableSet.sol\":4375:4380  value */\n      dup5\n        /* \"@openzeppelin/contracts/utils/structs/EnumerableSet.sol\":4360:4381  set._positions[value] */\n      dup2\n      mstore\n      0x20\n      add\n      swap1\n      dup2\n      mstore\n      0x20\n      add\n      0x00\n      keccak256\n      sload\n        /* \"@openzeppelin/contracts/utils/structs/EnumerableSet.sol\":4360:4386  set._positions[value] != 0 */\n      eq\n      iszero\n        /* \"@openzeppelin/contracts/utils/structs/EnumerableSet.sol\":4353:4386  return set._positions[value] != 0 */\n      swap1\n      pop\n        /* \"@openzeppelin/contracts/utils/structs/EnumerableSet.sol\":4264:4393  function _contains(Set storage set, bytes32 value) private view returns (bool) {... */\n      swap3\n      swap2\n      pop\n      pop\n      jump\t// out\n        /* \"@openzeppelin/contracts/utils/structs/EnumerableSet.sol\":2241:2647  function _add(Set storage set, bytes32 value) private returns (bool) {... */\n    tag_425:\n        /* \"@openzeppelin/contracts/utils/structs/EnumerableSet.sol\":2304:2308  bool */\n      0x00\n        /* \"@openzeppelin/contracts/utils/structs/EnumerableSet.sol\":2325:2346  _contains(set, value) */\n      tag_461\n        /* \"@openzeppelin/contracts/utils/structs/EnumerableSet.sol\":2335:2338  set */\n      dup4\n        /* \"@openzeppelin/contracts/utils/structs/EnumerableSet.sol\":2340:2345  value */\n      dup4\n        /* \"@openzeppelin/contracts/utils/structs/EnumerableSet.sol\":2325:2334  _contains */\n      tag_422\n        /* \"@openzeppelin/contracts/utils/structs/EnumerableSet.sol\":2325:2346  _contains(set, value) */\n      jump\t// in\n    tag_461:\n        /* \"@openzeppelin/contracts/utils/structs/EnumerableSet.sol\":2320:2641  if (!_contains(set, value)) {... */\n      tag_462\n      jumpi\n        /* \"@openzeppelin/contracts/utils/structs/EnumerableSet.sol\":2362:2365  set */\n      dup3\n        /* \"@openzeppelin/contracts/utils/structs/EnumerableSet.sol\":2362:2373  set._values */\n      0x00\n      add\n        /* \"@openzeppelin/contracts/utils/structs/EnumerableSet.sol\":2379:2384  value */\n      dup3\n        /* \"@openzeppelin/contracts/utils/structs/EnumerableSet.sol\":2362:2385  set._values.push(value) */\n      swap1\n      dup1\n      0x01\n      dup2\n      sload\n      add\n      dup1\n      dup3\n      sstore\n      dup1\n      swap2\n      pop\n      pop\n      0x01\n      swap1\n      sub\n      swap1\n      0x00\n      mstore\n      keccak256(0x00, 0x20)\n      add\n      0x00\n      swap1\n      swap2\n      swap1\n      swap2\n      swap1\n      swap2\n      pop\n      sstore\n        /* \"@openzeppelin/contracts/utils/structs/EnumerableSet.sol\":2544:2547  set */\n      dup3\n        /* \"@openzeppelin/contracts/utils/structs/EnumerableSet.sol\":2544:2555  set._values */\n      0x00\n      add\n        /* \"@openzeppelin/contracts/utils/structs/EnumerableSet.sol\":2544:2562  set._values.length */\n      dup1\n      sload\n      swap1\n      pop\n        /* \"@openzeppelin/contracts/utils/structs/EnumerableSet.sol\":2520:2523  set */\n      dup4\n        /* \"@openzeppelin/contracts/utils/structs/EnumerableSet.sol\":2520:2534  set._positions */\n      0x01\n      add\n        /* \"@openzeppelin/contracts/utils/structs/EnumerableSet.sol\":2520:2541  set._positions[value] */\n      0x00\n        /* \"@openzeppelin/contracts/utils/structs/EnumerableSet.sol\":2535:2540  value */\n      dup5\n        /* \"@openzeppelin/contracts/utils/structs/EnumerableSet.sol\":2520:2541  set._positions[value] */\n      dup2\n      mstore\n      0x20\n      add\n      swap1\n      dup2\n      mstore\n      0x20\n      add\n      0x00\n      keccak256\n        /* \"@openzeppelin/contracts/utils/structs/EnumerableSet.sol\":2520:2562  set._positions[value] = set._values.length */\n      dup2\n      swap1\n      sstore\n      pop\n        /* \"@openzeppelin/contracts/utils/structs/EnumerableSet.sol\":2583:2587  true */\n      0x01\n        /* \"@openzeppelin/contracts/utils/structs/EnumerableSet.sol\":2576:2587  return true */\n      swap1\n      pop\n      jump(tag_460)\n        /* \"@openzeppelin/contracts/utils/structs/EnumerableSet.sol\":2320:2641  if (!_contains(set, value)) {... */\n    tag_462:\n        /* \"@openzeppelin/contracts/utils/structs/EnumerableSet.sol\":2625:2630  false */\n      0x00\n        /* \"@openzeppelin/contracts/utils/structs/EnumerableSet.sol\":2618:2630  return false */\n      swap1\n      pop\n        /* \"@openzeppelin/contracts/utils/structs/EnumerableSet.sol\":2241:2647  function _add(Set storage set, bytes32 value) private returns (bool) {... */\n    tag_460:\n      swap3\n      swap2\n      pop\n      pop\n      jump\t// out\n        /* \"@openzeppelin/contracts/utils/structs/EnumerableSet.sol\":2815:4183  function _remove(Set storage set, bytes32 value) private returns (bool) {... */\n    tag_428:\n        /* \"@openzeppelin/contracts/utils/structs/EnumerableSet.sol\":2881:2885  bool */\n      0x00\n        /* \"@openzeppelin/contracts/utils/structs/EnumerableSet.sol\":2991:3007  uint256 position */\n      dup1\n        /* \"@openzeppelin/contracts/utils/structs/EnumerableSet.sol\":3010:3013  set */\n      dup4\n        /* \"@openzeppelin/contracts/utils/structs/EnumerableSet.sol\":3010:3024  set._positions */\n      0x01\n      add\n        /* \"@openzeppelin/contracts/utils/structs/EnumerableSet.sol\":3010:3031  set._positions[value] */\n      0x00\n        /* \"@openzeppelin/contracts/utils/structs/EnumerableSet.sol\":3025:3030  value */\n      dup5\n        /* \"@openzeppelin/contracts/utils/structs/EnumerableSet.sol\":3010:3031  set._positions[value] */\n      dup2\n      mstore\n      0x20\n      add\n      swap1\n      dup2\n      mstore\n      0x20\n      add\n      0x00\n      keccak256\n      sload\n        /* \"@openzeppelin/contracts/utils/structs/EnumerableSet.sol\":2991:3031  uint256 position = set._positions[value] */\n      swap1\n      pop\n        /* \"@openzeppelin/contracts/utils/structs/EnumerableSet.sol\":3058:3059  0 */\n      0x00\n        /* \"@openzeppelin/contracts/utils/structs/EnumerableSet.sol\":3046:3054  position */\n      dup2\n        /* \"@openzeppelin/contracts/utils/structs/EnumerableSet.sol\":3046:3059  position != 0 */\n      eq\n        /* \"@openzeppelin/contracts/utils/structs/EnumerableSet.sol\":3042:4177  if (position != 0) {... */\n      tag_466\n      jumpi\n        /* \"@openzeppelin/contracts/utils/structs/EnumerableSet.sol\":3413:3431  uint256 valueIndex */\n      0x00\n        /* \"@openzeppelin/contracts/utils/structs/EnumerableSet.sol\":3445:3446  1 */\n      0x01\n        /* \"@openzeppelin/contracts/utils/structs/EnumerableSet.sol\":3434:3442  position */\n      dup3\n        /* \"@openzeppelin/contracts/utils/structs/EnumerableSet.sol\":3434:3446  position - 1 */\n      tag_467\n      swap2\n      swap1\n      tag_468\n      jump\t// in\n    tag_467:\n        /* \"@openzeppelin/contracts/utils/structs/EnumerableSet.sol\":3413:3446  uint256 valueIndex = position - 1 */\n      swap1\n      pop\n        /* \"@openzeppelin/contracts/utils/structs/EnumerableSet.sol\":3460:3477  uint256 lastIndex */\n      0x00\n        /* \"@openzeppelin/contracts/utils/structs/EnumerableSet.sol\":3501:3502  1 */\n      0x01\n        /* \"@openzeppelin/contracts/utils/structs/EnumerableSet.sol\":3480:3483  set */\n      dup7\n        /* \"@openzeppelin/contracts/utils/structs/EnumerableSet.sol\":3480:3491  set._values */\n      0x00\n      add\n        /* \"@openzeppelin/contracts/utils/structs/EnumerableSet.sol\":3480:3498  set._values.length */\n      dup1\n      sload\n      swap1\n      pop\n        /* \"@openzeppelin/contracts/utils/structs/EnumerableSet.sol\":3480:3502  set._values.length - 1 */\n      tag_469\n      swap2\n      swap1\n      tag_468\n      jump\t// in\n    tag_469:\n        /* \"@openzeppelin/contracts/utils/structs/EnumerableSet.sol\":3460:3502  uint256 lastIndex = set._values.length - 1 */\n      swap1\n      pop\n        /* \"@openzeppelin/contracts/utils/structs/EnumerableSet.sol\":3535:3544  lastIndex */\n      dup1\n        /* \"@openzeppelin/contracts/utils/structs/EnumerableSet.sol\":3521:3531  valueIndex */\n      dup3\n        /* \"@openzeppelin/contracts/utils/structs/EnumerableSet.sol\":3521:3544  valueIndex != lastIndex */\n      eq\n        /* \"@openzeppelin/contracts/utils/structs/EnumerableSet.sol\":3517:3895  if (valueIndex != lastIndex) {... */\n      tag_470\n      jumpi\n        /* \"@openzeppelin/contracts/utils/structs/EnumerableSet.sol\":3564:3581  bytes32 lastValue */\n      0x00\n        /* \"@openzeppelin/contracts/utils/structs/EnumerableSet.sol\":3584:3587  set */\n      dup7\n        /* \"@openzeppelin/contracts/utils/structs/EnumerableSet.sol\":3584:3595  set._values */\n      0x00\n      add\n        /* \"@openzeppelin/contracts/utils/structs/EnumerableSet.sol\":3596:3605  lastIndex */\n      dup3\n        /* \"@openzeppelin/contracts/utils/structs/EnumerableSet.sol\":3584:3606  set._values[lastIndex] */\n      dup2\n      sload\n      dup2\n      lt\n      tag_471\n      jumpi\n      tag_472\n      tag_473\n      jump\t// in\n    tag_472:\n    tag_471:\n      swap1\n      0x00\n      mstore\n      keccak256(0x00, 0x20)\n      add\n      sload\n        /* \"@openzeppelin/contracts/utils/structs/EnumerableSet.sol\":3564:3606  bytes32 lastValue = set._values[lastIndex] */\n      swap1\n      pop\n        /* \"@openzeppelin/contracts/utils/structs/EnumerableSet.sol\":3731:3740  lastValue */\n      dup1\n        /* \"@openzeppelin/contracts/utils/structs/EnumerableSet.sol\":3705:3708  set */\n      dup8\n        /* \"@openzeppelin/contracts/utils/structs/EnumerableSet.sol\":3705:3716  set._values */\n      0x00\n      add\n        /* \"@openzeppelin/contracts/utils/structs/EnumerableSet.sol\":3717:3727  valueIndex */\n      dup5\n        /* \"@openzeppelin/contracts/utils/structs/EnumerableSet.sol\":3705:3728  set._values[valueIndex] */\n      dup2\n      sload\n      dup2\n      lt\n      tag_475\n      jumpi\n      tag_476\n      tag_473\n      jump\t// in\n    tag_476:\n    tag_475:\n      swap1\n      0x00\n      mstore\n      keccak256(0x00, 0x20)\n      add\n        /* \"@openzeppelin/contracts/utils/structs/EnumerableSet.sol\":3705:3740  set._values[valueIndex] = lastValue */\n      dup2\n      swap1\n      sstore\n      pop\n        /* \"@openzeppelin/contracts/utils/structs/EnumerableSet.sol\":3872:3880  position */\n      dup4\n        /* \"@openzeppelin/contracts/utils/structs/EnumerableSet.sol\":3844:3847  set */\n      dup8\n        /* \"@openzeppelin/contracts/utils/structs/EnumerableSet.sol\":3844:3858  set._positions */\n      0x01\n      add\n        /* \"@openzeppelin/contracts/utils/structs/EnumerableSet.sol\":3844:3869  set._positions[lastValue] */\n      0x00\n        /* \"@openzeppelin/contracts/utils/structs/EnumerableSet.sol\":3859:3868  lastValue */\n      dup4\n        /* \"@openzeppelin/contracts/utils/structs/EnumerableSet.sol\":3844:3869  set._positions[lastValue] */\n      dup2\n      mstore\n      0x20\n      add\n      swap1\n      dup2\n      mstore\n      0x20\n      add\n      0x00\n      keccak256\n        /* \"@openzeppelin/contracts/utils/structs/EnumerableSet.sol\":3844:3880  set._positions[lastValue] = position */\n      dup2\n      swap1\n      sstore\n      pop\n        /* \"@openzeppelin/contracts/utils/structs/EnumerableSet.sol\":3546:3895  {... */\n      pop\n        /* \"@openzeppelin/contracts/utils/structs/EnumerableSet.sol\":3517:3895  if (valueIndex != lastIndex) {... */\n    tag_470:\n        /* \"@openzeppelin/contracts/utils/structs/EnumerableSet.sol\":3973:3976  set */\n      dup6\n        /* \"@openzeppelin/contracts/utils/structs/EnumerableSet.sol\":3973:3984  set._values */\n      0x00\n      add\n        /* \"@openzeppelin/contracts/utils/structs/EnumerableSet.sol\":3973:3990  set._values.pop() */\n      dup1\n      sload\n      dup1\n      tag_478\n      jumpi\n      tag_479\n      tag_480\n      jump\t// in\n    tag_479:\n    tag_478:\n      0x01\n      swap1\n      sub\n      dup2\n      dup2\n      swap1\n      0x00\n      mstore\n      keccak256(0x00, 0x20)\n      add\n      0x00\n      swap1\n      sstore\n      swap1\n      sstore\n        /* \"@openzeppelin/contracts/utils/structs/EnumerableSet.sol\":4076:4079  set */\n      dup6\n        /* \"@openzeppelin/contracts/utils/structs/EnumerableSet.sol\":4076:4090  set._positions */\n      0x01\n      add\n        /* \"@openzeppelin/contracts/utils/structs/EnumerableSet.sol\":4076:4097  set._positions[value] */\n      0x00\n        /* \"@openzeppelin/contracts/utils/structs/EnumerableSet.sol\":4091:4096  value */\n      dup7\n        /* \"@openzeppelin/contracts/utils/structs/EnumerableSet.sol\":4076:4097  set._positions[value] */\n      dup2\n      mstore\n      0x20\n      add\n      swap1\n      dup2\n      mstore\n      0x20\n      add\n      0x00\n      keccak256\n        /* \"@openzeppelin/contracts/utils/structs/EnumerableSet.sol\":4069:4097  delete set._positions[value] */\n      0x00\n      swap1\n      sstore\n        /* \"@openzeppelin/contracts/utils/structs/EnumerableSet.sol\":4119:4123  true */\n      0x01\n        /* \"@openzeppelin/contracts/utils/structs/EnumerableSet.sol\":4112:4123  return true */\n      swap4\n      pop\n      pop\n      pop\n      pop\n      jump(tag_465)\n        /* \"@openzeppelin/contracts/utils/structs/EnumerableSet.sol\":3042:4177  if (position != 0) {... */\n    tag_466:\n        /* \"@openzeppelin/contracts/utils/structs/EnumerableSet.sol\":4161:4166  false */\n      0x00\n        /* \"@openzeppelin/contracts/utils/structs/EnumerableSet.sol\":4154:4166  return false */\n      swap2\n      pop\n      pop\n        /* \"@openzeppelin/contracts/utils/structs/EnumerableSet.sol\":2815:4183  function _remove(Set storage set, bytes32 value) private returns (bool) {... */\n    tag_465:\n      swap3\n      swap2\n      pop\n      pop\n      jump\t// out\n        /* \"#utility.yul\":88:205   */\n    tag_484:\n        /* \"#utility.yul\":197:198   */\n      0x00\n        /* \"#utility.yul\":194:195   */\n      dup1\n        /* \"#utility.yul\":187:199   */\n      revert\n        /* \"#utility.yul\":334:483   */\n    tag_486:\n        /* \"#utility.yul\":370:377   */\n      0x00\n        /* \"#utility.yul\":410:476   */\n      0xffffffff00000000000000000000000000000000000000000000000000000000\n        /* \"#utility.yul\":403:408   */\n      dup3\n        /* \"#utility.yul\":399:477   */\n      and\n        /* \"#utility.yul\":388:477   */\n      swap1\n      pop\n        /* \"#utility.yul\":334:483   */\n      swap2\n      swap1\n      pop\n      jump\t// out\n        /* \"#utility.yul\":489:609   */\n    tag_487:\n        /* \"#utility.yul\":561:584   */\n      tag_533\n        /* \"#utility.yul\":578:583   */\n      dup2\n        /* \"#utility.yul\":561:584   */\n      tag_486\n      jump\t// in\n    tag_533:\n        /* \"#utility.yul\":554:559   */\n      dup2\n        /* \"#utility.yul\":551:585   */\n      eq\n        /* \"#utility.yul\":541:603   */\n      tag_534\n      jumpi\n        /* \"#utility.yul\":599:600   */\n      0x00\n        /* \"#utility.yul\":596:597   */\n      dup1\n        /* \"#utility.yul\":589:601   */\n      revert\n        /* \"#utility.yul\":541:603   */\n    tag_534:\n        /* \"#utility.yul\":489:609   */\n      pop\n      jump\t// out\n        /* \"#utility.yul\":615:752   */\n    tag_488:\n        /* \"#utility.yul\":660:665   */\n      0x00\n        /* \"#utility.yul\":698:704   */\n      dup2\n        /* \"#utility.yul\":685:705   */\n      calldataload\n        /* \"#utility.yul\":676:705   */\n      swap1\n      pop\n        /* \"#utility.yul\":714:746   */\n      tag_536\n        /* \"#utility.yul\":740:745   */\n      dup2\n        /* \"#utility.yul\":714:746   */\n      tag_487\n      jump\t// in\n    tag_536:\n        /* \"#utility.yul\":615:752   */\n      swap3\n      swap2\n      pop\n      pop\n      jump\t// out\n        /* \"#utility.yul\":758:1085   */\n    tag_55:\n        /* \"#utility.yul\":816:822   */\n      0x00\n        /* \"#utility.yul\":865:867   */\n      0x20\n        /* \"#utility.yul\":853:862   */\n      dup3\n        /* \"#utility.yul\":844:851   */\n      dup5\n        /* \"#utility.yul\":840:863   */\n      sub\n        /* \"#utility.yul\":836:868   */\n      slt\n        /* \"#utility.yul\":833:952   */\n      iszero\n      tag_538\n      jumpi\n        /* \"#utility.yul\":871:950   */\n      tag_539\n      tag_484\n      jump\t// in\n    tag_539:\n        /* \"#utility.yul\":833:952   */\n    tag_538:\n        /* \"#utility.yul\":991:992   */\n      0x00\n        /* \"#utility.yul\":1016:1068   */\n      tag_540\n        /* \"#utility.yul\":1060:1067   */\n      dup5\n        /* \"#utility.yul\":1051:1057   */\n      dup3\n        /* \"#utility.yul\":1040:1049   */\n      dup6\n        /* \"#utility.yul\":1036:1058   */\n      add\n        /* \"#utility.yul\":1016:1068   */\n      tag_488\n      jump\t// in\n    tag_540:\n        /* \"#utility.yul\":1006:1068   */\n      swap2\n      pop\n        /* \"#utility.yul\":962:1078   */\n      pop\n        /* \"#utility.yul\":758:1085   */\n      swap3\n      swap2\n      pop\n      pop\n      jump\t// out\n        /* \"#utility.yul\":1091:1181   */\n    tag_489:\n        /* \"#utility.yul\":1125:1132   */\n      0x00\n        /* \"#utility.yul\":1168:1173   */\n      dup2\n        /* \"#utility.yul\":1161:1174   */\n      iszero\n        /* \"#utility.yul\":1154:1175   */\n      iszero\n        /* \"#utility.yul\":1143:1175   */\n      swap1\n      pop\n        /* \"#utility.yul\":1091:1181   */\n      swap2\n      swap1\n      pop\n      jump\t// out\n        /* \"#utility.yul\":1187:1296   */\n    tag_490:\n        /* \"#utility.yul\":1268:1289   */\n      tag_543\n        /* \"#utility.yul\":1283:1288   */\n      dup2\n        /* \"#utility.yul\":1268:1289   */\n      tag_489\n      jump\t// in\n    tag_543:\n        /* \"#utility.yul\":1263:1266   */\n      dup3\n        /* \"#utility.yul\":1256:1290   */\n      mstore\n        /* \"#utility.yul\":1187:1296   */\n      pop\n      pop\n      jump\t// out\n        /* \"#utility.yul\":1302:1512   */\n    tag_58:\n        /* \"#utility.yul\":1389:1393   */\n      0x00\n        /* \"#utility.yul\":1427:1429   */\n      0x20\n        /* \"#utility.yul\":1416:1425   */\n      dup3\n        /* \"#utility.yul\":1412:1430   */\n      add\n        /* \"#utility.yul\":1404:1430   */\n      swap1\n      pop\n        /* \"#utility.yul\":1440:1505   */\n      tag_545\n        /* \"#utility.yul\":1502:1503   */\n      0x00\n        /* \"#utility.yul\":1491:1500   */\n      dup4\n        /* \"#utility.yul\":1487:1504   */\n      add\n        /* \"#utility.yul\":1478:1484   */\n      dup5\n        /* \"#utility.yul\":1440:1505   */\n      tag_490\n      jump\t// in\n    tag_545:\n        /* \"#utility.yul\":1302:1512   */\n      swap3\n      swap2\n      pop\n      pop\n      jump\t// out\n        /* \"#utility.yul\":1518:1644   */\n    tag_491:\n        /* \"#utility.yul\":1555:1562   */\n      0x00\n        /* \"#utility.yul\":1595:1637   */\n      0xffffffffffffffffffffffffffffffffffffffff\n        /* \"#utility.yul\":1588:1593   */\n      dup3\n        /* \"#utility.yul\":1584:1638   */\n      and\n        /* \"#utility.yul\":1573:1638   */\n      swap1\n      pop\n        /* \"#utility.yul\":1518:1644   */\n      swap2\n      swap1\n      pop\n      jump\t// out\n        /* \"#utility.yul\":1650:1746   */\n    tag_492:\n        /* \"#utility.yul\":1687:1694   */\n      0x00\n        /* \"#utility.yul\":1716:1740   */\n      tag_548\n        /* \"#utility.yul\":1734:1739   */\n      dup3\n        /* \"#utility.yul\":1716:1740   */\n      tag_491\n      jump\t// in\n    tag_548:\n        /* \"#utility.yul\":1705:1740   */\n      swap1\n      pop\n        /* \"#utility.yul\":1650:1746   */\n      swap2\n      swap1\n      pop\n      jump\t// out\n        /* \"#utility.yul\":1752:1874   */\n    tag_493:\n        /* \"#utility.yul\":1825:1849   */\n      tag_550\n        /* \"#utility.yul\":1843:1848   */\n      dup2\n        /* \"#utility.yul\":1825:1849   */\n      tag_492\n      jump\t// in\n    tag_550:\n        /* \"#utility.yul\":1818:1823   */\n      dup2\n        /* \"#utility.yul\":1815:1850   */\n      eq\n        /* \"#utility.yul\":1805:1868   */\n      tag_551\n      jumpi\n        /* \"#utility.yul\":1864:1865   */\n      0x00\n        /* \"#utility.yul\":1861:1862   */\n      dup1\n        /* \"#utility.yul\":1854:1866   */\n      revert\n        /* \"#utility.yul\":1805:1868   */\n    tag_551:\n        /* \"#utility.yul\":1752:1874   */\n      pop\n      jump\t// out\n        /* \"#utility.yul\":1880:2019   */\n    tag_494:\n        /* \"#utility.yul\":1926:1931   */\n      0x00\n        /* \"#utility.yul\":1964:1970   */\n      dup2\n        /* \"#utility.yul\":1951:1971   */\n      calldataload\n        /* \"#utility.yul\":1942:1971   */\n      swap1\n      pop\n        /* \"#utility.yul\":1980:2013   */\n      tag_553\n        /* \"#utility.yul\":2007:2012   */\n      dup2\n        /* \"#utility.yul\":1980:2013   */\n      tag_493\n      jump\t// in\n    tag_553:\n        /* \"#utility.yul\":1880:2019   */\n      swap3\n      swap2\n      pop\n      pop\n      jump\t// out\n        /* \"#utility.yul\":2025:2354   */\n    tag_61:\n        /* \"#utility.yul\":2084:2090   */\n      0x00\n        /* \"#utility.yul\":2133:2135   */\n      0x20\n        /* \"#utility.yul\":2121:2130   */\n      dup3\n        /* \"#utility.yul\":2112:2119   */\n      dup5\n        /* \"#utility.yul\":2108:2131   */\n      sub\n        /* \"#utility.yul\":2104:2136   */\n      slt\n        /* \"#utility.yul\":2101:2220   */\n      iszero\n      tag_555\n      jumpi\n        /* \"#utility.yul\":2139:2218   */\n      tag_556\n      tag_484\n      jump\t// in\n    tag_556:\n        /* \"#utility.yul\":2101:2220   */\n    tag_555:\n        /* \"#utility.yul\":2259:2260   */\n      0x00\n        /* \"#utility.yul\":2284:2337   */\n      tag_557\n        /* \"#utility.yul\":2329:2336   */\n      dup5\n        /* \"#utility.yul\":2320:2326   */\n      dup3\n        /* \"#utility.yul\":2309:2318   */\n      dup6\n        /* \"#utility.yul\":2305:2327   */\n      add\n        /* \"#utility.yul\":2284:2337   */\n      tag_494\n      jump\t// in\n    tag_557:\n        /* \"#utility.yul\":2274:2337   */\n      swap2\n      pop\n        /* \"#utility.yul\":2230:2347   */\n      pop\n        /* \"#utility.yul\":2025:2354   */\n      swap3\n      swap2\n      pop\n      pop\n      jump\t// out\n        /* \"#utility.yul\":2360:2437   */\n    tag_495:\n        /* \"#utility.yul\":2397:2404   */\n      0x00\n        /* \"#utility.yul\":2426:2431   */\n      dup2\n        /* \"#utility.yul\":2415:2431   */\n      swap1\n      pop\n        /* \"#utility.yul\":2360:2437   */\n      swap2\n      swap1\n      pop\n      jump\t// out\n        /* \"#utility.yul\":2443:2561   */\n    tag_496:\n        /* \"#utility.yul\":2530:2554   */\n      tag_560\n        /* \"#utility.yul\":2548:2553   */\n      dup2\n        /* \"#utility.yul\":2530:2554   */\n      tag_495\n      jump\t// in\n    tag_560:\n        /* \"#utility.yul\":2525:2528   */\n      dup3\n        /* \"#utility.yul\":2518:2555   */\n      mstore\n        /* \"#utility.yul\":2443:2561   */\n      pop\n      pop\n      jump\t// out\n        /* \"#utility.yul\":2567:2789   */\n    tag_66:\n        /* \"#utility.yul\":2660:2664   */\n      0x00\n        /* \"#utility.yul\":2698:2700   */\n      0x20\n        /* \"#utility.yul\":2687:2696   */\n      dup3\n        /* \"#utility.yul\":2683:2701   */\n      add\n        /* \"#utility.yul\":2675:2701   */\n      swap1\n      pop\n        /* \"#utility.yul\":2711:2782   */\n      tag_562\n        /* \"#utility.yul\":2779:2780   */\n      0x00\n        /* \"#utility.yul\":2768:2777   */\n      dup4\n        /* \"#utility.yul\":2764:2781   */\n      add\n        /* \"#utility.yul\":2755:2761   */\n      dup5\n        /* \"#utility.yul\":2711:2782   */\n      tag_496\n      jump\t// in\n    tag_562:\n        /* \"#utility.yul\":2567:2789   */\n      swap3\n      swap2\n      pop\n      pop\n      jump\t// out\n        /* \"#utility.yul\":2795:2894   */\n    tag_497:\n        /* \"#utility.yul\":2847:2853   */\n      0x00\n        /* \"#utility.yul\":2881:2886   */\n      dup2\n        /* \"#utility.yul\":2875:2887   */\n      mload\n        /* \"#utility.yul\":2865:2887   */\n      swap1\n      pop\n        /* \"#utility.yul\":2795:2894   */\n      swap2\n      swap1\n      pop\n      jump\t// out\n        /* \"#utility.yul\":2900:3069   */\n    tag_498:\n        /* \"#utility.yul\":2984:2995   */\n      0x00\n        /* \"#utility.yul\":3018:3024   */\n      dup3\n        /* \"#utility.yul\":3013:3016   */\n      dup3\n        /* \"#utility.yul\":3006:3025   */\n      mstore\n        /* \"#utility.yul\":3058:3062   */\n      0x20\n        /* \"#utility.yul\":3053:3056   */\n      dup3\n        /* \"#utility.yul\":3049:3063   */\n      add\n        /* \"#utility.yul\":3034:3063   */\n      swap1\n      pop\n        /* \"#utility.yul\":2900:3069   */\n      swap3\n      swap2\n      pop\n      pop\n      jump\t// out\n        /* \"#utility.yul\":3075:3214   */\n    tag_499:\n        /* \"#utility.yul\":3164:3170   */\n      dup3\n        /* \"#utility.yul\":3159:3162   */\n      dup2\n        /* \"#utility.yul\":3154:3157   */\n      dup4\n        /* \"#utility.yul\":3148:3171   */\n      mcopy\n        /* \"#utility.yul\":3205:3206   */\n      0x00\n        /* \"#utility.yul\":3196:3202   */\n      dup4\n        /* \"#utility.yul\":3191:3194   */\n      dup4\n        /* \"#utility.yul\":3187:3203   */\n      add\n        /* \"#utility.yul\":3180:3207   */\n      mstore\n        /* \"#utility.yul\":3075:3214   */\n      pop\n      pop\n      pop\n      jump\t// out\n        /* \"#utility.yul\":3220:3322   */\n    tag_500:\n        /* \"#utility.yul\":3261:3267   */\n      0x00\n        /* \"#utility.yul\":3312:3314   */\n      0x1f\n        /* \"#utility.yul\":3308:3315   */\n      not\n        /* \"#utility.yul\":3303:3305   */\n      0x1f\n        /* \"#utility.yul\":3296:3301   */\n      dup4\n        /* \"#utility.yul\":3292:3306   */\n      add\n        /* \"#utility.yul\":3288:3316   */\n      and\n        /* \"#utility.yul\":3278:3316   */\n      swap1\n      pop\n        /* \"#utility.yul\":3220:3322   */\n      swap2\n      swap1\n      pop\n      jump\t// out\n        /* \"#utility.yul\":3328:3705   */\n    tag_501:\n        /* \"#utility.yul\":3416:3419   */\n      0x00\n        /* \"#utility.yul\":3444:3483   */\n      tag_568\n        /* \"#utility.yul\":3477:3482   */\n      dup3\n        /* \"#utility.yul\":3444:3483   */\n      tag_497\n      jump\t// in\n    tag_568:\n        /* \"#utility.yul\":3499:3570   */\n      tag_569\n        /* \"#utility.yul\":3563:3569   */\n      dup2\n        /* \"#utility.yul\":3558:3561   */\n      dup6\n        /* \"#utility.yul\":3499:3570   */\n      tag_498\n      jump\t// in\n    tag_569:\n        /* \"#utility.yul\":3492:3570   */\n      swap4\n      pop\n        /* \"#utility.yul\":3579:3644   */\n      tag_570\n        /* \"#utility.yul\":3637:3643   */\n      dup2\n        /* \"#utility.yul\":3632:3635   */\n      dup6\n        /* \"#utility.yul\":3625:3629   */\n      0x20\n        /* \"#utility.yul\":3618:3623   */\n      dup7\n        /* \"#utility.yul\":3614:3630   */\n      add\n        /* \"#utility.yul\":3579:3644   */\n      tag_499\n      jump\t// in\n    tag_570:\n        /* \"#utility.yul\":3669:3698   */\n      tag_571\n        /* \"#utility.yul\":3691:3697   */\n      dup2\n        /* \"#utility.yul\":3669:3698   */\n      tag_500\n      jump\t// in\n    tag_571:\n        /* \"#utility.yul\":3664:3667   */\n      dup5\n        /* \"#utility.yul\":3660:3699   */\n      add\n        /* \"#utility.yul\":3653:3699   */\n      swap2\n      pop\n        /* \"#utility.yul\":3420:3705   */\n      pop\n        /* \"#utility.yul\":3328:3705   */\n      swap3\n      swap2\n      pop\n      pop\n      jump\t// out\n        /* \"#utility.yul\":3711:4024   */\n    tag_70:\n        /* \"#utility.yul\":3824:3828   */\n      0x00\n        /* \"#utility.yul\":3862:3864   */\n      0x20\n        /* \"#utility.yul\":3851:3860   */\n      dup3\n        /* \"#utility.yul\":3847:3865   */\n      add\n        /* \"#utility.yul\":3839:3865   */\n      swap1\n      pop\n        /* \"#utility.yul\":3911:3920   */\n      dup2\n        /* \"#utility.yul\":3905:3909   */\n      dup2\n        /* \"#utility.yul\":3901:3921   */\n      sub\n        /* \"#utility.yul\":3897:3898   */\n      0x00\n        /* \"#utility.yul\":3886:3895   */\n      dup4\n        /* \"#utility.yul\":3882:3899   */\n      add\n        /* \"#utility.yul\":3875:3922   */\n      mstore\n        /* \"#utility.yul\":3939:4017   */\n      tag_573\n        /* \"#utility.yul\":4012:4016   */\n      dup2\n        /* \"#utility.yul\":4003:4009   */\n      dup5\n        /* \"#utility.yul\":3939:4017   */\n      tag_501\n      jump\t// in\n    tag_573:\n        /* \"#utility.yul\":3931:4017   */\n      swap1\n      pop\n        /* \"#utility.yul\":3711:4024   */\n      swap3\n      swap2\n      pop\n      pop\n      jump\t// out\n        /* \"#utility.yul\":4030:4107   */\n    tag_502:\n        /* \"#utility.yul\":4067:4074   */\n      0x00\n        /* \"#utility.yul\":4096:4101   */\n      dup2\n        /* \"#utility.yul\":4085:4101   */\n      swap1\n      pop\n        /* \"#utility.yul\":4030:4107   */\n      swap2\n      swap1\n      pop\n      jump\t// out\n        /* \"#utility.yul\":4113:4235   */\n    tag_503:\n        /* \"#utility.yul\":4186:4210   */\n      tag_576\n        /* \"#utility.yul\":4204:4209   */\n      dup2\n        /* \"#utility.yul\":4186:4210   */\n      tag_502\n      jump\t// in\n    tag_576:\n        /* \"#utility.yul\":4179:4184   */\n      dup2\n        /* \"#utility.yul\":4176:4211   */\n      eq\n        /* \"#utility.yul\":4166:4229   */\n      tag_577\n      jumpi\n        /* \"#utility.yul\":4225:4226   */\n      0x00\n        /* \"#utility.yul\":4222:4223   */\n      dup1\n        /* \"#utility.yul\":4215:4227   */\n      revert\n        /* \"#utility.yul\":4166:4229   */\n    tag_577:\n        /* \"#utility.yul\":4113:4235   */\n      pop\n      jump\t// out\n        /* \"#utility.yul\":4241:4380   */\n    tag_504:\n        /* \"#utility.yul\":4287:4292   */\n      0x00\n        /* \"#utility.yul\":4325:4331   */\n      dup2\n        /* \"#utility.yul\":4312:4332   */\n      calldataload\n        /* \"#utility.yul\":4303:4332   */\n      swap1\n      pop\n        /* \"#utility.yul\":4341:4374   */\n      tag_579\n        /* \"#utility.yul\":4368:4373   */\n      dup2\n        /* \"#utility.yul\":4341:4374   */\n      tag_503\n      jump\t// in\n    tag_579:\n        /* \"#utility.yul\":4241:4380   */\n      swap3\n      swap2\n      pop\n      pop\n      jump\t// out\n        /* \"#utility.yul\":4386:4860   */\n    tag_73:\n        /* \"#utility.yul\":4454:4460   */\n      0x00\n        /* \"#utility.yul\":4462:4468   */\n      dup1\n        /* \"#utility.yul\":4511:4513   */\n      0x40\n        /* \"#utility.yul\":4499:4508   */\n      dup4\n        /* \"#utility.yul\":4490:4497   */\n      dup6\n        /* \"#utility.yul\":4486:4509   */\n      sub\n        /* \"#utility.yul\":4482:4514   */\n      slt\n        /* \"#utility.yul\":4479:4598   */\n      iszero\n      tag_581\n      jumpi\n        /* \"#utility.yul\":4517:4596   */\n      tag_582\n      tag_484\n      jump\t// in\n    tag_582:\n        /* \"#utility.yul\":4479:4598   */\n    tag_581:\n        /* \"#utility.yul\":4637:4638   */\n      0x00\n        /* \"#utility.yul\":4662:4715   */\n      tag_583\n        /* \"#utility.yul\":4707:4714   */\n      dup6\n        /* \"#utility.yul\":4698:4704   */\n      dup3\n        /* \"#utility.yul\":4687:4696   */\n      dup7\n        /* \"#utility.yul\":4683:4705   */\n      add\n        /* \"#utility.yul\":4662:4715   */\n      tag_494\n      jump\t// in\n    tag_583:\n        /* \"#utility.yul\":4652:4715   */\n      swap3\n      pop\n        /* \"#utility.yul\":4608:4725   */\n      pop\n        /* \"#utility.yul\":4764:4766   */\n      0x20\n        /* \"#utility.yul\":4790:4843   */\n      tag_584\n        /* \"#utility.yul\":4835:4842   */\n      dup6\n        /* \"#utility.yul\":4826:4832   */\n      dup3\n        /* \"#utility.yul\":4815:4824   */\n      dup7\n        /* \"#utility.yul\":4811:4833   */\n      add\n        /* \"#utility.yul\":4790:4843   */\n      tag_504\n      jump\t// in\n    tag_584:\n        /* \"#utility.yul\":4780:4843   */\n      swap2\n      pop\n        /* \"#utility.yul\":4735:4853   */\n      pop\n        /* \"#utility.yul\":4386:4860   */\n      swap3\n      pop\n      swap3\n      swap1\n      pop\n      jump\t// out\n        /* \"#utility.yul\":4866:4984   */\n    tag_505:\n        /* \"#utility.yul\":4953:4977   */\n      tag_586\n        /* \"#utility.yul\":4971:4976   */\n      dup2\n        /* \"#utility.yul\":4953:4977   */\n      tag_502\n      jump\t// in\n    tag_586:\n        /* \"#utility.yul\":4948:4951   */\n      dup3\n        /* \"#utility.yul\":4941:4978   */\n      mstore\n        /* \"#utility.yul\":4866:4984   */\n      pop\n      pop\n      jump\t// out\n        /* \"#utility.yul\":4990:5212   */\n    tag_82:\n        /* \"#utility.yul\":5083:5087   */\n      0x00\n        /* \"#utility.yul\":5121:5123   */\n      0x20\n        /* \"#utility.yul\":5110:5119   */\n      dup3\n        /* \"#utility.yul\":5106:5124   */\n      add\n        /* \"#utility.yul\":5098:5124   */\n      swap1\n      pop\n        /* \"#utility.yul\":5134:5205   */\n      tag_588\n        /* \"#utility.yul\":5202:5203   */\n      0x00\n        /* \"#utility.yul\":5191:5200   */\n      dup4\n        /* \"#utility.yul\":5187:5204   */\n      add\n        /* \"#utility.yul\":5178:5184   */\n      dup5\n        /* \"#utility.yul\":5134:5205   */\n      tag_505\n      jump\t// in\n    tag_588:\n        /* \"#utility.yul\":4990:5212   */\n      swap3\n      swap2\n      pop\n      pop\n      jump\t// out\n        /* \"#utility.yul\":5218:5837   */\n    tag_85:\n        /* \"#utility.yul\":5295:5301   */\n      0x00\n        /* \"#utility.yul\":5303:5309   */\n      dup1\n        /* \"#utility.yul\":5311:5317   */\n      0x00\n        /* \"#utility.yul\":5360:5362   */\n      0x60\n        /* \"#utility.yul\":5348:5357   */\n      dup5\n        /* \"#utility.yul\":5339:5346   */\n      dup7\n        /* \"#utility.yul\":5335:5358   */\n      sub\n        /* \"#utility.yul\":5331:5363   */\n      slt\n        /* \"#utility.yul\":5328:5447   */\n      iszero\n      tag_590\n      jumpi\n        /* \"#utility.yul\":5366:5445   */\n      tag_591\n      tag_484\n      jump\t// in\n    tag_591:\n        /* \"#utility.yul\":5328:5447   */\n    tag_590:\n        /* \"#utility.yul\":5486:5487   */\n      0x00\n        /* \"#utility.yul\":5511:5564   */\n      tag_592\n        /* \"#utility.yul\":5556:5563   */\n      dup7\n        /* \"#utility.yul\":5547:5553   */\n      dup3\n        /* \"#utility.yul\":5536:5545   */\n      dup8\n        /* \"#utility.yul\":5532:5554   */\n      add\n        /* \"#utility.yul\":5511:5564   */\n      tag_494\n      jump\t// in\n    tag_592:\n        /* \"#utility.yul\":5501:5564   */\n      swap4\n      pop\n        /* \"#utility.yul\":5457:5574   */\n      pop\n        /* \"#utility.yul\":5613:5615   */\n      0x20\n        /* \"#utility.yul\":5639:5692   */\n      tag_593\n        /* \"#utility.yul\":5684:5691   */\n      dup7\n        /* \"#utility.yul\":5675:5681   */\n      dup3\n        /* \"#utility.yul\":5664:5673   */\n      dup8\n        /* \"#utility.yul\":5660:5682   */\n      add\n        /* \"#utility.yul\":5639:5692   */\n      tag_494\n      jump\t// in\n    tag_593:\n        /* \"#utility.yul\":5629:5692   */\n      swap3\n      pop\n        /* \"#utility.yul\":5584:5702   */\n      pop\n        /* \"#utility.yul\":5741:5743   */\n      0x40\n        /* \"#utility.yul\":5767:5820   */\n      tag_594\n        /* \"#utility.yul\":5812:5819   */\n      dup7\n        /* \"#utility.yul\":5803:5809   */\n      dup3\n        /* \"#utility.yul\":5792:5801   */\n      dup8\n        /* \"#utility.yul\":5788:5810   */\n      add\n        /* \"#utility.yul\":5767:5820   */\n      tag_504\n      jump\t// in\n    tag_594:\n        /* \"#utility.yul\":5757:5820   */\n      swap2\n      pop\n        /* \"#utility.yul\":5712:5830   */\n      pop\n        /* \"#utility.yul\":5218:5837   */\n      swap3\n      pop\n      swap3\n      pop\n      swap3\n      jump\t// out\n        /* \"#utility.yul\":5843:5965   */\n    tag_506:\n        /* \"#utility.yul\":5916:5940   */\n      tag_596\n        /* \"#utility.yul\":5934:5939   */\n      dup2\n        /* \"#utility.yul\":5916:5940   */\n      tag_495\n      jump\t// in\n    tag_596:\n        /* \"#utility.yul\":5909:5914   */\n      dup2\n        /* \"#utility.yul\":5906:5941   */\n      eq\n        /* \"#utility.yul\":5896:5959   */\n      tag_597\n      jumpi\n        /* \"#utility.yul\":5955:5956   */\n      0x00\n        /* \"#utility.yul\":5952:5953   */\n      dup1\n        /* \"#utility.yul\":5945:5957   */\n      revert\n        /* \"#utility.yul\":5896:5959   */\n    tag_597:\n        /* \"#utility.yul\":5843:5965   */\n      pop\n      jump\t// out\n        /* \"#utility.yul\":5971:6110   */\n    tag_507:\n        /* \"#utility.yul\":6017:6022   */\n      0x00\n        /* \"#utility.yul\":6055:6061   */\n      dup2\n        /* \"#utility.yul\":6042:6062   */\n      calldataload\n        /* \"#utility.yul\":6033:6062   */\n      swap1\n      pop\n        /* \"#utility.yul\":6071:6104   */\n      tag_599\n        /* \"#utility.yul\":6098:6103   */\n      dup2\n        /* \"#utility.yul\":6071:6104   */\n      tag_506\n      jump\t// in\n    tag_599:\n        /* \"#utility.yul\":5971:6110   */\n      swap3\n      swap2\n      pop\n      pop\n      jump\t// out\n        /* \"#utility.yul\":6116:6445   */\n    tag_93:\n        /* \"#utility.yul\":6175:6181   */\n      0x00\n        /* \"#utility.yul\":6224:6226   */\n      0x20\n        /* \"#utility.yul\":6212:6221   */\n      dup3\n        /* \"#utility.yul\":6203:6210   */\n      dup5\n        /* \"#utility.yul\":6199:6222   */\n      sub\n        /* \"#utility.yul\":6195:6227   */\n      slt\n        /* \"#utility.yul\":6192:6311   */\n      iszero\n      tag_601\n      jumpi\n        /* \"#utility.yul\":6230:6309   */\n      tag_602\n      tag_484\n      jump\t// in\n    tag_602:\n        /* \"#utility.yul\":6192:6311   */\n    tag_601:\n        /* \"#utility.yul\":6350:6351   */\n      0x00\n        /* \"#utility.yul\":6375:6428   */\n      tag_603\n        /* \"#utility.yul\":6420:6427   */\n      dup5\n        /* \"#utility.yul\":6411:6417   */\n      dup3\n        /* \"#utility.yul\":6400:6409   */\n      dup6\n        /* \"#utility.yul\":6396:6418   */\n      add\n        /* \"#utility.yul\":6375:6428   */\n      tag_507\n      jump\t// in\n    tag_603:\n        /* \"#utility.yul\":6365:6428   */\n      swap2\n      pop\n        /* \"#utility.yul\":6321:6438   */\n      pop\n        /* \"#utility.yul\":6116:6445   */\n      swap3\n      swap2\n      pop\n      pop\n      jump\t// out\n        /* \"#utility.yul\":6451:6925   */\n    tag_104:\n        /* \"#utility.yul\":6519:6525   */\n      0x00\n        /* \"#utility.yul\":6527:6533   */\n      dup1\n        /* \"#utility.yul\":6576:6578   */\n      0x40\n        /* \"#utility.yul\":6564:6573   */\n      dup4\n        /* \"#utility.yul\":6555:6562   */\n      dup6\n        /* \"#utility.yul\":6551:6574   */\n      sub\n        /* \"#utility.yul\":6547:6579   */\n      slt\n        /* \"#utility.yul\":6544:6663   */\n      iszero\n      tag_605\n      jumpi\n        /* \"#utility.yul\":6582:6661   */\n      tag_606\n      tag_484\n      jump\t// in\n    tag_606:\n        /* \"#utility.yul\":6544:6663   */\n    tag_605:\n        /* \"#utility.yul\":6702:6703   */\n      0x00\n        /* \"#utility.yul\":6727:6780   */\n      tag_607\n        /* \"#utility.yul\":6772:6779   */\n      dup6\n        /* \"#utility.yul\":6763:6769   */\n      dup3\n        /* \"#utility.yul\":6752:6761   */\n      dup7\n        /* \"#utility.yul\":6748:6770   */\n      add\n        /* \"#utility.yul\":6727:6780   */\n      tag_507\n      jump\t// in\n    tag_607:\n        /* \"#utility.yul\":6717:6780   */\n      swap3\n      pop\n        /* \"#utility.yul\":6673:6790   */\n      pop\n        /* \"#utility.yul\":6829:6831   */\n      0x20\n        /* \"#utility.yul\":6855:6908   */\n      tag_608\n        /* \"#utility.yul\":6900:6907   */\n      dup6\n        /* \"#utility.yul\":6891:6897   */\n      dup3\n        /* \"#utility.yul\":6880:6889   */\n      dup7\n        /* \"#utility.yul\":6876:6898   */\n      add\n        /* \"#utility.yul\":6855:6908   */\n      tag_494\n      jump\t// in\n    tag_608:\n        /* \"#utility.yul\":6845:6908   */\n      swap2\n      pop\n        /* \"#utility.yul\":6800:6918   */\n      pop\n        /* \"#utility.yul\":6451:6925   */\n      swap3\n      pop\n      swap3\n      swap1\n      pop\n      jump\t// out\n        /* \"#utility.yul\":6931:7017   */\n    tag_508:\n        /* \"#utility.yul\":6966:6973   */\n      0x00\n        /* \"#utility.yul\":7006:7010   */\n      0xff\n        /* \"#utility.yul\":6999:7004   */\n      dup3\n        /* \"#utility.yul\":6995:7011   */\n      and\n        /* \"#utility.yul\":6984:7011   */\n      swap1\n      pop\n        /* \"#utility.yul\":6931:7017   */\n      swap2\n      swap1\n      pop\n      jump\t// out\n        /* \"#utility.yul\":7023:7135   */\n    tag_509:\n        /* \"#utility.yul\":7106:7128   */\n      tag_611\n        /* \"#utility.yul\":7122:7127   */\n      dup2\n        /* \"#utility.yul\":7106:7128   */\n      tag_508\n      jump\t// in\n    tag_611:\n        /* \"#utility.yul\":7101:7104   */\n      dup3\n        /* \"#utility.yul\":7094:7129   */\n      mstore\n        /* \"#utility.yul\":7023:7135   */\n      pop\n      pop\n      jump\t// out\n        /* \"#utility.yul\":7141:7355   */\n    tag_112:\n        /* \"#utility.yul\":7230:7234   */\n      0x00\n        /* \"#utility.yul\":7268:7270   */\n      0x20\n        /* \"#utility.yul\":7257:7266   */\n      dup3\n        /* \"#utility.yul\":7253:7271   */\n      add\n        /* \"#utility.yul\":7245:7271   */\n      swap1\n      pop\n        /* \"#utility.yul\":7281:7348   */\n      tag_613\n        /* \"#utility.yul\":7345:7346   */\n      0x00\n        /* \"#utility.yul\":7334:7343   */\n      dup4\n        /* \"#utility.yul\":7330:7347   */\n      add\n        /* \"#utility.yul\":7321:7327   */\n      dup5\n        /* \"#utility.yul\":7281:7348   */\n      tag_509\n      jump\t// in\n    tag_613:\n        /* \"#utility.yul\":7141:7355   */\n      swap3\n      swap2\n      pop\n      pop\n      jump\t// out\n        /* \"#utility.yul\":7361:7479   */\n    tag_510:\n        /* \"#utility.yul\":7448:7472   */\n      tag_615\n        /* \"#utility.yul\":7466:7471   */\n      dup2\n        /* \"#utility.yul\":7448:7472   */\n      tag_492\n      jump\t// in\n    tag_615:\n        /* \"#utility.yul\":7443:7446   */\n      dup3\n        /* \"#utility.yul\":7436:7473   */\n      mstore\n        /* \"#utility.yul\":7361:7479   */\n      pop\n      pop\n      jump\t// out\n        /* \"#utility.yul\":7485:7707   */\n    tag_143:\n        /* \"#utility.yul\":7578:7582   */\n      0x00\n        /* \"#utility.yul\":7616:7618   */\n      0x20\n        /* \"#utility.yul\":7605:7614   */\n      dup3\n        /* \"#utility.yul\":7601:7619   */\n      add\n        /* \"#utility.yul\":7593:7619   */\n      swap1\n      pop\n        /* \"#utility.yul\":7629:7700   */\n      tag_617\n        /* \"#utility.yul\":7697:7698   */\n      0x00\n        /* \"#utility.yul\":7686:7695   */\n      dup4\n        /* \"#utility.yul\":7682:7699   */\n      add\n        /* \"#utility.yul\":7673:7679   */\n      dup5\n        /* \"#utility.yul\":7629:7700   */\n      tag_510\n      jump\t// in\n    tag_617:\n        /* \"#utility.yul\":7485:7707   */\n      swap3\n      swap2\n      pop\n      pop\n      jump\t// out\n        /* \"#utility.yul\":7713:8187   */\n    tag_184:\n        /* \"#utility.yul\":7781:7787   */\n      0x00\n        /* \"#utility.yul\":7789:7795   */\n      dup1\n        /* \"#utility.yul\":7838:7840   */\n      0x40\n        /* \"#utility.yul\":7826:7835   */\n      dup4\n        /* \"#utility.yul\":7817:7824   */\n      dup6\n        /* \"#utility.yul\":7813:7836   */\n      sub\n        /* \"#utility.yul\":7809:7841   */\n      slt\n        /* \"#utility.yul\":7806:7925   */\n      iszero\n      tag_619\n      jumpi\n        /* \"#utility.yul\":7844:7923   */\n      tag_620\n      tag_484\n      jump\t// in\n    tag_620:\n        /* \"#utility.yul\":7806:7925   */\n    tag_619:\n        /* \"#utility.yul\":7964:7965   */\n      0x00\n        /* \"#utility.yul\":7989:8042   */\n      tag_621\n        /* \"#utility.yul\":8034:8041   */\n      dup6\n        /* \"#utility.yul\":8025:8031   */\n      dup3\n        /* \"#utility.yul\":8014:8023   */\n      dup7\n        /* \"#utility.yul\":8010:8032   */\n      add\n        /* \"#utility.yul\":7989:8042   */\n      tag_494\n      jump\t// in\n    tag_621:\n        /* \"#utility.yul\":7979:8042   */\n      swap3\n      pop\n        /* \"#utility.yul\":7935:8052   */\n      pop\n        /* \"#utility.yul\":8091:8093   */\n      0x20\n        /* \"#utility.yul\":8117:8170   */\n      tag_622\n        /* \"#utility.yul\":8162:8169   */\n      dup6\n        /* \"#utility.yul\":8153:8159   */\n      dup3\n        /* \"#utility.yul\":8142:8151   */\n      dup7\n        /* \"#utility.yul\":8138:8160   */\n      add\n        /* \"#utility.yul\":8117:8170   */\n      tag_494\n      jump\t// in\n    tag_622:\n        /* \"#utility.yul\":8107:8170   */\n      swap2\n      pop\n        /* \"#utility.yul\":8062:8180   */\n      pop\n        /* \"#utility.yul\":7713:8187   */\n      swap3\n      pop\n      swap3\n      swap1\n      pop\n      jump\t// out\n        /* \"#utility.yul\":8193:8373   */\n    tag_511:\n        /* \"#utility.yul\":8241:8318   */\n      0x4e487b7100000000000000000000000000000000000000000000000000000000\n        /* \"#utility.yul\":8238:8239   */\n      0x00\n        /* \"#utility.yul\":8231:8319   */\n      mstore\n        /* \"#utility.yul\":8338:8342   */\n      0x22\n        /* \"#utility.yul\":8335:8336   */\n      0x04\n        /* \"#utility.yul\":8328:8343   */\n      mstore\n        /* \"#utility.yul\":8362:8366   */\n      0x24\n        /* \"#utility.yul\":8359:8360   */\n      0x00\n        /* \"#utility.yul\":8352:8367   */\n      revert\n        /* \"#utility.yul\":8379:8699   */\n    tag_215:\n        /* \"#utility.yul\":8423:8429   */\n      0x00\n        /* \"#utility.yul\":8460:8461   */\n      0x02\n        /* \"#utility.yul\":8454:8458   */\n      dup3\n        /* \"#utility.yul\":8450:8462   */\n      div\n        /* \"#utility.yul\":8440:8462   */\n      swap1\n      pop\n        /* \"#utility.yul\":8507:8508   */\n      0x01\n        /* \"#utility.yul\":8501:8505   */\n      dup3\n        /* \"#utility.yul\":8497:8509   */\n      and\n        /* \"#utility.yul\":8528:8546   */\n      dup1\n        /* \"#utility.yul\":8518:8599   */\n      tag_625\n      jumpi\n        /* \"#utility.yul\":8584:8588   */\n      0x7f\n        /* \"#utility.yul\":8576:8582   */\n      dup3\n        /* \"#utility.yul\":8572:8589   */\n      and\n        /* \"#utility.yul\":8562:8589   */\n      swap2\n      pop\n        /* \"#utility.yul\":8518:8599   */\n    tag_625:\n        /* \"#utility.yul\":8646:8648   */\n      0x20\n        /* \"#utility.yul\":8638:8644   */\n      dup3\n        /* \"#utility.yul\":8635:8649   */\n      lt\n        /* \"#utility.yul\":8615:8633   */\n      dup2\n        /* \"#utility.yul\":8612:8650   */\n      sub\n        /* \"#utility.yul\":8609:8693   */\n      tag_626\n      jumpi\n        /* \"#utility.yul\":8665:8683   */\n      tag_627\n      tag_511\n      jump\t// in\n    tag_627:\n        /* \"#utility.yul\":8609:8693   */\n    tag_626:\n        /* \"#utility.yul\":8430:8699   */\n      pop\n        /* \"#utility.yul\":8379:8699   */\n      swap2\n      swap1\n      pop\n      jump\t// out\n        /* \"#utility.yul\":8705:8885   */\n    tag_512:\n        /* \"#utility.yul\":8845:8877   */\n      0x4163636f756e7420697320616c726561647920626c61636b6c69737465640000\n        /* \"#utility.yul\":8841:8842   */\n      0x00\n        /* \"#utility.yul\":8833:8839   */\n      dup3\n        /* \"#utility.yul\":8829:8843   */\n      add\n        /* \"#utility.yul\":8822:8878   */\n      mstore\n        /* \"#utility.yul\":8705:8885   */\n      pop\n      jump\t// out\n        /* \"#utility.yul\":8891:9257   */\n    tag_513:\n        /* \"#utility.yul\":9033:9036   */\n      0x00\n        /* \"#utility.yul\":9054:9121   */\n      tag_630\n        /* \"#utility.yul\":9118:9120   */\n      0x1e\n        /* \"#utility.yul\":9113:9116   */\n      dup4\n        /* \"#utility.yul\":9054:9121   */\n      tag_498\n      jump\t// in\n    tag_630:\n        /* \"#utility.yul\":9047:9121   */\n      swap2\n      pop\n        /* \"#utility.yul\":9130:9223   */\n      tag_631\n        /* \"#utility.yul\":9219:9222   */\n      dup3\n        /* \"#utility.yul\":9130:9223   */\n      tag_512\n      jump\t// in\n    tag_631:\n        /* \"#utility.yul\":9248:9250   */\n      0x20\n        /* \"#utility.yul\":9243:9246   */\n      dup3\n        /* \"#utility.yul\":9239:9251   */\n      add\n        /* \"#utility.yul\":9232:9251   */\n      swap1\n      pop\n        /* \"#utility.yul\":8891:9257   */\n      swap2\n      swap1\n      pop\n      jump\t// out\n        /* \"#utility.yul\":9263:9682   */\n    tag_274:\n        /* \"#utility.yul\":9429:9433   */\n      0x00\n        /* \"#utility.yul\":9467:9469   */\n      0x20\n        /* \"#utility.yul\":9456:9465   */\n      dup3\n        /* \"#utility.yul\":9452:9470   */\n      add\n        /* \"#utility.yul\":9444:9470   */\n      swap1\n      pop\n        /* \"#utility.yul\":9516:9525   */\n      dup2\n        /* \"#utility.yul\":9510:9514   */\n      dup2\n        /* \"#utility.yul\":9506:9526   */\n      sub\n        /* \"#utility.yul\":9502:9503   */\n      0x00\n        /* \"#utility.yul\":9491:9500   */\n      dup4\n        /* \"#utility.yul\":9487:9504   */\n      add\n        /* \"#utility.yul\":9480:9527   */\n      mstore\n        /* \"#utility.yul\":9544:9675   */\n      tag_633\n        /* \"#utility.yul\":9670:9674   */\n      dup2\n        /* \"#utility.yul\":9544:9675   */\n      tag_513\n      jump\t// in\n    tag_633:\n        /* \"#utility.yul\":9536:9675   */\n      swap1\n      pop\n        /* \"#utility.yul\":9263:9682   */\n      swap2\n      swap1\n      pop\n      jump\t// out\n        /* \"#utility.yul\":9688:9864   */\n    tag_514:\n        /* \"#utility.yul\":9828:9856   */\n      0x4163636f756e74206973206e6f7420626c61636b6c6973746564000000000000\n        /* \"#utility.yul\":9824:9825   */\n      0x00\n        /* \"#utility.yul\":9816:9822   */\n      dup3\n        /* \"#utility.yul\":9812:9826   */\n      add\n        /* \"#utility.yul\":9805:9857   */\n      mstore\n        /* \"#utility.yul\":9688:9864   */\n      pop\n      jump\t// out\n        /* \"#utility.yul\":9870:10236   */\n    tag_515:\n        /* \"#utility.yul\":10012:10015   */\n      0x00\n        /* \"#utility.yul\":10033:10100   */\n      tag_636\n        /* \"#utility.yul\":10097:10099   */\n      0x1a\n        /* \"#utility.yul\":10092:10095   */\n      dup4\n        /* \"#utility.yul\":10033:10100   */\n      tag_498\n      jump\t// in\n    tag_636:\n        /* \"#utility.yul\":10026:10100   */\n      swap2\n      pop\n        /* \"#utility.yul\":10109:10202   */\n      tag_637\n        /* \"#utility.yul\":10198:10201   */\n      dup3\n        /* \"#utility.yul\":10109:10202   */\n      tag_514\n      jump\t// in\n    tag_637:\n        /* \"#utility.yul\":10227:10229   */\n      0x20\n        /* \"#utility.yul\":10222:10225   */\n      dup3\n        /* \"#utility.yul\":10218:10230   */\n      add\n        /* \"#utility.yul\":10211:10230   */\n      swap1\n      pop\n        /* \"#utility.yul\":9870:10236   */\n      swap2\n      swap1\n      pop\n      jump\t// out\n        /* \"#utility.yul\":10242:10661   */\n    tag_287:\n        /* \"#utility.yul\":10408:10412   */\n      0x00\n        /* \"#utility.yul\":10446:10448   */\n      0x20\n        /* \"#utility.yul\":10435:10444   */\n      dup3\n        /* \"#utility.yul\":10431:10449   */\n      add\n        /* \"#utility.yul\":10423:10449   */\n      swap1\n      pop\n        /* \"#utility.yul\":10495:10504   */\n      dup2\n        /* \"#utility.yul\":10489:10493   */\n      dup2\n        /* \"#utility.yul\":10485:10505   */\n      sub\n        /* \"#utility.yul\":10481:10482   */\n      0x00\n        /* \"#utility.yul\":10470:10479   */\n      dup4\n        /* \"#utility.yul\":10466:10483   */\n      add\n        /* \"#utility.yul\":10459:10506   */\n      mstore\n        /* \"#utility.yul\":10523:10654   */\n      tag_639\n        /* \"#utility.yul\":10649:10653   */\n      dup2\n        /* \"#utility.yul\":10523:10654   */\n      tag_515\n      jump\t// in\n    tag_639:\n        /* \"#utility.yul\":10515:10654   */\n      swap1\n      pop\n        /* \"#utility.yul\":10242:10661   */\n      swap2\n      swap1\n      pop\n      jump\t// out\n        /* \"#utility.yul\":10667:10838   */\n    tag_516:\n        /* \"#utility.yul\":10807:10830   */\n      0x4163636f756e74206973206e6f742066726f7a656e0000000000000000000000\n        /* \"#utility.yul\":10803:10804   */\n      0x00\n        /* \"#utility.yul\":10795:10801   */\n      dup3\n        /* \"#utility.yul\":10791:10805   */\n      add\n        /* \"#utility.yul\":10784:10831   */\n      mstore\n        /* \"#utility.yul\":10667:10838   */\n      pop\n      jump\t// out\n        /* \"#utility.yul\":10844:11210   */\n    tag_517:\n        /* \"#utility.yul\":10986:10989   */\n      0x00\n        /* \"#utility.yul\":11007:11074   */\n      tag_642\n        /* \"#utility.yul\":11071:11073   */\n      0x15\n        /* \"#utility.yul\":11066:11069   */\n      dup4\n        /* \"#utility.yul\":11007:11074   */\n      tag_498\n      jump\t// in\n    tag_642:\n        /* \"#utility.yul\":11000:11074   */\n      swap2\n      pop\n        /* \"#utility.yul\":11083:11176   */\n      tag_643\n        /* \"#utility.yul\":11172:11175   */\n      dup3\n        /* \"#utility.yul\":11083:11176   */\n      tag_516\n      jump\t// in\n    tag_643:\n        /* \"#utility.yul\":11201:11203   */\n      0x20\n        /* \"#utility.yul\":11196:11199   */\n      dup3\n        /* \"#utility.yul\":11192:11204   */\n      add\n        /* \"#utility.yul\":11185:11204   */\n      swap1\n      pop\n        /* \"#utility.yul\":10844:11210   */\n      swap2\n      swap1\n      pop\n      jump\t// out\n        /* \"#utility.yul\":11216:11635   */\n    tag_302:\n        /* \"#utility.yul\":11382:11386   */\n      0x00\n        /* \"#utility.yul\":11420:11422   */\n      0x20\n        /* \"#utility.yul\":11409:11418   */\n      dup3\n        /* \"#utility.yul\":11405:11423   */\n      add\n        /* \"#utility.yul\":11397:11423   */\n      swap1\n      pop\n        /* \"#utility.yul\":11469:11478   */\n      dup2\n        /* \"#utility.yul\":11463:11467   */\n      dup2\n        /* \"#utility.yul\":11459:11479   */\n      sub\n        /* \"#utility.yul\":11455:11456   */\n      0x00\n        /* \"#utility.yul\":11444:11453   */\n      dup4\n        /* \"#utility.yul\":11440:11457   */\n      add\n        /* \"#utility.yul\":11433:11480   */\n      mstore\n        /* \"#utility.yul\":11497:11628   */\n      tag_645\n        /* \"#utility.yul\":11623:11627   */\n      dup2\n        /* \"#utility.yul\":11497:11628   */\n      tag_517\n      jump\t// in\n    tag_645:\n        /* \"#utility.yul\":11489:11628   */\n      swap1\n      pop\n        /* \"#utility.yul\":11216:11635   */\n      swap2\n      swap1\n      pop\n      jump\t// out\n        /* \"#utility.yul\":11641:11815   */\n    tag_518:\n        /* \"#utility.yul\":11781:11807   */\n      0x53656e646572206163636f756e742069732066726f7a656e0000000000000000\n        /* \"#utility.yul\":11777:11778   */\n      0x00\n        /* \"#utility.yul\":11769:11775   */\n      dup3\n        /* \"#utility.yul\":11765:11779   */\n      add\n        /* \"#utility.yul\":11758:11808   */\n      mstore\n        /* \"#utility.yul\":11641:11815   */\n      pop\n      jump\t// out\n        /* \"#utility.yul\":11821:12187   */\n    tag_519:\n        /* \"#utility.yul\":11963:11966   */\n      0x00\n        /* \"#utility.yul\":11984:12051   */\n      tag_648\n        /* \"#utility.yul\":12048:12050   */\n      0x18\n        /* \"#utility.yul\":12043:12046   */\n      dup4\n        /* \"#utility.yul\":11984:12051   */\n      tag_498\n      jump\t// in\n    tag_648:\n        /* \"#utility.yul\":11977:12051   */\n      swap2\n      pop\n        /* \"#utility.yul\":12060:12153   */\n      tag_649\n        /* \"#utility.yul\":12149:12152   */\n      dup3\n        /* \"#utility.yul\":12060:12153   */\n      tag_518\n      jump\t// in\n    tag_649:\n        /* \"#utility.yul\":12178:12180   */\n      0x20\n        /* \"#utility.yul\":12173:12176   */\n      dup3\n        /* \"#utility.yul\":12169:12181   */\n      add\n        /* \"#utility.yul\":12162:12181   */\n      swap1\n      pop\n        /* \"#utility.yul\":11821:12187   */\n      swap2\n      swap1\n      pop\n      jump\t// out\n        /* \"#utility.yul\":12193:12612   */\n    tag_330:\n        /* \"#utility.yul\":12359:12363   */\n      0x00\n        /* \"#utility.yul\":12397:12399   */\n      0x20\n        /* \"#utility.yul\":12386:12395   */\n      dup3\n        /* \"#utility.yul\":12382:12400   */\n      add\n        /* \"#utility.yul\":12374:12400   */\n      swap1\n      pop\n        /* \"#utility.yul\":12446:12455   */\n      dup2\n        /* \"#utility.yul\":12440:12444   */\n      dup2\n        /* \"#utility.yul\":12436:12456   */\n      sub\n        /* \"#utility.yul\":12432:12433   */\n      0x00\n        /* \"#utility.yul\":12421:12430   */\n      dup4\n        /* \"#utility.yul\":12417:12434   */\n      add\n        /* \"#utility.yul\":12410:12457   */\n      mstore\n        /* \"#utility.yul\":12474:12605   */\n      tag_651\n        /* \"#utility.yul\":12600:12604   */\n      dup2\n        /* \"#utility.yul\":12474:12605   */\n      tag_519\n      jump\t// in\n    tag_651:\n        /* \"#utility.yul\":12466:12605   */\n      swap1\n      pop\n        /* \"#utility.yul\":12193:12612   */\n      swap2\n      swap1\n      pop\n      jump\t// out\n        /* \"#utility.yul\":12618:12797   */\n    tag_520:\n        /* \"#utility.yul\":12758:12789   */\n      0x53656e646572206163636f756e7420697320626c61636b6c6973746564000000\n        /* \"#utility.yul\":12754:12755   */\n      0x00\n        /* \"#utility.yul\":12746:12752   */\n      dup3\n        /* \"#utility.yul\":12742:12756   */\n      add\n        /* \"#utility.yul\":12735:12790   */\n      mstore\n        /* \"#utility.yul\":12618:12797   */\n      pop\n      jump\t// out\n        /* \"#utility.yul\":12803:13169   */\n    tag_521:\n        /* \"#utility.yul\":12945:12948   */\n      0x00\n        /* \"#utility.yul\":12966:13033   */\n      tag_654\n        /* \"#utility.yul\":13030:13032   */\n      0x1d\n        /* \"#utility.yul\":13025:13028   */\n      dup4\n        /* \"#utility.yul\":12966:13033   */\n      tag_498\n      jump\t// in\n    tag_654:\n        /* \"#utility.yul\":12959:13033   */\n      swap2\n      pop\n        /* \"#utility.yul\":13042:13135   */\n      tag_655\n        /* \"#utility.yul\":13131:13134   */\n      dup3\n        /* \"#utility.yul\":13042:13135   */\n      tag_520\n      jump\t// in\n    tag_655:\n        /* \"#utility.yul\":13160:13162   */\n      0x20\n        /* \"#utility.yul\":13155:13158   */\n      dup3\n        /* \"#utility.yul\":13151:13163   */\n      add\n        /* \"#utility.yul\":13144:13163   */\n      swap1\n      pop\n        /* \"#utility.yul\":12803:13169   */\n      swap2\n      swap1\n      pop\n      jump\t// out\n        /* \"#utility.yul\":13175:13594   */\n    tag_334:\n        /* \"#utility.yul\":13341:13345   */\n      0x00\n        /* \"#utility.yul\":13379:13381   */\n      0x20\n        /* \"#utility.yul\":13368:13377   */\n      dup3\n        /* \"#utility.yul\":13364:13382   */\n      add\n        /* \"#utility.yul\":13356:13382   */\n      swap1\n      pop\n        /* \"#utility.yul\":13428:13437   */\n      dup2\n        /* \"#utility.yul\":13422:13426   */\n      dup2\n        /* \"#utility.yul\":13418:13438   */\n      sub\n        /* \"#utility.yul\":13414:13415   */\n      0x00\n        /* \"#utility.yul\":13403:13412   */\n      dup4\n        /* \"#utility.yul\":13399:13416   */\n      add\n        /* \"#utility.yul\":13392:13439   */\n      mstore\n        /* \"#utility.yul\":13456:13587   */\n      tag_657\n        /* \"#utility.yul\":13582:13586   */\n      dup2\n        /* \"#utility.yul\":13456:13587   */\n      tag_521\n      jump\t// in\n    tag_657:\n        /* \"#utility.yul\":13448:13587   */\n      swap1\n      pop\n        /* \"#utility.yul\":13175:13594   */\n      swap2\n      swap1\n      pop\n      jump\t// out\n        /* \"#utility.yul\":13600:13782   */\n    tag_522:\n        /* \"#utility.yul\":13740:13774   */\n      0x526563697069656e74206163636f756e7420697320626c61636b6c6973746564\n        /* \"#utility.yul\":13736:13737   */\n      0x00\n        /* \"#utility.yul\":13728:13734   */\n      dup3\n        /* \"#utility.yul\":13724:13738   */\n      add\n        /* \"#utility.yul\":13717:13775   */\n      mstore\n        /* \"#utility.yul\":13600:13782   */\n      pop\n      jump\t// out\n        /* \"#utility.yul\":13788:14154   */\n    tag_523:\n        /* \"#utility.yul\":13930:13933   */\n      0x00\n        /* \"#utility.yul\":13951:14018   */\n      tag_660\n        /* \"#utility.yul\":14015:14017   */\n      0x20\n        /* \"#utility.yul\":14010:14013   */\n      dup4\n        /* \"#utility.yul\":13951:14018   */\n      tag_498\n      jump\t// in\n    tag_660:\n        /* \"#utility.yul\":13944:14018   */\n      swap2\n      pop\n        /* \"#utility.yul\":14027:14120   */\n      tag_661\n        /* \"#utility.yul\":14116:14119   */\n      dup3\n        /* \"#utility.yul\":14027:14120   */\n      tag_522\n      jump\t// in\n    tag_661:\n        /* \"#utility.yul\":14145:14147   */\n      0x20\n        /* \"#utility.yul\":14140:14143   */\n      dup3\n        /* \"#utility.yul\":14136:14148   */\n      add\n        /* \"#utility.yul\":14129:14148   */\n      swap1\n      pop\n        /* \"#utility.yul\":13788:14154   */\n      swap2\n      swap1\n      pop\n      jump\t// out\n        /* \"#utility.yul\":14160:14579   */\n    tag_338:\n        /* \"#utility.yul\":14326:14330   */\n      0x00\n        /* \"#utility.yul\":14364:14366   */\n      0x20\n        /* \"#utility.yul\":14353:14362   */\n      dup3\n        /* \"#utility.yul\":14349:14367   */\n      add\n        /* \"#utility.yul\":14341:14367   */\n      swap1\n      pop\n        /* \"#utility.yul\":14413:14422   */\n      dup2\n        /* \"#utility.yul\":14407:14411   */\n      dup2\n        /* \"#utility.yul\":14403:14423   */\n      sub\n        /* \"#utility.yul\":14399:14400   */\n      0x00\n        /* \"#utility.yul\":14388:14397   */\n      dup4\n        /* \"#utility.yul\":14384:14401   */\n      add\n        /* \"#utility.yul\":14377:14424   */\n      mstore\n        /* \"#utility.yul\":14441:14572   */\n      tag_663\n        /* \"#utility.yul\":14567:14571   */\n      dup2\n        /* \"#utility.yul\":14441:14572   */\n      tag_523\n      jump\t// in\n    tag_663:\n        /* \"#utility.yul\":14433:14572   */\n      swap1\n      pop\n        /* \"#utility.yul\":14160:14579   */\n      swap2\n      swap1\n      pop\n      jump\t// out\n        /* \"#utility.yul\":14585:14760   */\n    tag_524:\n        /* \"#utility.yul\":14725:14752   */\n      0x4163636f756e7420697320616c72656164792066726f7a656e00000000000000\n        /* \"#utility.yul\":14721:14722   */\n      0x00\n        /* \"#utility.yul\":14713:14719   */\n      dup3\n        /* \"#utility.yul\":14709:14723   */\n      add\n        /* \"#utility.yul\":14702:14753   */\n      mstore\n        /* \"#utility.yul\":14585:14760   */\n      pop\n      jump\t// out\n        /* \"#utility.yul\":14766:15132   */\n    tag_525:\n        /* \"#utility.yul\":14908:14911   */\n      0x00\n        /* \"#utility.yul\":14929:14996   */\n      tag_666\n        /* \"#utility.yul\":14993:14995   */\n      0x19\n        /* \"#utility.yul\":14988:14991   */\n      dup4\n        /* \"#utility.yul\":14929:14996   */\n      tag_498\n      jump\t// in\n    tag_666:\n        /* \"#utility.yul\":14922:14996   */\n      swap2\n      pop\n        /* \"#utility.yul\":15005:15098   */\n      tag_667\n        /* \"#utility.yul\":15094:15097   */\n      dup3\n        /* \"#utility.yul\":15005:15098   */\n      tag_524\n      jump\t// in\n    tag_667:\n        /* \"#utility.yul\":15123:15125   */\n      0x20\n        /* \"#utility.yul\":15118:15121   */\n      dup3\n        /* \"#utility.yul\":15114:15126   */\n      add\n        /* \"#utility.yul\":15107:15126   */\n      swap1\n      pop\n        /* \"#utility.yul\":14766:15132   */\n      swap2\n      swap1\n      pop\n      jump\t// out\n        /* \"#utility.yul\":15138:15557   */\n    tag_363:\n        /* \"#utility.yul\":15304:15308   */\n      0x00\n        /* \"#utility.yul\":15342:15344   */\n      0x20\n        /* \"#utility.yul\":15331:15340   */\n      dup3\n        /* \"#utility.yul\":15327:15345   */\n      add\n        /* \"#utility.yul\":15319:15345   */\n      swap1\n      pop\n        /* \"#utility.yul\":15391:15400   */\n      dup2\n        /* \"#utility.yul\":15385:15389   */\n      dup2\n        /* \"#utility.yul\":15381:15401   */\n      sub\n        /* \"#utility.yul\":15377:15378   */\n      0x00\n        /* \"#utility.yul\":15366:15375   */\n      dup4\n        /* \"#utility.yul\":15362:15379   */\n      add\n        /* \"#utility.yul\":15355:15402   */\n      mstore\n        /* \"#utility.yul\":15419:15550   */\n      tag_669\n        /* \"#utility.yul\":15545:15549   */\n      dup2\n        /* \"#utility.yul\":15419:15550   */\n      tag_525\n      jump\t// in\n    tag_669:\n        /* \"#utility.yul\":15411:15550   */\n      swap1\n      pop\n        /* \"#utility.yul\":15138:15557   */\n      swap2\n      swap1\n      pop\n      jump\t// out\n        /* \"#utility.yul\":15563:16005   */\n    tag_404:\n        /* \"#utility.yul\":15712:15716   */\n      0x00\n        /* \"#utility.yul\":15750:15752   */\n      0x60\n        /* \"#utility.yul\":15739:15748   */\n      dup3\n        /* \"#utility.yul\":15735:15753   */\n      add\n        /* \"#utility.yul\":15727:15753   */\n      swap1\n      pop\n        /* \"#utility.yul\":15763:15834   */\n      tag_671\n        /* \"#utility.yul\":15831:15832   */\n      0x00\n        /* \"#utility.yul\":15820:15829   */\n      dup4\n        /* \"#utility.yul\":15816:15833   */\n      add\n        /* \"#utility.yul\":15807:15813   */\n      dup7\n        /* \"#utility.yul\":15763:15834   */\n      tag_510\n      jump\t// in\n    tag_671:\n        /* \"#utility.yul\":15844:15916   */\n      tag_672\n        /* \"#utility.yul\":15912:15914   */\n      0x20\n        /* \"#utility.yul\":15901:15910   */\n      dup4\n        /* \"#utility.yul\":15897:15915   */\n      add\n        /* \"#utility.yul\":15888:15894   */\n      dup6\n        /* \"#utility.yul\":15844:15916   */\n      tag_505\n      jump\t// in\n    tag_672:\n        /* \"#utility.yul\":15926:15998   */\n      tag_673\n        /* \"#utility.yul\":15994:15996   */\n      0x40\n        /* \"#utility.yul\":15983:15992   */\n      dup4\n        /* \"#utility.yul\":15979:15997   */\n      add\n        /* \"#utility.yul\":15970:15976   */\n      dup5\n        /* \"#utility.yul\":15926:15998   */\n      tag_505\n      jump\t// in\n    tag_673:\n        /* \"#utility.yul\":15563:16005   */\n      swap5\n      swap4\n      pop\n      pop\n      pop\n      pop\n      jump\t// out\n        /* \"#utility.yul\":16011:16343   */\n    tag_448:\n        /* \"#utility.yul\":16132:16136   */\n      0x00\n        /* \"#utility.yul\":16170:16172   */\n      0x40\n        /* \"#utility.yul\":16159:16168   */\n      dup3\n        /* \"#utility.yul\":16155:16173   */\n      add\n        /* \"#utility.yul\":16147:16173   */\n      swap1\n      pop\n        /* \"#utility.yul\":16183:16254   */\n      tag_675\n        /* \"#utility.yul\":16251:16252   */\n      0x00\n        /* \"#utility.yul\":16240:16249   */\n      dup4\n        /* \"#utility.yul\":16236:16253   */\n      add\n        /* \"#utility.yul\":16227:16233   */\n      dup6\n        /* \"#utility.yul\":16183:16254   */\n      tag_510\n      jump\t// in\n    tag_675:\n        /* \"#utility.yul\":16264:16336   */\n      tag_676\n        /* \"#utility.yul\":16332:16334   */\n      0x20\n        /* \"#utility.yul\":16321:16330   */\n      dup4\n        /* \"#utility.yul\":16317:16335   */\n      add\n        /* \"#utility.yul\":16308:16314   */\n      dup5\n        /* \"#utility.yul\":16264:16336   */\n      tag_496\n      jump\t// in\n    tag_676:\n        /* \"#utility.yul\":16011:16343   */\n      swap4\n      swap3\n      pop\n      pop\n      pop\n      jump\t// out\n        /* \"#utility.yul\":16349:16529   */\n    tag_526:\n        /* \"#utility.yul\":16397:16474   */\n      0x4e487b7100000000000000000000000000000000000000000000000000000000\n        /* \"#utility.yul\":16394:16395   */\n      0x00\n        /* \"#utility.yul\":16387:16475   */\n      mstore\n        /* \"#utility.yul\":16494:16498   */\n      0x11\n        /* \"#utility.yul\":16491:16492   */\n      0x04\n        /* \"#utility.yul\":16484:16499   */\n      mstore\n        /* \"#utility.yul\":16518:16522   */\n      0x24\n        /* \"#utility.yul\":16515:16516   */\n      0x00\n        /* \"#utility.yul\":16508:16523   */\n      revert\n        /* \"#utility.yul\":16535:16726   */\n    tag_452:\n        /* \"#utility.yul\":16575:16578   */\n      0x00\n        /* \"#utility.yul\":16594:16614   */\n      tag_679\n        /* \"#utility.yul\":16612:16613   */\n      dup3\n        /* \"#utility.yul\":16594:16614   */\n      tag_502\n      jump\t// in\n    tag_679:\n        /* \"#utility.yul\":16589:16614   */\n      swap2\n      pop\n        /* \"#utility.yul\":16628:16648   */\n      tag_680\n        /* \"#utility.yul\":16646:16647   */\n      dup4\n        /* \"#utility.yul\":16628:16648   */\n      tag_502\n      jump\t// in\n    tag_680:\n        /* \"#utility.yul\":16623:16648   */\n      swap3\n      pop\n        /* \"#utility.yul\":16671:16672   */\n      dup3\n        /* \"#utility.yul\":16668:16669   */\n      dup3\n        /* \"#utility.yul\":16664:16673   */\n      add\n        /* \"#utility.yul\":16657:16673   */\n      swap1\n      pop\n        /* \"#utility.yul\":16692:16695   */\n      dup1\n        /* \"#utility.yul\":16689:16690   */\n      dup3\n        /* \"#utility.yul\":16686:16696   */\n      gt\n        /* \"#utility.yul\":16683:16719   */\n      iszero\n      tag_681\n      jumpi\n        /* \"#utility.yul\":16699:16717   */\n      tag_682\n      tag_526\n      jump\t// in\n    tag_682:\n        /* \"#utility.yul\":16683:16719   */\n    tag_681:\n        /* \"#utility.yul\":16535:16726   */\n      swap3\n      swap2\n      pop\n      pop\n      jump\t// out\n        /* \"#utility.yul\":16732:16926   */\n    tag_468:\n        /* \"#utility.yul\":16772:16776   */\n      0x00\n        /* \"#utility.yul\":16792:16812   */\n      tag_684\n        /* \"#utility.yul\":16810:16811   */\n      dup3\n        /* \"#utility.yul\":16792:16812   */\n      tag_502\n      jump\t// in\n    tag_684:\n        /* \"#utility.yul\":16787:16812   */\n      swap2\n      pop\n        /* \"#utility.yul\":16826:16846   */\n      tag_685\n        /* \"#utility.yul\":16844:16845   */\n      dup4\n        /* \"#utility.yul\":16826:16846   */\n      tag_502\n      jump\t// in\n    tag_685:\n        /* \"#utility.yul\":16821:16846   */\n      swap3\n      pop\n        /* \"#utility.yul\":16870:16871   */\n      dup3\n        /* \"#utility.yul\":16867:16868   */\n      dup3\n        /* \"#utility.yul\":16863:16872   */\n      sub\n        /* \"#utility.yul\":16855:16872   */\n      swap1\n      pop\n        /* \"#utility.yul\":16894:16895   */\n      dup2\n        /* \"#utility.yul\":16888:16892   */\n      dup2\n        /* \"#utility.yul\":16885:16896   */\n      gt\n        /* \"#utility.yul\":16882:16919   */\n      iszero\n      tag_686\n      jumpi\n        /* \"#utility.yul\":16899:16917   */\n      tag_687\n      tag_526\n      jump\t// in\n    tag_687:\n        /* \"#utility.yul\":16882:16919   */\n    tag_686:\n        /* \"#utility.yul\":16732:16926   */\n      swap3\n      swap2\n      pop\n      pop\n      jump\t// out\n        /* \"#utility.yul\":16932:17112   */\n    tag_473:\n        /* \"#utility.yul\":16980:17057   */\n      0x4e487b7100000000000000000000000000000000000000000000000000000000\n        /* \"#utility.yul\":16977:16978   */\n      0x00\n        /* \"#utility.yul\":16970:17058   */\n      mstore\n        /* \"#utility.yul\":17077:17081   */\n      0x32\n        /* \"#utility.yul\":17074:17075   */\n      0x04\n        /* \"#utility.yul\":17067:17082   */\n      mstore\n        /* \"#utility.yul\":17101:17105   */\n      0x24\n        /* \"#utility.yul\":17098:17099   */\n      0x00\n        /* \"#utility.yul\":17091:17106   */\n      revert\n        /* \"#utility.yul\":17118:17298   */\n    tag_480:\n        /* \"#utility.yul\":17166:17243   */\n      0x4e487b7100000000000000000000000000000000000000000000000000000000\n        /* \"#utility.yul\":17163:17164   */\n      0x00\n        /* \"#utility.yul\":17156:17244   */\n      mstore\n        /* \"#utility.yul\":17263:17267   */\n      0x31\n        /* \"#utility.yul\":17260:17261   */\n      0x04\n        /* \"#utility.yul\":17253:17268   */\n      mstore\n        /* \"#utility.yul\":17287:17291   */\n      0x24\n        /* \"#utility.yul\":17284:17285   */\n      0x00\n        /* \"#utility.yul\":17277:17292   */\n      revert\n\n    auxdata: 0xa2646970667358221220f31b5309d1693d5e37ce7e37b580bbcb57512310b3baf8fac321aa345ecd65af64736f6c63430008190033\n}\n",
				"bytecode": {
					"linkReferences": {},
					"object": "608060405234801561000f575f80fd5b5060405161384938038061384983398181016040528101906100319190610a5c565b33838381600390816100439190610ce8565b5080600490816100539190610ce8565b5050505f73ffffffffffffffffffffffffffffffffffffffff168173ffffffffffffffffffffffffffffffffffffffff16036100c6575f6040517f1e4fbdf70000000000000000000000000000000000000000000000000000000081526004016100bd9190610df6565b60405180910390fd5b6100d58161014c60201b60201c565b506100e85f801b3361020f60201b60201c565b506100f9338261030560201b60201c565b6101083361038a60201b60201c565b610117336103cb60201b60201c565b6101263361040c60201b60201c565b6101353361044d60201b60201c565b6101443361048e60201b60201c565b505050610f0b565b5f60065f9054906101000a900473ffffffffffffffffffffffffffffffffffffffff1690508160065f6101000a81548173ffffffffffffffffffffffffffffffffffffffff021916908373ffffffffffffffffffffffffffffffffffffffff1602179055508173ffffffffffffffffffffffffffffffffffffffff168173ffffffffffffffffffffffffffffffffffffffff167f8be0079c531659141344cd1fd0a4f28419497f9722a3daafe3b4186f6b6457e060405160405180910390a35050565b5f61022083836104cf60201b60201c565b6102fb57600160055f8581526020019081526020015f205f015f8473ffffffffffffffffffffffffffffffffffffffff1673ffffffffffffffffffffffffffffffffffffffff1681526020019081526020015f205f6101000a81548160ff02191690831515021790555061029861053360201b60201c565b73ffffffffffffffffffffffffffffffffffffffff168273ffffffffffffffffffffffffffffffffffffffff16847f2f8788117e7eff1d82e926ec794901d17c78024a50270940304540a733656f0d60405160405180910390a4600190506102ff565b5f90505b92915050565b5f73ffffffffffffffffffffffffffffffffffffffff168273ffffffffffffffffffffffffffffffffffffffff1603610375575f6040517fec442f0500000000000000000000000000000000000000000000000000000000815260040161036c9190610df6565b60405180910390fd5b6103865f838361053a60201b60201c565b5050565b61039861075360201b60201c565b6103c87f9f2df0fed2c77648de5860a4cc508cd0818c85b8b8a1ab4ceeef8d981c8956a6826107ec60201b60201c565b50565b6103d961075360201b60201c565b6104097f3c11d16cbaffd01df69ce1c404f6340ee057498f5f00246190ea54220576a848826107ec60201b60201c565b50565b61041a61075360201b60201c565b61044a7f92de27771f92d6942691d73358b3a4673e4880de8356f8f2cf452be87e02d363826107ec60201b60201c565b50565b61045b61075360201b60201c565b61048b7ff988e4fb62b8e14f4820fed03192306ddf4d7dbfa215595ba1c6ba4b76b369ee826107ec60201b60201c565b50565b61049c61075360201b60201c565b6104cc7f62b337eaefec74dadf1a62e856bf9db4f14a0f27d4f48156a95a9f98e7d5e066826107ec60201b60201c565b50565b5f60055f8481526020019081526020015f205f015f8373ffffffffffffffffffffffffffffffffffffffff1673ffffffffffffffffffffffffffffffffffffffff1681526020019081526020015f205f9054906101000a900460ff16905092915050565b5f33905090565b5f73ffffffffffffffffffffffffffffffffffffffff168373ffffffffffffffffffffffffffffffffffffffff160361058a578060025f82825461057e9190610e3c565b92505081905550610658565b5f805f8573ffffffffffffffffffffffffffffffffffffffff1673ffffffffffffffffffffffffffffffffffffffff1681526020019081526020015f2054905081811015610613578381836040517fe450d38c00000000000000000000000000000000000000000000000000000000815260040161060a93929190610e7e565b60405180910390fd5b8181035f808673ffffffffffffffffffffffffffffffffffffffff1673ffffffffffffffffffffffffffffffffffffffff1681526020019081526020015f2081905550505b5f73ffffffffffffffffffffffffffffffffffffffff168273ffffffffffffffffffffffffffffffffffffffff160361069f578060025f82825403925050819055506106e9565b805f808473ffffffffffffffffffffffffffffffffffffffff1673ffffffffffffffffffffffffffffffffffffffff1681526020019081526020015f205f82825401925050819055505b8173ffffffffffffffffffffffffffffffffffffffff168373ffffffffffffffffffffffffffffffffffffffff167fddf252ad1be2c89b69c2b068fc378daa952ba7f163c4a11628f55a4df523b3ef836040516107469190610eb3565b60405180910390a3505050565b61076161053360201b60201c565b73ffffffffffffffffffffffffffffffffffffffff1661078561082060201b60201c565b73ffffffffffffffffffffffffffffffffffffffff16146107ea576107ae61053360201b60201c565b6040517f118cdaa70000000000000000000000000000000000000000000000000000000081526004016107e19190610df6565b60405180910390fd5b565b6107fb8261084860201b60201c565b61080a8161086560201b60201c565b61081a838361020f60201b60201c565b50505050565b5f60065f9054906101000a900473ffffffffffffffffffffffffffffffffffffffff16905090565b5f60055f8381526020019081526020015f20600101549050919050565b6108828161087761053360201b60201c565b61088560201b60201c565b50565b61089582826104cf60201b60201c565b6108d85780826040517fe2517d3f0000000000000000000000000000000000000000000000000000000081526004016108cf929190610ee4565b60405180910390fd5b5050565b5f604051905090565b5f80fd5b5f80fd5b5f80fd5b5f80fd5b5f601f19601f8301169050919050565b7f4e487b71000000000000000000000000000000000000000000000000000000005f52604160045260245ffd5b61093b826108f5565b810181811067ffffffffffffffff8211171561095a57610959610905565b5b80604052505050565b5f61096c6108dc565b90506109788282610932565b919050565b5f67ffffffffffffffff82111561099757610996610905565b5b6109a0826108f5565b9050602081019050919050565b8281835e5f83830152505050565b5f6109cd6109c88461097d565b610963565b9050828152602081018484840111156109e9576109e86108f1565b5b6109f48482856109ad565b509392505050565b5f82601f830112610a1057610a0f6108ed565b5b8151610a208482602086016109bb565b91505092915050565b5f819050919050565b610a3b81610a29565b8114610a45575f80fd5b50565b5f81519050610a5681610a32565b92915050565b5f805f60608486031215610a7357610a726108e5565b5b5f84015167ffffffffffffffff811115610a9057610a8f6108e9565b5b610a9c868287016109fc565b935050602084015167ffffffffffffffff811115610abd57610abc6108e9565b5b610ac9868287016109fc565b9250506040610ada86828701610a48565b9150509250925092565b5f81519050919050565b7f4e487b71000000000000000000000000000000000000000000000000000000005f52602260045260245ffd5b5f6002820490506001821680610b3257607f821691505b602082108103610b4557610b44610aee565b5b50919050565b5f819050815f5260205f209050919050565b5f6020601f8301049050919050565b5f82821b905092915050565b5f60088302610ba77fffffffffffffffffffffffffffffffffffffffffffffffffffffffffffffffff82610b6c565b610bb18683610b6c565b95508019841693508086168417925050509392505050565b5f819050919050565b5f610bec610be7610be284610a29565b610bc9565b610a29565b9050919050565b5f819050919050565b610c0583610bd2565b610c19610c1182610bf3565b848454610b78565b825550505050565b5f90565b610c2d610c21565b610c38818484610bfc565b505050565b5b81811015610c5b57610c505f82610c25565b600181019050610c3e565b5050565b601f821115610ca057610c7181610b4b565b610c7a84610b5d565b81016020851015610c89578190505b610c9d610c9585610b5d565b830182610c3d565b50505b505050565b5f82821c905092915050565b5f610cc05f1984600802610ca5565b1980831691505092915050565b5f610cd88383610cb1565b9150826002028217905092915050565b610cf182610ae4565b67ffffffffffffffff811115610d0a57610d09610905565b5b610d148254610b1b565b610d1f828285610c5f565b5f60209050601f831160018114610d50575f8415610d3e578287015190505b610d488582610ccd565b865550610daf565b601f198416610d5e86610b4b565b5f5b82811015610d8557848901518255600182019150602085019450602081019050610d60565b86831015610da25784890151610d9e601f891682610cb1565b8355505b6001600288020188555050505b505050505050565b5f73ffffffffffffffffffffffffffffffffffffffff82169050919050565b5f610de082610db7565b9050919050565b610df081610dd6565b82525050565b5f602082019050610e095f830184610de7565b92915050565b7f4e487b71000000000000000000000000000000000000000000000000000000005f52601160045260245ffd5b5f610e4682610a29565b9150610e5183610a29565b9250828201905080821115610e6957610e68610e0f565b5b92915050565b610e7881610a29565b82525050565b5f606082019050610e915f830186610de7565b610e9e6020830185610e6f565b610eab6040830184610e6f565b949350505050565b5f602082019050610ec65f830184610e6f565b92915050565b5f819050919050565b610ede81610ecc565b82525050565b5f604082019050610ef75f830185610de7565b610f046020830184610ed5565b9392505050565b61293180610f185f395ff3fe608060405234801561000f575f80fd5b5060043610610267575f3560e01c806370a082311161014f578063a9059cbb116100c1578063dd62ed3e11610085578063dd62ed3e14610707578063e583983614610737578063f26c159f14610767578063f2fde38b14610783578063f44637ba1461079f578063fe575a87146107bb57610267565b8063a9059cbb14610665578063c2134b2314610695578063d1c2de0a146106b1578063d5391393146106cd578063d547741f146106eb57610267565b8063939bcbc911610113578063939bcbc9146105b757806395d89b41146105d5578063974b368c146105f3578063983b2d561461060f5780639dc29fac1461062b578063a217fddf1461064757610267565b806370a0823114610513578063715018a614610543578063788649ea1461054d5780638da5cb5b1461056957806391d148541461058757610267565b8063282c51f3116101e857806336568abe116101ac57806336568abe1461046957806340c10f1914610485578063410b2424146104a157806344337ea1146104bf578063526606c9146104db578063537df3b6146104f757610267565b8063282c51f3146103d95780632acd2000146103f75780632f2ff15d146104135780633092afd51461042f578063313ce5671461044b57610267565b80630eff2afc1161022f5780630eff2afc1461032357806318160ddd1461033f5780631ec82cb81461035d57806323b872dd14610379578063248a9ca3146103a957610267565b806301ffc9a71461026b578063028468581461029b57806306a85f0f146102b757806306fdde03146102d5578063095ea7b3146102f3575b5f80fd5b610285600480360381019061028091906120c3565b6107eb565b6040516102929190612108565b60405180910390f35b6102b560048036038101906102b0919061217b565b610864565b005b6102bf610899565b6040516102cc91906121be565b60405180910390f35b6102dd6108bd565b6040516102ea9190612247565b60405180910390f35b61030d6004803603810190610308919061229a565b61094d565b60405161031a9190612108565b60405180910390f35b61033d6004803603810190610338919061217b565b61096f565b005b6103476109a4565b60405161035491906122e7565b60405180910390f35b61037760048036038101906103729190612300565b6109ad565b005b610393600480360381019061038e9190612300565b6109e8565b6040516103a09190612108565b60405180910390f35b6103c360048036038101906103be919061237a565b610a16565b6040516103d091906121be565b60405180910390f35b6103e1610a33565b6040516103ee91906121be565b60405180910390f35b610411600480360381019061040c919061217b565b610a57565b005b61042d600480360381019061042891906123a5565b610a8c565b005b6104496004803603810190610444919061217b565b610aae565b005b610453610ae3565b60405161046091906123fe565b60405180910390f35b610483600480360381019061047e91906123a5565b610aeb565b005b61049f600480360381019061049a919061229a565b610b66565b005b6104a9610b9f565b6040516104b691906121be565b60405180910390f35b6104d960048036038101906104d4919061217b565b610bc3565b005b6104f560048036038101906104f0919061217b565b610c5a565b005b610511600480360381019061050c919061217b565b610c8f565b005b61052d6004803603810190610528919061217b565b610d25565b60405161053a91906122e7565b60405180910390f35b61054b610d6a565b005b6105676004803603810190610562919061217b565b610d7d565b005b610571610e13565b60405161057e9190612426565b60405180910390f35b6105a1600480360381019061059c91906123a5565b610e3b565b6040516105ae9190612108565b60405180910390f35b6105bf610e9f565b6040516105cc91906121be565b60405180910390f35b6105dd610ec3565b6040516105ea9190612247565b60405180910390f35b61060d6004803603810190610608919061217b565b610f53565b005b6106296004803603810190610624919061217b565b610f88565b005b6106456004803603810190610640919061229a565b610fbd565b005b61064f610ff6565b60405161065c91906121be565b60405180910390f35b61067f600480360381019061067a919061229a565b610ffc565b60405161068c9190612108565b60405180910390f35b6106af60048036038101906106aa919061217b565b611117565b005b6106cb60048036038101906106c6919061217b565b61114c565b005b6106d5611181565b6040516106e291906121be565b60405180910390f35b610705600480360381019061070091906123a5565b6111a5565b005b610721600480360381019061071c919061243f565b6111c7565b60405161072e91906122e7565b60405180910390f35b610751600480360381019061074c919061217b565b611249565b60405161075e9190612108565b60405180910390f35b610781600480360381019061077c919061217b565b611265565b005b61079d6004803603810190610798919061217b565b6112fc565b005b6107b960048036038101906107b4919061217b565b611380565b005b6107d560048036038101906107d0919061217b565b6113b5565b6040516107e29190612108565b60405180910390f35b5f7f7965db0b000000000000000000000000000000000000000000000000000000007bffffffffffffffffffffffffffffffffffffffffffffffffffffffff1916827bffffffffffffffffffffffffffffffffffffffffffffffffffffffff1916148061085d575061085c826113d1565b5b9050919050565b61086c61143a565b6108967f3c11d16cbaffd01df69ce1c404f6340ee057498f5f00246190ea54220576a848826111a5565b50565b7f92de27771f92d6942691d73358b3a4673e4880de8356f8f2cf452be87e02d36381565b6060600380546108cc906124aa565b80601f01602080910402602001604051908101604052809291908181526020018280546108f8906124aa565b80156109435780601f1061091a57610100808354040283529160200191610943565b820191905f5260205f20905b81548152906001019060200180831161092657829003601f168201915b5050505050905090565b5f806109576114c1565b90506109648185856114c8565b600191505092915050565b61097761143a565b6109a17ff988e4fb62b8e14f4820fed03192306ddf4d7dbfa215595ba1c6ba4b76b369ee82610a8c565b50565b5f600254905090565b7f62b337eaefec74dadf1a62e856bf9db4f14a0f27d4f48156a95a9f98e7d5e0666109d7816114da565b6109e28484846114ee565b50505050565b5f806109f26114c1565b90506109ff8582856115de565b610a0a8585856114ee565b60019150509392505050565b5f60055f8381526020019081526020015f20600101549050919050565b7f3c11d16cbaffd01df69ce1c404f6340ee057498f5f00246190ea54220576a84881565b610a5f61143a565b610a897f92de27771f92d6942691d73358b3a4673e4880de8356f8f2cf452be87e02d363826111a5565b50565b610a9582610a16565b610a9e816114da565b610aa88383611670565b50505050565b610ab661143a565b610ae07f9f2df0fed2c77648de5860a4cc508cd0818c85b8b8a1ab4ceeef8d981c8956a6826111a5565b50565b5f6012905090565b610af36114c1565b73ffffffffffffffffffffffffffffffffffffffff168173ffffffffffffffffffffffffffffffffffffffff1614610b57576040517f6697b23200000000000000000000000000000000000000000000000000000000815260040160405180910390fd5b610b61828261175a565b505050565b7f9f2df0fed2c77648de5860a4cc508cd0818c85b8b8a1ab4ceeef8d981c8956a6610b90816114da565b610b9a8383611844565b505050565b7ff988e4fb62b8e14f4820fed03192306ddf4d7dbfa215595ba1c6ba4b76b369ee81565b7ff988e4fb62b8e14f4820fed03192306ddf4d7dbfa215595ba1c6ba4b76b369ee610bed816114da565b610c018260096118c390919063ffffffff16565b15610c41576040517f08c379a0000000000000000000000000000000000000000000000000000000008152600401610c3890612524565b60405180910390fd5b610c558260096118f090919063ffffffff16565b505050565b610c6261143a565b610c8c7f92de27771f92d6942691d73358b3a4673e4880de8356f8f2cf452be87e02d36382610a8c565b50565b7ff988e4fb62b8e14f4820fed03192306ddf4d7dbfa215595ba1c6ba4b76b369ee610cb9816114da565b610ccd8260096118c390919063ffffffff16565b610d0c576040517f08c379a0000000000000000000000000000000000000000000000000000000008152600401610d039061258c565b60405180910390fd5b610d2082600961191d90919063ffffffff16565b505050565b5f805f8373ffffffffffffffffffffffffffffffffffffffff1673ffffffffffffffffffffffffffffffffffffffff1681526020019081526020015f20549050919050565b610d7261143a565b610d7b5f61194a565b565b7f92de27771f92d6942691d73358b3a4673e4880de8356f8f2cf452be87e02d363610da7816114da565b610dbb8260076118c390919063ffffffff16565b610dfa576040517f08c379a0000000000000000000000000000000000000000000000000000000008152600401610df1906125f4565b60405180910390fd5b610e0e82600761191d90919063ffffffff16565b505050565b5f60065f9054906101000a900473ffffffffffffffffffffffffffffffffffffffff16905090565b5f60055f8481526020019081526020015f205f015f8373ffffffffffffffffffffffffffffffffffffffff1673ffffffffffffffffffffffffffffffffffffffff1681526020019081526020015f205f9054906101000a900460ff16905092915050565b7f62b337eaefec74dadf1a62e856bf9db4f14a0f27d4f48156a95a9f98e7d5e06681565b606060048054610ed2906124aa565b80601f0160208091040260200160405190810160405280929190818152602001828054610efe906124aa565b8015610f495780601f10610f2057610100808354040283529160200191610f49565b820191905f5260205f20905b815481529060010190602001808311610f2c57829003601f168201915b5050505050905090565b610f5b61143a565b610f857ff988e4fb62b8e14f4820fed03192306ddf4d7dbfa215595ba1c6ba4b76b369ee826111a5565b50565b610f9061143a565b610fba7f9f2df0fed2c77648de5860a4cc508cd0818c85b8b8a1ab4ceeef8d981c8956a682610a8c565b50565b7f3c11d16cbaffd01df69ce1c404f6340ee057498f5f00246190ea54220576a848610fe7816114da565b610ff18383611a0d565b505050565b5f801b81565b5f806110066114c1565b905061101c8160076118c390919063ffffffff16565b1561105c576040517f08c379a00000000000000000000000000000000000000000000000000000000081526004016110539061265c565b60405180910390fd5b6110708160096118c390919063ffffffff16565b156110b0576040517f08c379a00000000000000000000000000000000000000000000000000000000081526004016110a7906126c4565b60405180910390fd5b6110c48460096118c390919063ffffffff16565b15611104576040517f08c379a00000000000000000000000000000000000000000000000000000000081526004016110fb9061272c565b60405180910390fd5b61110e8484611a8c565b91505092915050565b61111f61143a565b6111497f62b337eaefec74dadf1a62e856bf9db4f14a0f27d4f48156a95a9f98e7d5e06682610a8c565b50565b61115461143a565b61117e7f62b337eaefec74dadf1a62e856bf9db4f14a0f27d4f48156a95a9f98e7d5e066826111a5565b50565b7f9f2df0fed2c77648de5860a4cc508cd0818c85b8b8a1ab4ceeef8d981c8956a681565b6111ae82610a16565b6111b7816114da565b6111c1838361175a565b50505050565b5f60015f8473ffffffffffffffffffffffffffffffffffffffff1673ffffffffffffffffffffffffffffffffffffffff1681526020019081526020015f205f8373ffffffffffffffffffffffffffffffffffffffff1673ffffffffffffffffffffffffffffffffffffffff1681526020019081526020015f2054905092915050565b5f61125e8260076118c390919063ffffffff16565b9050919050565b7f92de27771f92d6942691d73358b3a4673e4880de8356f8f2cf452be87e02d36361128f816114da565b6112a38260076118c390919063ffffffff16565b156112e3576040517f08c379a00000000000000000000000000000000000000000000000000000000081526004016112da90612794565b60405180910390fd5b6112f78260076118f090919063ffffffff16565b505050565b61130461143a565b5f73ffffffffffffffffffffffffffffffffffffffff168173ffffffffffffffffffffffffffffffffffffffff1603611374575f6040517f1e4fbdf700000000000000000000000000000000000000000000000000000000815260040161136b9190612426565b60405180910390fd5b61137d8161194a565b50565b61138861143a565b6113b27f3c11d16cbaffd01df69ce1c404f6340ee057498f5f00246190ea54220576a84882610a8c565b50565b5f6113ca8260096118c390919063ffffffff16565b9050919050565b5f7f01ffc9a7000000000000000000000000000000000000000000000000000000007bffffffffffffffffffffffffffffffffffffffffffffffffffffffff1916827bffffffffffffffffffffffffffffffffffffffffffffffffffffffff1916149050919050565b6114426114c1565b73ffffffffffffffffffffffffffffffffffffffff16611460610e13565b73ffffffffffffffffffffffffffffffffffffffff16146114bf576114836114c1565b6040517f118cdaa70000000000000000000000000000000000000000000000000000000081526004016114b69190612426565b60405180910390fd5b565b5f33905090565b6114d58383836001611aae565b505050565b6114eb816114e66114c1565b611c7d565b50565b5f73ffffffffffffffffffffffffffffffffffffffff168373ffffffffffffffffffffffffffffffffffffffff160361155e575f6040517f96c6fd1e0000000000000000000000000000000000000000000000000000000081526004016115559190612426565b60405180910390fd5b5f73ffffffffffffffffffffffffffffffffffffffff168273ffffffffffffffffffffffffffffffffffffffff16036115ce575f6040517fec442f050000000000000000000000000000000000000000000000000000000081526004016115c59190612426565b60405180910390fd5b6115d9838383611cce565b505050565b5f6115e984846111c7565b90507fffffffffffffffffffffffffffffffffffffffffffffffffffffffffffffffff811461166a578181101561165b578281836040517ffb8f41b2000000000000000000000000000000000000000000000000000000008152600401611652939291906127b2565b60405180910390fd5b61166984848484035f611aae565b5b50505050565b5f61167b8383610e3b565b61175057600160055f8581526020019081526020015f205f015f8473ffffffffffffffffffffffffffffffffffffffff1673ffffffffffffffffffffffffffffffffffffffff1681526020019081526020015f205f6101000a81548160ff0219169083151502179055506116ed6114c1565b73ffffffffffffffffffffffffffffffffffffffff168273ffffffffffffffffffffffffffffffffffffffff16847f2f8788117e7eff1d82e926ec794901d17c78024a50270940304540a733656f0d60405160405180910390a460019050611754565b5f90505b92915050565b5f6117658383610e3b565b1561183a575f60055f8581526020019081526020015f205f015f8473ffffffffffffffffffffffffffffffffffffffff1673ffffffffffffffffffffffffffffffffffffffff1681526020019081526020015f205f6101000a81548160ff0219169083151502179055506117d76114c1565b73ffffffffffffffffffffffffffffffffffffffff168273ffffffffffffffffffffffffffffffffffffffff16847ff6391f5c32d9c69d2a47ea670b442974b53935d1edc7fd64eb21e047a839171b60405160405180910390a46001905061183e565b5f90505b92915050565b5f73ffffffffffffffffffffffffffffffffffffffff168273ffffffffffffffffffffffffffffffffffffffff16036118b4575f6040517fec442f050000000000000000000000000000000000000000000000000000000081526004016118ab9190612426565b60405180910390fd5b6118bf5f8383611cce565b5050565b5f6118e8835f018373ffffffffffffffffffffffffffffffffffffffff165f1b611ee7565b905092915050565b5f611915835f018373ffffffffffffffffffffffffffffffffffffffff165f1b611f07565b905092915050565b5f611942835f018373ffffffffffffffffffffffffffffffffffffffff165f1b611f6e565b905092915050565b5f60065f9054906101000a900473ffffffffffffffffffffffffffffffffffffffff1690508160065f6101000a81548173ffffffffffffffffffffffffffffffffffffffff021916908373ffffffffffffffffffffffffffffffffffffffff1602179055508173ffffffffffffffffffffffffffffffffffffffff168173ffffffffffffffffffffffffffffffffffffffff167f8be0079c531659141344cd1fd0a4f28419497f9722a3daafe3b4186f6b6457e060405160405180910390a35050565b5f73ffffffffffffffffffffffffffffffffffffffff168273ffffffffffffffffffffffffffffffffffffffff1603611a7d575f6040517f96c6fd1e000000000000000000000000000000000000000000000000000000008152600401611a749190612426565b60405180910390fd5b611a88825f83611cce565b5050565b5f80611a966114c1565b9050611aa38185856114ee565b600191505092915050565b5f73ffffffffffffffffffffffffffffffffffffffff168473ffffffffffffffffffffffffffffffffffffffff1603611b1e575f6040517fe602df05000000000000000000000000000000000000000000000000000000008152600401611b159190612426565b60405180910390fd5b5f73ffffffffffffffffffffffffffffffffffffffff168373ffffffffffffffffffffffffffffffffffffffff1603611b8e575f6040517f94280d62000000000000000000000000000000000000000000000000000000008152600401611b859190612426565b60405180910390fd5b8160015f8673ffffffffffffffffffffffffffffffffffffffff1673ffffffffffffffffffffffffffffffffffffffff1681526020019081526020015f205f8573ffffffffffffffffffffffffffffffffffffffff1673ffffffffffffffffffffffffffffffffffffffff1681526020019081526020015f20819055508015611c77578273ffffffffffffffffffffffffffffffffffffffff168473ffffffffffffffffffffffffffffffffffffffff167f8c5be1e5ebec7d5bd14f71427d1e84f3dd0314c0f7b2291e5b200ac8c7c3b92584604051611c6e91906122e7565b60405180910390a35b50505050565b611c878282610e3b565b611cca5780826040517fe2517d3f000000000000000000000000000000000000000000000000000000008152600401611cc19291906127e7565b60405180910390fd5b5050565b5f73ffffffffffffffffffffffffffffffffffffffff168373ffffffffffffffffffffffffffffffffffffffff1603611d1e578060025f828254611d12919061283b565b92505081905550611dec565b5f805f8573ffffffffffffffffffffffffffffffffffffffff1673ffffffffffffffffffffffffffffffffffffffff1681526020019081526020015f2054905081811015611da7578381836040517fe450d38c000000000000000000000000000000000000000000000000000000008152600401611d9e939291906127b2565b60405180910390fd5b8181035f808673ffffffffffffffffffffffffffffffffffffffff1673ffffffffffffffffffffffffffffffffffffffff1681526020019081526020015f2081905550505b5f73ffffffffffffffffffffffffffffffffffffffff168273ffffffffffffffffffffffffffffffffffffffff1603611e33578060025f8282540392505081905550611e7d565b805f808473ffffffffffffffffffffffffffffffffffffffff1673ffffffffffffffffffffffffffffffffffffffff1681526020019081526020015f205f82825401925050819055505b8173ffffffffffffffffffffffffffffffffffffffff168373ffffffffffffffffffffffffffffffffffffffff167fddf252ad1be2c89b69c2b068fc378daa952ba7f163c4a11628f55a4df523b3ef83604051611eda91906122e7565b60405180910390a3505050565b5f80836001015f8481526020019081526020015f20541415905092915050565b5f611f128383611ee7565b611f6457825f0182908060018154018082558091505060019003905f5260205f20015f9091909190915055825f0180549050836001015f8481526020019081526020015f208190555060019050611f68565b5f90505b92915050565b5f80836001015f8481526020019081526020015f205490505f811461205f575f600182611f9b919061286e565b90505f6001865f0180549050611fb1919061286e565b9050808214612017575f865f018281548110611fd057611fcf6128a1565b5b905f5260205f200154905080875f018481548110611ff157611ff06128a1565b5b905f5260205f20018190555083876001015f8381526020019081526020015f2081905550505b855f0180548061202a576120296128ce565b5b600190038181905f5260205f20015f90559055856001015f8681526020019081526020015f205f905560019350505050612064565b5f9150505b92915050565b5f80fd5b5f7fffffffff0000000000000000000000000000000000000000000000000000000082169050919050565b6120a28161206e565b81146120ac575f80fd5b50565b5f813590506120bd81612099565b92915050565b5f602082840312156120d8576120d761206a565b5b5f6120e5848285016120af565b91505092915050565b5f8115159050919050565b612102816120ee565b82525050565b5f60208201905061211b5f8301846120f9565b92915050565b5f73ffffffffffffffffffffffffffffffffffffffff82169050919050565b5f61214a82612121565b9050919050565b61215a81612140565b8114612164575f80fd5b50565b5f8135905061217581612151565b92915050565b5f602082840312156121905761218f61206a565b5b5f61219d84828501612167565b91505092915050565b5f819050919050565b6121b8816121a6565b82525050565b5f6020820190506121d15f8301846121af565b92915050565b5f81519050919050565b5f82825260208201905092915050565b8281835e5f83830152505050565b5f601f19601f8301169050919050565b5f612219826121d7565b61222381856121e1565b93506122338185602086016121f1565b61223c816121ff565b840191505092915050565b5f6020820190508181035f83015261225f818461220f565b905092915050565b5f819050919050565b61227981612267565b8114612283575f80fd5b50565b5f8135905061229481612270565b92915050565b5f80604083850312156122b0576122af61206a565b5b5f6122bd85828601612167565b92505060206122ce85828601612286565b9150509250929050565b6122e181612267565b82525050565b5f6020820190506122fa5f8301846122d8565b92915050565b5f805f606084860312156123175761231661206a565b5b5f61232486828701612167565b935050602061233586828701612167565b925050604061234686828701612286565b9150509250925092565b612359816121a6565b8114612363575f80fd5b50565b5f8135905061237481612350565b92915050565b5f6020828403121561238f5761238e61206a565b5b5f61239c84828501612366565b91505092915050565b5f80604083850312156123bb576123ba61206a565b5b5f6123c885828601612366565b92505060206123d985828601612167565b9150509250929050565b5f60ff82169050919050565b6123f8816123e3565b82525050565b5f6020820190506124115f8301846123ef565b92915050565b61242081612140565b82525050565b5f6020820190506124395f830184612417565b92915050565b5f80604083850312156124555761245461206a565b5b5f61246285828601612167565b925050602061247385828601612167565b9150509250929050565b7f4e487b71000000000000000000000000000000000000000000000000000000005f52602260045260245ffd5b5f60028204905060018216806124c157607f821691505b6020821081036124d4576124d361247d565b5b50919050565b7f4163636f756e7420697320616c726561647920626c61636b6c697374656400005f82015250565b5f61250e601e836121e1565b9150612519826124da565b602082019050919050565b5f6020820190508181035f83015261253b81612502565b9050919050565b7f4163636f756e74206973206e6f7420626c61636b6c69737465640000000000005f82015250565b5f612576601a836121e1565b915061258182612542565b602082019050919050565b5f6020820190508181035f8301526125a38161256a565b9050919050565b7f4163636f756e74206973206e6f742066726f7a656e00000000000000000000005f82015250565b5f6125de6015836121e1565b91506125e9826125aa565b602082019050919050565b5f6020820190508181035f83015261260b816125d2565b9050919050565b7f53656e646572206163636f756e742069732066726f7a656e00000000000000005f82015250565b5f6126466018836121e1565b915061265182612612565b602082019050919050565b5f6020820190508181035f8301526126738161263a565b9050919050565b7f53656e646572206163636f756e7420697320626c61636b6c69737465640000005f82015250565b5f6126ae601d836121e1565b91506126b98261267a565b602082019050919050565b5f6020820190508181035f8301526126db816126a2565b9050919050565b7f526563697069656e74206163636f756e7420697320626c61636b6c69737465645f82015250565b5f6127166020836121e1565b9150612721826126e2565b602082019050919050565b5f6020820190508181035f8301526127438161270a565b9050919050565b7f4163636f756e7420697320616c72656164792066726f7a656e000000000000005f82015250565b5f61277e6019836121e1565b91506127898261274a565b602082019050919050565b5f6020820190508181035f8301526127ab81612772565b9050919050565b5f6060820190506127c55f830186612417565b6127d260208301856122d8565b6127df60408301846122d8565b949350505050565b5f6040820190506127fa5f830185612417565b61280760208301846121af565b9392505050565b7f4e487b71000000000000000000000000000000000000000000000000000000005f52601160045260245ffd5b5f61284582612267565b915061285083612267565b92508282019050808211156128685761286761280e565b5b92915050565b5f61287882612267565b915061288383612267565b925082820390508181111561289b5761289a61280e565b5b92915050565b7f4e487b71000000000000000000000000000000000000000000000000000000005f52603260045260245ffd5b7f4e487b71000000000000000000000000000000000000000000000000000000005f52603160045260245ffdfea2646970667358221220f31b5309d1693d5e37ce7e37b580bbcb57512310b3baf8fac321aa345ecd65af64736f6c63430008190033",
					"opcodes": "PUSH1 0x80 PUSH1 0x40 MSTORE CALLVALUE DUP1 ISZERO PUSH2 0xF JUMPI PUSH0 DUP1 REVERT JUMPDEST POP PUSH1 0x40 MLOAD PUSH2 0x3849 CODESIZE SUB DUP1 PUSH2 0x3849 DUP4 CODECOPY DUP2 DUP2 ADD PUSH1 0x40 MSTORE DUP2 ADD SWAP1 PUSH2 0x31 SWAP2 SWAP1 PUSH2 0xA5C JUMP JUMPDEST CALLER DUP4 DUP4 DUP2 PUSH1 0x3 SWAP1 DUP2 PUSH2 0x43 SWAP2 SWAP1 PUSH2 0xCE8 JUMP JUMPDEST POP DUP1 PUSH1 0x4 SWAP1 DUP2 PUSH2 0x53 SWAP2 SWAP1 PUSH2 0xCE8 JUMP JUMPDEST POP POP POP PUSH0 PUSH20 0xFFFFFFFFFFFFFFFFFFFFFFFFFFFFFFFFFFFFFFFF AND DUP2 PUSH20 0xFFFFFFFFFFFFFFFFFFFFFFFFFFFFFFFFFFFFFFFF AND SUB PUSH2 0xC6 JUMPI PUSH0 PUSH1 0x40 MLOAD PUSH32 0x1E4FBDF700000000000000000000000000000000000000000000000000000000 DUP2 MSTORE PUSH1 0x4 ADD PUSH2 0xBD SWAP2 SWAP1 PUSH2 0xDF6 JUMP JUMPDEST PUSH1 0x40 MLOAD DUP1 SWAP2 SUB SWAP1 REVERT JUMPDEST PUSH2 0xD5 DUP2 PUSH2 0x14C PUSH1 0x20 SHL PUSH1 0x20 SHR JUMP JUMPDEST POP PUSH2 0xE8 PUSH0 DUP1 SHL CALLER PUSH2 0x20F PUSH1 0x20 SHL PUSH1 0x20 SHR JUMP JUMPDEST POP PUSH2 0xF9 CALLER DUP3 PUSH2 0x305 PUSH1 0x20 SHL PUSH1 0x20 SHR JUMP JUMPDEST PUSH2 0x108 CALLER PUSH2 0x38A PUSH1 0x20 SHL PUSH1 0x20 SHR JUMP JUMPDEST PUSH2 0x117 CALLER PUSH2 0x3CB PUSH1 0x20 SHL PUSH1 0x20 SHR JUMP JUMPDEST PUSH2 0x126 CALLER PUSH2 0x40C PUSH1 0x20 SHL PUSH1 0x20 SHR JUMP JUMPDEST PUSH2 0x135 CALLER PUSH2 0x44D PUSH1 0x20 SHL PUSH1 0x20 SHR JUMP JUMPDEST PUSH2 0x144 CALLER PUSH2 0x48E PUSH1 0x20 SHL PUSH1 0x20 SHR JUMP JUMPDEST POP POP POP PUSH2 0xF0B JUMP JUMPDEST PUSH0 PUSH1 0x6 PUSH0 SWAP1 SLOAD SWAP1 PUSH2 0x100 EXP SWAP1 DIV PUSH20 0xFFFFFFFFFFFFFFFFFFFFFFFFFFFFFFFFFFFFFFFF AND SWAP1 POP DUP2 PUSH1 0x6 PUSH0 PUSH2 0x100 EXP DUP2 SLOAD DUP2 PUSH20 0xFFFFFFFFFFFFFFFFFFFFFFFFFFFFFFFFFFFFFFFF MUL NOT AND SWAP1 DUP4 PUSH20 0xFFFFFFFFFFFFFFFFFFFFFFFFFFFFFFFFFFFFFFFF AND MUL OR SWAP1 SSTORE POP DUP2 PUSH20 0xFFFFFFFFFFFFFFFFFFFFFFFFFFFFFFFFFFFFFFFF AND DUP2 PUSH20 0xFFFFFFFFFFFFFFFFFFFFFFFFFFFFFFFFFFFFFFFF AND PUSH32 0x8BE0079C531659141344CD1FD0A4F28419497F9722A3DAAFE3B4186F6B6457E0 PUSH1 0x40 MLOAD PUSH1 0x40 MLOAD DUP1 SWAP2 SUB SWAP1 LOG3 POP POP JUMP JUMPDEST PUSH0 PUSH2 0x220 DUP4 DUP4 PUSH2 0x4CF PUSH1 0x20 SHL PUSH1 0x20 SHR JUMP JUMPDEST PUSH2 0x2FB JUMPI PUSH1 0x1 PUSH1 0x5 PUSH0 DUP6 DUP2 MSTORE PUSH1 0x20 ADD SWAP1 DUP2 MSTORE PUSH1 0x20 ADD PUSH0 KECCAK256 PUSH0 ADD PUSH0 DUP5 PUSH20 0xFFFFFFFFFFFFFFFFFFFFFFFFFFFFFFFFFFFFFFFF AND PUSH20 0xFFFFFFFFFFFFFFFFFFFFFFFFFFFFFFFFFFFFFFFF AND DUP2 MSTORE PUSH1 0x20 ADD SWAP1 DUP2 MSTORE PUSH1 0x20 ADD PUSH0 KECCAK256 PUSH0 PUSH2 0x100 EXP DUP2 SLOAD DUP2 PUSH1 0xFF MUL NOT AND SWAP1 DUP4 ISZERO ISZERO MUL OR SWAP1 SSTORE POP PUSH2 0x298 PUSH2 0x533 PUSH1 0x20 SHL PUSH1 0x20 SHR JUMP JUMPDEST PUSH20 0xFFFFFFFFFFFFFFFFFFFFFFFFFFFFFFFFFFFFFFFF AND DUP3 PUSH20 0xFFFFFFFFFFFFFFFFFFFFFFFFFFFFFFFFFFFFFFFF AND DUP5 PUSH32 0x2F8788117E7EFF1D82E926EC794901D17C78024A50270940304540A733656F0D PUSH1 0x40 MLOAD PUSH1 0x40 MLOAD DUP1 SWAP2 SUB SWAP1 LOG4 PUSH1 0x1 SWAP1 POP PUSH2 0x2FF JUMP JUMPDEST PUSH0 SWAP1 POP JUMPDEST SWAP3 SWAP2 POP POP JUMP JUMPDEST PUSH0 PUSH20 0xFFFFFFFFFFFFFFFFFFFFFFFFFFFFFFFFFFFFFFFF AND DUP3 PUSH20 0xFFFFFFFFFFFFFFFFFFFFFFFFFFFFFFFFFFFFFFFF AND SUB PUSH2 0x375 JUMPI PUSH0 PUSH1 0x40 MLOAD PUSH32 0xEC442F0500000000000000000000000000000000000000000000000000000000 DUP2 MSTORE PUSH1 0x4 ADD PUSH2 0x36C SWAP2 SWAP1 PUSH2 0xDF6 JUMP JUMPDEST PUSH1 0x40 MLOAD DUP1 SWAP2 SUB SWAP1 REVERT JUMPDEST PUSH2 0x386 PUSH0 DUP4 DUP4 PUSH2 0x53A PUSH1 0x20 SHL PUSH1 0x20 SHR JUMP JUMPDEST POP POP JUMP JUMPDEST PUSH2 0x398 PUSH2 0x753 PUSH1 0x20 SHL PUSH1 0x20 SHR JUMP JUMPDEST PUSH2 0x3C8 PUSH32 0x9F2DF0FED2C77648DE5860A4CC508CD0818C85B8B8A1AB4CEEEF8D981C8956A6 DUP3 PUSH2 0x7EC PUSH1 0x20 SHL PUSH1 0x20 SHR JUMP JUMPDEST POP JUMP JUMPDEST PUSH2 0x3D9 PUSH2 0x753 PUSH1 0x20 SHL PUSH1 0x20 SHR JUMP JUMPDEST PUSH2 0x409 PUSH32 0x3C11D16CBAFFD01DF69CE1C404F6340EE057498F5F00246190EA54220576A848 DUP3 PUSH2 0x7EC PUSH1 0x20 SHL PUSH1 0x20 SHR JUMP JUMPDEST POP JUMP JUMPDEST PUSH2 0x41A PUSH2 0x753 PUSH1 0x20 SHL PUSH1 0x20 SHR JUMP JUMPDEST PUSH2 0x44A PUSH32 0x92DE27771F92D6942691D73358B3A4673E4880DE8356F8F2CF452BE87E02D363 DUP3 PUSH2 0x7EC PUSH1 0x20 SHL PUSH1 0x20 SHR JUMP JUMPDEST POP JUMP JUMPDEST PUSH2 0x45B PUSH2 0x753 PUSH1 0x20 SHL PUSH1 0x20 SHR JUMP JUMPDEST PUSH2 0x48B PUSH32 0xF988E4FB62B8E14F4820FED03192306DDF4D7DBFA215595BA1C6BA4B76B369EE DUP3 PUSH2 0x7EC PUSH1 0x20 SHL PUSH1 0x20 SHR JUMP JUMPDEST POP JUMP JUMPDEST PUSH2 0x49C PUSH2 0x753 PUSH1 0x20 SHL PUSH1 0x20 SHR JUMP JUMPDEST PUSH2 0x4CC PUSH32 0x62B337EAEFEC74DADF1A62E856BF9DB4F14A0F27D4F48156A95A9F98E7D5E066 DUP3 PUSH2 0x7EC PUSH1 0x20 SHL PUSH1 0x20 SHR JUMP JUMPDEST POP JUMP JUMPDEST PUSH0 PUSH1 0x5 PUSH0 DUP5 DUP2 MSTORE PUSH1 0x20 ADD SWAP1 DUP2 MSTORE PUSH1 0x20 ADD PUSH0 KECCAK256 PUSH0 ADD PUSH0 DUP4 PUSH20 0xFFFFFFFFFFFFFFFFFFFFFFFFFFFFFFFFFFFFFFFF AND PUSH20 0xFFFFFFFFFFFFFFFFFFFFFFFFFFFFFFFFFFFFFFFF AND DUP2 MSTORE PUSH1 0x20 ADD SWAP1 DUP2 MSTORE PUSH1 0x20 ADD PUSH0 KECCAK256 PUSH0 SWAP1 SLOAD SWAP1 PUSH2 0x100 EXP SWAP1 DIV PUSH1 0xFF AND SWAP1 POP SWAP3 SWAP2 POP POP JUMP JUMPDEST PUSH0 CALLER SWAP1 POP SWAP1 JUMP JUMPDEST PUSH0 PUSH20 0xFFFFFFFFFFFFFFFFFFFFFFFFFFFFFFFFFFFFFFFF AND DUP4 PUSH20 0xFFFFFFFFFFFFFFFFFFFFFFFFFFFFFFFFFFFFFFFF AND SUB PUSH2 0x58A JUMPI DUP1 PUSH1 0x2 PUSH0 DUP3 DUP3 SLOAD PUSH2 0x57E SWAP2 SWAP1 PUSH2 0xE3C JUMP JUMPDEST SWAP3 POP POP DUP2 SWAP1 SSTORE POP PUSH2 0x658 JUMP JUMPDEST PUSH0 DUP1 PUSH0 DUP6 PUSH20 0xFFFFFFFFFFFFFFFFFFFFFFFFFFFFFFFFFFFFFFFF AND PUSH20 0xFFFFFFFFFFFFFFFFFFFFFFFFFFFFFFFFFFFFFFFF AND DUP2 MSTORE PUSH1 0x20 ADD SWAP1 DUP2 MSTORE PUSH1 0x20 ADD PUSH0 KECCAK256 SLOAD SWAP1 POP DUP2 DUP2 LT ISZERO PUSH2 0x613 JUMPI DUP4 DUP2 DUP4 PUSH1 0x40 MLOAD PUSH32 0xE450D38C00000000000000000000000000000000000000000000000000000000 DUP2 MSTORE PUSH1 0x4 ADD PUSH2 0x60A SWAP4 SWAP3 SWAP2 SWAP1 PUSH2 0xE7E JUMP JUMPDEST PUSH1 0x40 MLOAD DUP1 SWAP2 SUB SWAP1 REVERT JUMPDEST DUP2 DUP2 SUB PUSH0 DUP1 DUP7 PUSH20 0xFFFFFFFFFFFFFFFFFFFFFFFFFFFFFFFFFFFFFFFF AND PUSH20 0xFFFFFFFFFFFFFFFFFFFFFFFFFFFFFFFFFFFFFFFF AND DUP2 MSTORE PUSH1 0x20 ADD SWAP1 DUP2 MSTORE PUSH1 0x20 ADD PUSH0 KECCAK256 DUP2 SWAP1 SSTORE POP POP JUMPDEST PUSH0 PUSH20 0xFFFFFFFFFFFFFFFFFFFFFFFFFFFFFFFFFFFFFFFF AND DUP3 PUSH20 0xFFFFFFFFFFFFFFFFFFFFFFFFFFFFFFFFFFFFFFFF AND SUB PUSH2 0x69F JUMPI DUP1 PUSH1 0x2 PUSH0 DUP3 DUP3 SLOAD SUB SWAP3 POP POP DUP2 SWAP1 SSTORE POP PUSH2 0x6E9 JUMP JUMPDEST DUP1 PUSH0 DUP1 DUP5 PUSH20 0xFFFFFFFFFFFFFFFFFFFFFFFFFFFFFFFFFFFFFFFF AND PUSH20 0xFFFFFFFFFFFFFFFFFFFFFFFFFFFFFFFFFFFFFFFF AND DUP2 MSTORE PUSH1 0x20 ADD SWAP1 DUP2 MSTORE PUSH1 0x20 ADD PUSH0 KECCAK256 PUSH0 DUP3 DUP3 SLOAD ADD SWAP3 POP POP DUP2 SWAP1 SSTORE POP JUMPDEST DUP2 PUSH20 0xFFFFFFFFFFFFFFFFFFFFFFFFFFFFFFFFFFFFFFFF AND DUP4 PUSH20 0xFFFFFFFFFFFFFFFFFFFFFFFFFFFFFFFFFFFFFFFF AND PUSH32 0xDDF252AD1BE2C89B69C2B068FC378DAA952BA7F163C4A11628F55A4DF523B3EF DUP4 PUSH1 0x40 MLOAD PUSH2 0x746 SWAP2 SWAP1 PUSH2 0xEB3 JUMP JUMPDEST PUSH1 0x40 MLOAD DUP1 SWAP2 SUB SWAP1 LOG3 POP POP POP JUMP JUMPDEST PUSH2 0x761 PUSH2 0x533 PUSH1 0x20 SHL PUSH1 0x20 SHR JUMP JUMPDEST PUSH20 0xFFFFFFFFFFFFFFFFFFFFFFFFFFFFFFFFFFFFFFFF AND PUSH2 0x785 PUSH2 0x820 PUSH1 0x20 SHL PUSH1 0x20 SHR JUMP JUMPDEST PUSH20 0xFFFFFFFFFFFFFFFFFFFFFFFFFFFFFFFFFFFFFFFF AND EQ PUSH2 0x7EA JUMPI PUSH2 0x7AE PUSH2 0x533 PUSH1 0x20 SHL PUSH1 0x20 SHR JUMP JUMPDEST PUSH1 0x40 MLOAD PUSH32 0x118CDAA700000000000000000000000000000000000000000000000000000000 DUP2 MSTORE PUSH1 0x4 ADD PUSH2 0x7E1 SWAP2 SWAP1 PUSH2 0xDF6 JUMP JUMPDEST PUSH1 0x40 MLOAD DUP1 SWAP2 SUB SWAP1 REVERT JUMPDEST JUMP JUMPDEST PUSH2 0x7FB DUP3 PUSH2 0x848 PUSH1 0x20 SHL PUSH1 0x20 SHR JUMP JUMPDEST PUSH2 0x80A DUP2 PUSH2 0x865 PUSH1 0x20 SHL PUSH1 0x20 SHR JUMP JUMPDEST PUSH2 0x81A DUP4 DUP4 PUSH2 0x20F PUSH1 0x20 SHL PUSH1 0x20 SHR JUMP JUMPDEST POP POP POP POP JUMP JUMPDEST PUSH0 PUSH1 0x6 PUSH0 SWAP1 SLOAD SWAP1 PUSH2 0x100 EXP SWAP1 DIV PUSH20 0xFFFFFFFFFFFFFFFFFFFFFFFFFFFFFFFFFFFFFFFF AND SWAP1 POP SWAP1 JUMP JUMPDEST PUSH0 PUSH1 0x5 PUSH0 DUP4 DUP2 MSTORE PUSH1 0x20 ADD SWAP1 DUP2 MSTORE PUSH1 0x20 ADD PUSH0 KECCAK256 PUSH1 0x1 ADD SLOAD SWAP1 POP SWAP2 SWAP1 POP JUMP JUMPDEST PUSH2 0x882 DUP2 PUSH2 0x877 PUSH2 0x533 PUSH1 0x20 SHL PUSH1 0x20 SHR JUMP JUMPDEST PUSH2 0x885 PUSH1 0x20 SHL PUSH1 0x20 SHR JUMP JUMPDEST POP JUMP JUMPDEST PUSH2 0x895 DUP3 DUP3 PUSH2 0x4CF PUSH1 0x20 SHL PUSH1 0x20 SHR JUMP JUMPDEST PUSH2 0x8D8 JUMPI DUP1 DUP3 PUSH1 0x40 MLOAD PUSH32 0xE2517D3F00000000000000000000000000000000000000000000000000000000 DUP2 MSTORE PUSH1 0x4 ADD PUSH2 0x8CF SWAP3 SWAP2 SWAP1 PUSH2 0xEE4 JUMP JUMPDEST PUSH1 0x40 MLOAD DUP1 SWAP2 SUB SWAP1 REVERT JUMPDEST POP POP JUMP JUMPDEST PUSH0 PUSH1 0x40 MLOAD SWAP1 POP SWAP1 JUMP JUMPDEST PUSH0 DUP1 REVERT JUMPDEST PUSH0 DUP1 REVERT JUMPDEST PUSH0 DUP1 REVERT JUMPDEST PUSH0 DUP1 REVERT JUMPDEST PUSH0 PUSH1 0x1F NOT PUSH1 0x1F DUP4 ADD AND SWAP1 POP SWAP2 SWAP1 POP JUMP JUMPDEST PUSH32 0x4E487B7100000000000000000000000000000000000000000000000000000000 PUSH0 MSTORE PUSH1 0x41 PUSH1 0x4 MSTORE PUSH1 0x24 PUSH0 REVERT JUMPDEST PUSH2 0x93B DUP3 PUSH2 0x8F5 JUMP JUMPDEST DUP2 ADD DUP2 DUP2 LT PUSH8 0xFFFFFFFFFFFFFFFF DUP3 GT OR ISZERO PUSH2 0x95A JUMPI PUSH2 0x959 PUSH2 0x905 JUMP JUMPDEST JUMPDEST DUP1 PUSH1 0x40 MSTORE POP POP POP JUMP JUMPDEST PUSH0 PUSH2 0x96C PUSH2 0x8DC JUMP JUMPDEST SWAP1 POP PUSH2 0x978 DUP3 DUP3 PUSH2 0x932 JUMP JUMPDEST SWAP2 SWAP1 POP JUMP JUMPDEST PUSH0 PUSH8 0xFFFFFFFFFFFFFFFF DUP3 GT ISZERO PUSH2 0x997 JUMPI PUSH2 0x996 PUSH2 0x905 JUMP JUMPDEST JUMPDEST PUSH2 0x9A0 DUP3 PUSH2 0x8F5 JUMP JUMPDEST SWAP1 POP PUSH1 0x20 DUP2 ADD SWAP1 POP SWAP2 SWAP1 POP JUMP JUMPDEST DUP3 DUP2 DUP4 MCOPY PUSH0 DUP4 DUP4 ADD MSTORE POP POP POP JUMP JUMPDEST PUSH0 PUSH2 0x9CD PUSH2 0x9C8 DUP5 PUSH2 0x97D JUMP JUMPDEST PUSH2 0x963 JUMP JUMPDEST SWAP1 POP DUP3 DUP2 MSTORE PUSH1 0x20 DUP2 ADD DUP5 DUP5 DUP5 ADD GT ISZERO PUSH2 0x9E9 JUMPI PUSH2 0x9E8 PUSH2 0x8F1 JUMP JUMPDEST JUMPDEST PUSH2 0x9F4 DUP5 DUP3 DUP6 PUSH2 0x9AD JUMP JUMPDEST POP SWAP4 SWAP3 POP POP POP JUMP JUMPDEST PUSH0 DUP3 PUSH1 0x1F DUP4 ADD SLT PUSH2 0xA10 JUMPI PUSH2 0xA0F PUSH2 0x8ED JUMP JUMPDEST JUMPDEST DUP2 MLOAD PUSH2 0xA20 DUP5 DUP3 PUSH1 0x20 DUP7 ADD PUSH2 0x9BB JUMP JUMPDEST SWAP2 POP POP SWAP3 SWAP2 POP POP JUMP JUMPDEST PUSH0 DUP2 SWAP1 POP SWAP2 SWAP1 POP JUMP JUMPDEST PUSH2 0xA3B DUP2 PUSH2 0xA29 JUMP JUMPDEST DUP2 EQ PUSH2 0xA45 JUMPI PUSH0 DUP1 REVERT JUMPDEST POP JUMP JUMPDEST PUSH0 DUP2 MLOAD SWAP1 POP PUSH2 0xA56 DUP2 PUSH2 0xA32 JUMP JUMPDEST SWAP3 SWAP2 POP POP JUMP JUMPDEST PUSH0 DUP1 PUSH0 PUSH1 0x60 DUP5 DUP7 SUB SLT ISZERO PUSH2 0xA73 JUMPI PUSH2 0xA72 PUSH2 0x8E5 JUMP JUMPDEST JUMPDEST PUSH0 DUP5 ADD MLOAD PUSH8 0xFFFFFFFFFFFFFFFF DUP2 GT ISZERO PUSH2 0xA90 JUMPI PUSH2 0xA8F PUSH2 0x8E9 JUMP JUMPDEST JUMPDEST PUSH2 0xA9C DUP7 DUP3 DUP8 ADD PUSH2 0x9FC JUMP JUMPDEST SWAP4 POP POP PUSH1 0x20 DUP5 ADD MLOAD PUSH8 0xFFFFFFFFFFFFFFFF DUP2 GT ISZERO PUSH2 0xABD JUMPI PUSH2 0xABC PUSH2 0x8E9 JUMP JUMPDEST JUMPDEST PUSH2 0xAC9 DUP7 DUP3 DUP8 ADD PUSH2 0x9FC JUMP JUMPDEST SWAP3 POP POP PUSH1 0x40 PUSH2 0xADA DUP7 DUP3 DUP8 ADD PUSH2 0xA48 JUMP JUMPDEST SWAP2 POP POP SWAP3 POP SWAP3 POP SWAP3 JUMP JUMPDEST PUSH0 DUP2 MLOAD SWAP1 POP SWAP2 SWAP1 POP JUMP JUMPDEST PUSH32 0x4E487B7100000000000000000000000000000000000000000000000000000000 PUSH0 MSTORE PUSH1 0x22 PUSH1 0x4 MSTORE PUSH1 0x24 PUSH0 REVERT JUMPDEST PUSH0 PUSH1 0x2 DUP3 DIV SWAP1 POP PUSH1 0x1 DUP3 AND DUP1 PUSH2 0xB32 JUMPI PUSH1 0x7F DUP3 AND SWAP2 POP JUMPDEST PUSH1 0x20 DUP3 LT DUP2 SUB PUSH2 0xB45 JUMPI PUSH2 0xB44 PUSH2 0xAEE JUMP JUMPDEST JUMPDEST POP SWAP2 SWAP1 POP JUMP JUMPDEST PUSH0 DUP2 SWAP1 POP DUP2 PUSH0 MSTORE PUSH1 0x20 PUSH0 KECCAK256 SWAP1 POP SWAP2 SWAP1 POP JUMP JUMPDEST PUSH0 PUSH1 0x20 PUSH1 0x1F DUP4 ADD DIV SWAP1 POP SWAP2 SWAP1 POP JUMP JUMPDEST PUSH0 DUP3 DUP3 SHL SWAP1 POP SWAP3 SWAP2 POP POP JUMP JUMPDEST PUSH0 PUSH1 0x8 DUP4 MUL PUSH2 0xBA7 PUSH32 0xFFFFFFFFFFFFFFFFFFFFFFFFFFFFFFFFFFFFFFFFFFFFFFFFFFFFFFFFFFFFFFFF DUP3 PUSH2 0xB6C JUMP JUMPDEST PUSH2 0xBB1 DUP7 DUP4 PUSH2 0xB6C JUMP JUMPDEST SWAP6 POP DUP1 NOT DUP5 AND SWAP4 POP DUP1 DUP7 AND DUP5 OR SWAP3 POP POP POP SWAP4 SWAP3 POP POP POP JUMP JUMPDEST PUSH0 DUP2 SWAP1 POP SWAP2 SWAP1 POP JUMP JUMPDEST PUSH0 PUSH2 0xBEC PUSH2 0xBE7 PUSH2 0xBE2 DUP5 PUSH2 0xA29 JUMP JUMPDEST PUSH2 0xBC9 JUMP JUMPDEST PUSH2 0xA29 JUMP JUMPDEST SWAP1 POP SWAP2 SWAP1 POP JUMP JUMPDEST PUSH0 DUP2 SWAP1 POP SWAP2 SWAP1 POP JUMP JUMPDEST PUSH2 0xC05 DUP4 PUSH2 0xBD2 JUMP JUMPDEST PUSH2 0xC19 PUSH2 0xC11 DUP3 PUSH2 0xBF3 JUMP JUMPDEST DUP5 DUP5 SLOAD PUSH2 0xB78 JUMP JUMPDEST DUP3 SSTORE POP POP POP POP JUMP JUMPDEST PUSH0 SWAP1 JUMP JUMPDEST PUSH2 0xC2D PUSH2 0xC21 JUMP JUMPDEST PUSH2 0xC38 DUP2 DUP5 DUP5 PUSH2 0xBFC JUMP JUMPDEST POP POP POP JUMP JUMPDEST JUMPDEST DUP2 DUP2 LT ISZERO PUSH2 0xC5B JUMPI PUSH2 0xC50 PUSH0 DUP3 PUSH2 0xC25 JUMP JUMPDEST PUSH1 0x1 DUP2 ADD SWAP1 POP PUSH2 0xC3E JUMP JUMPDEST POP POP JUMP JUMPDEST PUSH1 0x1F DUP3 GT ISZERO PUSH2 0xCA0 JUMPI PUSH2 0xC71 DUP2 PUSH2 0xB4B JUMP JUMPDEST PUSH2 0xC7A DUP5 PUSH2 0xB5D JUMP JUMPDEST DUP2 ADD PUSH1 0x20 DUP6 LT ISZERO PUSH2 0xC89 JUMPI DUP2 SWAP1 POP JUMPDEST PUSH2 0xC9D PUSH2 0xC95 DUP6 PUSH2 0xB5D JUMP JUMPDEST DUP4 ADD DUP3 PUSH2 0xC3D JUMP JUMPDEST POP POP JUMPDEST POP POP POP JUMP JUMPDEST PUSH0 DUP3 DUP3 SHR SWAP1 POP SWAP3 SWAP2 POP POP JUMP JUMPDEST PUSH0 PUSH2 0xCC0 PUSH0 NOT DUP5 PUSH1 0x8 MUL PUSH2 0xCA5 JUMP JUMPDEST NOT DUP1 DUP4 AND SWAP2 POP POP SWAP3 SWAP2 POP POP JUMP JUMPDEST PUSH0 PUSH2 0xCD8 DUP4 DUP4 PUSH2 0xCB1 JUMP JUMPDEST SWAP2 POP DUP3 PUSH1 0x2 MUL DUP3 OR SWAP1 POP SWAP3 SWAP2 POP POP JUMP JUMPDEST PUSH2 0xCF1 DUP3 PUSH2 0xAE4 JUMP JUMPDEST PUSH8 0xFFFFFFFFFFFFFFFF DUP2 GT ISZERO PUSH2 0xD0A JUMPI PUSH2 0xD09 PUSH2 0x905 JUMP JUMPDEST JUMPDEST PUSH2 0xD14 DUP3 SLOAD PUSH2 0xB1B JUMP JUMPDEST PUSH2 0xD1F DUP3 DUP3 DUP6 PUSH2 0xC5F JUMP JUMPDEST PUSH0 PUSH1 0x20 SWAP1 POP PUSH1 0x1F DUP4 GT PUSH1 0x1 DUP2 EQ PUSH2 0xD50 JUMPI PUSH0 DUP5 ISZERO PUSH2 0xD3E JUMPI DUP3 DUP8 ADD MLOAD SWAP1 POP JUMPDEST PUSH2 0xD48 DUP6 DUP3 PUSH2 0xCCD JUMP JUMPDEST DUP7 SSTORE POP PUSH2 0xDAF JUMP JUMPDEST PUSH1 0x1F NOT DUP5 AND PUSH2 0xD5E DUP7 PUSH2 0xB4B JUMP JUMPDEST PUSH0 JUMPDEST DUP3 DUP2 LT ISZERO PUSH2 0xD85 JUMPI DUP5 DUP10 ADD MLOAD DUP3 SSTORE PUSH1 0x1 DUP3 ADD SWAP2 POP PUSH1 0x20 DUP6 ADD SWAP5 POP PUSH1 0x20 DUP2 ADD SWAP1 POP PUSH2 0xD60 JUMP JUMPDEST DUP7 DUP4 LT ISZERO PUSH2 0xDA2 JUMPI DUP5 DUP10 ADD MLOAD PUSH2 0xD9E PUSH1 0x1F DUP10 AND DUP3 PUSH2 0xCB1 JUMP JUMPDEST DUP4 SSTORE POP JUMPDEST PUSH1 0x1 PUSH1 0x2 DUP9 MUL ADD DUP9 SSTORE POP POP POP JUMPDEST POP POP POP POP POP POP JUMP JUMPDEST PUSH0 PUSH20 0xFFFFFFFFFFFFFFFFFFFFFFFFFFFFFFFFFFFFFFFF DUP3 AND SWAP1 POP SWAP2 SWAP1 POP JUMP JUMPDEST PUSH0 PUSH2 0xDE0 DUP3 PUSH2 0xDB7 JUMP JUMPDEST SWAP1 POP SWAP2 SWAP1 POP JUMP JUMPDEST PUSH2 0xDF0 DUP2 PUSH2 0xDD6 JUMP JUMPDEST DUP3 MSTORE POP POP JUMP JUMPDEST PUSH0 PUSH1 0x20 DUP3 ADD SWAP1 POP PUSH2 0xE09 PUSH0 DUP4 ADD DUP5 PUSH2 0xDE7 JUMP JUMPDEST SWAP3 SWAP2 POP POP JUMP JUMPDEST PUSH32 0x4E487B7100000000000000000000000000000000000000000000000000000000 PUSH0 MSTORE PUSH1 0x11 PUSH1 0x4 MSTORE PUSH1 0x24 PUSH0 REVERT JUMPDEST PUSH0 PUSH2 0xE46 DUP3 PUSH2 0xA29 JUMP JUMPDEST SWAP2 POP PUSH2 0xE51 DUP4 PUSH2 0xA29 JUMP JUMPDEST SWAP3 POP DUP3 DUP3 ADD SWAP1 POP DUP1 DUP3 GT ISZERO PUSH2 0xE69 JUMPI PUSH2 0xE68 PUSH2 0xE0F JUMP JUMPDEST JUMPDEST SWAP3 SWAP2 POP POP JUMP JUMPDEST PUSH2 0xE78 DUP2 PUSH2 0xA29 JUMP JUMPDEST DUP3 MSTORE POP POP JUMP JUMPDEST PUSH0 PUSH1 0x60 DUP3 ADD SWAP1 POP PUSH2 0xE91 PUSH0 DUP4 ADD DUP7 PUSH2 0xDE7 JUMP JUMPDEST PUSH2 0xE9E PUSH1 0x20 DUP4 ADD DUP6 PUSH2 0xE6F JUMP JUMPDEST PUSH2 0xEAB PUSH1 0x40 DUP4 ADD DUP5 PUSH2 0xE6F JUMP JUMPDEST SWAP5 SWAP4 POP POP POP POP JUMP JUMPDEST PUSH0 PUSH1 0x20 DUP3 ADD SWAP1 POP PUSH2 0xEC6 PUSH0 DUP4 ADD DUP5 PUSH2 0xE6F JUMP JUMPDEST SWAP3 SWAP2 POP POP JUMP JUMPDEST PUSH0 DUP2 SWAP1 POP SWAP2 SWAP1 POP JUMP JUMPDEST PUSH2 0xEDE DUP2 PUSH2 0xECC JUMP JUMPDEST DUP3 MSTORE POP POP JUMP JUMPDEST PUSH0 PUSH1 0x40 DUP3 ADD SWAP1 POP PUSH2 0xEF7 PUSH0 DUP4 ADD DUP6 PUSH2 0xDE7 JUMP JUMPDEST PUSH2 0xF04 PUSH1 0x20 DUP4 ADD DUP5 PUSH2 0xED5 JUMP JUMPDEST SWAP4 SWAP3 POP POP POP JUMP JUMPDEST PUSH2 0x2931 DUP1 PUSH2 0xF18 PUSH0 CODECOPY PUSH0 RETURN INVALID PUSH1 0x80 PUSH1 0x40 MSTORE CALLVALUE DUP1 ISZERO PUSH2 0xF JUMPI PUSH0 DUP1 REVERT JUMPDEST POP PUSH1 0x4 CALLDATASIZE LT PUSH2 0x267 JUMPI PUSH0 CALLDATALOAD PUSH1 0xE0 SHR DUP1 PUSH4 0x70A08231 GT PUSH2 0x14F JUMPI DUP1 PUSH4 0xA9059CBB GT PUSH2 0xC1 JUMPI DUP1 PUSH4 0xDD62ED3E GT PUSH2 0x85 JUMPI DUP1 PUSH4 0xDD62ED3E EQ PUSH2 0x707 JUMPI DUP1 PUSH4 0xE5839836 EQ PUSH2 0x737 JUMPI DUP1 PUSH4 0xF26C159F EQ PUSH2 0x767 JUMPI DUP1 PUSH4 0xF2FDE38B EQ PUSH2 0x783 JUMPI DUP1 PUSH4 0xF44637BA EQ PUSH2 0x79F JUMPI DUP1 PUSH4 0xFE575A87 EQ PUSH2 0x7BB JUMPI PUSH2 0x267 JUMP JUMPDEST DUP1 PUSH4 0xA9059CBB EQ PUSH2 0x665 JUMPI DUP1 PUSH4 0xC2134B23 EQ PUSH2 0x695 JUMPI DUP1 PUSH4 0xD1C2DE0A EQ PUSH2 0x6B1 JUMPI DUP1 PUSH4 0xD5391393 EQ PUSH2 0x6CD JUMPI DUP1 PUSH4 0xD547741F EQ PUSH2 0x6EB JUMPI PUSH2 0x267 JUMP JUMPDEST DUP1 PUSH4 0x939BCBC9 GT PUSH2 0x113 JUMPI DUP1 PUSH4 0x939BCBC9 EQ PUSH2 0x5B7 JUMPI DUP1 PUSH4 0x95D89B41 EQ PUSH2 0x5D5 JUMPI DUP1 PUSH4 0x974B368C EQ PUSH2 0x5F3 JUMPI DUP1 PUSH4 0x983B2D56 EQ PUSH2 0x60F JUMPI DUP1 PUSH4 0x9DC29FAC EQ PUSH2 0x62B JUMPI DUP1 PUSH4 0xA217FDDF EQ PUSH2 0x647 JUMPI PUSH2 0x267 JUMP JUMPDEST DUP1 PUSH4 0x70A08231 EQ PUSH2 0x513 JUMPI DUP1 PUSH4 0x715018A6 EQ PUSH2 0x543 JUMPI DUP1 PUSH4 0x788649EA EQ PUSH2 0x54D JUMPI DUP1 PUSH4 0x8DA5CB5B EQ PUSH2 0x569 JUMPI DUP1 PUSH4 0x91D14854 EQ PUSH2 0x587 JUMPI PUSH2 0x267 JUMP JUMPDEST DUP1 PUSH4 0x282C51F3 GT PUSH2 0x1E8 JUMPI DUP1 PUSH4 0x36568ABE GT PUSH2 0x1AC JUMPI DUP1 PUSH4 0x36568ABE EQ PUSH2 0x469 JUMPI DUP1 PUSH4 0x40C10F19 EQ PUSH2 0x485 JUMPI DUP1 PUSH4 0x410B2424 EQ PUSH2 0x4A1 JUMPI DUP1 PUSH4 0x44337EA1 EQ PUSH2 0x4BF JUMPI DUP1 PUSH4 0x526606C9 EQ PUSH2 0x4DB JUMPI DUP1 PUSH4 0x537DF3B6 EQ PUSH2 0x4F7 JUMPI PUSH2 0x267 JUMP JUMPDEST DUP1 PUSH4 0x282C51F3 EQ PUSH2 0x3D9 JUMPI DUP1 PUSH4 0x2ACD2000 EQ PUSH2 0x3F7 JUMPI DUP1 PUSH4 0x2F2FF15D EQ PUSH2 0x413 JUMPI DUP1 PUSH4 0x3092AFD5 EQ PUSH2 0x42F JUMPI DUP1 PUSH4 0x313CE567 EQ PUSH2 0x44B JUMPI PUSH2 0x267 JUMP JUMPDEST DUP1 PUSH4 0xEFF2AFC GT PUSH2 0x22F JUMPI DUP1 PUSH4 0xEFF2AFC EQ PUSH2 0x323 JUMPI DUP1 PUSH4 0x18160DDD EQ PUSH2 0x33F JUMPI DUP1 PUSH4 0x1EC82CB8 EQ PUSH2 0x35D JUMPI DUP1 PUSH4 0x23B872DD EQ PUSH2 0x379 JUMPI DUP1 PUSH4 0x248A9CA3 EQ PUSH2 0x3A9 JUMPI PUSH2 0x267 JUMP JUMPDEST DUP1 PUSH4 0x1FFC9A7 EQ PUSH2 0x26B JUMPI DUP1 PUSH4 0x2846858 EQ PUSH2 0x29B JUMPI DUP1 PUSH4 0x6A85F0F EQ PUSH2 0x2B7 JUMPI DUP1 PUSH4 0x6FDDE03 EQ PUSH2 0x2D5 JUMPI DUP1 PUSH4 0x95EA7B3 EQ PUSH2 0x2F3 JUMPI JUMPDEST PUSH0 DUP1 REVERT JUMPDEST PUSH2 0x285 PUSH1 0x4 DUP1 CALLDATASIZE SUB DUP2 ADD SWAP1 PUSH2 0x280 SWAP2 SWAP1 PUSH2 0x20C3 JUMP JUMPDEST PUSH2 0x7EB JUMP JUMPDEST PUSH1 0x40 MLOAD PUSH2 0x292 SWAP2 SWAP1 PUSH2 0x2108 JUMP JUMPDEST PUSH1 0x40 MLOAD DUP1 SWAP2 SUB SWAP1 RETURN JUMPDEST PUSH2 0x2B5 PUSH1 0x4 DUP1 CALLDATASIZE SUB DUP2 ADD SWAP1 PUSH2 0x2B0 SWAP2 SWAP1 PUSH2 0x217B JUMP JUMPDEST PUSH2 0x864 JUMP JUMPDEST STOP JUMPDEST PUSH2 0x2BF PUSH2 0x899 JUMP JUMPDEST PUSH1 0x40 MLOAD PUSH2 0x2CC SWAP2 SWAP1 PUSH2 0x21BE JUMP JUMPDEST PUSH1 0x40 MLOAD DUP1 SWAP2 SUB SWAP1 RETURN JUMPDEST PUSH2 0x2DD PUSH2 0x8BD JUMP JUMPDEST PUSH1 0x40 MLOAD PUSH2 0x2EA SWAP2 SWAP1 PUSH2 0x2247 JUMP JUMPDEST PUSH1 0x40 MLOAD DUP1 SWAP2 SUB SWAP1 RETURN JUMPDEST PUSH2 0x30D PUSH1 0x4 DUP1 CALLDATASIZE SUB DUP2 ADD SWAP1 PUSH2 0x308 SWAP2 SWAP1 PUSH2 0x229A JUMP JUMPDEST PUSH2 0x94D JUMP JUMPDEST PUSH1 0x40 MLOAD PUSH2 0x31A SWAP2 SWAP1 PUSH2 0x2108 JUMP JUMPDEST PUSH1 0x40 MLOAD DUP1 SWAP2 SUB SWAP1 RETURN JUMPDEST PUSH2 0x33D PUSH1 0x4 DUP1 CALLDATASIZE SUB DUP2 ADD SWAP1 PUSH2 0x338 SWAP2 SWAP1 PUSH2 0x217B JUMP JUMPDEST PUSH2 0x96F JUMP JUMPDEST STOP JUMPDEST PUSH2 0x347 PUSH2 0x9A4 JUMP JUMPDEST PUSH1 0x40 MLOAD PUSH2 0x354 SWAP2 SWAP1 PUSH2 0x22E7 JUMP JUMPDEST PUSH1 0x40 MLOAD DUP1 SWAP2 SUB SWAP1 RETURN JUMPDEST PUSH2 0x377 PUSH1 0x4 DUP1 CALLDATASIZE SUB DUP2 ADD SWAP1 PUSH2 0x372 SWAP2 SWAP1 PUSH2 0x2300 JUMP JUMPDEST PUSH2 0x9AD JUMP JUMPDEST STOP JUMPDEST PUSH2 0x393 PUSH1 0x4 DUP1 CALLDATASIZE SUB DUP2 ADD SWAP1 PUSH2 0x38E SWAP2 SWAP1 PUSH2 0x2300 JUMP JUMPDEST PUSH2 0x9E8 JUMP JUMPDEST PUSH1 0x40 MLOAD PUSH2 0x3A0 SWAP2 SWAP1 PUSH2 0x2108 JUMP JUMPDEST PUSH1 0x40 MLOAD DUP1 SWAP2 SUB SWAP1 RETURN JUMPDEST PUSH2 0x3C3 PUSH1 0x4 DUP1 CALLDATASIZE SUB DUP2 ADD SWAP1 PUSH2 0x3BE SWAP2 SWAP1 PUSH2 0x237A JUMP JUMPDEST PUSH2 0xA16 JUMP JUMPDEST PUSH1 0x40 MLOAD PUSH2 0x3D0 SWAP2 SWAP1 PUSH2 0x21BE JUMP JUMPDEST PUSH1 0x40 MLOAD DUP1 SWAP2 SUB SWAP1 RETURN JUMPDEST PUSH2 0x3E1 PUSH2 0xA33 JUMP JUMPDEST PUSH1 0x40 MLOAD PUSH2 0x3EE SWAP2 SWAP1 PUSH2 0x21BE JUMP JUMPDEST PUSH1 0x40 MLOAD DUP1 SWAP2 SUB SWAP1 RETURN JUMPDEST PUSH2 0x411 PUSH1 0x4 DUP1 CALLDATASIZE SUB DUP2 ADD SWAP1 PUSH2 0x40C SWAP2 SWAP1 PUSH2 0x217B JUMP JUMPDEST PUSH2 0xA57 JUMP JUMPDEST STOP JUMPDEST PUSH2 0x42D PUSH1 0x4 DUP1 CALLDATASIZE SUB DUP2 ADD SWAP1 PUSH2 0x428 SWAP2 SWAP1 PUSH2 0x23A5 JUMP JUMPDEST PUSH2 0xA8C JUMP JUMPDEST STOP JUMPDEST PUSH2 0x449 PUSH1 0x4 DUP1 CALLDATASIZE SUB DUP2 ADD SWAP1 PUSH2 0x444 SWAP2 SWAP1 PUSH2 0x217B JUMP JUMPDEST PUSH2 0xAAE JUMP JUMPDEST STOP JUMPDEST PUSH2 0x453 PUSH2 0xAE3 JUMP JUMPDEST PUSH1 0x40 MLOAD PUSH2 0x460 SWAP2 SWAP1 PUSH2 0x23FE JUMP JUMPDEST PUSH1 0x40 MLOAD DUP1 SWAP2 SUB SWAP1 RETURN JUMPDEST PUSH2 0x483 PUSH1 0x4 DUP1 CALLDATASIZE SUB DUP2 ADD SWAP1 PUSH2 0x47E SWAP2 SWAP1 PUSH2 0x23A5 JUMP JUMPDEST PUSH2 0xAEB JUMP JUMPDEST STOP JUMPDEST PUSH2 0x49F PUSH1 0x4 DUP1 CALLDATASIZE SUB DUP2 ADD SWAP1 PUSH2 0x49A SWAP2 SWAP1 PUSH2 0x229A JUMP JUMPDEST PUSH2 0xB66 JUMP JUMPDEST STOP JUMPDEST PUSH2 0x4A9 PUSH2 0xB9F JUMP JUMPDEST PUSH1 0x40 MLOAD PUSH2 0x4B6 SWAP2 SWAP1 PUSH2 0x21BE JUMP JUMPDEST PUSH1 0x40 MLOAD DUP1 SWAP2 SUB SWAP1 RETURN JUMPDEST PUSH2 0x4D9 PUSH1 0x4 DUP1 CALLDATASIZE SUB DUP2 ADD SWAP1 PUSH2 0x4D4 SWAP2 SWAP1 PUSH2 0x217B JUMP JUMPDEST PUSH2 0xBC3 JUMP JUMPDEST STOP JUMPDEST PUSH2 0x4F5 PUSH1 0x4 DUP1 CALLDATASIZE SUB DUP2 ADD SWAP1 PUSH2 0x4F0 SWAP2 SWAP1 PUSH2 0x217B JUMP JUMPDEST PUSH2 0xC5A JUMP JUMPDEST STOP JUMPDEST PUSH2 0x511 PUSH1 0x4 DUP1 CALLDATASIZE SUB DUP2 ADD SWAP1 PUSH2 0x50C SWAP2 SWAP1 PUSH2 0x217B JUMP JUMPDEST PUSH2 0xC8F JUMP JUMPDEST STOP JUMPDEST PUSH2 0x52D PUSH1 0x4 DUP1 CALLDATASIZE SUB DUP2 ADD SWAP1 PUSH2 0x528 SWAP2 SWAP1 PUSH2 0x217B JUMP JUMPDEST PUSH2 0xD25 JUMP JUMPDEST PUSH1 0x40 MLOAD PUSH2 0x53A SWAP2 SWAP1 PUSH2 0x22E7 JUMP JUMPDEST PUSH1 0x40 MLOAD DUP1 SWAP2 SUB SWAP1 RETURN JUMPDEST PUSH2 0x54B PUSH2 0xD6A JUMP JUMPDEST STOP JUMPDEST PUSH2 0x567 PUSH1 0x4 DUP1 CALLDATASIZE SUB DUP2 ADD SWAP1 PUSH2 0x562 SWAP2 SWAP1 PUSH2 0x217B JUMP JUMPDEST PUSH2 0xD7D JUMP JUMPDEST STOP JUMPDEST PUSH2 0x571 PUSH2 0xE13 JUMP JUMPDEST PUSH1 0x40 MLOAD PUSH2 0x57E SWAP2 SWAP1 PUSH2 0x2426 JUMP JUMPDEST PUSH1 0x40 MLOAD DUP1 SWAP2 SUB SWAP1 RETURN JUMPDEST PUSH2 0x5A1 PUSH1 0x4 DUP1 CALLDATASIZE SUB DUP2 ADD SWAP1 PUSH2 0x59C SWAP2 SWAP1 PUSH2 0x23A5 JUMP JUMPDEST PUSH2 0xE3B JUMP JUMPDEST PUSH1 0x40 MLOAD PUSH2 0x5AE SWAP2 SWAP1 PUSH2 0x2108 JUMP JUMPDEST PUSH1 0x40 MLOAD DUP1 SWAP2 SUB SWAP1 RETURN JUMPDEST PUSH2 0x5BF PUSH2 0xE9F JUMP JUMPDEST PUSH1 0x40 MLOAD PUSH2 0x5CC SWAP2 SWAP1 PUSH2 0x21BE JUMP JUMPDEST PUSH1 0x40 MLOAD DUP1 SWAP2 SUB SWAP1 RETURN JUMPDEST PUSH2 0x5DD PUSH2 0xEC3 JUMP JUMPDEST PUSH1 0x40 MLOAD PUSH2 0x5EA SWAP2 SWAP1 PUSH2 0x2247 JUMP JUMPDEST PUSH1 0x40 MLOAD DUP1 SWAP2 SUB SWAP1 RETURN JUMPDEST PUSH2 0x60D PUSH1 0x4 DUP1 CALLDATASIZE SUB DUP2 ADD SWAP1 PUSH2 0x608 SWAP2 SWAP1 PUSH2 0x217B JUMP JUMPDEST PUSH2 0xF53 JUMP JUMPDEST STOP JUMPDEST PUSH2 0x629 PUSH1 0x4 DUP1 CALLDATASIZE SUB DUP2 ADD SWAP1 PUSH2 0x624 SWAP2 SWAP1 PUSH2 0x217B JUMP JUMPDEST PUSH2 0xF88 JUMP JUMPDEST STOP JUMPDEST PUSH2 0x645 PUSH1 0x4 DUP1 CALLDATASIZE SUB DUP2 ADD SWAP1 PUSH2 0x640 SWAP2 SWAP1 PUSH2 0x229A JUMP JUMPDEST PUSH2 0xFBD JUMP JUMPDEST STOP JUMPDEST PUSH2 0x64F PUSH2 0xFF6 JUMP JUMPDEST PUSH1 0x40 MLOAD PUSH2 0x65C SWAP2 SWAP1 PUSH2 0x21BE JUMP JUMPDEST PUSH1 0x40 MLOAD DUP1 SWAP2 SUB SWAP1 RETURN JUMPDEST PUSH2 0x67F PUSH1 0x4 DUP1 CALLDATASIZE SUB DUP2 ADD SWAP1 PUSH2 0x67A SWAP2 SWAP1 PUSH2 0x229A JUMP JUMPDEST PUSH2 0xFFC JUMP JUMPDEST PUSH1 0x40 MLOAD PUSH2 0x68C SWAP2 SWAP1 PUSH2 0x2108 JUMP JUMPDEST PUSH1 0x40 MLOAD DUP1 SWAP2 SUB SWAP1 RETURN JUMPDEST PUSH2 0x6AF PUSH1 0x4 DUP1 CALLDATASIZE SUB DUP2 ADD SWAP1 PUSH2 0x6AA SWAP2 SWAP1 PUSH2 0x217B JUMP JUMPDEST PUSH2 0x1117 JUMP JUMPDEST STOP JUMPDEST PUSH2 0x6CB PUSH1 0x4 DUP1 CALLDATASIZE SUB DUP2 ADD SWAP1 PUSH2 0x6C6 SWAP2 SWAP1 PUSH2 0x217B JUMP JUMPDEST PUSH2 0x114C JUMP JUMPDEST STOP JUMPDEST PUSH2 0x6D5 PUSH2 0x1181 JUMP JUMPDEST PUSH1 0x40 MLOAD PUSH2 0x6E2 SWAP2 SWAP1 PUSH2 0x21BE JUMP JUMPDEST PUSH1 0x40 MLOAD DUP1 SWAP2 SUB SWAP1 RETURN JUMPDEST PUSH2 0x705 PUSH1 0x4 DUP1 CALLDATASIZE SUB DUP2 ADD SWAP1 PUSH2 0x700 SWAP2 SWAP1 PUSH2 0x23A5 JUMP JUMPDEST PUSH2 0x11A5 JUMP JUMPDEST STOP JUMPDEST PUSH2 0x721 PUSH1 0x4 DUP1 CALLDATASIZE SUB DUP2 ADD SWAP1 PUSH2 0x71C SWAP2 SWAP1 PUSH2 0x243F JUMP JUMPDEST PUSH2 0x11C7 JUMP JUMPDEST PUSH1 0x40 MLOAD PUSH2 0x72E SWAP2 SWAP1 PUSH2 0x22E7 JUMP JUMPDEST PUSH1 0x40 MLOAD DUP1 SWAP2 SUB SWAP1 RETURN JUMPDEST PUSH2 0x751 PUSH1 0x4 DUP1 CALLDATASIZE SUB DUP2 ADD SWAP1 PUSH2 0x74C SWAP2 SWAP1 PUSH2 0x217B JUMP JUMPDEST PUSH2 0x1249 JUMP JUMPDEST PUSH1 0x40 MLOAD PUSH2 0x75E SWAP2 SWAP1 PUSH2 0x2108 JUMP JUMPDEST PUSH1 0x40 MLOAD DUP1 SWAP2 SUB SWAP1 RETURN JUMPDEST PUSH2 0x781 PUSH1 0x4 DUP1 CALLDATASIZE SUB DUP2 ADD SWAP1 PUSH2 0x77C SWAP2 SWAP1 PUSH2 0x217B JUMP JUMPDEST PUSH2 0x1265 JUMP JUMPDEST STOP JUMPDEST PUSH2 0x79D PUSH1 0x4 DUP1 CALLDATASIZE SUB DUP2 ADD SWAP1 PUSH2 0x798 SWAP2 SWAP1 PUSH2 0x217B JUMP JUMPDEST PUSH2 0x12FC JUMP JUMPDEST STOP JUMPDEST PUSH2 0x7B9 PUSH1 0x4 DUP1 CALLDATASIZE SUB DUP2 ADD SWAP1 PUSH2 0x7B4 SWAP2 SWAP1 PUSH2 0x217B JUMP JUMPDEST PUSH2 0x1380 JUMP JUMPDEST STOP JUMPDEST PUSH2 0x7D5 PUSH1 0x4 DUP1 CALLDATASIZE SUB DUP2 ADD SWAP1 PUSH2 0x7D0 SWAP2 SWAP1 PUSH2 0x217B JUMP JUMPDEST PUSH2 0x13B5 JUMP JUMPDEST PUSH1 0x40 MLOAD PUSH2 0x7E2 SWAP2 SWAP1 PUSH2 0x2108 JUMP JUMPDEST PUSH1 0x40 MLOAD DUP1 SWAP2 SUB SWAP1 RETURN JUMPDEST PUSH0 PUSH32 0x7965DB0B00000000000000000000000000000000000000000000000000000000 PUSH28 0xFFFFFFFFFFFFFFFFFFFFFFFFFFFFFFFFFFFFFFFFFFFFFFFFFFFFFFFF NOT AND DUP3 PUSH28 0xFFFFFFFFFFFFFFFFFFFFFFFFFFFFFFFFFFFFFFFFFFFFFFFFFFFFFFFF NOT AND EQ DUP1 PUSH2 0x85D JUMPI POP PUSH2 0x85C DUP3 PUSH2 0x13D1 JUMP JUMPDEST JUMPDEST SWAP1 POP SWAP2 SWAP1 POP JUMP JUMPDEST PUSH2 0x86C PUSH2 0x143A JUMP JUMPDEST PUSH2 0x896 PUSH32 0x3C11D16CBAFFD01DF69CE1C404F6340EE057498F5F00246190EA54220576A848 DUP3 PUSH2 0x11A5 JUMP JUMPDEST POP JUMP JUMPDEST PUSH32 0x92DE27771F92D6942691D73358B3A4673E4880DE8356F8F2CF452BE87E02D363 DUP2 JUMP JUMPDEST PUSH1 0x60 PUSH1 0x3 DUP1 SLOAD PUSH2 0x8CC SWAP1 PUSH2 0x24AA JUMP JUMPDEST DUP1 PUSH1 0x1F ADD PUSH1 0x20 DUP1 SWAP2 DIV MUL PUSH1 0x20 ADD PUSH1 0x40 MLOAD SWAP1 DUP2 ADD PUSH1 0x40 MSTORE DUP1 SWAP3 SWAP2 SWAP1 DUP2 DUP2 MSTORE PUSH1 0x20 ADD DUP3 DUP1 SLOAD PUSH2 0x8F8 SWAP1 PUSH2 0x24AA JUMP JUMPDEST DUP1 ISZERO PUSH2 0x943 JUMPI DUP1 PUSH1 0x1F LT PUSH2 0x91A JUMPI PUSH2 0x100 DUP1 DUP4 SLOAD DIV MUL DUP4 MSTORE SWAP2 PUSH1 0x20 ADD SWAP2 PUSH2 0x943 JUMP JUMPDEST DUP3 ADD SWAP2 SWAP1 PUSH0 MSTORE PUSH1 0x20 PUSH0 KECCAK256 SWAP1 JUMPDEST DUP2 SLOAD DUP2 MSTORE SWAP1 PUSH1 0x1 ADD SWAP1 PUSH1 0x20 ADD DUP1 DUP4 GT PUSH2 0x926 JUMPI DUP3 SWAP1 SUB PUSH1 0x1F AND DUP3 ADD SWAP2 JUMPDEST POP POP POP POP POP SWAP1 POP SWAP1 JUMP JUMPDEST PUSH0 DUP1 PUSH2 0x957 PUSH2 0x14C1 JUMP JUMPDEST SWAP1 POP PUSH2 0x964 DUP2 DUP6 DUP6 PUSH2 0x14C8 JUMP JUMPDEST PUSH1 0x1 SWAP2 POP POP SWAP3 SWAP2 POP POP JUMP JUMPDEST PUSH2 0x977 PUSH2 0x143A JUMP JUMPDEST PUSH2 0x9A1 PUSH32 0xF988E4FB62B8E14F4820FED03192306DDF4D7DBFA215595BA1C6BA4B76B369EE DUP3 PUSH2 0xA8C JUMP JUMPDEST POP JUMP JUMPDEST PUSH0 PUSH1 0x2 SLOAD SWAP1 POP SWAP1 JUMP JUMPDEST PUSH32 0x62B337EAEFEC74DADF1A62E856BF9DB4F14A0F27D4F48156A95A9F98E7D5E066 PUSH2 0x9D7 DUP2 PUSH2 0x14DA JUMP JUMPDEST PUSH2 0x9E2 DUP5 DUP5 DUP5 PUSH2 0x14EE JUMP JUMPDEST POP POP POP POP JUMP JUMPDEST PUSH0 DUP1 PUSH2 0x9F2 PUSH2 0x14C1 JUMP JUMPDEST SWAP1 POP PUSH2 0x9FF DUP6 DUP3 DUP6 PUSH2 0x15DE JUMP JUMPDEST PUSH2 0xA0A DUP6 DUP6 DUP6 PUSH2 0x14EE JUMP JUMPDEST PUSH1 0x1 SWAP2 POP POP SWAP4 SWAP3 POP POP POP JUMP JUMPDEST PUSH0 PUSH1 0x5 PUSH0 DUP4 DUP2 MSTORE PUSH1 0x20 ADD SWAP1 DUP2 MSTORE PUSH1 0x20 ADD PUSH0 KECCAK256 PUSH1 0x1 ADD SLOAD SWAP1 POP SWAP2 SWAP1 POP JUMP JUMPDEST PUSH32 0x3C11D16CBAFFD01DF69CE1C404F6340EE057498F5F00246190EA54220576A848 DUP2 JUMP JUMPDEST PUSH2 0xA5F PUSH2 0x143A JUMP JUMPDEST PUSH2 0xA89 PUSH32 0x92DE27771F92D6942691D73358B3A4673E4880DE8356F8F2CF452BE87E02D363 DUP3 PUSH2 0x11A5 JUMP JUMPDEST POP JUMP JUMPDEST PUSH2 0xA95 DUP3 PUSH2 0xA16 JUMP JUMPDEST PUSH2 0xA9E DUP2 PUSH2 0x14DA JUMP JUMPDEST PUSH2 0xAA8 DUP4 DUP4 PUSH2 0x1670 JUMP JUMPDEST POP POP POP POP JUMP JUMPDEST PUSH2 0xAB6 PUSH2 0x143A JUMP JUMPDEST PUSH2 0xAE0 PUSH32 0x9F2DF0FED2C77648DE5860A4CC508CD0818C85B8B8A1AB4CEEEF8D981C8956A6 DUP3 PUSH2 0x11A5 JUMP JUMPDEST POP JUMP JUMPDEST PUSH0 PUSH1 0x12 SWAP1 POP SWAP1 JUMP JUMPDEST PUSH2 0xAF3 PUSH2 0x14C1 JUMP JUMPDEST PUSH20 0xFFFFFFFFFFFFFFFFFFFFFFFFFFFFFFFFFFFFFFFF AND DUP2 PUSH20 0xFFFFFFFFFFFFFFFFFFFFFFFFFFFFFFFFFFFFFFFF AND EQ PUSH2 0xB57 JUMPI PUSH1 0x40 MLOAD PUSH32 0x6697B23200000000000000000000000000000000000000000000000000000000 DUP2 MSTORE PUSH1 0x4 ADD PUSH1 0x40 MLOAD DUP1 SWAP2 SUB SWAP1 REVERT JUMPDEST PUSH2 0xB61 DUP3 DUP3 PUSH2 0x175A JUMP JUMPDEST POP POP POP JUMP JUMPDEST PUSH32 0x9F2DF0FED2C77648DE5860A4CC508CD0818C85B8B8A1AB4CEEEF8D981C8956A6 PUSH2 0xB90 DUP2 PUSH2 0x14DA JUMP JUMPDEST PUSH2 0xB9A DUP4 DUP4 PUSH2 0x1844 JUMP JUMPDEST POP POP POP JUMP JUMPDEST PUSH32 0xF988E4FB62B8E14F4820FED03192306DDF4D7DBFA215595BA1C6BA4B76B369EE DUP2 JUMP JUMPDEST PUSH32 0xF988E4FB62B8E14F4820FED03192306DDF4D7DBFA215595BA1C6BA4B76B369EE PUSH2 0xBED DUP2 PUSH2 0x14DA JUMP JUMPDEST PUSH2 0xC01 DUP3 PUSH1 0x9 PUSH2 0x18C3 SWAP1 SWAP2 SWAP1 PUSH4 0xFFFFFFFF AND JUMP JUMPDEST ISZERO PUSH2 0xC41 JUMPI PUSH1 0x40 MLOAD PUSH32 0x8C379A000000000000000000000000000000000000000000000000000000000 DUP2 MSTORE PUSH1 0x4 ADD PUSH2 0xC38 SWAP1 PUSH2 0x2524 JUMP JUMPDEST PUSH1 0x40 MLOAD DUP1 SWAP2 SUB SWAP1 REVERT JUMPDEST PUSH2 0xC55 DUP3 PUSH1 0x9 PUSH2 0x18F0 SWAP1 SWAP2 SWAP1 PUSH4 0xFFFFFFFF AND JUMP JUMPDEST POP POP POP JUMP JUMPDEST PUSH2 0xC62 PUSH2 0x143A JUMP JUMPDEST PUSH2 0xC8C PUSH32 0x92DE27771F92D6942691D73358B3A4673E4880DE8356F8F2CF452BE87E02D363 DUP3 PUSH2 0xA8C JUMP JUMPDEST POP JUMP JUMPDEST PUSH32 0xF988E4FB62B8E14F4820FED03192306DDF4D7DBFA215595BA1C6BA4B76B369EE PUSH2 0xCB9 DUP2 PUSH2 0x14DA JUMP JUMPDEST PUSH2 0xCCD DUP3 PUSH1 0x9 PUSH2 0x18C3 SWAP1 SWAP2 SWAP1 PUSH4 0xFFFFFFFF AND JUMP JUMPDEST PUSH2 0xD0C JUMPI PUSH1 0x40 MLOAD PUSH32 0x8C379A000000000000000000000000000000000000000000000000000000000 DUP2 MSTORE PUSH1 0x4 ADD PUSH2 0xD03 SWAP1 PUSH2 0x258C JUMP JUMPDEST PUSH1 0x40 MLOAD DUP1 SWAP2 SUB SWAP1 REVERT JUMPDEST PUSH2 0xD20 DUP3 PUSH1 0x9 PUSH2 0x191D SWAP1 SWAP2 SWAP1 PUSH4 0xFFFFFFFF AND JUMP JUMPDEST POP POP POP JUMP JUMPDEST PUSH0 DUP1 PUSH0 DUP4 PUSH20 0xFFFFFFFFFFFFFFFFFFFFFFFFFFFFFFFFFFFFFFFF AND PUSH20 0xFFFFFFFFFFFFFFFFFFFFFFFFFFFFFFFFFFFFFFFF AND DUP2 MSTORE PUSH1 0x20 ADD SWAP1 DUP2 MSTORE PUSH1 0x20 ADD PUSH0 KECCAK256 SLOAD SWAP1 POP SWAP2 SWAP1 POP JUMP JUMPDEST PUSH2 0xD72 PUSH2 0x143A JUMP JUMPDEST PUSH2 0xD7B PUSH0 PUSH2 0x194A JUMP JUMPDEST JUMP JUMPDEST PUSH32 0x92DE27771F92D6942691D73358B3A4673E4880DE8356F8F2CF452BE87E02D363 PUSH2 0xDA7 DUP2 PUSH2 0x14DA JUMP JUMPDEST PUSH2 0xDBB DUP3 PUSH1 0x7 PUSH2 0x18C3 SWAP1 SWAP2 SWAP1 PUSH4 0xFFFFFFFF AND JUMP JUMPDEST PUSH2 0xDFA JUMPI PUSH1 0x40 MLOAD PUSH32 0x8C379A000000000000000000000000000000000000000000000000000000000 DUP2 MSTORE PUSH1 0x4 ADD PUSH2 0xDF1 SWAP1 PUSH2 0x25F4 JUMP JUMPDEST PUSH1 0x40 MLOAD DUP1 SWAP2 SUB SWAP1 REVERT JUMPDEST PUSH2 0xE0E DUP3 PUSH1 0x7 PUSH2 0x191D SWAP1 SWAP2 SWAP1 PUSH4 0xFFFFFFFF AND JUMP JUMPDEST POP POP POP JUMP JUMPDEST PUSH0 PUSH1 0x6 PUSH0 SWAP1 SLOAD SWAP1 PUSH2 0x100 EXP SWAP1 DIV PUSH20 0xFFFFFFFFFFFFFFFFFFFFFFFFFFFFFFFFFFFFFFFF AND SWAP1 POP SWAP1 JUMP JUMPDEST PUSH0 PUSH1 0x5 PUSH0 DUP5 DUP2 MSTORE PUSH1 0x20 ADD SWAP1 DUP2 MSTORE PUSH1 0x20 ADD PUSH0 KECCAK256 PUSH0 ADD PUSH0 DUP4 PUSH20 0xFFFFFFFFFFFFFFFFFFFFFFFFFFFFFFFFFFFFFFFF AND PUSH20 0xFFFFFFFFFFFFFFFFFFFFFFFFFFFFFFFFFFFFFFFF AND DUP2 MSTORE PUSH1 0x20 ADD SWAP1 DUP2 MSTORE PUSH1 0x20 ADD PUSH0 KECCAK256 PUSH0 SWAP1 SLOAD SWAP1 PUSH2 0x100 EXP SWAP1 DIV PUSH1 0xFF AND SWAP1 POP SWAP3 SWAP2 POP POP JUMP JUMPDEST PUSH32 0x62B337EAEFEC74DADF1A62E856BF9DB4F14A0F27D4F48156A95A9F98E7D5E066 DUP2 JUMP JUMPDEST PUSH1 0x60 PUSH1 0x4 DUP1 SLOAD PUSH2 0xED2 SWAP1 PUSH2 0x24AA JUMP JUMPDEST DUP1 PUSH1 0x1F ADD PUSH1 0x20 DUP1 SWAP2 DIV MUL PUSH1 0x20 ADD PUSH1 0x40 MLOAD SWAP1 DUP2 ADD PUSH1 0x40 MSTORE DUP1 SWAP3 SWAP2 SWAP1 DUP2 DUP2 MSTORE PUSH1 0x20 ADD DUP3 DUP1 SLOAD PUSH2 0xEFE SWAP1 PUSH2 0x24AA JUMP JUMPDEST DUP1 ISZERO PUSH2 0xF49 JUMPI DUP1 PUSH1 0x1F LT PUSH2 0xF20 JUMPI PUSH2 0x100 DUP1 DUP4 SLOAD DIV MUL DUP4 MSTORE SWAP2 PUSH1 0x20 ADD SWAP2 PUSH2 0xF49 JUMP JUMPDEST DUP3 ADD SWAP2 SWAP1 PUSH0 MSTORE PUSH1 0x20 PUSH0 KECCAK256 SWAP1 JUMPDEST DUP2 SLOAD DUP2 MSTORE SWAP1 PUSH1 0x1 ADD SWAP1 PUSH1 0x20 ADD DUP1 DUP4 GT PUSH2 0xF2C JUMPI DUP3 SWAP1 SUB PUSH1 0x1F AND DUP3 ADD SWAP2 JUMPDEST POP POP POP POP POP SWAP1 POP SWAP1 JUMP JUMPDEST PUSH2 0xF5B PUSH2 0x143A JUMP JUMPDEST PUSH2 0xF85 PUSH32 0xF988E4FB62B8E14F4820FED03192306DDF4D7DBFA215595BA1C6BA4B76B369EE DUP3 PUSH2 0x11A5 JUMP JUMPDEST POP JUMP JUMPDEST PUSH2 0xF90 PUSH2 0x143A JUMP JUMPDEST PUSH2 0xFBA PUSH32 0x9F2DF0FED2C77648DE5860A4CC508CD0818C85B8B8A1AB4CEEEF8D981C8956A6 DUP3 PUSH2 0xA8C JUMP JUMPDEST POP JUMP JUMPDEST PUSH32 0x3C11D16CBAFFD01DF69CE1C404F6340EE057498F5F00246190EA54220576A848 PUSH2 0xFE7 DUP2 PUSH2 0x14DA JUMP JUMPDEST PUSH2 0xFF1 DUP4 DUP4 PUSH2 0x1A0D JUMP JUMPDEST POP POP POP JUMP JUMPDEST PUSH0 DUP1 SHL DUP2 JUMP JUMPDEST PUSH0 DUP1 PUSH2 0x1006 PUSH2 0x14C1 JUMP JUMPDEST SWAP1 POP PUSH2 0x101C DUP2 PUSH1 0x7 PUSH2 0x18C3 SWAP1 SWAP2 SWAP1 PUSH4 0xFFFFFFFF AND JUMP JUMPDEST ISZERO PUSH2 0x105C JUMPI PUSH1 0x40 MLOAD PUSH32 0x8C379A000000000000000000000000000000000000000000000000000000000 DUP2 MSTORE PUSH1 0x4 ADD PUSH2 0x1053 SWAP1 PUSH2 0x265C JUMP JUMPDEST PUSH1 0x40 MLOAD DUP1 SWAP2 SUB SWAP1 REVERT JUMPDEST PUSH2 0x1070 DUP2 PUSH1 0x9 PUSH2 0x18C3 SWAP1 SWAP2 SWAP1 PUSH4 0xFFFFFFFF AND JUMP JUMPDEST ISZERO PUSH2 0x10B0 JUMPI PUSH1 0x40 MLOAD PUSH32 0x8C379A000000000000000000000000000000000000000000000000000000000 DUP2 MSTORE PUSH1 0x4 ADD PUSH2 0x10A7 SWAP1 PUSH2 0x26C4 JUMP JUMPDEST PUSH1 0x40 MLOAD DUP1 SWAP2 SUB SWAP1 REVERT JUMPDEST PUSH2 0x10C4 DUP5 PUSH1 0x9 PUSH2 0x18C3 SWAP1 SWAP2 SWAP1 PUSH4 0xFFFFFFFF AND JUMP JUMPDEST ISZERO PUSH2 0x1104 JUMPI PUSH1 0x40 MLOAD PUSH32 0x8C379A000000000000000000000000000000000000000000000000000000000 DUP2 MSTORE PUSH1 0x4 ADD PUSH2 0x10FB SWAP1 PUSH2 0x272C JUMP JUMPDEST PUSH1 0x40 MLOAD DUP1 SWAP2 SUB SWAP1 REVERT JUMPDEST PUSH2 0x110E DUP5 DUP5 PUSH2 0x1A8C JUMP JUMPDEST SWAP2 POP POP SWAP3 SWAP2 POP POP JUMP JUMPDEST PUSH2 0x111F PUSH2 0x143A JUMP JUMPDEST PUSH2 0x1149 PUSH32 0x62B337EAEFEC74DADF1A62E856BF9DB4F14A0F27D4F48156A95A9F98E7D5E066 DUP3 PUSH2 0xA8C JUMP JUMPDEST POP JUMP JUMPDEST PUSH2 0x1154 PUSH2 0x143A JUMP JUMPDEST PUSH2 0x117E PUSH32 0x62B337EAEFEC74DADF1A62E856BF9DB4F14A0F27D4F48156A95A9F98E7D5E066 DUP3 PUSH2 0x11A5 JUMP JUMPDEST POP JUMP JUMPDEST PUSH32 0x9F2DF0FED2C77648DE5860A4CC508CD0818C85B8B8A1AB4CEEEF8D981C8956A6 DUP2 JUMP JUMPDEST PUSH2 0x11AE DUP3 PUSH2 0xA16 JUMP JUMPDEST PUSH2 0x11B7 DUP2 PUSH2 0x14DA JUMP JUMPDEST PUSH2 0x11C1 DUP4 DUP4 PUSH2 0x175A JUMP JUMPDEST POP POP POP POP JUMP JUMPDEST PUSH0 PUSH1 0x1 PUSH0 DUP5 PUSH20 0xFFFFFFFFFFFFFFFFFFFFFFFFFFFFFFFFFFFFFFFF AND PUSH20 0xFFFFFFFFFFFFFFFFFFFFFFFFFFFFFFFFFFFFFFFF AND DUP2 MSTORE PUSH1 0x20 ADD SWAP1 DUP2 MSTORE PUSH1 0x20 ADD PUSH0 KECCAK256 PUSH0 DUP4 PUSH20 0xFFFFFFFFFFFFFFFFFFFFFFFFFFFFFFFFFFFFFFFF AND PUSH20 0xFFFFFFFFFFFFFFFFFFFFFFFFFFFFFFFFFFFFFFFF AND DUP2 MSTORE PUSH1 0x20 ADD SWAP1 DUP2 MSTORE PUSH1 0x20 ADD PUSH0 KECCAK256 SLOAD SWAP1 POP SWAP3 SWAP2 POP POP JUMP JUMPDEST PUSH0 PUSH2 0x125E DUP3 PUSH1 0x7 PUSH2 0x18C3 SWAP1 SWAP2 SWAP1 PUSH4 0xFFFFFFFF AND JUMP JUMPDEST SWAP1 POP SWAP2 SWAP1 POP JUMP JUMPDEST PUSH32 0x92DE27771F92D6942691D73358B3A4673E4880DE8356F8F2CF452BE87E02D363 PUSH2 0x128F DUP2 PUSH2 0x14DA JUMP JUMPDEST PUSH2 0x12A3 DUP3 PUSH1 0x7 PUSH2 0x18C3 SWAP1 SWAP2 SWAP1 PUSH4 0xFFFFFFFF AND JUMP JUMPDEST ISZERO PUSH2 0x12E3 JUMPI PUSH1 0x40 MLOAD PUSH32 0x8C379A000000000000000000000000000000000000000000000000000000000 DUP2 MSTORE PUSH1 0x4 ADD PUSH2 0x12DA SWAP1 PUSH2 0x2794 JUMP JUMPDEST PUSH1 0x40 MLOAD DUP1 SWAP2 SUB SWAP1 REVERT JUMPDEST PUSH2 0x12F7 DUP3 PUSH1 0x7 PUSH2 0x18F0 SWAP1 SWAP2 SWAP1 PUSH4 0xFFFFFFFF AND JUMP JUMPDEST POP POP POP JUMP JUMPDEST PUSH2 0x1304 PUSH2 0x143A JUMP JUMPDEST PUSH0 PUSH20 0xFFFFFFFFFFFFFFFFFFFFFFFFFFFFFFFFFFFFFFFF AND DUP2 PUSH20 0xFFFFFFFFFFFFFFFFFFFFFFFFFFFFFFFFFFFFFFFF AND SUB PUSH2 0x1374 JUMPI PUSH0 PUSH1 0x40 MLOAD PUSH32 0x1E4FBDF700000000000000000000000000000000000000000000000000000000 DUP2 MSTORE PUSH1 0x4 ADD PUSH2 0x136B SWAP2 SWAP1 PUSH2 0x2426 JUMP JUMPDEST PUSH1 0x40 MLOAD DUP1 SWAP2 SUB SWAP1 REVERT JUMPDEST PUSH2 0x137D DUP2 PUSH2 0x194A JUMP JUMPDEST POP JUMP JUMPDEST PUSH2 0x1388 PUSH2 0x143A JUMP JUMPDEST PUSH2 0x13B2 PUSH32 0x3C11D16CBAFFD01DF69CE1C404F6340EE057498F5F00246190EA54220576A848 DUP3 PUSH2 0xA8C JUMP JUMPDEST POP JUMP JUMPDEST PUSH0 PUSH2 0x13CA DUP3 PUSH1 0x9 PUSH2 0x18C3 SWAP1 SWAP2 SWAP1 PUSH4 0xFFFFFFFF AND JUMP JUMPDEST SWAP1 POP SWAP2 SWAP1 POP JUMP JUMPDEST PUSH0 PUSH32 0x1FFC9A700000000000000000000000000000000000000000000000000000000 PUSH28 0xFFFFFFFFFFFFFFFFFFFFFFFFFFFFFFFFFFFFFFFFFFFFFFFFFFFFFFFF NOT AND DUP3 PUSH28 0xFFFFFFFFFFFFFFFFFFFFFFFFFFFFFFFFFFFFFFFFFFFFFFFFFFFFFFFF NOT AND EQ SWAP1 POP SWAP2 SWAP1 POP JUMP JUMPDEST PUSH2 0x1442 PUSH2 0x14C1 JUMP JUMPDEST PUSH20 0xFFFFFFFFFFFFFFFFFFFFFFFFFFFFFFFFFFFFFFFF AND PUSH2 0x1460 PUSH2 0xE13 JUMP JUMPDEST PUSH20 0xFFFFFFFFFFFFFFFFFFFFFFFFFFFFFFFFFFFFFFFF AND EQ PUSH2 0x14BF JUMPI PUSH2 0x1483 PUSH2 0x14C1 JUMP JUMPDEST PUSH1 0x40 MLOAD PUSH32 0x118CDAA700000000000000000000000000000000000000000000000000000000 DUP2 MSTORE PUSH1 0x4 ADD PUSH2 0x14B6 SWAP2 SWAP1 PUSH2 0x2426 JUMP JUMPDEST PUSH1 0x40 MLOAD DUP1 SWAP2 SUB SWAP1 REVERT JUMPDEST JUMP JUMPDEST PUSH0 CALLER SWAP1 POP SWAP1 JUMP JUMPDEST PUSH2 0x14D5 DUP4 DUP4 DUP4 PUSH1 0x1 PUSH2 0x1AAE JUMP JUMPDEST POP POP POP JUMP JUMPDEST PUSH2 0x14EB DUP2 PUSH2 0x14E6 PUSH2 0x14C1 JUMP JUMPDEST PUSH2 0x1C7D JUMP JUMPDEST POP JUMP JUMPDEST PUSH0 PUSH20 0xFFFFFFFFFFFFFFFFFFFFFFFFFFFFFFFFFFFFFFFF AND DUP4 PUSH20 0xFFFFFFFFFFFFFFFFFFFFFFFFFFFFFFFFFFFFFFFF AND SUB PUSH2 0x155E JUMPI PUSH0 PUSH1 0x40 MLOAD PUSH32 0x96C6FD1E00000000000000000000000000000000000000000000000000000000 DUP2 MSTORE PUSH1 0x4 ADD PUSH2 0x1555 SWAP2 SWAP1 PUSH2 0x2426 JUMP JUMPDEST PUSH1 0x40 MLOAD DUP1 SWAP2 SUB SWAP1 REVERT JUMPDEST PUSH0 PUSH20 0xFFFFFFFFFFFFFFFFFFFFFFFFFFFFFFFFFFFFFFFF AND DUP3 PUSH20 0xFFFFFFFFFFFFFFFFFFFFFFFFFFFFFFFFFFFFFFFF AND SUB PUSH2 0x15CE JUMPI PUSH0 PUSH1 0x40 MLOAD PUSH32 0xEC442F0500000000000000000000000000000000000000000000000000000000 DUP2 MSTORE PUSH1 0x4 ADD PUSH2 0x15C5 SWAP2 SWAP1 PUSH2 0x2426 JUMP JUMPDEST PUSH1 0x40 MLOAD DUP1 SWAP2 SUB SWAP1 REVERT JUMPDEST PUSH2 0x15D9 DUP4 DUP4 DUP4 PUSH2 0x1CCE JUMP JUMPDEST POP POP POP JUMP JUMPDEST PUSH0 PUSH2 0x15E9 DUP5 DUP5 PUSH2 0x11C7 JUMP JUMPDEST SWAP1 POP PUSH32 0xFFFFFFFFFFFFFFFFFFFFFFFFFFFFFFFFFFFFFFFFFFFFFFFFFFFFFFFFFFFFFFFF DUP2 EQ PUSH2 0x166A JUMPI DUP2 DUP2 LT ISZERO PUSH2 0x165B JUMPI DUP3 DUP2 DUP4 PUSH1 0x40 MLOAD PUSH32 0xFB8F41B200000000000000000000000000000000000000000000000000000000 DUP2 MSTORE PUSH1 0x4 ADD PUSH2 0x1652 SWAP4 SWAP3 SWAP2 SWAP1 PUSH2 0x27B2 JUMP JUMPDEST PUSH1 0x40 MLOAD DUP1 SWAP2 SUB SWAP1 REVERT JUMPDEST PUSH2 0x1669 DUP5 DUP5 DUP5 DUP5 SUB PUSH0 PUSH2 0x1AAE JUMP JUMPDEST JUMPDEST POP POP POP POP JUMP JUMPDEST PUSH0 PUSH2 0x167B DUP4 DUP4 PUSH2 0xE3B JUMP JUMPDEST PUSH2 0x1750 JUMPI PUSH1 0x1 PUSH1 0x5 PUSH0 DUP6 DUP2 MSTORE PUSH1 0x20 ADD SWAP1 DUP2 MSTORE PUSH1 0x20 ADD PUSH0 KECCAK256 PUSH0 ADD PUSH0 DUP5 PUSH20 0xFFFFFFFFFFFFFFFFFFFFFFFFFFFFFFFFFFFFFFFF AND PUSH20 0xFFFFFFFFFFFFFFFFFFFFFFFFFFFFFFFFFFFFFFFF AND DUP2 MSTORE PUSH1 0x20 ADD SWAP1 DUP2 MSTORE PUSH1 0x20 ADD PUSH0 KECCAK256 PUSH0 PUSH2 0x100 EXP DUP2 SLOAD DUP2 PUSH1 0xFF MUL NOT AND SWAP1 DUP4 ISZERO ISZERO MUL OR SWAP1 SSTORE POP PUSH2 0x16ED PUSH2 0x14C1 JUMP JUMPDEST PUSH20 0xFFFFFFFFFFFFFFFFFFFFFFFFFFFFFFFFFFFFFFFF AND DUP3 PUSH20 0xFFFFFFFFFFFFFFFFFFFFFFFFFFFFFFFFFFFFFFFF AND DUP5 PUSH32 0x2F8788117E7EFF1D82E926EC794901D17C78024A50270940304540A733656F0D PUSH1 0x40 MLOAD PUSH1 0x40 MLOAD DUP1 SWAP2 SUB SWAP1 LOG4 PUSH1 0x1 SWAP1 POP PUSH2 0x1754 JUMP JUMPDEST PUSH0 SWAP1 POP JUMPDEST SWAP3 SWAP2 POP POP JUMP JUMPDEST PUSH0 PUSH2 0x1765 DUP4 DUP4 PUSH2 0xE3B JUMP JUMPDEST ISZERO PUSH2 0x183A JUMPI PUSH0 PUSH1 0x5 PUSH0 DUP6 DUP2 MSTORE PUSH1 0x20 ADD SWAP1 DUP2 MSTORE PUSH1 0x20 ADD PUSH0 KECCAK256 PUSH0 ADD PUSH0 DUP5 PUSH20 0xFFFFFFFFFFFFFFFFFFFFFFFFFFFFFFFFFFFFFFFF AND PUSH20 0xFFFFFFFFFFFFFFFFFFFFFFFFFFFFFFFFFFFFFFFF AND DUP2 MSTORE PUSH1 0x20 ADD SWAP1 DUP2 MSTORE PUSH1 0x20 ADD PUSH0 KECCAK256 PUSH0 PUSH2 0x100 EXP DUP2 SLOAD DUP2 PUSH1 0xFF MUL NOT AND SWAP1 DUP4 ISZERO ISZERO MUL OR SWAP1 SSTORE POP PUSH2 0x17D7 PUSH2 0x14C1 JUMP JUMPDEST PUSH20 0xFFFFFFFFFFFFFFFFFFFFFFFFFFFFFFFFFFFFFFFF AND DUP3 PUSH20 0xFFFFFFFFFFFFFFFFFFFFFFFFFFFFFFFFFFFFFFFF AND DUP5 PUSH32 0xF6391F5C32D9C69D2A47EA670B442974B53935D1EDC7FD64EB21E047A839171B PUSH1 0x40 MLOAD PUSH1 0x40 MLOAD DUP1 SWAP2 SUB SWAP1 LOG4 PUSH1 0x1 SWAP1 POP PUSH2 0x183E JUMP JUMPDEST PUSH0 SWAP1 POP JUMPDEST SWAP3 SWAP2 POP POP JUMP JUMPDEST PUSH0 PUSH20 0xFFFFFFFFFFFFFFFFFFFFFFFFFFFFFFFFFFFFFFFF AND DUP3 PUSH20 0xFFFFFFFFFFFFFFFFFFFFFFFFFFFFFFFFFFFFFFFF AND SUB PUSH2 0x18B4 JUMPI PUSH0 PUSH1 0x40 MLOAD PUSH32 0xEC442F0500000000000000000000000000000000000000000000000000000000 DUP2 MSTORE PUSH1 0x4 ADD PUSH2 0x18AB SWAP2 SWAP1 PUSH2 0x2426 JUMP JUMPDEST PUSH1 0x40 MLOAD DUP1 SWAP2 SUB SWAP1 REVERT JUMPDEST PUSH2 0x18BF PUSH0 DUP4 DUP4 PUSH2 0x1CCE JUMP JUMPDEST POP POP JUMP JUMPDEST PUSH0 PUSH2 0x18E8 DUP4 PUSH0 ADD DUP4 PUSH20 0xFFFFFFFFFFFFFFFFFFFFFFFFFFFFFFFFFFFFFFFF AND PUSH0 SHL PUSH2 0x1EE7 JUMP JUMPDEST SWAP1 POP SWAP3 SWAP2 POP POP JUMP JUMPDEST PUSH0 PUSH2 0x1915 DUP4 PUSH0 ADD DUP4 PUSH20 0xFFFFFFFFFFFFFFFFFFFFFFFFFFFFFFFFFFFFFFFF AND PUSH0 SHL PUSH2 0x1F07 JUMP JUMPDEST SWAP1 POP SWAP3 SWAP2 POP POP JUMP JUMPDEST PUSH0 PUSH2 0x1942 DUP4 PUSH0 ADD DUP4 PUSH20 0xFFFFFFFFFFFFFFFFFFFFFFFFFFFFFFFFFFFFFFFF AND PUSH0 SHL PUSH2 0x1F6E JUMP JUMPDEST SWAP1 POP SWAP3 SWAP2 POP POP JUMP JUMPDEST PUSH0 PUSH1 0x6 PUSH0 SWAP1 SLOAD SWAP1 PUSH2 0x100 EXP SWAP1 DIV PUSH20 0xFFFFFFFFFFFFFFFFFFFFFFFFFFFFFFFFFFFFFFFF AND SWAP1 POP DUP2 PUSH1 0x6 PUSH0 PUSH2 0x100 EXP DUP2 SLOAD DUP2 PUSH20 0xFFFFFFFFFFFFFFFFFFFFFFFFFFFFFFFFFFFFFFFF MUL NOT AND SWAP1 DUP4 PUSH20 0xFFFFFFFFFFFFFFFFFFFFFFFFFFFFFFFFFFFFFFFF AND MUL OR SWAP1 SSTORE POP DUP2 PUSH20 0xFFFFFFFFFFFFFFFFFFFFFFFFFFFFFFFFFFFFFFFF AND DUP2 PUSH20 0xFFFFFFFFFFFFFFFFFFFFFFFFFFFFFFFFFFFFFFFF AND PUSH32 0x8BE0079C531659141344CD1FD0A4F28419497F9722A3DAAFE3B4186F6B6457E0 PUSH1 0x40 MLOAD PUSH1 0x40 MLOAD DUP1 SWAP2 SUB SWAP1 LOG3 POP POP JUMP JUMPDEST PUSH0 PUSH20 0xFFFFFFFFFFFFFFFFFFFFFFFFFFFFFFFFFFFFFFFF AND DUP3 PUSH20 0xFFFFFFFFFFFFFFFFFFFFFFFFFFFFFFFFFFFFFFFF AND SUB PUSH2 0x1A7D JUMPI PUSH0 PUSH1 0x40 MLOAD PUSH32 0x96C6FD1E00000000000000000000000000000000000000000000000000000000 DUP2 MSTORE PUSH1 0x4 ADD PUSH2 0x1A74 SWAP2 SWAP1 PUSH2 0x2426 JUMP JUMPDEST PUSH1 0x40 MLOAD DUP1 SWAP2 SUB SWAP1 REVERT JUMPDEST PUSH2 0x1A88 DUP3 PUSH0 DUP4 PUSH2 0x1CCE JUMP JUMPDEST POP POP JUMP JUMPDEST PUSH0 DUP1 PUSH2 0x1A96 PUSH2 0x14C1 JUMP JUMPDEST SWAP1 POP PUSH2 0x1AA3 DUP2 DUP6 DUP6 PUSH2 0x14EE JUMP JUMPDEST PUSH1 0x1 SWAP2 POP POP SWAP3 SWAP2 POP POP JUMP JUMPDEST PUSH0 PUSH20 0xFFFFFFFFFFFFFFFFFFFFFFFFFFFFFFFFFFFFFFFF AND DUP5 PUSH20 0xFFFFFFFFFFFFFFFFFFFFFFFFFFFFFFFFFFFFFFFF AND SUB PUSH2 0x1B1E JUMPI PUSH0 PUSH1 0x40 MLOAD PUSH32 0xE602DF0500000000000000000000000000000000000000000000000000000000 DUP2 MSTORE PUSH1 0x4 ADD PUSH2 0x1B15 SWAP2 SWAP1 PUSH2 0x2426 JUMP JUMPDEST PUSH1 0x40 MLOAD DUP1 SWAP2 SUB SWAP1 REVERT JUMPDEST PUSH0 PUSH20 0xFFFFFFFFFFFFFFFFFFFFFFFFFFFFFFFFFFFFFFFF AND DUP4 PUSH20 0xFFFFFFFFFFFFFFFFFFFFFFFFFFFFFFFFFFFFFFFF AND SUB PUSH2 0x1B8E JUMPI PUSH0 PUSH1 0x40 MLOAD PUSH32 0x94280D6200000000000000000000000000000000000000000000000000000000 DUP2 MSTORE PUSH1 0x4 ADD PUSH2 0x1B85 SWAP2 SWAP1 PUSH2 0x2426 JUMP JUMPDEST PUSH1 0x40 MLOAD DUP1 SWAP2 SUB SWAP1 REVERT JUMPDEST DUP2 PUSH1 0x1 PUSH0 DUP7 PUSH20 0xFFFFFFFFFFFFFFFFFFFFFFFFFFFFFFFFFFFFFFFF AND PUSH20 0xFFFFFFFFFFFFFFFFFFFFFFFFFFFFFFFFFFFFFFFF AND DUP2 MSTORE PUSH1 0x20 ADD SWAP1 DUP2 MSTORE PUSH1 0x20 ADD PUSH0 KECCAK256 PUSH0 DUP6 PUSH20 0xFFFFFFFFFFFFFFFFFFFFFFFFFFFFFFFFFFFFFFFF AND PUSH20 0xFFFFFFFFFFFFFFFFFFFFFFFFFFFFFFFFFFFFFFFF AND DUP2 MSTORE PUSH1 0x20 ADD SWAP1 DUP2 MSTORE PUSH1 0x20 ADD PUSH0 KECCAK256 DUP2 SWAP1 SSTORE POP DUP1 ISZERO PUSH2 0x1C77 JUMPI DUP3 PUSH20 0xFFFFFFFFFFFFFFFFFFFFFFFFFFFFFFFFFFFFFFFF AND DUP5 PUSH20 0xFFFFFFFFFFFFFFFFFFFFFFFFFFFFFFFFFFFFFFFF AND PUSH32 0x8C5BE1E5EBEC7D5BD14F71427D1E84F3DD0314C0F7B2291E5B200AC8C7C3B925 DUP5 PUSH1 0x40 MLOAD PUSH2 0x1C6E SWAP2 SWAP1 PUSH2 0x22E7 JUMP JUMPDEST PUSH1 0x40 MLOAD DUP1 SWAP2 SUB SWAP1 LOG3 JUMPDEST POP POP POP POP JUMP JUMPDEST PUSH2 0x1C87 DUP3 DUP3 PUSH2 0xE3B JUMP JUMPDEST PUSH2 0x1CCA JUMPI DUP1 DUP3 PUSH1 0x40 MLOAD PUSH32 0xE2517D3F00000000000000000000000000000000000000000000000000000000 DUP2 MSTORE PUSH1 0x4 ADD PUSH2 0x1CC1 SWAP3 SWAP2 SWAP1 PUSH2 0x27E7 JUMP JUMPDEST PUSH1 0x40 MLOAD DUP1 SWAP2 SUB SWAP1 REVERT JUMPDEST POP POP JUMP JUMPDEST PUSH0 PUSH20 0xFFFFFFFFFFFFFFFFFFFFFFFFFFFFFFFFFFFFFFFF AND DUP4 PUSH20 0xFFFFFFFFFFFFFFFFFFFFFFFFFFFFFFFFFFFFFFFF AND SUB PUSH2 0x1D1E JUMPI DUP1 PUSH1 0x2 PUSH0 DUP3 DUP3 SLOAD PUSH2 0x1D12 SWAP2 SWAP1 PUSH2 0x283B JUMP JUMPDEST SWAP3 POP POP DUP2 SWAP1 SSTORE POP PUSH2 0x1DEC JUMP JUMPDEST PUSH0 DUP1 PUSH0 DUP6 PUSH20 0xFFFFFFFFFFFFFFFFFFFFFFFFFFFFFFFFFFFFFFFF AND PUSH20 0xFFFFFFFFFFFFFFFFFFFFFFFFFFFFFFFFFFFFFFFF AND DUP2 MSTORE PUSH1 0x20 ADD SWAP1 DUP2 MSTORE PUSH1 0x20 ADD PUSH0 KECCAK256 SLOAD SWAP1 POP DUP2 DUP2 LT ISZERO PUSH2 0x1DA7 JUMPI DUP4 DUP2 DUP4 PUSH1 0x40 MLOAD PUSH32 0xE450D38C00000000000000000000000000000000000000000000000000000000 DUP2 MSTORE PUSH1 0x4 ADD PUSH2 0x1D9E SWAP4 SWAP3 SWAP2 SWAP1 PUSH2 0x27B2 JUMP JUMPDEST PUSH1 0x40 MLOAD DUP1 SWAP2 SUB SWAP1 REVERT JUMPDEST DUP2 DUP2 SUB PUSH0 DUP1 DUP7 PUSH20 0xFFFFFFFFFFFFFFFFFFFFFFFFFFFFFFFFFFFFFFFF AND PUSH20 0xFFFFFFFFFFFFFFFFFFFFFFFFFFFFFFFFFFFFFFFF AND DUP2 MSTORE PUSH1 0x20 ADD SWAP1 DUP2 MSTORE PUSH1 0x20 ADD PUSH0 KECCAK256 DUP2 SWAP1 SSTORE POP POP JUMPDEST PUSH0 PUSH20 0xFFFFFFFFFFFFFFFFFFFFFFFFFFFFFFFFFFFFFFFF AND DUP3 PUSH20 0xFFFFFFFFFFFFFFFFFFFFFFFFFFFFFFFFFFFFFFFF AND SUB PUSH2 0x1E33 JUMPI DUP1 PUSH1 0x2 PUSH0 DUP3 DUP3 SLOAD SUB SWAP3 POP POP DUP2 SWAP1 SSTORE POP PUSH2 0x1E7D JUMP JUMPDEST DUP1 PUSH0 DUP1 DUP5 PUSH20 0xFFFFFFFFFFFFFFFFFFFFFFFFFFFFFFFFFFFFFFFF AND PUSH20 0xFFFFFFFFFFFFFFFFFFFFFFFFFFFFFFFFFFFFFFFF AND DUP2 MSTORE PUSH1 0x20 ADD SWAP1 DUP2 MSTORE PUSH1 0x20 ADD PUSH0 KECCAK256 PUSH0 DUP3 DUP3 SLOAD ADD SWAP3 POP POP DUP2 SWAP1 SSTORE POP JUMPDEST DUP2 PUSH20 0xFFFFFFFFFFFFFFFFFFFFFFFFFFFFFFFFFFFFFFFF AND DUP4 PUSH20 0xFFFFFFFFFFFFFFFFFFFFFFFFFFFFFFFFFFFFFFFF AND PUSH32 0xDDF252AD1BE2C89B69C2B068FC378DAA952BA7F163C4A11628F55A4DF523B3EF DUP4 PUSH1 0x40 MLOAD PUSH2 0x1EDA SWAP2 SWAP1 PUSH2 0x22E7 JUMP JUMPDEST PUSH1 0x40 MLOAD DUP1 SWAP2 SUB SWAP1 LOG3 POP POP POP JUMP JUMPDEST PUSH0 DUP1 DUP4 PUSH1 0x1 ADD PUSH0 DUP5 DUP2 MSTORE PUSH1 0x20 ADD SWAP1 DUP2 MSTORE PUSH1 0x20 ADD PUSH0 KECCAK256 SLOAD EQ ISZERO SWAP1 POP SWAP3 SWAP2 POP POP JUMP JUMPDEST PUSH0 PUSH2 0x1F12 DUP4 DUP4 PUSH2 0x1EE7 JUMP JUMPDEST PUSH2 0x1F64 JUMPI DUP3 PUSH0 ADD DUP3 SWAP1 DUP1 PUSH1 0x1 DUP2 SLOAD ADD DUP1 DUP3 SSTORE DUP1 SWAP2 POP POP PUSH1 0x1 SWAP1 SUB SWAP1 PUSH0 MSTORE PUSH1 0x20 PUSH0 KECCAK256 ADD PUSH0 SWAP1 SWAP2 SWAP1 SWAP2 SWAP1 SWAP2 POP SSTORE DUP3 PUSH0 ADD DUP1 SLOAD SWAP1 POP DUP4 PUSH1 0x1 ADD PUSH0 DUP5 DUP2 MSTORE PUSH1 0x20 ADD SWAP1 DUP2 MSTORE PUSH1 0x20 ADD PUSH0 KECCAK256 DUP2 SWAP1 SSTORE POP PUSH1 0x1 SWAP1 POP PUSH2 0x1F68 JUMP JUMPDEST PUSH0 SWAP1 POP JUMPDEST SWAP3 SWAP2 POP POP JUMP JUMPDEST PUSH0 DUP1 DUP4 PUSH1 0x1 ADD PUSH0 DUP5 DUP2 MSTORE PUSH1 0x20 ADD SWAP1 DUP2 MSTORE PUSH1 0x20 ADD PUSH0 KECCAK256 SLOAD SWAP1 POP PUSH0 DUP2 EQ PUSH2 0x205F JUMPI PUSH0 PUSH1 0x1 DUP3 PUSH2 0x1F9B SWAP2 SWAP1 PUSH2 0x286E JUMP JUMPDEST SWAP1 POP PUSH0 PUSH1 0x1 DUP7 PUSH0 ADD DUP1 SLOAD SWAP1 POP PUSH2 0x1FB1 SWAP2 SWAP1 PUSH2 0x286E JUMP JUMPDEST SWAP1 POP DUP1 DUP3 EQ PUSH2 0x2017 JUMPI PUSH0 DUP7 PUSH0 ADD DUP3 DUP2 SLOAD DUP2 LT PUSH2 0x1FD0 JUMPI PUSH2 0x1FCF PUSH2 0x28A1 JUMP JUMPDEST JUMPDEST SWAP1 PUSH0 MSTORE PUSH1 0x20 PUSH0 KECCAK256 ADD SLOAD SWAP1 POP DUP1 DUP8 PUSH0 ADD DUP5 DUP2 SLOAD DUP2 LT PUSH2 0x1FF1 JUMPI PUSH2 0x1FF0 PUSH2 0x28A1 JUMP JUMPDEST JUMPDEST SWAP1 PUSH0 MSTORE PUSH1 0x20 PUSH0 KECCAK256 ADD DUP2 SWAP1 SSTORE POP DUP4 DUP8 PUSH1 0x1 ADD PUSH0 DUP4 DUP2 MSTORE PUSH1 0x20 ADD SWAP1 DUP2 MSTORE PUSH1 0x20 ADD PUSH0 KECCAK256 DUP2 SWAP1 SSTORE POP POP JUMPDEST DUP6 PUSH0 ADD DUP1 SLOAD DUP1 PUSH2 0x202A JUMPI PUSH2 0x2029 PUSH2 0x28CE JUMP JUMPDEST JUMPDEST PUSH1 0x1 SWAP1 SUB DUP2 DUP2 SWAP1 PUSH0 MSTORE PUSH1 0x20 PUSH0 KECCAK256 ADD PUSH0 SWAP1 SSTORE SWAP1 SSTORE DUP6 PUSH1 0x1 ADD PUSH0 DUP7 DUP2 MSTORE PUSH1 0x20 ADD SWAP1 DUP2 MSTORE PUSH1 0x20 ADD PUSH0 KECCAK256 PUSH0 SWAP1 SSTORE PUSH1 0x1 SWAP4 POP POP POP POP PUSH2 0x2064 JUMP JUMPDEST PUSH0 SWAP2 POP POP JUMPDEST SWAP3 SWAP2 POP POP JUMP JUMPDEST PUSH0 DUP1 REVERT JUMPDEST PUSH0 PUSH32 0xFFFFFFFF00000000000000000000000000000000000000000000000000000000 DUP3 AND SWAP1 POP SWAP2 SWAP1 POP JUMP JUMPDEST PUSH2 0x20A2 DUP2 PUSH2 0x206E JUMP JUMPDEST DUP2 EQ PUSH2 0x20AC JUMPI PUSH0 DUP1 REVERT JUMPDEST POP JUMP JUMPDEST PUSH0 DUP2 CALLDATALOAD SWAP1 POP PUSH2 0x20BD DUP2 PUSH2 0x2099 JUMP JUMPDEST SWAP3 SWAP2 POP POP JUMP JUMPDEST PUSH0 PUSH1 0x20 DUP3 DUP5 SUB SLT ISZERO PUSH2 0x20D8 JUMPI PUSH2 0x20D7 PUSH2 0x206A JUMP JUMPDEST JUMPDEST PUSH0 PUSH2 0x20E5 DUP5 DUP3 DUP6 ADD PUSH2 0x20AF JUMP JUMPDEST SWAP2 POP POP SWAP3 SWAP2 POP POP JUMP JUMPDEST PUSH0 DUP2 ISZERO ISZERO SWAP1 POP SWAP2 SWAP1 POP JUMP JUMPDEST PUSH2 0x2102 DUP2 PUSH2 0x20EE JUMP JUMPDEST DUP3 MSTORE POP POP JUMP JUMPDEST PUSH0 PUSH1 0x20 DUP3 ADD SWAP1 POP PUSH2 0x211B PUSH0 DUP4 ADD DUP5 PUSH2 0x20F9 JUMP JUMPDEST SWAP3 SWAP2 POP POP JUMP JUMPDEST PUSH0 PUSH20 0xFFFFFFFFFFFFFFFFFFFFFFFFFFFFFFFFFFFFFFFF DUP3 AND SWAP1 POP SWAP2 SWAP1 POP JUMP JUMPDEST PUSH0 PUSH2 0x214A DUP3 PUSH2 0x2121 JUMP JUMPDEST SWAP1 POP SWAP2 SWAP1 POP JUMP JUMPDEST PUSH2 0x215A DUP2 PUSH2 0x2140 JUMP JUMPDEST DUP2 EQ PUSH2 0x2164 JUMPI PUSH0 DUP1 REVERT JUMPDEST POP JUMP JUMPDEST PUSH0 DUP2 CALLDATALOAD SWAP1 POP PUSH2 0x2175 DUP2 PUSH2 0x2151 JUMP JUMPDEST SWAP3 SWAP2 POP POP JUMP JUMPDEST PUSH0 PUSH1 0x20 DUP3 DUP5 SUB SLT ISZERO PUSH2 0x2190 JUMPI PUSH2 0x218F PUSH2 0x206A JUMP JUMPDEST JUMPDEST PUSH0 PUSH2 0x219D DUP5 DUP3 DUP6 ADD PUSH2 0x2167 JUMP JUMPDEST SWAP2 POP POP SWAP3 SWAP2 POP POP JUMP JUMPDEST PUSH0 DUP2 SWAP1 POP SWAP2 SWAP1 POP JUMP JUMPDEST PUSH2 0x21B8 DUP2 PUSH2 0x21A6 JUMP JUMPDEST DUP3 MSTORE POP POP JUMP JUMPDEST PUSH0 PUSH1 0x20 DUP3 ADD SWAP1 POP PUSH2 0x21D1 PUSH0 DUP4 ADD DUP5 PUSH2 0x21AF JUMP JUMPDEST SWAP3 SWAP2 POP POP JUMP JUMPDEST PUSH0 DUP2 MLOAD SWAP1 POP SWAP2 SWAP1 POP JUMP JUMPDEST PUSH0 DUP3 DUP3 MSTORE PUSH1 0x20 DUP3 ADD SWAP1 POP SWAP3 SWAP2 POP POP JUMP JUMPDEST DUP3 DUP2 DUP4 MCOPY PUSH0 DUP4 DUP4 ADD MSTORE POP POP POP JUMP JUMPDEST PUSH0 PUSH1 0x1F NOT PUSH1 0x1F DUP4 ADD AND SWAP1 POP SWAP2 SWAP1 POP JUMP JUMPDEST PUSH0 PUSH2 0x2219 DUP3 PUSH2 0x21D7 JUMP JUMPDEST PUSH2 0x2223 DUP2 DUP6 PUSH2 0x21E1 JUMP JUMPDEST SWAP4 POP PUSH2 0x2233 DUP2 DUP6 PUSH1 0x20 DUP7 ADD PUSH2 0x21F1 JUMP JUMPDEST PUSH2 0x223C DUP2 PUSH2 0x21FF JUMP JUMPDEST DUP5 ADD SWAP2 POP POP SWAP3 SWAP2 POP POP JUMP JUMPDEST PUSH0 PUSH1 0x20 DUP3 ADD SWAP1 POP DUP2 DUP2 SUB PUSH0 DUP4 ADD MSTORE PUSH2 0x225F DUP2 DUP5 PUSH2 0x220F JUMP JUMPDEST SWAP1 POP SWAP3 SWAP2 POP POP JUMP JUMPDEST PUSH0 DUP2 SWAP1 POP SWAP2 SWAP1 POP JUMP JUMPDEST PUSH2 0x2279 DUP2 PUSH2 0x2267 JUMP JUMPDEST DUP2 EQ PUSH2 0x2283 JUMPI PUSH0 DUP1 REVERT JUMPDEST POP JUMP JUMPDEST PUSH0 DUP2 CALLDATALOAD SWAP1 POP PUSH2 0x2294 DUP2 PUSH2 0x2270 JUMP JUMPDEST SWAP3 SWAP2 POP POP JUMP JUMPDEST PUSH0 DUP1 PUSH1 0x40 DUP4 DUP6 SUB SLT ISZERO PUSH2 0x22B0 JUMPI PUSH2 0x22AF PUSH2 0x206A JUMP JUMPDEST JUMPDEST PUSH0 PUSH2 0x22BD DUP6 DUP3 DUP7 ADD PUSH2 0x2167 JUMP JUMPDEST SWAP3 POP POP PUSH1 0x20 PUSH2 0x22CE DUP6 DUP3 DUP7 ADD PUSH2 0x2286 JUMP JUMPDEST SWAP2 POP POP SWAP3 POP SWAP3 SWAP1 POP JUMP JUMPDEST PUSH2 0x22E1 DUP2 PUSH2 0x2267 JUMP JUMPDEST DUP3 MSTORE POP POP JUMP JUMPDEST PUSH0 PUSH1 0x20 DUP3 ADD SWAP1 POP PUSH2 0x22FA PUSH0 DUP4 ADD DUP5 PUSH2 0x22D8 JUMP JUMPDEST SWAP3 SWAP2 POP POP JUMP JUMPDEST PUSH0 DUP1 PUSH0 PUSH1 0x60 DUP5 DUP7 SUB SLT ISZERO PUSH2 0x2317 JUMPI PUSH2 0x2316 PUSH2 0x206A JUMP JUMPDEST JUMPDEST PUSH0 PUSH2 0x2324 DUP7 DUP3 DUP8 ADD PUSH2 0x2167 JUMP JUMPDEST SWAP4 POP POP PUSH1 0x20 PUSH2 0x2335 DUP7 DUP3 DUP8 ADD PUSH2 0x2167 JUMP JUMPDEST SWAP3 POP POP PUSH1 0x40 PUSH2 0x2346 DUP7 DUP3 DUP8 ADD PUSH2 0x2286 JUMP JUMPDEST SWAP2 POP POP SWAP3 POP SWAP3 POP SWAP3 JUMP JUMPDEST PUSH2 0x2359 DUP2 PUSH2 0x21A6 JUMP JUMPDEST DUP2 EQ PUSH2 0x2363 JUMPI PUSH0 DUP1 REVERT JUMPDEST POP JUMP JUMPDEST PUSH0 DUP2 CALLDATALOAD SWAP1 POP PUSH2 0x2374 DUP2 PUSH2 0x2350 JUMP JUMPDEST SWAP3 SWAP2 POP POP JUMP JUMPDEST PUSH0 PUSH1 0x20 DUP3 DUP5 SUB SLT ISZERO PUSH2 0x238F JUMPI PUSH2 0x238E PUSH2 0x206A JUMP JUMPDEST JUMPDEST PUSH0 PUSH2 0x239C DUP5 DUP3 DUP6 ADD PUSH2 0x2366 JUMP JUMPDEST SWAP2 POP POP SWAP3 SWAP2 POP POP JUMP JUMPDEST PUSH0 DUP1 PUSH1 0x40 DUP4 DUP6 SUB SLT ISZERO PUSH2 0x23BB JUMPI PUSH2 0x23BA PUSH2 0x206A JUMP JUMPDEST JUMPDEST PUSH0 PUSH2 0x23C8 DUP6 DUP3 DUP7 ADD PUSH2 0x2366 JUMP JUMPDEST SWAP3 POP POP PUSH1 0x20 PUSH2 0x23D9 DUP6 DUP3 DUP7 ADD PUSH2 0x2167 JUMP JUMPDEST SWAP2 POP POP SWAP3 POP SWAP3 SWAP1 POP JUMP JUMPDEST PUSH0 PUSH1 0xFF DUP3 AND SWAP1 POP SWAP2 SWAP1 POP JUMP JUMPDEST PUSH2 0x23F8 DUP2 PUSH2 0x23E3 JUMP JUMPDEST DUP3 MSTORE POP POP JUMP JUMPDEST PUSH0 PUSH1 0x20 DUP3 ADD SWAP1 POP PUSH2 0x2411 PUSH0 DUP4 ADD DUP5 PUSH2 0x23EF JUMP JUMPDEST SWAP3 SWAP2 POP POP JUMP JUMPDEST PUSH2 0x2420 DUP2 PUSH2 0x2140 JUMP JUMPDEST DUP3 MSTORE POP POP JUMP JUMPDEST PUSH0 PUSH1 0x20 DUP3 ADD SWAP1 POP PUSH2 0x2439 PUSH0 DUP4 ADD DUP5 PUSH2 0x2417 JUMP JUMPDEST SWAP3 SWAP2 POP POP JUMP JUMPDEST PUSH0 DUP1 PUSH1 0x40 DUP4 DUP6 SUB SLT ISZERO PUSH2 0x2455 JUMPI PUSH2 0x2454 PUSH2 0x206A JUMP JUMPDEST JUMPDEST PUSH0 PUSH2 0x2462 DUP6 DUP3 DUP7 ADD PUSH2 0x2167 JUMP JUMPDEST SWAP3 POP POP PUSH1 0x20 PUSH2 0x2473 DUP6 DUP3 DUP7 ADD PUSH2 0x2167 JUMP JUMPDEST SWAP2 POP POP SWAP3 POP SWAP3 SWAP1 POP JUMP JUMPDEST PUSH32 0x4E487B7100000000000000000000000000000000000000000000000000000000 PUSH0 MSTORE PUSH1 0x22 PUSH1 0x4 MSTORE PUSH1 0x24 PUSH0 REVERT JUMPDEST PUSH0 PUSH1 0x2 DUP3 DIV SWAP1 POP PUSH1 0x1 DUP3 AND DUP1 PUSH2 0x24C1 JUMPI PUSH1 0x7F DUP3 AND SWAP2 POP JUMPDEST PUSH1 0x20 DUP3 LT DUP2 SUB PUSH2 0x24D4 JUMPI PUSH2 0x24D3 PUSH2 0x247D JUMP JUMPDEST JUMPDEST POP SWAP2 SWAP1 POP JUMP JUMPDEST PUSH32 0x4163636F756E7420697320616C726561647920626C61636B6C69737465640000 PUSH0 DUP3 ADD MSTORE POP JUMP JUMPDEST PUSH0 PUSH2 0x250E PUSH1 0x1E DUP4 PUSH2 0x21E1 JUMP JUMPDEST SWAP2 POP PUSH2 0x2519 DUP3 PUSH2 0x24DA JUMP JUMPDEST PUSH1 0x20 DUP3 ADD SWAP1 POP SWAP2 SWAP1 POP JUMP JUMPDEST PUSH0 PUSH1 0x20 DUP3 ADD SWAP1 POP DUP2 DUP2 SUB PUSH0 DUP4 ADD MSTORE PUSH2 0x253B DUP2 PUSH2 0x2502 JUMP JUMPDEST SWAP1 POP SWAP2 SWAP1 POP JUMP JUMPDEST PUSH32 0x4163636F756E74206973206E6F7420626C61636B6C6973746564000000000000 PUSH0 DUP3 ADD MSTORE POP JUMP JUMPDEST PUSH0 PUSH2 0x2576 PUSH1 0x1A DUP4 PUSH2 0x21E1 JUMP JUMPDEST SWAP2 POP PUSH2 0x2581 DUP3 PUSH2 0x2542 JUMP JUMPDEST PUSH1 0x20 DUP3 ADD SWAP1 POP SWAP2 SWAP1 POP JUMP JUMPDEST PUSH0 PUSH1 0x20 DUP3 ADD SWAP1 POP DUP2 DUP2 SUB PUSH0 DUP4 ADD MSTORE PUSH2 0x25A3 DUP2 PUSH2 0x256A JUMP JUMPDEST SWAP1 POP SWAP2 SWAP1 POP JUMP JUMPDEST PUSH32 0x4163636F756E74206973206E6F742066726F7A656E0000000000000000000000 PUSH0 DUP3 ADD MSTORE POP JUMP JUMPDEST PUSH0 PUSH2 0x25DE PUSH1 0x15 DUP4 PUSH2 0x21E1 JUMP JUMPDEST SWAP2 POP PUSH2 0x25E9 DUP3 PUSH2 0x25AA JUMP JUMPDEST PUSH1 0x20 DUP3 ADD SWAP1 POP SWAP2 SWAP1 POP JUMP JUMPDEST PUSH0 PUSH1 0x20 DUP3 ADD SWAP1 POP DUP2 DUP2 SUB PUSH0 DUP4 ADD MSTORE PUSH2 0x260B DUP2 PUSH2 0x25D2 JUMP JUMPDEST SWAP1 POP SWAP2 SWAP1 POP JUMP JUMPDEST PUSH32 0x53656E646572206163636F756E742069732066726F7A656E0000000000000000 PUSH0 DUP3 ADD MSTORE POP JUMP JUMPDEST PUSH0 PUSH2 0x2646 PUSH1 0x18 DUP4 PUSH2 0x21E1 JUMP JUMPDEST SWAP2 POP PUSH2 0x2651 DUP3 PUSH2 0x2612 JUMP JUMPDEST PUSH1 0x20 DUP3 ADD SWAP1 POP SWAP2 SWAP1 POP JUMP JUMPDEST PUSH0 PUSH1 0x20 DUP3 ADD SWAP1 POP DUP2 DUP2 SUB PUSH0 DUP4 ADD MSTORE PUSH2 0x2673 DUP2 PUSH2 0x263A JUMP JUMPDEST SWAP1 POP SWAP2 SWAP1 POP JUMP JUMPDEST PUSH32 0x53656E646572206163636F756E7420697320626C61636B6C6973746564000000 PUSH0 DUP3 ADD MSTORE POP JUMP JUMPDEST PUSH0 PUSH2 0x26AE PUSH1 0x1D DUP4 PUSH2 0x21E1 JUMP JUMPDEST SWAP2 POP PUSH2 0x26B9 DUP3 PUSH2 0x267A JUMP JUMPDEST PUSH1 0x20 DUP3 ADD SWAP1 POP SWAP2 SWAP1 POP JUMP JUMPDEST PUSH0 PUSH1 0x20 DUP3 ADD SWAP1 POP DUP2 DUP2 SUB PUSH0 DUP4 ADD MSTORE PUSH2 0x26DB DUP2 PUSH2 0x26A2 JUMP JUMPDEST SWAP1 POP SWAP2 SWAP1 POP JUMP JUMPDEST PUSH32 0x526563697069656E74206163636F756E7420697320626C61636B6C6973746564 PUSH0 DUP3 ADD MSTORE POP JUMP JUMPDEST PUSH0 PUSH2 0x2716 PUSH1 0x20 DUP4 PUSH2 0x21E1 JUMP JUMPDEST SWAP2 POP PUSH2 0x2721 DUP3 PUSH2 0x26E2 JUMP JUMPDEST PUSH1 0x20 DUP3 ADD SWAP1 POP SWAP2 SWAP1 POP JUMP JUMPDEST PUSH0 PUSH1 0x20 DUP3 ADD SWAP1 POP DUP2 DUP2 SUB PUSH0 DUP4 ADD MSTORE PUSH2 0x2743 DUP2 PUSH2 0x270A JUMP JUMPDEST SWAP1 POP SWAP2 SWAP1 POP JUMP JUMPDEST PUSH32 0x4163636F756E7420697320616C72656164792066726F7A656E00000000000000 PUSH0 DUP3 ADD MSTORE POP JUMP JUMPDEST PUSH0 PUSH2 0x277E PUSH1 0x19 DUP4 PUSH2 0x21E1 JUMP JUMPDEST SWAP2 POP PUSH2 0x2789 DUP3 PUSH2 0x274A JUMP JUMPDEST PUSH1 0x20 DUP3 ADD SWAP1 POP SWAP2 SWAP1 POP JUMP JUMPDEST PUSH0 PUSH1 0x20 DUP3 ADD SWAP1 POP DUP2 DUP2 SUB PUSH0 DUP4 ADD MSTORE PUSH2 0x27AB DUP2 PUSH2 0x2772 JUMP JUMPDEST SWAP1 POP SWAP2 SWAP1 POP JUMP JUMPDEST PUSH0 PUSH1 0x60 DUP3 ADD SWAP1 POP PUSH2 0x27C5 PUSH0 DUP4 ADD DUP7 PUSH2 0x2417 JUMP JUMPDEST PUSH2 0x27D2 PUSH1 0x20 DUP4 ADD DUP6 PUSH2 0x22D8 JUMP JUMPDEST PUSH2 0x27DF PUSH1 0x40 DUP4 ADD DUP5 PUSH2 0x22D8 JUMP JUMPDEST SWAP5 SWAP4 POP POP POP POP JUMP JUMPDEST PUSH0 PUSH1 0x40 DUP3 ADD SWAP1 POP PUSH2 0x27FA PUSH0 DUP4 ADD DUP6 PUSH2 0x2417 JUMP JUMPDEST PUSH2 0x2807 PUSH1 0x20 DUP4 ADD DUP5 PUSH2 0x21AF JUMP JUMPDEST SWAP4 SWAP3 POP POP POP JUMP JUMPDEST PUSH32 0x4E487B7100000000000000000000000000000000000000000000000000000000 PUSH0 MSTORE PUSH1 0x11 PUSH1 0x4 MSTORE PUSH1 0x24 PUSH0 REVERT JUMPDEST PUSH0 PUSH2 0x2845 DUP3 PUSH2 0x2267 JUMP JUMPDEST SWAP2 POP PUSH2 0x2850 DUP4 PUSH2 0x2267 JUMP JUMPDEST SWAP3 POP DUP3 DUP3 ADD SWAP1 POP DUP1 DUP3 GT ISZERO PUSH2 0x2868 JUMPI PUSH2 0x2867 PUSH2 0x280E JUMP JUMPDEST JUMPDEST SWAP3 SWAP2 POP POP JUMP JUMPDEST PUSH0 PUSH2 0x2878 DUP3 PUSH2 0x2267 JUMP JUMPDEST SWAP2 POP PUSH2 0x2883 DUP4 PUSH2 0x2267 JUMP JUMPDEST SWAP3 POP DUP3 DUP3 SUB SWAP1 POP DUP2 DUP2 GT ISZERO PUSH2 0x289B JUMPI PUSH2 0x289A PUSH2 0x280E JUMP JUMPDEST JUMPDEST SWAP3 SWAP2 POP POP JUMP JUMPDEST PUSH32 0x4E487B7100000000000000000000000000000000000000000000000000000000 PUSH0 MSTORE PUSH1 0x32 PUSH1 0x4 MSTORE PUSH1 0x24 PUSH0 REVERT JUMPDEST PUSH32 0x4E487B7100000000000000000000000000000000000000000000000000000000 PUSH0 MSTORE PUSH1 0x31 PUSH1 0x4 MSTORE PUSH1 0x24 PUSH0 REVERT INVALID LOG2 PUSH5 0x6970667358 0x22 SLT KECCAK256 RETURN SHL MSTORE8 MULMOD 0xD1 PUSH10 0x3D5E37CE7E37B580BBCB JUMPI MLOAD 0x23 LT 0xB3 0xBA 0xF8 STATICCALL 0xC3 0x21 0xAA CALLVALUE MCOPY 0xCD PUSH6 0xAF64736F6C63 NUMBER STOP ADDMOD NOT STOP CALLER "
				},
				"gasEstimates": {
					"creation": {
						"codeDepositCost": "2109000",
						"executionCost": "infinite",
						"totalCost": "infinite"
					},
					"external": {
						"BLACKLIST_MANAGER_ROLE()": "414",
						"BURNER_ROLE()": "371",
						"DEFAULT_ADMIN_ROLE()": "485",
						"FREEZER_ROLE()": "416",
						"MINTER_ROLE()": "436",
						"RECOVER_ROLE()": "370",
						"addBlacklistManager(address)": "infinite",
						"addBurner(address)": "infinite",
						"addFreezer(address)": "infinite",
						"addMinter(address)": "infinite",
						"addRecoverer(address)": "infinite",
						"addToBlacklist(address)": "infinite",
						"allowance(address,address)": "infinite",
						"approve(address,uint256)": "infinite",
						"balanceOf(address)": "2875",
						"burn(address,uint256)": "infinite",
						"decimals()": "472",
						"freezeAccount(address)": "infinite",
						"getRoleAdmin(bytes32)": "infinite",
						"grantRole(bytes32,address)": "infinite",
						"hasRole(bytes32,address)": "3256",
						"isBlacklisted(address)": "infinite",
						"isFrozen(address)": "infinite",
						"mint(address,uint256)": "infinite",
						"name()": "infinite",
						"owner()": "2627",
						"recover(address,address,uint256)": "infinite",
						"removeBlacklistManager(address)": "infinite",
						"removeBurner(address)": "infinite",
						"removeFreezer(address)": "infinite",
						"removeFromBlacklist(address)": "infinite",
						"removeMinter(address)": "infinite",
						"removeRecoverer(address)": "infinite",
						"renounceOwnership()": "infinite",
						"renounceRole(bytes32,address)": "infinite",
						"revokeRole(bytes32,address)": "infinite",
						"supportsInterface(bytes4)": "764",
						"symbol()": "infinite",
						"totalSupply()": "2500",
						"transfer(address,uint256)": "infinite",
						"transferFrom(address,address,uint256)": "infinite",
						"transferOwnership(address)": "infinite",
						"unfreezeAccount(address)": "infinite"
					}
				},
				"methodIdentifiers": {
					"BLACKLIST_MANAGER_ROLE()": "410b2424",
					"BURNER_ROLE()": "282c51f3",
					"DEFAULT_ADMIN_ROLE()": "a217fddf",
					"FREEZER_ROLE()": "06a85f0f",
					"MINTER_ROLE()": "d5391393",
					"RECOVER_ROLE()": "939bcbc9",
					"addBlacklistManager(address)": "0eff2afc",
					"addBurner(address)": "f44637ba",
					"addFreezer(address)": "526606c9",
					"addMinter(address)": "983b2d56",
					"addRecoverer(address)": "c2134b23",
					"addToBlacklist(address)": "44337ea1",
					"allowance(address,address)": "dd62ed3e",
					"approve(address,uint256)": "095ea7b3",
					"balanceOf(address)": "70a08231",
					"burn(address,uint256)": "9dc29fac",
					"decimals()": "313ce567",
					"freezeAccount(address)": "f26c159f",
					"getRoleAdmin(bytes32)": "248a9ca3",
					"grantRole(bytes32,address)": "2f2ff15d",
					"hasRole(bytes32,address)": "91d14854",
					"isBlacklisted(address)": "fe575a87",
					"isFrozen(address)": "e5839836",
					"mint(address,uint256)": "40c10f19",
					"name()": "06fdde03",
					"owner()": "8da5cb5b",
					"recover(address,address,uint256)": "1ec82cb8",
					"removeBlacklistManager(address)": "974b368c",
					"removeBurner(address)": "02846858",
					"removeFreezer(address)": "2acd2000",
					"removeFromBlacklist(address)": "537df3b6",
					"removeMinter(address)": "3092afd5",
					"removeRecoverer(address)": "d1c2de0a",
					"renounceOwnership()": "715018a6",
					"renounceRole(bytes32,address)": "36568abe",
					"revokeRole(bytes32,address)": "d547741f",
					"supportsInterface(bytes4)": "01ffc9a7",
					"symbol()": "95d89b41",
					"totalSupply()": "18160ddd",
					"transfer(address,uint256)": "a9059cbb",
					"transferFrom(address,address,uint256)": "23b872dd",
					"transferOwnership(address)": "f2fde38b",
					"unfreezeAccount(address)": "788649ea"
				}
			},
			"storageLayout": {
				"storage": [
					{
						"astId": 686,
						"contract": "Permissions2.sol:ERC20PermissionsControl",
						"label": "_balances",
						"offset": 0,
						"slot": "0",
						"type": "t_mapping(t_address,t_uint256)"
					},
					{
						"astId": 692,
						"contract": "Permissions2.sol:ERC20PermissionsControl",
						"label": "_allowances",
						"offset": 0,
						"slot": "1",
						"type": "t_mapping(t_address,t_mapping(t_address,t_uint256))"
					},
					{
						"astId": 694,
						"contract": "Permissions2.sol:ERC20PermissionsControl",
						"label": "_totalSupply",
						"offset": 0,
						"slot": "2",
						"type": "t_uint256"
					},
					{
						"astId": 696,
						"contract": "Permissions2.sol:ERC20PermissionsControl",
						"label": "_name",
						"offset": 0,
						"slot": "3",
						"type": "t_string_storage"
					},
					{
						"astId": 698,
						"contract": "Permissions2.sol:ERC20PermissionsControl",
						"label": "_symbol",
						"offset": 0,
						"slot": "4",
						"type": "t_string_storage"
					},
					{
						"astId": 26,
						"contract": "Permissions2.sol:ERC20PermissionsControl",
						"label": "_roles",
						"offset": 0,
						"slot": "5",
						"type": "t_mapping(t_bytes32,t_struct(RoleData)21_storage)"
					},
					{
						"astId": 387,
						"contract": "Permissions2.sol:ERC20PermissionsControl",
						"label": "_owner",
						"offset": 0,
						"slot": "6",
						"type": "t_address"
					},
					{
						"astId": 2005,
						"contract": "Permissions2.sol:ERC20PermissionsControl",
						"label": "frozenAccounts",
						"offset": 0,
						"slot": "7",
						"type": "t_struct(AddressSet)1674_storage"
					},
					{
						"astId": 2008,
						"contract": "Permissions2.sol:ERC20PermissionsControl",
						"label": "blacklistedAccounts",
						"offset": 0,
						"slot": "9",
						"type": "t_struct(AddressSet)1674_storage"
					}
				],
				"types": {
					"t_address": {
						"encoding": "inplace",
						"label": "address",
						"numberOfBytes": "20"
					},
					"t_array(t_bytes32)dyn_storage": {
						"base": "t_bytes32",
						"encoding": "dynamic_array",
						"label": "bytes32[]",
						"numberOfBytes": "32"
					},
					"t_bool": {
						"encoding": "inplace",
						"label": "bool",
						"numberOfBytes": "1"
					},
					"t_bytes32": {
						"encoding": "inplace",
						"label": "bytes32",
						"numberOfBytes": "32"
					},
					"t_mapping(t_address,t_bool)": {
						"encoding": "mapping",
						"key": "t_address",
						"label": "mapping(address => bool)",
						"numberOfBytes": "32",
						"value": "t_bool"
					},
					"t_mapping(t_address,t_mapping(t_address,t_uint256))": {
						"encoding": "mapping",
						"key": "t_address",
						"label": "mapping(address => mapping(address => uint256))",
						"numberOfBytes": "32",
						"value": "t_mapping(t_address,t_uint256)"
					},
					"t_mapping(t_address,t_uint256)": {
						"encoding": "mapping",
						"key": "t_address",
						"label": "mapping(address => uint256)",
						"numberOfBytes": "32",
						"value": "t_uint256"
					},
					"t_mapping(t_bytes32,t_struct(RoleData)21_storage)": {
						"encoding": "mapping",
						"key": "t_bytes32",
						"label": "mapping(bytes32 => struct AccessControl.RoleData)",
						"numberOfBytes": "32",
						"value": "t_struct(RoleData)21_storage"
					},
					"t_mapping(t_bytes32,t_uint256)": {
						"encoding": "mapping",
						"key": "t_bytes32",
						"label": "mapping(bytes32 => uint256)",
						"numberOfBytes": "32",
						"value": "t_uint256"
					},
					"t_string_storage": {
						"encoding": "bytes",
						"label": "string",
						"numberOfBytes": "32"
					},
					"t_struct(AddressSet)1674_storage": {
						"encoding": "inplace",
						"label": "struct EnumerableSet.AddressSet",
						"members": [
							{
								"astId": 1673,
								"contract": "Permissions2.sol:ERC20PermissionsControl",
								"label": "_inner",
								"offset": 0,
								"slot": "0",
								"type": "t_struct(Set)1359_storage"
							}
						],
						"numberOfBytes": "64"
					},
					"t_struct(RoleData)21_storage": {
						"encoding": "inplace",
						"label": "struct AccessControl.RoleData",
						"members": [
							{
								"astId": 18,
								"contract": "Permissions2.sol:ERC20PermissionsControl",
								"label": "hasRole",
								"offset": 0,
								"slot": "0",
								"type": "t_mapping(t_address,t_bool)"
							},
							{
								"astId": 20,
								"contract": "Permissions2.sol:ERC20PermissionsControl",
								"label": "adminRole",
								"offset": 0,
								"slot": "1",
								"type": "t_bytes32"
							}
						],
						"numberOfBytes": "64"
					},
					"t_struct(Set)1359_storage": {
						"encoding": "inplace",
						"label": "struct EnumerableSet.Set",
						"members": [
							{
								"astId": 1354,
								"contract": "Permissions2.sol:ERC20PermissionsControl",
								"label": "_values",
								"offset": 0,
								"slot": "0",
								"type": "t_array(t_bytes32)dyn_storage"
							},
							{
								"astId": 1358,
								"contract": "Permissions2.sol:ERC20PermissionsControl",
								"label": "_positions",
								"offset": 0,
								"slot": "1",
								"type": "t_mapping(t_bytes32,t_uint256)"
							}
						],
						"numberOfBytes": "64"
					},
					"t_uint256": {
						"encoding": "inplace",
						"label": "uint256",
						"numberOfBytes": "32"
					}
				}
			},
			"userdoc": {
				"kind": "user",
				"methods": {},
				"version": 1
			}
		}
	}
}