{
  "_format": "hh-sol-artifact-1",
  "contractName": "Presale",
  "sourceName": "contracts/presale/Presale.sol",
  "abi": [
    {
      "inputs": [
        {
          "internalType": "address",
          "name": "_presaleManager",
          "type": "address"
        },
        {
          "internalType": "address",
          "name": "_tokenAddress",
          "type": "address"
        },
        {
          "internalType": "uint256",
          "name": "_launchPrice",
          "type": "uint256"
        },
        {
          "internalType": "uint256",
          "name": "_redemptionAmount",
          "type": "uint256"
        },
        {
          "internalType": "string",
          "name": "_subscriptionStartTime",
          "type": "string"
        },
        {
          "internalType": "string",
          "name": "_snapshotStartTime",
          "type": "string"
        },
        {
          "internalType": "string",
          "name": "_snapshotEndTime",
          "type": "string"
        },
        {
          "internalType": "string",
          "name": "_lotteryStartTime",
          "type": "string"
        },
        {
          "internalType": "string",
          "name": "_lotteryEndTime",
          "type": "string"
        },
        {
          "internalType": "string",
          "name": "_redemptionTime",
          "type": "string"
        }
      ],
      "stateMutability": "nonpayable",
      "type": "constructor"
    },
    {
      "inputs": [],
      "name": "claim",
      "outputs": [],
      "stateMutability": "nonpayable",
      "type": "function"
    },
    {
      "inputs": [],
      "name": "getTicketAmount",
      "outputs": [
        {
          "internalType": "uint256",
          "name": "",
          "type": "uint256"
        }
      ],
      "stateMutability": "view",
      "type": "function"
    },
    {
      "inputs": [
        {
          "internalType": "address[]",
          "name": "_winners",
          "type": "address[]"
        }
      ],
      "name": "getWinners",
      "outputs": [],
      "stateMutability": "nonpayable",
      "type": "function"
    },
    {
      "inputs": [],
      "name": "isSubscribed",
      "outputs": [
        {
          "internalType": "bool",
          "name": "",
          "type": "bool"
        }
      ],
      "stateMutability": "view",
      "type": "function"
    },
    {
      "inputs": [
        {
          "internalType": "uint256",
          "name": "_amount",
          "type": "uint256"
        }
      ],
      "name": "purchaseTicket",
      "outputs": [],
      "stateMutability": "payable",
      "type": "function"
    },
    {
      "inputs": [],
      "name": "refund",
      "outputs": [],
      "stateMutability": "nonpayable",
      "type": "function"
    },
    {
      "inputs": [],
      "name": "subscription",
      "outputs": [],
      "stateMutability": "nonpayable",
      "type": "function"
    },
    {
      "inputs": [
        {
          "internalType": "address",
          "name": "",
          "type": "address"
        }
      ],
      "name": "winners",
      "outputs": [
        {
          "internalType": "bool",
          "name": "",
          "type": "bool"
        }
      ],
      "stateMutability": "view",
      "type": "function"
    }
  ],
  "bytecode": "0x60806040523480156200001157600080fd5b506040516200192738038062001927833981810160405281019062000037919062000494565b6040518061012001604052808a73ffffffffffffffffffffffffffffffffffffffff168152602001898152602001888152602001878152602001868152602001858152602001848152602001838152602001828152506000808201518160000160006101000a81548173ffffffffffffffffffffffffffffffffffffffff021916908373ffffffffffffffffffffffffffffffffffffffff1602179055506020820151816001015560408201518160020155606082015181600301908162000100919062000885565b50608082015181600401908162000118919062000885565b5060a082015181600501908162000130919062000885565b5060c082015181600601908162000148919062000885565b5060e082015181600701908162000160919062000885565b5061010082015181600801908162000179919062000885565b5090505089600960006101000a81548173ffffffffffffffffffffffffffffffffffffffff021916908373ffffffffffffffffffffffffffffffffffffffff160217905550600960009054906101000a900473ffffffffffffffffffffffffffffffffffffffff1673ffffffffffffffffffffffffffffffffffffffff16637f59b0448a306040518363ffffffff1660e01b81526004016200021d9291906200097d565b600060405180830381600087803b1580156200023857600080fd5b505af11580156200024d573d6000803e3d6000fd5b5050505050505050505050505050620009aa565b6000604051905090565b600080fd5b600080fd5b600073ffffffffffffffffffffffffffffffffffffffff82169050919050565b6000620002a28262000275565b9050919050565b620002b48162000295565b8114620002c057600080fd5b50565b600081519050620002d481620002a9565b92915050565b6000819050919050565b620002ef81620002da565b8114620002fb57600080fd5b50565b6000815190506200030f81620002e4565b92915050565b600080fd5b600080fd5b6000601f19601f8301169050919050565b7f4e487b7100000000000000000000000000000000000000000000000000000000600052604160045260246000fd5b6200036a826200031f565b810181811067ffffffffffffffff821117156200038c576200038b62000330565b5b80604052505050565b6000620003a162000261565b9050620003af82826200035f565b919050565b600067ffffffffffffffff821115620003d257620003d162000330565b5b620003dd826200031f565b9050602081019050919050565b60005b838110156200040a578082015181840152602081019050620003ed565b60008484015250505050565b60006200042d6200042784620003b4565b62000395565b9050828152602081018484840111156200044c576200044b6200031a565b5b62000459848285620003ea565b509392505050565b600082601f83011262000479576200047862000315565b5b81516200048b84826020860162000416565b91505092915050565b6000806000806000806000806000806101408b8d031215620004bb57620004ba6200026b565b5b6000620004cb8d828e01620002c3565b9a50506020620004de8d828e01620002c3565b9950506040620004f18d828e01620002fe565b9850506060620005048d828e01620002fe565b97505060808b015167ffffffffffffffff81111562000528576200052762000270565b5b620005368d828e0162000461565b96505060a08b015167ffffffffffffffff8111156200055a576200055962000270565b5b620005688d828e0162000461565b95505060c08b015167ffffffffffffffff8111156200058c576200058b62000270565b5b6200059a8d828e0162000461565b94505060e08b015167ffffffffffffffff811115620005be57620005bd62000270565b5b620005cc8d828e0162000461565b9350506101008b015167ffffffffffffffff811115620005f157620005f062000270565b5b620005ff8d828e0162000461565b9250506101208b015167ffffffffffffffff81111562000624576200062362000270565b5b620006328d828e0162000461565b9150509295989b9194979a5092959850565b600081519050919050565b7f4e487b7100000000000000000000000000000000000000000000000000000000600052602260045260246000fd5b600060028204905060018216806200069757607f821691505b602082108103620006ad57620006ac6200064f565b5b50919050565b60008190508160005260206000209050919050565b60006020601f8301049050919050565b600082821b905092915050565b600060088302620007177fffffffffffffffffffffffffffffffffffffffffffffffffffffffffffffffff82620006d8565b620007238683620006d8565b95508019841693508086168417925050509392505050565b6000819050919050565b600062000766620007606200075a84620002da565b6200073b565b620002da565b9050919050565b6000819050919050565b620007828362000745565b6200079a62000791826200076d565b848454620006e5565b825550505050565b600090565b620007b1620007a2565b620007be81848462000777565b505050565b5b81811015620007e657620007da600082620007a7565b600181019050620007c4565b5050565b601f8211156200083557620007ff81620006b3565b6200080a84620006c8565b810160208510156200081a578190505b620008326200082985620006c8565b830182620007c3565b50505b505050565b600082821c905092915050565b60006200085a600019846008026200083a565b1980831691505092915050565b600062000875838362000847565b9150826002028217905092915050565b620008908262000644565b67ffffffffffffffff811115620008ac57620008ab62000330565b5b620008b882546200067e565b620008c5828285620007ea565b600060209050601f831160018114620008fd5760008415620008e8578287015190505b620008f4858262000867565b86555062000964565b601f1984166200090d86620006b3565b60005b82811015620009375784890151825560018201915060208501945060208101905062000910565b8683101562000957578489015162000953601f89168262000847565b8355505b6001600288020188555050505b505050505050565b620009778162000295565b82525050565b60006040820190506200099460008301856200096c565b620009a360208301846200096c565b9392505050565b610f6d80620009ba6000396000f3fe60806040526004361061007b5760003560e01c80636bd5450a1161004e5780636bd5450a146100ee5780636cf699581461012b5780638a28155414610156578063b948348c146101815761007b565b806340771c731461008057806344387cc2146100a95780634e71d92d146100c0578063590e1ae3146100d7575b600080fd5b34801561008c57600080fd5b506100a760048036038101906100a29190610952565b61019d565b005b3480156100b557600080fd5b506100be61023c565b005b3480156100cc57600080fd5b506100d5610386565b005b3480156100e357600080fd5b506100ec610585565b005b3480156100fa57600080fd5b50610115600480360381019061011091906109fd565b610771565b6040516101229190610a45565b60405180910390f35b34801561013757600080fd5b50610140610791565b60405161014d9190610a79565b60405180910390f35b34801561016257600080fd5b5061016b6107d8565b6040516101789190610a45565b60405180910390f35b61019b60048036038101906101969190610ac0565b61082c565b005b60005b82829050811015610237576001600d60008585858181106101c4576101c3610aed565b5b90506020020160208101906101d991906109fd565b73ffffffffffffffffffffffffffffffffffffffff1673ffffffffffffffffffffffffffffffffffffffff16815260200190815260200160002060006101000a81548160ff02191690831515021790555080806001019150506101a0565b505050565b600e60003373ffffffffffffffffffffffffffffffffffffffff1673ffffffffffffffffffffffffffffffffffffffff16815260200190815260200160002060009054906101000a900460ff16156102c9576040517f08c379a00000000000000000000000000000000000000000000000000000000081526004016102c090610b79565b60405180910390fd5b6001600e60003373ffffffffffffffffffffffffffffffffffffffff1673ffffffffffffffffffffffffffffffffffffffff16815260200190815260200160002060006101000a81548160ff021916908315150217905550600f339080600181540180825580915050600190039060005260206000200160009091909190916101000a81548173ffffffffffffffffffffffffffffffffffffffff021916908373ffffffffffffffffffffffffffffffffffffffff160217905550565b600d60003373ffffffffffffffffffffffffffffffffffffffff1673ffffffffffffffffffffffffffffffffffffffff16815260200190815260200160002060009054906101000a900460ff16610412576040517f08c379a000000000000000000000000000000000000000000000000000000000815260040161040990610be5565b60405180910390fd5b60008060000160009054906101000a900473ffffffffffffffffffffffffffffffffffffffff16905060008173ffffffffffffffffffffffffffffffffffffffff1663a9059cbb33600c60003373ffffffffffffffffffffffffffffffffffffffff1673ffffffffffffffffffffffffffffffffffffffff168152602001908152602001600020546040518363ffffffff1660e01b81526004016104b7929190610c14565b6020604051808303816000875af11580156104d6573d6000803e3d6000fd5b505050506040513d601f19601f820116820180604052508101906104fa9190610c69565b90508061053c576040517f08c379a000000000000000000000000000000000000000000000000000000000815260040161053390610d08565b60405180910390fd5b6000600c60003373ffffffffffffffffffffffffffffffffffffffff1673ffffffffffffffffffffffffffffffffffffffff168152602001908152602001600020819055505050565b600d60003373ffffffffffffffffffffffffffffffffffffffff1673ffffffffffffffffffffffffffffffffffffffff16815260200190815260200160002060009054906101000a900460ff1615610612576040517f08c379a000000000000000000000000000000000000000000000000000000000815260040161060990610d74565b60405180910390fd5b6000600c60003373ffffffffffffffffffffffffffffffffffffffff1673ffffffffffffffffffffffffffffffffffffffff1681526020019081526020016000205414610694576040517f08c379a000000000000000000000000000000000000000000000000000000000815260040161068b90610e06565b60405180910390fd5b3373ffffffffffffffffffffffffffffffffffffffff166108fc600060020154600c60003373ffffffffffffffffffffffffffffffffffffffff1673ffffffffffffffffffffffffffffffffffffffff168152602001908152602001600020546106fe9190610e55565b9081150290604051600060405180830381858888f19350505050158015610729573d6000803e3d6000fd5b506000600c60003373ffffffffffffffffffffffffffffffffffffffff1673ffffffffffffffffffffffffffffffffffffffff16815260200190815260200160002081905550565b600d6020528060005260406000206000915054906101000a900460ff1681565b6000600c60003373ffffffffffffffffffffffffffffffffffffffff1673ffffffffffffffffffffffffffffffffffffffff16815260200190815260200160002054905090565b6000600e60003373ffffffffffffffffffffffffffffffffffffffff1673ffffffffffffffffffffffffffffffffffffffff16815260200190815260200160002060009054906101000a900460ff16905090565b8060006002015461083d9190610e55565b81346108499190610e55565b101561088a576040517f08c379a000000000000000000000000000000000000000000000000000000000815260040161088190610ee3565b60405180910390fd5b80600c60003373ffffffffffffffffffffffffffffffffffffffff1673ffffffffffffffffffffffffffffffffffffffff16815260200190815260200160002060008282546108d99190610f03565b9250508190555050565b600080fd5b600080fd5b600080fd5b600080fd5b600080fd5b60008083601f840112610912576109116108ed565b5b8235905067ffffffffffffffff81111561092f5761092e6108f2565b5b60208301915083602082028301111561094b5761094a6108f7565b5b9250929050565b60008060208385031215610969576109686108e3565b5b600083013567ffffffffffffffff811115610987576109866108e8565b5b610993858286016108fc565b92509250509250929050565b600073ffffffffffffffffffffffffffffffffffffffff82169050919050565b60006109ca8261099f565b9050919050565b6109da816109bf565b81146109e557600080fd5b50565b6000813590506109f7816109d1565b92915050565b600060208284031215610a1357610a126108e3565b5b6000610a21848285016109e8565b91505092915050565b60008115159050919050565b610a3f81610a2a565b82525050565b6000602082019050610a5a6000830184610a36565b92915050565b6000819050919050565b610a7381610a60565b82525050565b6000602082019050610a8e6000830184610a6a565b92915050565b610a9d81610a60565b8114610aa857600080fd5b50565b600081359050610aba81610a94565b92915050565b600060208284031215610ad657610ad56108e3565b5b6000610ae484828501610aab565b91505092915050565b7f4e487b7100000000000000000000000000000000000000000000000000000000600052603260045260246000fd5b600082825260208201905092915050565b7fec9db4ebafb820eab5aceb8f8520eca491ec9e85eb8b88eb8ba42e0000000000600082015250565b6000610b63601b83610b1c565b9150610b6e82610b2d565b602082019050919050565b60006020820190508181036000830152610b9281610b56565b9050919050565b7feb8bb9ecb2a8eb9098eca78020ec958aec9598ec8ab5eb8b88eb8ba42e000000600082015250565b6000610bcf601d83610b1c565b9150610bda82610b99565b602082019050919050565b60006020820190508181036000830152610bfe81610bc2565b9050919050565b610c0e816109bf565b82525050565b6000604082019050610c296000830185610c05565b610c366020830184610a6a565b9392505050565b610c4681610a2a565b8114610c5157600080fd5b50565b600081519050610c6381610c3d565b92915050565b600060208284031215610c7f57610c7e6108e3565b5b6000610c8d84828501610c54565b91505092915050565b7fed86a0ed81b020eca084ec86a1ec9db420ec8ba4ed8ca8ed9688ec8ab5eb8b8860008201527feb8ba42e00000000000000000000000000000000000000000000000000000000602082015250565b6000610cf2602483610b1c565b9150610cfd82610c96565b604082019050919050565b60006020820190508181036000830152610d2181610ce5565b9050919050565b7fed9998ebb688ebb09bec9d8420ec889820ec9786ec8ab5eb8b88eb8ba42e0000600082015250565b6000610d5e601e83610b1c565b9150610d6982610d28565b602082019050919050565b60006020820190508181036000830152610d8d81610d51565b9050919050565b7feab5aceba7a4ed959c20ed8bb0ecbc93ec9db420ec9786ec8ab5eb8b88eb8ba460008201527f2e00000000000000000000000000000000000000000000000000000000000000602082015250565b6000610df0602183610b1c565b9150610dfb82610d94565b604082019050919050565b60006020820190508181036000830152610e1f81610de3565b9050919050565b7f4e487b7100000000000000000000000000000000000000000000000000000000600052601160045260246000fd5b6000610e6082610a60565b9150610e6b83610a60565b9250828202610e7981610a60565b91508282048414831517610e9057610e8f610e26565b5b5092915050565b7feab888ec95a1ec9db420ebb680eca1b1ed95a9eb8b88eb8ba42e000000000000600082015250565b6000610ecd601a83610b1c565b9150610ed882610e97565b602082019050919050565b60006020820190508181036000830152610efc81610ec0565b9050919050565b6000610f0e82610a60565b9150610f1983610a60565b9250828201905080821115610f3157610f30610e26565b5b9291505056fea26469706673582212205adeb0a8820be2369e9027e4c6a2a8cc645e243207c14ff6e8e634a63a5a8ad864736f6c63430008180033",
  "linkReferences": {},
  "deployedLinkReferences": {}
}